:020000040000FA
:04003B00020030008F
:0D300000C0E0439A80E59A20E0FBD0E0326A
:10602000028CA5E4FFFE12007362600C0FEF70019A
:106030000E09E970F10A80EE226B65795F74617375
:106040006B00220202462549444C45009000AA48B4
:10605000E0FF220202257A0000000000000000009C
:10606000000000020269B9438F022202025DD202DF
:10607000013376020263DE43942D00000042942B2C
:1060800000004293F400004493F7000000004193A5
:10609000F6004194690041946800419430004194B5
:1060A000340041921300420001000041AA4A00411D
:1060B000AA480041AA490041AA4B0041AA47004210
:1060C000AAA2000141AAA11941AAA0014156F400C7
:1060D0004156E4004156E1004256E2000041548737
:1060E00000E12C01D02600000000000000000000AC
:1060F00000000000000000000000000000000000A0
:10610000000000000000000000000000000000008F
:10611000000000000000000000000000000000007F
:10612000000000000000000000000000000000006F
:10613000000000000000000000000000000000005F
:10614000000000000000000000000000000000004F
:10615000000000000000000000000000000000003F
:10616000000000000000000000000000000000002F
:10617000000000000000000000000000000000001F
:10618000000000000000000000000000000000000F
:1061900000000000000000000000000000000000FF
:1061A00000000000000000000000000000000000EF
:1061B00000000000000000000000000000000000DF
:1061C00000000000000000000000000000000000CF
:1061D00000000000000000000000000000000000BF
:1061E00000000000000000000000000000000000AF
:1061F000000000000000000000000000000000009F
:10620000000000000000000000000000000000008E
:10621000000041A7340041A7430041A73B0041A72C
:106220003E0042A73C000042A735000044A73700CB
:1062300000000544A73F00000000419E6000419E11
:106240003E00419E4200429E5B0000E00101CB11F6
:1062500000E00101CADC00419CF400C13F429CFF08
:106260000001E00101C8BB00419E4000419E4B007F
:10627000419E34FF419E3DFF419E47FF419E4CFFA2
:10628000419E5FFF419E63FF4CA8751F1C1F1E1F90
:106290001E1F1F1E1F1E1F42A407005042A40905F7
:1062A000DC6028A40B213C0030300001000000001D
:1062B00000F20510E01D198700FFFFFFFF1003002B
:1062C000A8C000FFFFFF04FFFFFFFFFFFF41A2EA9E
:1062D0000041A2ED0041A3770042A2EB000042A3DF
:1062E00074000041A3760043A2F100000043A2EE37
:1062F00000000041A2E90041A71F004AA7200000BA
:1063000000000000000000004AA72A000000000072
:106310000000000000418AB30041AB8D0042AB2277
:10632000000042A8B7000042A8B2000041A8B9008E
:106330004196AC0041948C004196AD0041947300AD
:106340004196AB0041950500438C21018C26438B7F
:106350000E018C26438AFF018C2646A55B00123471
:1063600056789A48A3FF415349585849534142A38C
:10637000C700466036A3C9000100080010001800DD
:1063800030006000C1018203040002001000200000
:1063900030006000C10181030406070004002000F2
:1063A00040006000C10182030406070C0E41A100F9
:1063B0000042A1B604D241A0FF0141A1B80041565C
:1063C000DC004256AC00004156AE004456DD0000F1
:1063D00000004656D600000000000041A071004BAE
:1063E000A0B74D5352415653352E3130004DA0C603
:1063F0004D535241562D302D41534958006021A034
:1064000096757365726E616D650000000000000096
:10641000000000000000000000000000000000007C
:1064200000006021A02A70617373776F72640000AE
:10643000000000000000000000000000000000005C
:106440000000000000000041A0850041A9160142A3
:10645000A912000041A90F00C13AC13941A90D009C
:1064600041A90E0042AB6D6000E5DC01C0FA0000FE
:10647000000000000000000000000000000000001C
:10648000000000000000000000000000000000000C
:1064900000000000000000000000000000000000FC
:1064A00000000000000000000000000000000000EC
:106A4000000000000000000000004CA4791F1C1F83
:106A50001E1F1E1F1F1E1F1E1F4CA48D1F1D1F1E2D
:106A60001F1E1F1F1E1F1E1F41A49C00419F4F0081
:106A7000C1C0519F50323031322D30392D31392043
:106A800031373A313600419F4D00419F4E00429EC2
:106A9000760000014800014900E00101CD0E00E050
:106AA0000101CD9D00E00101CD0F00E00101CB13FC
:106AB00000E00101CB1200E02401CD7900000000CC
:106AC00000000000000000000000000000000000C6
:106AD00000000000000000000000000000000000B6
:106AE000E00101CB1400E00101CB1500439E7800CA
:106AF0000000419E7C00C137C138C136419E7B00F9
:106B0000499E6A818B3E818B46818B4D60C39E8AF4
:106B10004D6F64627573204944204164647200546F
:106B2000656D7065726174757265202020004D6F0F
:106B30006465202020202020202020200053657420
:106B400020506F696E74202020202000436F6F6CEE
:106B50002053657420506F696E740048656174201D
:106B600053657420506F696E74004F63637570696C
:106B70006564202020202020004F757470757420DB
:106B800053746174757320004E696768742048659A
:106B9000617420444220004E6967687420436F6F1F
:106BA0006C20444220004E69676874204865617417
:106BB00020535020004E6967687420436F6F6C202B
:106BC000535020004F7665722052696465205469E5
:106BD0006D6500419E7D00419E6600419E670041BB
:106BE0009E6800419E690041A7E40041AA2E00442E
:106BF000AA2A0000000008080000000000000000B1
:106C00000810000000000000000048A5FA00000085
:106C1000000000000048A602000000000000000084
:106C200048A5D6000000000000000048A5DE0000D6
:106C300000000000000001180001190041A5C0007B
:106C400041A5C100017E0A42A229000043A23400EE
:106C5000000043A20200000043A20500000001233F
:106C600000C12AC12C01210001220001200041A104
:106C7000C100419843004198D50050972D00000075
:106C80000000000000000000000000000050971C01
:106C900000000000000000000000000000000000F4
:106CA0005096EA000F000000000000000000000005
:106CB00000000050970C00000000000000000000E1
:106CC0000000000000005096FA00000000000000E4
:106CD00000000000000000000041985F0041970A9A
:106CE000004196E100606C98600007000700070013
:106CF000B8006D00B8017C02B7020A0088027F006C
:106D0000880087027E0087006500790065006B00BF
:106D100066006B006C00D1006C007B0160007B00A2
:106D20007C0161007C00B6016200B600B70163001F
:106D3000B700060006000600D3006F00D300000075
:106D4000000000000100010001000200020002003A
:106D5000030003000341972C004296AE000000ECB4
:106D60004D6011E8497018ED33EC3304600DE4FC1C
:106D7000FFFEFD22E933E8330470F802006FBF1212
:106D8000006F8A58046009E4CC2481500728500B16
:106D900002006FC928400402006FC6C0E0EB4A70D1
:106DA00046B98007D0E0FB02006FB5EF4E701DBD05
:106DB0008008EBFFEAFEE9FD80EAE98DF0A4FEE53C
:106DC000F002006E4EE9CDF9EAFEEBFFEF89F0A488
:106DD000FCE5F0CE89F0A42EFFE435F0CD89F0A4D7
:106DE0002DFEE435F08067EF4E7005BD80D780C280
:106DF000EF8BF0A4ACF0EE8BF0A42CFCE435F0F8B3
:106E0000EF8AF0A42CE5F038FCE433CB8DF0A42C11
:106E1000FCE5F03BF8EE8AF0A42CFCE5F038F8E451
:106E200033CF89F0A42CFCE5F038CF3400CE89F0C4
:106E3000A42FFFE5F03EFEE433C98DF0A42EFEE55D
:106E4000F039CD8AF0A42FFFE5F03EFEE43DFD339E
:106E5000D0E0FB50080BBB001002006FC9EC2CFC0B
:106E6000EF33FFEE33FEED33FD02006FA102006F42
:106E7000C9EC5D046005E85904700402006FBF129C
:106E8000006F8A580460F4EC4860F0EC7004FDFE7A
:106E9000FF22C860D82481C8500AC39860025007F6
:106EA00002006FC69850C6F582E9294B4A7006ABBE
:106EB0008202006FB575F0007C1A7880C3EF9BEEFC
:106EC0009AED99400DC3EF9BFFEE9AFEED99FDE818
:106ED00042F0DC24ACF0D0E0FFD0E0FED0E0FDAB2F
:106EE0008220E7101BEB60B8EC2CFCEF33FFEE3395
:106EF000FEED33FD02006FA1E803F830E705C0F0B6
:106F000075F000EF2FFFEE33FEED33FD40B730E7B5
:106F1000C180A975F020800E75F010800575F0080D
:106F20007D007E007F003392D530D5041200761CA0
:106F3000EC334010EF33FFEE33FEED33FDEC33FC6A
:106F4000D5F0ED22E5F0247EA2D513CC92E7CDCE8C
:106F5000FF22EDD2E7CD33EC3392D524814006E415
:106F6000FFFEFDFC22FCE4CFCECDCC24E05011741A
:106F7000FF80EDC3CC13CCCD13CDCE13CECF13CF2A
:106F80000470F030D5DE0200761CE9D2E7C933E8A0
:106F900033F892D5EDD2E7CD33EC33FC5002B2D5C5
:106FA00022EC30E7100FBF000C0EBE00080DBD0034
:106FB000040BEB6014A2D5EB13FCED92E7FD2274F9
:106FC000FFFCFDFEFF22E480F8A2D574FF13FC7DD8
:106FD00080E480EFF920E73624F950037907E4F4E0
:106FE0002402FBE582158270021583DBF6E024FBA8
:106FF000501BE96014E4F0E582158270021583E00D
:1070000004F0B40A08E4F0D9EE7401F00A22C2D503
:1070100022ED33EC3392D5FA602AB4FF33EDC2E7A8
:107020007B8160067A707936E4227A70793F20D5C8
:10703000047A70793A224E614E002B494E46002D5B
:10704000494E4600E47A08F0A3DAFC7B007407227C
:10705000C093C083C082ECC0E0EDC0E0EEC0E0EFC2
:10706000C0E0EA75F010A4CAABF075F04DA42BFB9C
:10707000E435F0FCEA2410FAEB34C5FBEC34D9FC1F
:10708000EDC2E7FF75F056A4F42411C5F0F434C541
:107090008FF0A42AE5F03BE43CF020E716120072E2
:1070A0004ED0E0FFD0E0FED0E0FDD0E0FC12006E5C
:1070B000718016F4041200724ED0E0FFD0E0FED0D2
:1070C000E0FDD0E0FC12006D5FD082D083D093E071
:1070D000FAEDD2E7CD33EC332482FBE4C3CF33CFD8
:1070E000CE33CECD33CD33DBF37B0775F00A84602E
:1070F00004F0A31B0AE5F0F0A38FF0740AA4FFAC20
:10710000F08EF0740AA42CFEACF050010C8DF074DB
:107110000AA42CFDE435F0F0A3DBDE7407220200A4
:107120006FBFE86480F8E933E83360110460EFED85
:1071300033EC337009E8FCE9FDEAFEEBFF22046062
:10714000DDD3EB9FEA9EE99DE8C2E78CF0C2F7959C
:10715000F0400CE8CCF8E9CDF9EACEFAEBCFFB121F
:10716000006F8A85D0F05804700320D5B1E8047010
:10717000085002B2D502006FC992D5EC0460F6E463
:10718000CCC0E0C398F8603C94186009400ED0E091
:10719000FB02006FA1E4FBFAC9FC8028E830E4069A
:1071A000E4C9FBE4CAFCE830E305E4C9CACBFCE867
:1071B00054076010F8C3E913F9EA13FAEB13FBEC78
:1071C00013FCD8F130F531C3E49CFCEF9BFFEE9A41
:1071D000FEED99FDD0E0FBEF4E4D4C701322DB0429
:1071E00002006FC6EC2CFCEF33FFEE33FEED33FDF7
:1071F000ED30E7EA02006FA1EF2BFFEE3AFEED392A
:10720000FDD0E0FB50140BBB000402006FC9ED136E
:10721000FDEE13FEEF13FFEC13FC02006FA13F80A5
:1072200000004120000042C80000447A0000461CD3
:10723000400047C35000497424004B1896804CBE50
:10724000BC205A0E1BCA6753C21C749DC5AEFB609E
:107250000654076020232312007281EB5438600C1F
:107260001200726C1200727C12006D5FECF8EDF986
:10727000EEFAEFCB22EB1200727C80F0543803243C
:107280001C9000721EFE93FC0EEE93FD0EEE930E0C
:10729000CE93FF22EB7008E709F608DFFA801B891E
:1072A000828A831410E70AF593E0A3F608DFFA80D8
:1072B00009F593E493A3F608DFF9ECFAA9F0EDFBE6
:1072C0002288F0EF60010E4E60F088F0ED60C5148A
:1072D00010E7E7CB700E88828C838B93E709F0A3CD
:1072E000DFFA80D61410E72A89828A83F593ECFAB4
:1072F000E0A3C8C582C8CCC583CCCBC593CBF0A3D3
:10730000C8C582C8CCC583CCCBC593CBDFE2DEE059
:1073100080AA89828A83F593ECFAE493A3C8C58294
:10732000C8CCC583CCCBC593CBF0A3C8C582C8CC91
:10733000C583CCCBC593CBDFE1DEDF020072BCC2DC
:10734000D530F707B2D563F0FF05F030E70DB2D5C1
:10735000F404008463F0FF05F080018430D502F46A
:107360000422EB7002E72289828A831410E704F575
:1073700093E022F593E49322F8EB7006E7C828F334
:10738000E82289828A831410E708F593E0C828F080
:10739000E822F593E49322BB000327F722F8EB8958
:1073A000828A831410E706F593E028F022F593E42F
:1073B000932822BB0002F722BB8000500989828AF1
:1073C000838B931593F022EF8DF0A4A8F0CF8CF06F
:1073D000A428CE8DF0A42EFE22BC000BBE0029EF07
:1073E0008DF084FFADF022E4CCF875F008EF2FFFAC
:1073F000EE33FEEC33FCEE9DEC984005FCEE9DFE7A
:107400000FD5F0E9E4CEFD22EDF8F5F0EE00842092
:10741000D21CFEADF075F008EF2FFFED33FD4007F5
:10742000985006D5F0F222C398FD0FD5F0EA22C29B
:10743000D5EC30E709B2D5E4C39DFDE49CFCEE3009
:10744000E716B2D5E4C39FFFE49EFE120073D9C3D2
:10745000E49DFDE49CFC8004120073D930D507C381
:10746000E49FFFE49EFE22C5F0F8A3E028F0C5F0FB
:10747000F8E582158270021583E038F022A3F8E067
:10748000C5F025F0F0E582158270021583E0C8385A
:10749000F0E822EB7007E7F5F009E7192289828A04
:1074A000831410E708F593E0F5F0A3E022F593E4E8
:1074B00093F5F074019322BB000B09C5F027F7C5C3
:1074C000F01937F722F8EB89828A831410E707F561
:1074D00093E802007467F59374019325F0F5F0E4E6
:1074E000933822BB0006F709A7F01922BB80005091
:1074F0000D89828A838B931593F0E5F0A3F022E83F
:107500008FF0A4CC8BF0A42CFCE98EF0A42CFC8A88
:10751000F0EDA42CFCEA8EF0A4CDA8F08BF0A42D05
:10752000CC3825F0FDE98FF0A42CCD35F0FCEB8EA6
:10753000F0A4FEA9F0EB8FF0A4CFC5F02ECD39FE5C
:10754000E43CFCEAA42DCE35F0FDE43CFC2275F0D1
:1075500008758200EF2FFFEE33FECD33CDCC33CC58
:10756000C58233C5829BED9AEC99E58298400CF573
:1075700082EE9BFEED9AFDEC99FC0FD5F0D6E4CEA1
:10758000FBE4CDFAE4CCF9A88222B800C1B90059D5
:10759000BA002DEC8BF084CFCECDFCE5F0CBF978A2
:1075A00018EF2FFFEE33FEED33FDEC33FCEB33FB36
:1075B00010D703994004EB99FB0FD8E5E4F9FA22C0
:1075C0007818EF2FFFEE33FEED33FDEC33FCC933BB
:1075D000C910D7059BE99A4007EC9BFCE99AF90F83
:1075E000D8E0E4C9FAE4CCFB2275F010EF2FFFEEEF
:1075F00033FEED33FDCC33CCC833C810D7079BEC3A
:107600009AE899400AED9BFDEC9AFCE899F80FD5B1
:10761000F0DAE4CDFBE4CCFAE4C8F922C3E49FFF3E
:10762000E49EFEE49DFDE49CFC22EB9FF5F0EA9EC7
:1076300042F0E99D42F0EC6480C864809845F022F5
:10764000EB9FF5F0EA9E42F0E99D42F0E89C45F0A0
:1076500022E8600FECC313FCED13FDEE13FEEF13F5
:10766000FFD8F122E8600FEFC333FFEE33FEED33B6
:10767000FDEC33FCD8F122EB7006E9F80200792525
:1076800089828A831410E706F59302007931F59315
:107690000200793DBB0006E9F80200794DBB80008D
:1076A000500C89828A838B931593020076E42274AE
:1076B00001FF3395E0FEFDFCA3A3A3E0CF2FF0E58F
:1076C00082158270021583E0CE3EF0E5821582704D
:1076D000021583E0CD3DF0E582158270021583E04E
:1076E000CC3CF022ECF0A3EDF0A3EEF0A3EFF022FF
:1076F000A42582F582E5F03583F58322F8E0FBA32B
:10770000A3E0F925F0F0E582158270021583E0FA16
:1077100038F022EBF0A3EAF0A3E9F022EB7006E9DF
:10772000F80200795989828A831410E706F59302DA
:1077300000796BF59302007974BB001CD093D0F0F4
:10774000D0E0F8D0E0C9FBD0E0FAD0E0CBC8C0E090
:10775000C0F0C09302007962BB80005022D093D069
:10776000F0D0E0F8D0E0C9F582D0E0CAF583D0E0EF
:10777000CB14C8C0E0C0F0C093889302007713D048
:1077800093D083D082D0E0D0E0D0E0E473D093D027
:1077900083D082F8E4937012740193700DA3A393C5
:1077A000F8740193F5828883E4737402936860EF40
:1077B000A3A3A380DFD093D083D082E4937012740C
:1077C0000193700DA3A393F8740193F5828883E469
:1077D000737402936C70127403936D700C74049341
:1077E0006E70067405936F60DDA3A3A3A3A3A380AB
:1077F000CA8B938A838982159353937FE47375931D
:1078000000E53E2582F582E53D3583F583B53D04EF
:1078100085823E2210AF0685823EF53D2285823E5E
:10782000F53DD2AF22759300E53E2582F582E53D18
:107830003583F58322EC8EF0A4CCC5F0CCCDF8EFE7
:10784000A4CEC5F02DFDE43CFCE8A42EC8C5F03D57
:10785000FDE43CFCEFA4FFE5F028FEE43DFDE43C44
:10786000FC22EB7008E709F60870FA801B89828A0F
:10787000831410E70AF593E0A3F60870FA8009F57F
:1078800093E493A3F60870F9ECFAA9F0EDFB2288D3
:10789000F0ED60CE1410E7F0CB700E88828C83F58B
:1078A00093E709F0A370FA80DF1410E72889828A31
:1078B00083F593ECFAE0A3C8C582C8CCC583CCCBD2
:1078C000C593CBF0A3C8C582C8CCC583CCCBC59328
:1078D000CB70E280B589828A83F593ECFAE493A3B6
:1078E000C8C582C8CCC583CCCBC593CBF0A3C8C5D3
:1078F00082C8CCC583CCCBC593CB70E1808CEF4ED6
:107900006022EF60010EEDBB0007F709DFFCA9F074
:1079100022BB8000500E89828A838B931593F0A33B
:10792000DFFCDEFA22E6FC08E6FD08E6FE08E6FFDC
:1079300022E0FCA3E0FDA3E0FEA3E0FF22E493FC31
:10794000740193FD740293FE740393FF22ECF60816
:10795000EDF608EEF608EFF622E6FB08E6FA08E692
:10796000F922EBF608EAF608E9F622E0FBA3E0FAD2
:10797000A3E0F922E493FB740193FA740293F922D1
:107980002020200030313233343536373839FFFF8C
:10799000FFFFFFFFFFFFFFFFFFFFFFFFFFFFFFFFF7
:1079A000FF03FFFFFFFFFFFFFFF3FFFFFFFFFFEFFF
:1079B000F3EFF3FFFFFFFFFFFFFFFFFFFFFFFFEF0F
:1079C00003EF03EFFFFFFFFBE0FBE0FBFFFFFFCF59
:1079D000B70377CFFFFFFFF9F7E0F7F8FFFFFFE707
:1079E000DB27CFF3FFFFFFF3FCF9F6F9FFFFFF679B
:1079F0009B67FF7FFFFFFFF8F7F6F9F6FFFFFFFF3A
:107A0000EBF3FFFFFFFFFFFFFFFFFFFFFFFFFFFFA6
:107A10001FE7FBFFFFFFFFFFFCF3EFFFFFFFFFFF91
:107A2000FBE71FFFFFFFFFFFEFF3FCFFFFFFFF9FE1
:107A30007F0F7F9FFFFFFFFCFFF8FFFCFFFFFF7F33
:107A40007F0F7F7FFFFFFFFFFFF8FFFFFFFFFFFFBD
:107A5000FFFFFFFFFFFFFFFFEBF3FFFFFFFFFF7FD6
:107A60007F7F7FFFFFFFFFFFFFFFFFFFFFFFFFFFA6
:107A7000FFFFFFFFFFFFFFFFF3F3FFFFFFFFFFFF2E
:107A8000FF3FCFF3FFFFFFE7F9FEFFFFFFFFFF0F11
:107A9000F7F70FFFFFFFFFF8F7F7F8FFFFFFFFFF14
:107AA000EF07FFFFFFFFFFFFFFF0FFFFFFFFFFCF2D
:107AB000F7778FFFFFFFFFF3F4F7F7FFFFFFFFCF2D
:107AC00077778FFFFFFFFFF9F7F7F8FFFFFFFFFF63
:107AD0003FCF07FFFFFFFFFCFDFDF0FDFFFFFF07AE
:107AE000B7B777FFFFFFFFF9F7F7F8FFFFFFFF0FCB
:107AF0007777CFFFFFFFFFF8F7F7F8FFFFFFFFF7FC
:107B0000F737C7FFFFFFFFFFF1FEFFFFFFFFFF8F0C
:107B100077778FFFFFFFFFF8F7F7F8FFFFFFFF8F83
:107B200077770FFFFFFFFFF9F7F7F8FFFFFFFFFF82
:107B30009F9FFFFFFFFFFFFFF3F3FFFFFFFFFFFF2D
:107B40009F9FFFFFFFFFFFFFEBF3FFFFFFFFFF7FA5
:107B5000BFDFEFF7FFFFFFFFFEFDFBF7FFFFFFDFDC
:107B6000DFDFDFFFFFFFFFFEFEFEFEFFFFFFFFF791
:107B7000EFDFBF7FFFFFFFF7FBFDFEFFFFFFFFCF44
:107B8000F7778FFFFFFFFFFFFFF2FFFFFFFFFF0F02
:107B9000D717F70FFFFFFFF8F6F6F5FAFFFFFFFF25
:107BA0001FE71FFFFFFFFFF0FDFDFDF0FFFFFF07D9
:107BB0007777778FFFFFFFF0F7F7F7F8FFFFFF0FFB
:107BC000F7F7F7CFFFFFFFF8F7F7F7F9FFFFFF072A
:107BD000F7F7EF1FFFFFFFF0F7F7FBFCFFFFFF07D3
:107BE000777777F7FFFFFFF0F7F7F7F7FFFFFF076C
:107BF000777777F7FFFFFFF0FFFFFFFFFFFFFF0F34
:107C0000F7F7F7CFFFFFFFF8F7F7FAF0FFFFFF07EF
:107C10007F7F7F07FFFFFFF0FFFFFFF0FFFFFFFF0A
:107C2000F707F7FFFFFFFFFFF7F0F7FFFFFFFFFF8B
:107C3000FFFF07FFFFFFFFF9F7F7F8FFFFFFFF0761
:107C40007F9FE7FFFFFFFFF0FFFCF3FFFFFFFF0752
:107C5000FFFFFFFFFFFFFFF0F7F7F7F7FFFFFF075B
:107C60001FFF1F07FFFFFFF0FFF0FFF0FFFFFF0701
:107C7000CF3FFF07FFFFFFF0FFFEF9F0FFFFFF0F11
:107C8000F7F7F70FFFFFFFF8F7F7F7F8FFFFFF072A
:107C90007777778FFFFFFFF0FFFFFFFFFFFFFF0FFB
:107CA000F7F7F70FFFFFFFF8F7F5FBF4FFFFFF070C
:107CB0007777778FFFFFFFF0FFFFFEF1FFFFFFCF2A
:107CC000B777F7CFFFFFFFF9F7F7F6F9FFFFFFF7F9
:107CD000F707F7F7FFFFFFFFFFF0FFFFFFFFFF07CB
:107CE000FFFFFF07FFFFFFF8F7F7F7F8FFFFFFC7FA
:107CF0003FFF3FC7FFFFFFFFFEF1FEFFFFFFFF0754
:107D0000FF07FF07FFFFFFFFF0FFF0FFFFFFFFE7A9
:107D10009F7F9FE7FFFFFFF3FCFFFCF3FFFFFFE701
:107D20009F7F9FE7FFFFFFFFFFF0FFFFFFFFFFF7D2
:107D3000F77797E7FFFFFFF3F4F7F7F7FFFFFFFF92
:107D4000FF03FBFBFFFFFFFFFFE0EFEFFFFFFFF392
:107D5000CF3FFFFFFFFFFFFFFFFEF9E7FFFFFFFB46
:107D6000FB03FFFFFFFFFFEFEFE0FFFFFFFFFFFF62
:107D7000F7FBF7FFFFFFFFFFFFFFFFFFFFFFFFFF27
:107D8000FFFFFFFFFFFFEFEFEFEFEFEFFFFFFFFF63
:107D9000FBF7FFFFFFFFFFFFFFFFFFFFFFFFFF7F7F
:107DA000BFBF7FFFFFFFFFF9F6F6F8F7FFFFFF0702
:107DB000BFBFBF7FFFFFFFF0F7F7F7F8FFFFFF7FC1
:107DC000BFBFBF7FFFFFFFF8F7F7F7FBFFFFFF7FA6
:107DD000BFBFBF07FFFFFFF8F7F7F7F0FFFFFF7F19
:107DE000BFBFBF7FFFFFFFF8F6F6F6FAFFFFFFBF4A
:107DF0000FB7F7FFFFFFFFFFF0FFFFFFFFFFFF7F62
:107E0000BFBF7FBFFFFFFFF5EAEAEBF7FFFFFF070A
:107E1000BFBFBF7FFFFFFFF0FFFFFFF0FFFFFFFFD0
:107E2000FF27FFFFFFFFFFFFFFF0FFFFFFFFFFFF49
:107E3000FF27FFFFFFFFFFEFEFF0FFFFFFFFFF0751
:107E4000FFFF7FBFFFFFFFF0FDFCFBF7FFFFFFFF22
:107E5000FF07FFFFFFFFFFFFFFF0FFFFFFFFFF3FF9
:107E6000BF7FBF7FFFFFFFF0FFF0FFF0FFFFFF3F8F
:107E7000BFBFBF7FFFFFFFF0FFFFFFF0FFFFFF7FF0
:107E8000BFBFBF7FFFFFFFF8F7F7F7F8FFFFFF3F28
:107E9000BFBFBF7FFFFFFFE0FBFBFBFCFFFFFF7FE0
:107EA000BFBFBF3FFFFFFFFCFBFBFBE0FFFFFFFF90
:107EB0003F7FBFBFFFFFFFFFF0FFFFFFFFFFFF7F21
:107EC000BFBFBF7FFFFFFFFBF6F6F5FBFFFFFFBF66
:107ED00007BFFFFFFFFFFFFFF8F7F7FFFFFFFF3FC1
:107EE000FFFFFF3FFFFFFFF8F7F7F7F0FFFFFF3F50
:107EF000FFFFFF3FFFFFFFFFFCF3FCFFFFFFFF3F24
:107F0000FF3FFF3FFFFFFFFEF1FEF1FEFFFFFFBF60
:107F10007FFF7FBFFFFFFFF7FBFCFBF7FFFFFF3F8C
:107F2000FFFFFF3FFFFFFFEFECF3FCFFFFFFFFBF93
:107F3000BFBFBF3FFFFFFFF7F3F5F6F7FFFFFFFF00
:107F40007F83FBFFFFFFFFFFFFE0EFFFFFFFFFFF70
:107F5000FF01FFFFFFFFFFFFFFE0FFFFFFFFFFFF4E
:107F6000FB837FFFFFFFFFFFEFE0FFFFFFFFFFF758
:107F7000FBFBF7FBFFFFFFFFFFFFFFFFFFFF000023
:107F8000000000000000000000000000F8000000F9
:107F90000000330000000008060806000000000092
:107FA00000004040F840F840043F053F0504708859
:107FB000FC0830001820FF211E00F09860E0380017
:107FC00000310E1F330C00F0887000001E212619AE
:107FD0002720100E0000000000000000000000003C
:107FE00000F00C020000000F3040000618E0000016
:107FF0000060180700004080F080400002010F017F
:1080000002000000F000000001011F01010000005B
:108010000000000080700000000000000000000070
:10802000010101010100000000000000003000001B
:108030000000000080700C00601C03000000F008CD
:108040000818E0001F2020300F000010F80000008A
:1080500000203F20000070080808F000302C22218A
:108060003000300888887000182020311E00008001
:1080700060F000000605243F2404F8088888080002
:10808000192120311F00E018889800000F312020AE
:108090001F00380808E8180000003F000000708842
:1080A000088870001E2121211E00F0080818E00039
:1080B000013222310F000000C0000000000030003B
:1080C00000000000800000000000E0000000000050
:1080D000806010080001020C102040404040400029
:1080E0000404040404000008304080000020180448
:1080F0000201700808887000000037010000F010CD
:108100008878F0001F2027340F00008078E00000FE
:10811000203F02033E2008F888887000203F20207E
:108120001F00F010080818001F202020100008F879
:108130000810E000203F20100F0008F888E8180021
:10814000203F2023300008F888E81800203F200353
:108150000000E010080818000F1020221E0208F886
:108160000000F808203F01013F200808F808080037
:1081700020203F202000000808F80808C080807FE9
:10818000000008F888601808203F20073C2008F805
:1081900008000000203F20202030F8F800F8F80008
:1081A0003F003F003F0008F8E008F808203F2106A4
:1081B0003F00F0080818E0001F2020300F0008F8EA
:1081C0000808F000203F21010000F0080818E00036
:1081D0000F342C707F0008F888887000203F20033F
:1081E0003C20708808081800302021221C00180844
:1081F000F808180000203F20000008F80000F808E8
:10820000001F20201F0008F80080F80800033C0F22
:1082100000007884F8C07800003F003F0000087834
:1082200080780800203C033C200008F88078080093
:1082300000203F200000180888780800203C2320F8
:1082400030000000FE02020000007F4040000038C5
:10825000C00000000000011E6000000202FE0000DD
:108260000040407F00000004020400000000000005
:1082700000000000000000008080808080800002FC
:10828000040000000000000000000000808080006A
:10829000003D26223F2008F800800000001F21201A
:1082A0001F00000080808000001F212021000000AE
:1082B0008088F800001F20203F2000008080000000
:1082C000001F222223000080F088881800203F2011
:1082D0002000000080808080006B9494936008F8F8
:1082E00000808000203F21003F2000809800000097
:1082F00000203F200000000080980000C080807FA8
:10830000000008F800808080203F240639200808FB
:10831000F800000020203F202000808080800000A6
:108320003F003F003F00808000808000203F210010
:108330003F20000080800000001F20201F00808060
:108340008080000080FFA0201F000000808080004F
:10835000001F20A0FF80808000808000203F21003F
:108360000100000080808000002324243900008068
:10837000E080000000001F2020008080008080003E
:10838000003F20203F208080000080800007381CB4
:108390000300804080008000033C033E0300808097
:1083A0000080800020330E3B200080800000808011
:1083B0008087780C030000808080800000302C23B0
:1083C00030000000807E02000000003F40001C22C0
:1083D0001CC040400000003F0202F8F0E0C08000F6
:1083E0000F07030100001C221C8040400000001FFA
:1083F0002020000000FF0000000000FF00002020FF
:108400004E4554574F524B3A00204D61696E206ED5
:1084100065743A00205375626E65743A004F4B00E4
:1084200044656164004F66666C696E65002020419A
:108430004C41524D3A00E51A24C2F582E434A6F5C7
:1084400083759300E0051A229000A6BF30270490A0
:1084500000A6C2E475F001120076FC0200736220EF
:1084600020E57F2ED2208018EF540F2490D4344082
:10847000D4FF30240BEF24BFB41A0050032461FF53
:10848000E51B6002151B051EE51E7002051D302749
:10849000119000A6BFE475F001120076FCEF020017
:1084A00073B302008FA67403D2278003E4C227F5BA
:1084B0001A9000A6BF12007713E4F51BF51DF51EF8
:1084C000E51B60087F201200848080F4751CFFC2C9
:1084D00021C220C222C223C225C226C22812008481
:1084E00048FF700E3027067F0012008491AF1EAE49
:1084F0001D22B42563C2D5C22412008448FF24D0B3
:10850000B40A00501A75F00A781B30D50508B6FF7A
:108510000106C6A426F620D5047002D22380D824F2
:10852000CFB41A00EF5004C2E5D224020087CED2A5
:108530002180C4D22080BED22280BAD2D580B8D2C7
:108540002580B27F20120084802022077401B51B91
:108550000040F012008436FF12008480020084C0C4
:10856000D228D226808F12008436FB12008436FA7D
:1085700012008436F94A4B700679DB7A887B8120B9
:10858000223DE51B60397E00E9C0E02EF9EAC0E03B
:108590003400FA12007362F9D0E0FAD0E0C9600644
:1085A0000EEE651C70E2C2D5EBC0E0EAC0E0E9C0A7
:1085B000E0EE12008836D0E0F9D0E0FAD0E0FB120D
:1085C000007362FF6096EBC0E0EAC0E0E9C0E01231
:1085D000008480D0E02401F9D0E03400FAD0E0FB40
:1085E000E51C0460DAD51CD70200855CD222808F9E
:1085F0001200881260F6E51C70010412006FD4A905
:108600001C600EE51C600A14F51C120088C5EF60A2
:10861000F2EA30E702F404C3994004020086A5EAB6
:10862000F4251C0430E701E404F51C800F120088D7
:108630001260B9EA051C251C12006FD4EA9000A64E
:10864000EEF030E701E4251C04D51C0420250114BC
:1086500012008836E4C0E0120088C59000A6EEE063
:10866000601420E70814F012008468802604F0D01B
:10867000E014C0E07F0012008468E51C600812006E
:10868000845F151C800D3025041200845FD0E00249
:108690000084C0D0E00480BD120088126093E51C05
:1086A0000412006FD49000A6EEEAF0E51C2025022B
:1086B00060010424041200883674FF04C0E0120034
:1086C00088C512008468E51C20250260041200841D
:1086D0005FD0E0B51CE57F45120084729000A6EEE5
:1086E000E07F2B30E7047F2DF404C0E0120084808B
:1086F000D0E075F00A84C0F012008469D0E0120066
:108700008469020084C0791080027908C226C228D8
:108710008008D2D5790A8004790AC2D5E51C047094
:1087200002F51CE4FAFDFEFF12008436FC7B0820F3
:10873000211612008436FD7B1030200C1200843686
:10874000FE12008436FF7B20EC3382D592D5501385
:10875000C3E43020069FFFE49EFEE42021039DFD3C
:10876000E49CFCE4CBF8C221EC700CCFCECDCCE87D
:1087700024F8F870F38017C3EF33FFEE33FEED33C8
:10878000FDEC33FCEB33FB994002FB0FD8E9EB30F7
:108790002105F8D0E0C448B221C0E00AEC4D4E4FAC
:1087A00078207B0070C2EAB51C0040BCC0E012001B
:1087B0008838D0F0D0E0202104C4C0E0C4B221C089
:1087C000F012008469D0F0D5F0EA020084C01200F3
:1087D000778D85665387065885334C852F42870AE7
:1087E0004F871244871249854943871855862D467D
:1087F00086984585F04788F85085372D853B2E852E
:10880000622B853F2385602088E42A84F548000098
:108810008558E51CB4FF03751C0612008436FC1253
:10882000008436FD12008436FE12008436FF90006C
:10883000A6E702007011790AA2D520231430250979
:10884000B910020404B9080104A2D520260250017F
:108850000420226D9222B51B005036C0E07F2030EC
:10886000231A7F30A222722672255010120088919E
:10887000C222C226C225C2287F308010302503E9DB
:10888000C0E012008480302503D0E0F9D0E0B51BB1
:10889000CA3025197F30B9100D120084807F5830FE
:1088A00024077F788003B9080412008480302206F0
:1088B0007F2D020084807F202028F77F2B2026F246
:1088C00022922280CC7F00B40700500E24E7F5826C
:1088D000E434A6F583759300E0FF22286E756C6C76
:1088E0002900D221120084363021F7C221781B30B2
:1088F000D50108F6020084F5120084367F4960082D
:108900007F4310E7027F5814C0E0EF1200847174B7
:108910003A12008471D0E0600DC0E0C41200846996
:10892000D0E012008469D223751B04020087066D13
:1089300061696E73657261696C7461736B0000C10B
:10894000814001C0804101C0804100C1814001C01F
:10895000804100C1814000C1814001C0804101C00F
:10896000804100C1814000C1814001C0804100C1FF
:10897000814001C0804101C0804100C1814001C0EF
:10898000804100C1814000C1814001C0804100C1DF
:10899000814001C0804101C0804100C1814000C1CF
:1089A000814001C0804101C0804100C1814001C0BF
:1089B000804100C1814000C1814001C0804101C0AF
:1089C000804100C1814000C1814001C0804100C19F
:1089D000814001C0804101C0804100C1814000C18F
:1089E000814001C0804101C0804100C1814001C07F
:1089F000804100C1814000C1814001C0804100C16F
:108A0000814001C0804101C0804100C1814001C05E
:108A1000804100C1814000C1814001C0804101C04E
:108A2000804100C1814000C1814001C0804100C13E
:108A3000814001C0804101C0804100C1814000C02F
:108A4000C101C30302C2C60607C705C5C404CC0CD6
:108A50000DCD0FCFCE0E0ACACB0BC90908C8D81846
:108A600019D91BDBDA1A1EDEDF1FDD1D1CDC14D456
:108A7000D515D71716D6D21213D311D1D010F03086
:108A800031F133F3F23236F6F737F53534F43CFC96
:108A9000FD3DFF3F3EFEFA3A3BFB39F9F83828E846
:108AA000E929EB2B2AEAEE2E2FEF2DEDEC2CE42416
:108AB00025E527E7E62622E2E323E12120E0A06086
:108AC00061A163A3A26266A6A767A56564A46CAC56
:108AD000AD6DAF6F6EAEAA6A6BAB69A9A86878B8C6
:108AE000B979BB7B7ABABE7E7FBF7DBDBC7CB474D6
:108AF00075B577B7B67672B2B373B17170B0509086
:108B000091519353529296565797559594549C5C15
:108B10005D9D5F9F9E5E5A9A9B5B995958988848C5
:108B200049894B8B8A4A4E8E8F4F8D4D4C8C448495
:108B30008545874746868242438341818040204F56
:108B400075747075740020496E70757400205473CC
:108B500074617420696E666F00646973706C61790A
:108B60005F7461736B00646973706C61795F6368D3
:108B700065636B00434D350054454D434F204C54C5
:108B8000442E2C007E007C00434D352044454D4F43
:108B90002020004D4F442020004F46462020004F0B
:108BA0004E20200054494D4552202000505249206B
:108BB000200054494D452020202020203A005245D5
:108BC0004C41592056616C7565202000204F55544A
:108BD00031004F555432004F555433004F555434E3
:108BE00000204F555435004F555436004F555437DB
:108BF000004F55543800204F555439004F555431CB
:108C00003000444920496E7075742020002044498A
:108C1000310044493200444933004449340020447F
:108C2000493500444936004449370044493800205A
:108C3000004D41494E20424F415244204D454E5532
:108C40002020002020202020202020202020202044
:108C50002020202020202000204E6F2054535441FB
:108C60005420434F4E4E454354454420004E4F2020
:108C7000494E505554002020202020202020202024
:108C80002020202020202020202020004F4E004F98
:108C900046460020202020202020202020202020A8
:108CA000202020200075EBAA75EB55759D02787F7A
:108CB000E4F6D8FD900000007F007E807D01E4F0A6
:108CC000A3DFFCDEFADDF8753D56753ED87581826E
:108CD00002008CFE020180FCE493A3F85407240CEC
:108CE000C8C333C4540F4420C8834004F4568001E1
:108CF00046F6DFE4800C010204081020408090005A
:108D00006077E47E019360CCA3FF543F30E50954C3
:108D10001FFEE493A360010ECF54E0B4E026E49379
:108D2000FBA3E493FAA3E493F9A3E493C083C08282
:108D3000120073B3D082D083A309E970010ADFEA7D
:108D4000DEE880BE54C025E0602B408CE493A3FA9B
:108D5000E493A3F8E493A3C8C582C8CAC583CA75BF
:108D60009300F0759300A3C8C582C8CAC583CADF43
:108D7000E3DEE1808DE493A3F8E493A34003F6805F
:108D800001F208DFF402008D02759300853D8385B2
:108D90003E82E0F581A3A881E0F6A318B882F9C06D
:108DA000A8C2AF85833D85823ED0A8D0E05480859F
:108DB000A8404240D007D006D005D004D003D0024E
:108DC000D001D000D0D0D082D083D093D0F0D0E0EA
:108DD0008540A822C0E0C0F0C093C083C082C0D04C
:108DE000C000C001C002C003C004C005C006C00767
:108DF000C0A8C2AF759300853D83853E82E581C3DF
:108E00009482F804C3C582958250021583F582C00E
:108E1000A8C2AF85833D85823ED0A8E581F0A3D06E
:108E2000E0F0D8FA02028188759300853D83853E83
:108E300082E581C39482F804C3C5829582500215ED
:108E400083F582C0A8C2AF85833D85823ED0A8E568
:108E500081F0A3D0E0F0D8FA02027CF64E6F74687D
:108E6000696E6720746F20646F20696E2044697397
:108E7000636F767279206F66205050506F452021C5
:108E80000D0A005050506F45204163636F756E743A
:108E9000206F722050617373776F7264206E6F74ED
:108EA00020636F7272656374210D0A0046696E69F2
:108EB000736820746865205050502068616E647338
:108EC00068616B6520212120256C780D0A009000D7
:108ED000AB0C120079317810EC4D4E4F70047CA52C
:108EE0007DA5C3EC13FCED13FDEE13FEEF13FF5055
:108EF00010EC64CCFCED644CFDEE644EFEEF64CEF1
:108F0000FFD8DF9000AB0C120076E4EE547FFE2217
:108F10009000AB0CEEF0EFA3F0A374A5F0A3F02249
:108F2000C2D5E830E70FB2D5E4C39BFBE49AFAE47C
:108F300099F9E498F8EC30E719B2D512008F59127C
:108F400000758AE4C39BFBE49AFAE499F9E498F883
:108F500080041200758A30D50DE4C39FFFE49EFEA5
:108F6000E49DFDE49CFC2254435049505F746173BE
:108F70006B007363686564756C655F7461736B0027
:108F8000436F6D6D6F6E5F7461736B0053616D70D5
:108F90006C6544497461736B005570646174654419
:108FA000497461736B00EFB40A08740D12008FB23C
:108FB000740A309811A899B8130CC2983098FDA87B
:108FC00099C298B811F63099FDC299F59922256495
:108FD0002F252E3262642F252E32626420252E32F8
:108FE00062643A252E3262643A252E32626400555C
:108FF00070646174654F75747075747461736B001F
:10900000436F6D6D5F54737461745F7461736B0053
:109010000000000080C0E0E0F0F0F0F0F0E0E0C020
:1090200080000000000000E0FCFEFF7F0F03010055
:1090300000000001031FFFFFFEF8800000FFFFFF9C
:10904000FF000000000000000000000001FFFFFF23
:10905000FF00007FFFFFFFC00000000000000000D5
:109060000000F0FFFFFF3F000000030F1F7F7EF8AE
:10907000F0E0E0E0E0F0FC7F3F1F070100000000AF
:1090800000000000000001010101010000000000DB
:109090000000000000000000000000000000C0F020
:1090A000F0F00000000000000000000000000606D4
:1090B000060607FFFFFFFFFF0000000000000000A2
:1090C000000000000000000000FFFFFFFFFF0000A5
:1090D000000000000000000000000000000000FF91
:1090E000FFFFFFFF00000000000000000000000084
:1090F0000000000000FFFFFFFFFF00000000000075
:10910000000000000000000000000001010101015A
:1091100000000000000000000000000080C0E0E04F
:10912000F0F0F0F0F0F0E0E0C0800000000000009F
:10913000F0FEFFFF0F0101000000000003FFFFFF32
:10914000FFF80000000000000000000000000080A8
:10915000C0F0FCFF7F1F070100000000000000803E
:10916000E0F0FCFE3F1F0F070100000000000000C0
:1091700000E0F8FCFFFFEFE3E1E0E0E0E0E0E0E04A
:10918000E0E0E0E000000001010101010101010156
:1091900001010101010101010101000000000000C5
:1091A00080C0E0E0F0F07070F0F0E0E0C08000001F
:1091B000000000003C3F3F3F0701000000000000AE
:1091C00003FFFFFFFE0000000000000000000000A1
:1091D000007070F0F8F8DCDF8F070300000000C0BB
:1091E000C0C0C00000000000000000000107FFFF39
:1091F000FEF8000000030F3F7FFFF8F0E0E0E0E042
:10920000E0F0F8FE7F3F0F030000000000000000C8
:109210000001010101010101000000000000000047
:10922000000000000000000000000080E0F0F0F00E
:10923000F000000000000000000000000080E0F8E6
:10924000FE3FFFFFFFFFFF00000000000000008066
:10925000E0F8FE3F0F030000FFFFFFFFFF000000EC
:109260000000F0FCFEFFFFF7F0F0F0F0F0F0FFFF81
:10927000FFFFFFF0F0F0F000000000000000000031
:1092800000000000FFFFFFFFFF00000000000000E3
:1092900000000000000000000000010101010100C9
:1092A00000000000000000F0F0F0F0F0F0F0F0F04E
:1092B000F0F0F0F0F0F0F00000000000C0FFFFFF61
:1092C0003F0000000000000000000000000000005F
:1092D0000000FFFFFFFF78381C1E0E0E0E1E3EFC26
:1092E000FCF8E080000000C0C0C0C000000000002A
:1092F000000000000000FFFFFFFF000000030F3F21
:109300007FFFF8F0E0E0E0E0F0F0FC7F3F1F0F01AE
:109310000000000000000000000101010101010047
:10932000000000000000000000000000000080C0FD
:10933000E0E0F0F0F0F0F0E0E0C0800000000000BD
:1093400080F0FCFFFF1F07010000000001071F1F46
:109350001F1C00000000FFFFFFFFF1783C1C1E0EE9
:109360000E1E3EFCFCF8E08000000000FFFFFFFF47
:1093700083000000000000000000FFFFFFFF00006E
:10938000000000071F3F7FFCF0E0E0E0E0E0F0FCC1
:109390007F3F1F07000000000000000000000001E8
:1093A0000101010100000000000000000000F0F0D9
:1093B000F0F0F0F0F0F0F0F0F0F0F0F0F0F0F0F0AD
:1093C000000000000000000000000000000000009D
:1093D000E0FEFFFF1F010000000000000000000091
:1093E00000000000F0FEFFFF0F0100000000000081
:1093F0000000000000000080F8FFFFFF0F000000E9
:109400000000000000000000000000C0F8FFFF7F27
:109410000700000000000000000000000000000045
:109420000001010101000000000000000000000038
:109430000000000080C0E0E0F0F07070F0F0E0E0CC
:10944000C080000000000000FCFFFFFF07010000DB
:109450000000000001FFFFFFFEF000000000010718
:109460008F9FFEF8F0F0F0F0F0F8FCDF9F0F0300A4
:10947000000000F0FCFFFF1F0301000000000000DF
:109480000107FFFFFEFCE00000030F3F7FFFF8F045
:10949000E0E0E0E0E0F0F0FC7F3F1F0700000000AC
:1094A00000000000000101010101010100000000B5
:1094B000000000000000000080C0E0E0F0F070F06C
:1094C000F0E0E0C08000000000000080FCFFFFFF33
:1094D000070100000000000107FFFFFFF8C00000C7
:1094E00000037FFFFFFFC000000000000080C0FFFE
:1094F000FFFFFFFF00000000000103070F0F0E0E2B
:109500000E0E0F0703F9FFFFFF1F00000000071FEB
:109510003F7FFCF0E0E0E0E0F0FC7F3F1F07010050
:109520000000000000000000000101010101000036
:10953000000000000000000000000000000000002B
:10954000000000000000000000000000000000001B
:10955000000000000000000000000000000000000B
:1095600000000000000000000000000000000000FB
:1095700000000000000000000000000000000000EB
:1095800000000000000000000000000000000000DB
:1095900000000000000000000000000000000000CB
:1095A00000000000000000000000000000000000BB
:1095B00000000000000000000000000000000000AB
:1095C000000000000000000000000000000000009B
:1095D000000000C0C0800000000000FFFFFFFF008F
:1095E0000000000080C0C00002070F0F1F3E7C7CFF
:1095F000F8FFFFFFFFF87C7C3E1F0F0F070220F0F3
:10960000F8F87C3E1F1F0FFFFFFFFF0F1F1F3E7C60
:10961000F8F8F020000101000000000000FFFFFF4B
:10962000FF00000000000001010000000000000039
:10963000000000000000000000000000000000002A
:10964000000000000000000000000000000000001A
:10965000000000000000000000000000000000000A
:1096600000000000000000000000000000000000FA
:1096700000000000000000000000000000000000EA
:10968000000000000000000000F0F0F0F0F0F0F04A
:10969000F00000000000000000000000000000FFDB
:1096A000FFFFFFFFFFFFFF000000000000000000C1
:1096B00000000000000000000000000000000000AA
:1096C000000000000000000000000000000000009A
:1096D000000000000000000000000000000000008A
:1096E000000000000000000000000000000000007A
:1096F000000000000000F0F0F0F0F0F0F0F0F0F00A
:109700000000000000000000000000000000000059
:109710000000000000000000000000000000000049
:109720000000000000000000000000000000000039
:109730000000000000000000000000000000000029
:109740000000000000000000C0D1CEBBA183674F25
:109750003D2D9B38293D5366717065554333261C5A
:1097600015410000000000000000000000000000A3
:1097700000000000000000000000000000000000E9
:1097800000000000000000009000A8A5EBF0A3EA94
:10979000F0A3E9F09000A8A4EFF070079000C6F2E3
:1097A000F0803E9000C6F27406F0E4A3F0A3F090BF
:1097B00000C6F3E0FEA3E0FFC39406EE9400502140
:1097C00074F52FF974C63EFA7B01E4120073B3906E
:1097D00000C6F4E004F070D79000C6F3E004F08017
:1097E000CE9000C6F2E0FF7E002401FDEE33FC9037
:1097F00000A8A5E0FBA3E0FAA3E02DF9EA3CFA12E9
:109800000073629000C7BDF0EF2402FFEE33FE90BC
:1098100000A8A5A3E0FAA3E02FF9EA3EFA1200732C
:1098200062FE9000C6F2E02403FDE433FC9000A841
:10983000A5A3E0FAA3E02DF9EA3CFA120073627CDA
:10984000002400FFEC3E9000C6EEF0A3EFF0900085
:10985000C6F2E0FF7E002405FDEE33FC9000A8A5D3
:10986000A3E0FAA3E02DF9EA3CFA12007362FD903E
:1098700000C6F0E4F0A3EDF09000C7BDE064036023
:109880000301C2C89000A8A5A3E0FAA3E0F99000E4
:10989000C6F2E0FDE92DF9E43AFA12007362FD74B4
:1098A000F52FF9EE34C6FA7B01ED120073B3EF2405
:1098B00001FDEE33FC9000A8A5E0FBA3E0FAA3E0D5
:1098C0002DF9EA3CFA12007362FD74F62FF9EE34BA
:1098D000C6FA7B01ED120073B39000C6F0A3E02539
:1098E000E0FD74F72FF9EE34C6FAED120073B3E41D
:1098F0009000C6F3F0A3F09000C6F0E0FEA3E0FFF6
:109900009000C6F3E0FCA3E0C39FEC9E400301C1BE
:10991000AE9000C6F3E0FEA3E0FF9000C6EEE0FCD0
:10992000A3E02FFFEC3EFEC394004055D3EF940319
:10993000EE9400504C9000C6F3E0FEA3E025E0FF5B
:10994000EE33FE9000C6F2E07C002FFFEC3EFE748A
:10995000F82FF974C63EFA7B01E4120073B390004D
:10996000C6F3E0FEA3E0FF9000C6EEE0FCA3E02F0C
:10997000FFEC3EFE74B72FF974C83EFA7B01019FDD
:109980007F9000C6F3E0FEA3E0FF9000C6EEE0FC8F
:10999000A3E02FFFEC3EFEEF64044E70369000C64D
:1099A000F3E0FEA3E025E0FFEE33FE9000C6F2E018
:1099B0007C002FFFEC3EFE74F82FF974C63EFA7B54
:1099C00001E4120073B374F92FF974C63EFA740EF1
:1099D00001A0F09000C6F3E0FEA3E0FF9000C6EE09
:1099E000E0FCA3E02FFFEC3EFEEF64054E703590E7
:1099F00000C6F3E0FEA3E025E0FFEE33FE9000C6D4
:109A0000F2E07C002FFFEC3EFE74F82FF974C63EA6
:109A1000FA7B01E4120073B374F92FF974C63EFAAD
:109A2000E401A0F09000C6F3E0FEA3E0FF9000C6C2
:109A3000EEE0FCA3E02FFFEC3EFEEF64084E703634
:109A40009000C6F3E0FEA3E025E0FFEE33FE9000B9
:109A5000C6F2E07C002FFFEC3EFE74F82FF974C6CE
:109A60003EFA7B01E4120073B374F92FF974C63E19
:109A7000FA740401A0F09000C6F3E0FEA3E0FF90AA
:109A800000C6EEE0FCA3E02FFFEC3EFEEF64064EC6
:109A9000703B9000C6F3E0FEA3E025E0FFEE33FE4E
:109AA0009000C6F2E07C002FFFEC3EFE74F82FF928
:109AB00074C63EFA7B01E4120073B390009E3CE052
:109AC000FD74F92FF974C63EFAED01A0F09000C6BE
:109AD000F3E0FEA3E0FF9000C6EEE0FCA3E02FFF62
:109AE000EC3EFEEF64074E70369000C6F3E0FEA336
:109AF000E025E0FFEE33FE9000C6F2E07C002FFF91
:109B0000EC3EFE74F82FF974C63EFA7B01E41200B5
:109B100073B374F92FF974C63EFA743201A0F09051
:109B200000C6F3E0FEA3E0FF9000C6EEE0FCA3E079
:109B30002FFFEC3EFEEF641E4E703B9000C6F3E03C
:109B4000FEA3E025E0FFEE33FE9000C6F2E07C00CD
:109B50002FFFEC3EFE74F82FF974C63EFA7B01E449
:109B6000120073B390009E4AE0FD74F92FF974C699
:109B70003EFAED01A0F09000C6F3E0FEA3E0FF90F6
:109B800000C6EEE0FCA3E02FFFEC3EFEEF64094EC2
:109B9000700301C1649000C6F3E0FEA3E0FF9000F3
:109BA000C6EEE0FCA3E02FFFEC3EFEEF640C4E702F
:109BB000309000C6F3E0FEA3E025E0FFEE33FE9018
:109BC00000C6F2E07C002FFFEC3EFE74F82FF97423
:109BD000C63EFA7B01E4120073B390009E4401ADCF
:109BE0007C9000C6F3E0FEA3E0FF9000C6EEE0FC30
:109BF000A3E02FFFEC3EFEEF64104E70309000C6E5
:109C0000F3E0FEA3E025E0FFEE33FE9000C6F2E0B5
:109C10007C002FFFEC3EFE74F82FF974C63EFA7BF1
:109C200001E4120073B390009CF301AD7C9000C678
:109C3000F3E0FEA3E0FF9000C6EEE0FCA3E02FFF00
:109C4000EC3EFEEF641F4E70309000C6F3E0FEA3C2
:109C5000E025E0FFEE33FE9000C6F2E07C002FFF2F
:109C6000EC3EFE74F82FF974C63EFA7B01E4120054
:109C700073B390009E6001AD7C9000C6F3E0FEA33C
:109C8000E0FF9000C6EEE0FCA3E02FFFEC3EFEC339
:109C9000EF9464EE9400405CD3EF9469EE9400502E
:109CA000539000C6F3E0FEA3E025E0FFEE33FE9004
:109CB00000C6F2E07C002FFFEC3EFE74F82FF97432
:109CC000C63EFA7B01E4120073B39000C6F3E0FED7
:109CD000A3E0FF9000C6EEE0FCA3E02FFFEC3ECF38
:109CE000C39464CF9400FE74062FF974CB3EFA7BC4
:109CF00001019F7F9000C6F3E0FEA3E0FF9000C645
:109D0000EEE0FCA3E02FFFEC3EFEEF646A4E703005
:109D10009000C6F3E0FEA3E025E0FFEE33FE9000E6
:109D2000C6F2E07C002FFFEC3EFE74F82FF974C6FB
:109D30003EFA7B01E4120073B390009CF101AD7C0C
:109D40009000C6F3E0FEA3E0FF9000C6EEE0FCA3A7
:109D5000E02FFFEC3EFEC3EF946BEE9400405CD32B
:109D6000EF946EEE940050539000C6F3E0FEA3E033
:109D700025E0FFEE33FE9000C6F2E07C002FFFEC02
:109D80003EFE74F82FF974C63EFA7B01E4120073AC
:109D9000B39000C6F3E0FEA3E0FF9000C6EEE0FC47
:109DA000A3E02FFFEC3ECFC3946BCF9400FE740D65
:109DB0002FF974CB3EFA7B01019F7F9000C6F3E040
:109DC000FEA3E0FF9000C6EEE0FCA3E02FFFEC3E18
:109DD000FEC3EF946FEE9400405CD3EF9472EE9468
:109DE0000050539000C6F3E0FEA3E025E0FFEE3301
:109DF000FE9000C6F2E07C002FFFEC3EFE74F82FD0
:109E0000F974C63EFA7B01E4120073B39000C6F306
:109E1000E0FEA3E0FF9000C6EEE0FCA3E02FFFEC25
:109E20003ECFC3946FCF9400FE74D82FF974CA3E0E
:109E3000FA7B01019F7F9000C6F3E0FEA3E0FF9054
:109E400000C6EEE0FCA3E02FFFEC3EFEC3EF9473F0
:109E5000EE9400405CD3EF9476EE94005053900063
:109E6000C6F3E0FEA3E025E0FFEE33FE9000C6F26D
:109E7000E07C002FFFEC3EFE74F82FF974C63EFA2A
:109E80007B01E4120073B39000C6F3E0FEA3E0FF91
:109E90009000C6EEE0FCA3E02FFFEC3ECFC394732E
:109EA000CF9400FE74D42FF974CA3EFA7B01019F4F
:109EB0007F9000C6F3E0FEA3E0FF9000C6EEE0FC5A
:109EC000A3E02FFFEC3EFEEF64784E70379000C6A3
:109ED000F3E0FEA3E025E0FFEE33FE9000C6F2E0E3
:109EE0007C002FFFEC3EFE74F82FF974C63EFA7B1F
:109EF000017417120073B374F92FF974C63EFA7423
:109F00007101C1979000C6F3E0FEA3E0FF9000C688
:109F1000EEE0FCA3E02FFFEC3EFEC3EF9412EE94C4
:109F2000005003019FACD3EF9419EE9400507D9044
:109F300000C6F3E0FEA3E025E0FFEE33FE9000C68E
:109F4000F2E07C002FFFEC3EFE74F82FF974C63E61
:109F5000FA7B01E4120073B39000C6F3E0FEA3E0C5
:109F6000FF9000C6EEE0FCA3E02FFFEC3ECFC394D1
:109F700012CF9400FE74CB2FF974CA3EFA7B011203
:109F8000007362FD9000C6F3E0FEA3E025E0FFEE63
:109F900033FE9000C6F2E07A002FFFEA3EFE74F92D
:109FA0002FF974C63EFA7B01ED01C1979000C6F30C
:109FB000E0FEA3E0FF9000C6EEE0FCA3E02FFFEC84
:109FC0003EFEBE1633BF26309000C6F3E0FEA3E08F
:109FD00025E0FFEE33FE9000C6F2E07C002FFFECA0
:109FE0003EFE74F82FF974C63EFA7B01E41200734A
:109FF000B39000985F01AD7C9000C6F3E0FEA3E053
:10A00000FF9000C6EEE0FCA3E02FFFEC3EFEC3EFA6
:10A010009437EE9416500301A0F3D3EF943EEE94E0
:10A0200016400301A0F39000C6F3E0FEA3E025E094
:10A03000FFEE33FE9000C6F2E07C002FFFEC3EFE08
:10A0400074F82FF974C63EFA7B01E4120073B390E2
:10A0500000C6F3E0FEA3E0FF9000C6EEE0FCA3E044
:10A060002FFFEC3ECFC39437CF9416FE90009CF0A8
:10A07000E0FDC3EF9DEE94009000C6F3E0FE50516A
:10A08000A3E0FF9000C6EEA3E02FFFEC3ECFC39409
:10A0900037CF9416FEEF25E0FFEE33FE74EA2FF57E
:10A0A0008274963EF583759300A3E0FD9000C6F39D
:10A0B000E0FEA3E025E0FFEE33FE9000C6F2E07A7A
:10A0C000002FFFEA3EFE74F92FF974C63EFAED80C8
:10A0D0001FA3E025E0FFEE33FE9000C6F2E07C0017
:10A0E0002FFFEC3EFE74F92FF974C63EFA7B01E4B3
:10A0F00001C1979000C6F3E0FEA3E0FF9000C6EE1A
:10A10000E0FCA3E02FFFEC3EFEC3EF9427EE941695
:10A11000500301A21DD3EF942EEE9416400301A22A
:10A120001DC3EF9427FFEE9416FE90009CF0E0FD17
:10A13000C3EF9DEE94009000C6F3E0FE400301A142
:10A14000EEA3E0FF9000C6EEA3E02FFFEC3ECFC3EE
:10A150009427CF9416FEEF25E0FFEE33FE740C2F0C
:10A16000F58274973EF583759300E0FD9000C6F389
:10A17000E0FEA3E025E0FFEE33FE9000C6F2E07AB9
:10A18000002FFFEA3EFE74F82FF974C63EFA7B01F9
:10A19000ED120073B39000C6F3E0FEA3E0FF900061
:10A1A000C6EEE0FCA3E02FFFEC3ECFC39427CF9494
:10A1B00016FEEF25E0FFEE33FE740C2FF582749748
:10A1C0003EF583759300A3E0FD9000C6F3E0FEA387
:10A1D000E025E0FFEE33FE9000C6F2E07A002FFFAC
:10A1E000EA3EFE74F92FF974C63EFAED802CA3E026
:10A1F00025E0FFEE33FE9000C6F2E07C002FFFEC7E
:10A200003EFE74F82FF974C63EFA7B01E412007327
:10A21000B374F92FF974C63EFAE401C1979000C6F1
:10A22000F3E0FEA3E0FF9000C6EEE0FCA3E02FFF0A
:10A23000EC3EFEC3EF942FEE9416500301A318D307
:10A24000EF9436EE9416400301A3189000C6F3E095
:10A25000FEA3E025E0FFEE33FE9000C6F2E07C00B6
:10A260002FFFEC3EFE74F82FF974C63EFA7B01E432
:10A27000120073B39000C6F3E0FEA3E0FF9000C6A7
:10A28000EEE0FCA3E02FFFEC3ECFC3942FCF94165B
:10A29000FE90009CF0E0FDC3EF9DEE94009000C6A0
:10A2A000F3E0FE5051A3E0FF9000C6EEA3E02FFFC5
:10A2B000EC3ECFC3942FCF9416FEEF25E0FFEE3394
:10A2C000FE74FA2FF58274963EF583759300A3E031
:10A2D000FD9000C6F3E0FEA3E025E0FFEE33FE9024
:10A2E00000C6F2E07A002FFFEA3EFE74F92FF974FF
:10A2F000C63EFAED801FA3E025E0FFEE33FE90009E
:10A30000C6F2E07C002FFFEC3EFE74F92FF974C614
:10A310003EFA7B01E401C1979000C6F3E0FEA3E0A2
:10A32000FF9000C6EEE0FCA3E02FFFEC3EFEC3EF83
:10A33000943FEE9416500301A442D3EF9446EE945A
:10A3400016400301A442C3EF943FFFEE9416FE9023
:10A35000009CF0E0FDC3EF9DEE94009000C6F3E09A
:10A36000FE400301A413A3E0FF9000C6EEA3E02F7C
:10A37000FFEC3ECFC3943FCF9416FEEF25E0FFEEF7
:10A3800033FE742D2FF58274973EF583759300E0AC
:10A39000FD9000C6F3E0FEA3E025E0FFEE33FE9063
:10A3A00000C6F2E07A002FFFEA3EFE74F82FF9743F
:10A3B000C63EFA7B01ED120073B39000C6F3E0FED7
:10A3C000A3E0FF9000C6EEE0FCA3E02FFFEC3ECF41
:10A3D000C3943FCF9416FEEF25E0FFEE33FE742DBD
:10A3E0002FF58274973EF583759300A3E0FD9000EE
:10A3F000C6F3E0FEA3E025E0FFEE33FE9000C6F2D8
:10A40000E07A002FFFEA3EFE74F92FF974C63EFA97
:10A41000ED802CA3E025E0FFEE33FE9000C6F2E0D5
:10A420007C002FFFEC3EFE74F82FF974C63EFA7BD9
:10A4300001E4120073B374F92FF974C63EFAE40113
:10A44000C1979000C6F3E0FEA3E0FF9000C6EEE0E7
:10A45000FCA3E02FFFEC3EFEC3EF9447EE941650B2
:10A460000301A53DD3EF944EEE9416400301A53DA4
:10A470009000C6F3E0FEA3E025E0FFEE33FE90007F
:10A48000C6F2E07C002FFFEC3EFE74F82FF974C694
:10A490003EFA7B01E4120073B39000C6F3E0FEA322
:10A4A000E0FF9000C6EEE0FCA3E02FFFEC3ECFC340
:10A4B0009447CF9416FE90009CF0E0FDC3EF9DEE14
:10A4C00094009000C6F3E0FE5051A3E0FF9000C658
:10A4D000EEA3E02FFFEC3ECFC39447CF9416FEEFE0
:10A4E00025E0FFEE33FE741C2FF58274973EF58352
:10A4F000759300A3E0FD9000C6F3E0FEA3E025E025
:10A50000FFEE33FE9000C6F2E07A002FFFEA3EFE37
:10A5100074F92FF974C63EFAED801FA3E025E0FF21
:10A52000EE33FE9000C6F2E07C002FFFEC3EFE749E
:10A53000F92FF974C63EFA7B01E401C1979000C679
:10A54000F3E0FEA3E0FF9000C6EEE0FCA3E02FFFE7
:10A55000EC3EFEC3EF944FEE9416500301A630D3A9
:10A56000EF9456EE9416400301A6309000C6F3E037
:10A57000FEA3E025E0FFEE33FE9000C6F2E07C0093
:10A580002FFFEC3EFE74F82FF974C63EFA7B01E40F
:10A59000120073B39000C6F3E0FEA3E0FF9000C684
:10A5A000EEE0FCA3E02FFFEC3ECFC3944FCF941618
:10A5B000FE90009CF0E0FDC3EF9DEE94009000C67D
:10A5C000F3E0FE5049A3E0FF9000C6EEA3E02FFFAA
:10A5D000EC3ECFC3944FCF9416FE743D2FF582749A
:10A5E000973EF583759300E0FD9000C6F3E0FEA36F
:10A5F000E025E0FFEE33FE9000C6F2E07A002FFF88
:10A60000EA3EFE74F92FF974C63EFAED801FA3E00E
:10A6100025E0FFEE33FE9000C6F2E07C002FFFEC59
:10A620003EFE74F92FF974C63EFA7B01E401C1972E
:10A630009000C6F3E0FEA3E0FF9000C6EEE0FCA3AE
:10A64000E02FFFEC3EFEC3EF9457EE94165003014B
:10A65000A723D3EF945EEE9416400301A723900046
:10A66000C6F3E0FEA3E025E0FFEE33FE9000C6F265
:10A67000E07C002FFFEC3EFE74F82FF974C63EFA22
:10A680007B01E4120073B39000C6F3E0FEA3E0FF89
:10A690009000C6EEE0FCA3E02FFFEC3ECFC3945742
:10A6A000CF9416FE90009CF0E0FDC3EF9DEE940069
:10A6B0009000C6F3E0FE5049A3E0FF9000C6EEA371
:10A6C000E02FFFEC3ECFC39457CF9416FE74572F64
:10A6D000F58274983EF583759300E0FD9000C6F313
:10A6E000E0FEA3E025E0FFEE33FE9000C6F2E07A44
:10A6F000002FFFEA3EFE74F92FF974C63EFAED8092
:10A700001FA3E025E0FFEE33FE9000C6F2E07C00E0
:10A710002FFFEC3EFE74F92FF974C63EFA7B01E47C
:10A7200001C1979000C6F3E0FEA3E0FF9000C6EEE3
:10A73000E0FCA3E02FFFEC3EFEC3EF945FEE941627
:10A74000500301A816D3EF9466EE9416400301A8B7
:10A75000169000C6F3E0FEA3E025E0FFEE33FE9086
:10A7600000C6F2E07C002FFFEC3EFE74F82FF97477
:10A77000C63EFA7B01E4120073B39000C6F3E0FE1C
:10A78000A3E0FF9000C6EEE0FCA3E02FFFEC3ECF7D
:10A79000C3945FCF9416FE90009CF0E0FDC3EF9D44
:10A7A000EE94009000C6F3E0FE5049A3E0FF900055
:10A7B000C6EEA3E02FFFEC3ECFC3945FCF9416FE0E
:10A7C00074CC2FF58274983EF583759300E0FD906C
:10A7D00000C6F3E0FEA3E025E0FFEE33FE9000C6E6
:10A7E000F2E07A002FFFEA3EFE74F92FF974C63EBC
:10A7F000FAED801FA3E025E0FFEE33FE9000C6F2E5
:10A80000E07C002FFFEC3EFE74F92FF974C63EFA8F
:10A810007B01E401C1979000C6F3E0FEA3E0FF9046
:10A8200000C6EEE0FCA3E02FFFEC3EFEC3EF946712
:10A83000EE9416500301A909D3EF946EEE941640DE
:10A840000301A9099000C6F3E0FEA3E025E0FFEEB6
:10A8500033FE9000C6F2E07C002FFFEC3EFE74F861
:10A860002FF974C63EFA7B01E4120073B39000C660
:10A87000F3E0FEA3E0FF9000C6EEE0FCA3E02FFFB4
:10A88000EC3ECFC39467CF9416FE90009CF0E0FDA1
:10A89000C3EF9DEE94009000C6F3E0FE5049A3E0A4
:10A8A000FF9000C6EEA3E02FFFEC3ECFC39467CF2E
:10A8B0009416FE74D62FF58274983EF58375930036
:10A8C000E0FD9000C6F3E0FEA3E025E0FFEE33FEDE
:10A8D0009000C6F2E07A002FFFEA3EFE74F92FF9ED
:10A8E00074C63EFAED801FA3E025E0FFEE33FE9034
:10A8F00000C6F2E07C002FFFEC3EFE74F92FF974E5
:10A90000C63EFA7B01E401C1979000C6F3E0FEA3C6
:10A91000E0FF9000C6EEE0FCA3E02FFFEC3EFEC39C
:10A92000EF946FEE9416500301A9FCD3EF9476EEEA
:10A930009416400301A9FC9000C6F3E0FEA3E025B5
:10A94000E0FFEE33FE9000C6F2E07C002FFFEC3E0D
:10A95000FE74F82FF974C63EFA7B01E4120073B35B
:10A960009000C6F3E0FEA3E0FF9000C6EEE0FCA37B
:10A97000E02FFFEC3ECFC3946FCF9416FE90009C67
:10A98000F0E0FDC3EF9DEE94009000C6F3E0FE50B2
:10A9900049A3E0FF9000C6EEA3E02FFFEC3ECFC33B
:10A9A000946FCF9416FE74D92FF58274963EF5837A
:10A9B000759300E0FD9000C6F3E0FEA3E025E0FF04
:10A9C000EE33FE9000C6F2E07A002FFFEA3EFE74FE
:10A9D000F92FF974C63EFAED801FA3E025E0FFEEE3
:10A9E00033FE9000C6F2E07C002FFFEC3EFE74F9CF
:10A9F0002FF974C63EFA7B01E401C1979000C6F3BB
:10AA0000E0FEA3E0FF9000C6EEE0FCA3E02FFFEC29
:10AA10003EFEC3EF9477EE9416500301AAEFD3EFF6
:10AA2000947EEE9416400301AAEF9000C6F3E0FE78
:10AA3000A3E025E0FFEE33FE9000C6F2E07C002F9D
:10AA4000FFEC3EFE74F82FF974C63EFA7B01E41267
:10AA50000073B39000C6F3E0FEA3E0FF9000C6EEE3
:10AA6000E0FCA3E02FFFEC3ECFC39477CF9416FE1B
:10AA700090009CF0E0FDC3EF9DEE94009000C6F3C3
:10AA8000E0FE5049A3E0FF9000C6EEA3E02FFFECEC
:10AA90003ECFC39477CF9416FE74E22FF58274965E
:10AAA0003EF583759300E0FD9000C6F3E0FEA3E061
:10AAB00025E0FFEE33FE9000C6F2E07A002FFFEAB9
:10AAC0003EFE74F92FF974C63EFAED801FA3E0250F
:10AAD000E0FFEE33FE9000C6F2E07C002FFFEC3E7C
:10AAE000FE74F92FF974C63EFA7B01E401C1979018
:10AAF00000C6F3E0FEA3E0FF9000C6EEE0FCA3E09A
:10AB00002FFFEC3EFEC3EF947FEE9416500301AC92
:10AB100008D3EF9486EE9416400301AC08C3EF947B
:10AB20007FFFEE9416FE90009CF0E0FDC3EF9DEEDB
:10AB300094009000C6F3E0FE400301ABD9A3E0FF10
:10AB40009000C6EEA3E02FFFEC3ECFC3947FCF94DE
:10AB500016FE744C2FF58274983EF5837593009021
:10AB600000C6F3E0FEA3E025E0FFEE33FE9000C652
:10AB7000F2E07A002FFFEA3EFE74F82FF974C63E29
:10AB8000FA7B01E4120073B39000C6F3E0FEA3E089
:10AB9000FF9000C6EEE0FCA3E02FFFEC3ECFC39495
:10ABA0007FCF9416FE744C2FF58274983EF5837512
:10ABB0009300E0FD9000C6F3E0FEA3E025E0FFEE89
:10ABC00033FE9000C6F2E07A002FFFEA3EFE74F9F1
:10ABD0002FF974C63EFAED802CA3E025E0FFEE339A
:10ABE000FE9000C6F2E07C002FFFEC3EFE74F82FD2
:10ABF000F974C63EFA7B01E4120073B374F92FF9BD
:10AC000074C63EFAE401C1979000C6F3E0FEA3E0EB
:10AC1000FF9000C6EEE0FCA3E02FFFEC3EFEC3EF8A
:10AC20009487EE9416500301AD33D3EF94A6EE94BF
:10AC300016400301AD33C3EF9487FFEE9416FEEF89
:10AC40007802CEC313CE13D8F9FF90009CF0E0FD3C
:10AC5000C3EF9DEE9400400301ACFE9000C6F3E00C
:10AC6000FEA3E025E0FFEE33FE9000C6F2E07C009C
:10AC70002FFFEC3EFE74F82FF974C63EFA7B01E418
:10AC8000120073B39000C6F3E0FEA3E0FF9000C68D
:10AC9000EEE0FCA3E02FFFEC3ECFC39487FDEF94E2
:10ACA00016FCEDAE047802CEC313CE13D8F97802A9
:10ACB000C333CE33CED8F924B9F58274963EF583EA
:10ACC0007E00ED54037593002582F582EE3583F501
:10ACD00083759300E0FD9000C6F3E0FEA3E025E05D
:10ACE000FFEE33FE9000C6F2E07A002FFFEA3EFE50
:10ACF00074F92FF974C63EFA7B01ED01C1979000FB
:10AD0000C6F3E0FEA3E025E0FFEE33FE9000C6F2BE
:10AD1000E07C002FFFEC3EFE74F82FF974C63EFA7B
:10AD20007B01E4120073B374F92FF974C63EFAE4A0
:10AD300001C1979000C6F3E0FEA3E0FF9000C6EECD
:10AD4000E0FCA3E02FFFEC3EFEEF641A4E703B9058
:10AD500000C6F3E0FEA3E025E0FFEE33FE9000C660
:10AD6000F2E07C002FFFEC3EFE74F82FF974C63E33
:10AD7000FA7B01E4120073B390009CF0E0FD74F9DB
:10AD80002FF974C63EFAED01C1979000C6F3E0FEBC
:10AD9000A3E0FF9000C6EEE0FCA3E02FFFEC3EFE38
:10ADA000EF641B4E703B9000C6F3E0FEA3E025E08D
:10ADB000FFEE33FE9000C6F2E07C002FFFEC3EFE7B
:10ADC00074F82FF974C63EFA7B01E4120073B39055
:10ADD000009E4DE0FD74F92FF974C63EFAED01C1F5
:10ADE000979000C6F3E0FEA3E0FF9000C6EEE0FC03
:10ADF000A3E02FFFEC3EFEEF641C4E703B9000C6BC
:10AE0000F3E0FEA3E025E0FFEE33FE9000C6F2E0A3
:10AE10007C002FFFEC3EFE74F82FF974C63EFA7BDF
:10AE200001E4120073B390009E5DE0FD74F92FF908
:10AE300074C63EFAED01C1979000C6F3E0FEA3E0B0
:10AE4000FF9000C6EEE0FCA3E02FFFEC3EFEEF64B7
:10AE50001D4E70369000C6F3E0FEA3E025E0FFEE45
:10AE600033FE9000C6F2E07C002FFFEC3EFE74F84B
:10AE70002FF974C63EFA7B01E4120073B374F92F04
:10AE8000F974C63EFAE52301C1979000C6F3E0FECF
:10AE9000A3E0FF9000C6EEE0FCA3E02FFFEC3EFE37
:10AEA000C3EF9486EE9400500301B035D3EF948F36
:10AEB000EE9400400301B035C3EF9486FDEE94009C
:10AEC000FCED25E0FFEC33FE74F22FF974CA3EFA74
:10AED0007B0112007493FF9000A8ABE5F0F0A3EFA4
:10AEE000F074E82DF974CA3CFA7B0112007362FF1A
:10AEF000C0079000A8ABE0FCA3E0FD9000C6F3A360
:10AF0000E0FF9000C6EEA3E02FC39486FBC0039041
:10AF100000C6F3E0FE9000C6EEE0FAA3E02FFFEAE1
:10AF20003ECFC39486CF9400FEEF25E0FFEE33FEC4
:10AF300074B72FF974CA3EFA7B0112007493FF9024
:10AF400000A788E5F0F0A3EFF0D003D0071201ECE2
:10AF500030EEFFEFFD9000C6F3E0FEA3E025E0FF3A
:10AF6000EE33FE9000C6F2E07A002FFFEA3EFE7458
:10AF7000F82FF974C63EFA7B01ED120073B390000E
:10AF8000C6F3E0FEA3E0FF9000C6EEE0FCA3E02FD6
:10AF9000FFEC3ECFC39486CF9400FE74E82FF97483
:10AFA000CA3EFA7B0112007362FFC0079000A8AB93
:10AFB000E0FCA3E0FD9000C6F3A3E0FF9000C6EE26
:10AFC000A3E02FC39486FBC0039000C6F3E0FE907D
:10AFD00000C6EEE0FAA3E02FFFEA3ECFC39486CF8F
:10AFE0009400FEEF25E0FFEE33FE74B72FF974CA2C
:10AFF0003EFA7B0112007493FF9000A788E5F0F001
:10B00000A3EFF0D003D0071201EC30EFFD9000C6A3
:10B01000F3E0FEA3E025E0FFEE33FE9000C6F2E091
:10B020007A002FFFEA3EFE74F92FF974C63EFA7BD0
:10B0300001ED01C1979000C6F3E0FEA3E0FF900090
:10B04000C6EEE0FCA3E02FFFEC3EFEC3EF9490EED3
:10B050009400500301B0DDD3EF9499EE9400507D3D
:10B060009000C6F3E0FEA3E025E0FFEE33FE900083
:10B07000C6F2E07C002FFFEC3EFE74F82FF974C698
:10B080003EFA7B01E4120073B39000C6F3E0FEA326
:10B09000E0FF9000C6EEE0FCA3E02FFFEC3ECFC344
:10B0A0009490CF9400FE74E82FF974CA3EFA7B01A5
:10B0B00012007362FD9000C6F3E0FEA3E025E0FFFE
:10B0C000EE33FE9000C6F2E07A002FFFEA3EFE74F7
:10B0D000F92FF974C63EFA7B01ED01C1979000C6C5
:10B0E000F3E0FEA3E0FF9000C6EEE0FCA3E02FFF3C
:10B0F000EC3EFEC3EF949AEE9400500301B185D369
:10B10000EF94A3EE9400507D9000C6F3E0FEA3E020
:10B1100025E0FFEE33FE9000C6F2E07C002FFFEC4E
:10B120003EFE74F82FF974C63EFA7B01E4120073F8
:10B13000B39000C6F3E0FEA3E0FF9000C6EEE0FC93
:10B14000A3E02FFFEC3ECFC3949ACF9400FE74DEB1
:10B150002FF974CA3EFA7B0112007362FD9000C69B
:10B16000F3E0FEA3E025E0FFEE33FE9000C6F2E040
:10B170007A002FFFEA3EFE74F92FF974C63EFA7B7F
:10B1800001ED01C1979000C6F3E0FEA3E0FF90003F
:10B19000C6EEE0FCA3E02FFFEC3EFEC3EF94A4EE6E
:10B1A0009400500301B258D3EF94ADEE94004003E5
:10B1B00001B258C3EF94A4FFEE9400FEEF25E0FF28
:10B1C000EE33FE74B72FF974CA3EFA7B0112007495
:10B1D00093E5F0FD9000C6F3E0FEA3E025E0FFEE6E
:10B1E00033FE9000C6F2E07A002FFFEA3EFE74F8CC
:10B1F0002FF974C63EFA7B01ED120073B39000C6BE
:10B20000F3E0FEA3E0FF9000C6EEE0FCA3E02FFF1A
:10B21000EC3ECFC394A4CF9400FEEF25E0FFEE33C5
:10B22000FE74B72FF974CA3EFA7B0112007493FDC5
:10B230009000C6F3E0FEA3E025E0FFEE33FE9000B1
:10B24000C6F2E07A002FFFEA3EFE74F92FF974C6C9
:10B250003EFA7B01ED01C1979000C6F3E0FEA3E04A
:10B26000FF9000C6EEE0FCA3E02FFFEC3EFEC3EF34
:10B2700094AEEE9400500301B2FED3EF94B5EE9479
:10B2800000507B9000C6F3E0FEA3E025E0FFEE3324
:10B29000FE9000C6F2E07C002FFFEC3EFE74F82F1B
:10B2A000F974C63EFA7B01E4120073B39000C6F352
:10B2B000E0FEA3E0FF9000C6EEE0FCA3E02FFFEC71
:10B2C0003ECFC394AECF9400FE74F52FF582749CEC
:10B2D0003EF583759300E0FD9000C6F3E0FEA3E029
:10B2E00025E0FFEE33FE9000C6F2E07A002FFFEA81
:10B2F0003EFE74F92FF974C63EFAED01C197900035
:10B30000C6F3E0FEA3E0FF9000C6EEE0FCA3E02F52
:10B31000FFEC3EFEEF64B64E703B9000C6F3E0FEDD
:10B32000A3E025E0FFEE33FE9000C6F2E07C002FA4
:10B33000FFEC3EFE74F82FF974C63EFA7B01E4126E
:10B340000073B390009D01E0FD74F92FF974C63EBF
:10B35000FAED01C1979000C6F3E0FEA3E0FF900074
:10B36000C6EEE0FCA3E02FFFEC3EFEEF64B74E70AC
:10B370003B9000C6F3E0FEA3E025E0FFEE33FE9035
:10B3800000C6F2E07C002FFFEC3EFE74F82FF9744B
:10B39000C63EFA7B01E4120073B390009D02E0FD0B
:10B3A00074F92FF974C63EFAED01C1979000C6F307
:10B3B000E0FEA3E0FF9000C6EEE0FCA3E02FFFEC70
:10B3C0003EFEEF64B84E705990009E61E0FD900023
:10B3D000C6F3E0FEA3E025E0FFEE33FE9000C6F2E8
:10B3E000E0FC7A002FFFEA3EFE74F82FF974C63EA7
:10B3F000FA7B01ED120073B390009E61A3E0FD9013
:10B4000000C6F3E0FEA3E025E0FFEE33FEEC7A0099
:10B410002FFFEA3EFE74F92FF974C63EFAED01C122
:10B42000979000C6F3E0FEA3E0FF9000C6EEE0FCBC
:10B43000A3E02FFFEC3EFEEF64B94E703B9000C6D8
:10B44000F3E0FEA3E025E0FFEE33FE9000C6F2E05D
:10B450007C002FFFEC3EFE74F82FF974C63EFA7B99
:10B4600001E4120073B390009CEFE0FD74F92FF932
:10B4700074C63EFAED01C1979000C6F3E0FEA3E06A
:10B48000FF9000C6EEE0FCA3E02FFFEC3EFEEF6471
:10B49000BA4E703B9000C6F3E0FEA3E025E0FFEE5D
:10B4A00033FE9000C6F2E07C002FFFEC3EFE74F805
:10B4B0002FF974C63EFA7B01E4120073B390009E2C
:10B4C00052E0FD74F92FF974C63EFAED01C1979070
:10B4D00000C6F3E0FEA3E0FF9000C6EEE0FCA3E0B0
:10B4E0002FFFEC3EFEEF64BB4E707990009E52E061
:10B4F00075F03CA4FF90009CFDE0FCA3E0FDC3EFD1
:10B500009DE5F09CFD9000C6F3E0FEA3E025E0FF82
:10B51000EE33FE9000C6F2E0FC7A002FFFEA3EFE1A
:10B5200074F82FF974C63EFA7B01ED120073B390E4
:10B53000009CFDA3E0FF90009E52E075F03CA4C388
:10B540009FFD9000C6F3E0FEA3E025E0FFEE33FE92
:10B55000EC7A002FFFEA3EFE74F92FF974C63EFA2A
:10B56000ED01C1979000C6F3E0FEA3E0FF9000C696
:10B57000EEE0FCA3E02FFFEC3EFEEF64BC4E705902
:10B5800090009E3AE0FD9000C6F3E0FEA3E025E0C7
:10B59000FFEE33FE9000C6F2E0FC7A002FFFEA3E99
:10B5A000FE74F82FF974C63EFA7B01ED120073B3F6
:10B5B00090009E3AA3E0FD9000C6F3E0FEA3E025D4
:10B5C000E0FFEE33FEEC7A002FFFEA3EFE74F92F27
:10B5D000F974C63EFAED01C1979000C6F3E0FEA3F0
:10B5E000E0FF9000C6EEE0FCA3E02FFFEC3EFEEF94
:10B5F00064BD4E705990009E36E0FD9000C6F3E0A9
:10B60000FEA3E025E0FFEE33FE9000C6F2E0FC7AF8
:10B61000002FFFEA3EFE74F82FF974C63EFA7B0154
:10B62000ED120073B390009E36A3E0FD9000C6F3C8
:10B63000E0FEA3E025E0FFEE33FEEC7A002FFFEA08
:10B640003EFE74F92FF974C63EFAED01C1979000E1
:10B65000C6F3E0FEA3E0FF9000C6EEE0FCA3E02FFF
:10B66000FFEC3EFEEF64BE4E705990009E50E0FD30
:10B670009000C6F3E0FEA3E025E0FFEE33FE90006D
:10B68000C6F2E0FC7A002FFFEA3EFE74F82FF97450
:10B69000C63EFA7B01ED120073B390009E50A3E00A
:10B6A000FD9000C6F3E0FEA3E025E0FFEE33FEECE4
:10B6B0007A002FFFEA3EFE74F92FF974C63EFAEDC8
:10B6C00001C1979000C6F3E0FEA3E0FF9000C6EE34
:10B6D000E0FCA3E02FFFEC3EFEEF64BF4E705990FC
:10B6E000009E31E0FD9000C6F3E0FEA3E025E0FF00
:10B6F000EE33FE9000C6F2E0FC7A002FFFEA3EFE39
:10B7000074F82FF974C63EFA7B01ED120073B39002
:10B71000009E31A3E0FD9000C6F3E0FEA3E025E02B
:10B72000FFEE33FEEC7A002FFFEA3EFE74F92FF9AC
:10B7300074C63EFAED01C1979000C6F3E0FEA3E0A7
:10B74000FF9000C6EEE0FCA3E02FFFEC3EFEEF64AE
:10B75000C04E705990009E4EE0FD9000C6F3E0FE92
:10B76000A3E025E0FFEE33FE9000C6F2E0FC7A0095
:10B770002FFFEA3EFE74F82FF974C63EFA7B01ED06
:10B78000120073B390009E4EA3E0FD9000C6F3E05C
:10B79000FEA3E025E0FFEE33FEEC7A002FFFEA3E49
:10B7A000FE74F92FF974C63EFAED01C1979000C6F8
:10B7B000F3E0FEA3E0FF9000C6EEE0FCA3E02FFF65
:10B7C000EC3EFEC3EF94C8EE9400500301B852EF74
:10B7D00094D0EE9400507B9000C6F3E0FEA3E025E9
:10B7E000E0FFEE33FE9000C6F2E07C002FFFEC3E5F
:10B7F000FE74F82FF974C63EFA7B01E4120073B3AD
:10B800009000C6F3E0FEA3E0FF9000C6EEE0FCA3CC
:10B81000E02FFFEC3ECFC394C8CF9400FE74532FAB
:10B82000F582749E3EF583759300E0FD9000C6F3AB
:10B83000E0FEA3E025E0FFEE33FE9000C6F2E07AE2
:10B84000002FFFEA3EFE74F92FF974C63EFAED01AF
:10B85000C1979000C6F3E0FEA3E0FF9000C6EEE0C3
:10B86000FCA3E02FFFEC3EFEC3EF94D0EE9400501B
:10B870000301B98DEF943CEE9403400301B98DC3ED
:10B88000EF94D0FFEE9400FE7C007D1F120073D970
:10B890009000C7C0EFF09000C6F3E0FEA3E0FF9079
:10B8A00000C6EEE0FCA3E02FFFEC3ECFC394D0CF68
:10B8B0009400FE7C007D1F120073D99000C7C1ED7B
:10B8C000F09000C7C0E075F0AFA424A4F974AB35C4
:10B8D000F0FA7B01A3E0FF7C0029F9EC3AFA1200B0
:10B8E00073629000C7C2F0EF641E7066E0FFF46000
:10B8F00061EF20E71F9000C7C0E0FF7B017AA279CB
:10B9000034120277EA9000C7C2E050054440F0804C
:10B910000354BFF09000C7C0E0FF7B017AA2790218
:10B92000120277EA9000C7C2E050054420F080037D
:10B9300054DFF09000C7C0E0FF7B017AA2790512C6
:10B940000277EA9000C7C2E050054410F08003542B
:10B95000EFF09000C6F3E0FEA3E025E0FFEE33FE3B
:10B960009000C6F2E07C002FFFEC3EFE74F82FF949
:10B9700074C63EFA7B01E4120073B39000C7C2E0C4
:10B98000FD74F92FF974C63EFAED01C1979000C617
:10B99000F3E0FEA3E0FF9000C6EEE0FCA3E02FFF83
:10B9A000EC3EFEC3EF943CEE9403500301BA85EFE6
:10B9B000940CEE9405400301BA85C3EF943CFFEE6E
:10B9C0009403FE7C007D1D120073D99000C7C0EF68
:10B9D000F09000C6F3E0FEA3E0FF9000C6EEE0FCAE
:10B9E000A3E02FFFEC3ECFC3943CCF9403FE7C003A
:10B9F0007D1D120073D99000C7C1EDF09000C7C043
:10BA0000E075F04BA4244AF974BC35F0FA7B01A32D
:10BA1000E0FF7C0029F9EC3AFA120073629000C74B
:10BA2000C2F0EF641C7023E020E71F9000C7C0E065
:10BA3000FF7B017AA27929120277EA9000C7C2E05F
:10BA400050054440F0800354BFF09000C6F3E0FE80
:10BA5000A3E025E0FFEE33FE9000C6F2E07C002F6D
:10BA6000FFEC3EFE74F82FF974C63EFA7B01E41237
:10BA70000073B39000C7C2E0FD74F92FF974C63E9D
:10BA8000FAED01C1979000C6F3E0FEA3E0FF90003D
:10BA9000C6EEE0FCA3E02FFFEC3EFEC3EF940CEEFD
:10BAA0009405500301BBC0EF9406EE9408400301D7
:10BAB000BBC0C3EF940CFFEE9405FE7C007D031227
:10BAC0000073D99000C7C0EFF09000C6F3E0FEA36A
:10BAD000E0FF9000C6EEE0FCA3E02FFFEC3ECFC3FA
:10BAE000940CCF9405FE7C007D03120073D9900066
:10BAF000C7C1EDF09000C7C0E075F003A42450F971
:10BB000074B935F0FA7B01A3E0FF7C0029F9EC3A27
:10BB1000FA120073629000C7C2F0EF64027066E030
:10BB2000FFF46061EF20E71F9000C7C0E0FF7B01DA
:10BB30007AA27909120277EA9000C7C2E050054460
:10BB400040F0800354BFF09000C7C0E0FF7B017A53
:10BB5000A179C2120277EA9000C7C2E050054420E2
:10BB6000F0800354DFF09000C7C0E0FF7B017AA1B2
:10BB700079E2120277EA9000C7C2E050054410F063
:10BB8000800354EFF09000C6F3E0FEA3E025E0FF51
:10BB9000EE33FE9000C6F2E07C002FFFEC3EFE7418
:10BBA000F82FF974C63EFA7B01E4120073B39000DB
:10BBB000C7C2E0FD74F92FF974C63EFAED01C197D2
:10BBC0009000C6F3E0FEA3E0FF9000C6EEE0FCA309
:10BBD000E0FD2FFFEC3EFEC3EF9406EE9408500309
:10BBE00001BC9DEF94E6EE940A400301BC9D9000D9
:10BBF000C6F3E0FEA3E0FFED2FFFEC3ECFC39406BB
:10BC0000CF9408FE7C007D2E120073D99000C7C02F
:10BC1000EFF09000C6F3E0FEA3E0FF9000C6EEE078
:10BC2000FCA3E02FFFEC3ECFC39406CF9408FE7C2C
:10BC3000007D2E120073D99000C7C1EDF09000C7AF
:10BC4000C0E075F04BA42467F974BC35F0FA7B01B1
:10BC5000A3E07E0029F9EE3AFA120073629000C761
:10BC6000C2F09000C6F3E0FEA3E025E0FFEE33FE55
:10BC70009000C6F2E07C002FFFEC3EFE74F82FF936
:10BC800074C63EFA7B01E4120073B39000C7C2E0B1
:10BC9000FD74F92FF974C63EFAED01C1979000C604
:10BCA000F3E0FEA3E0FF9000C6EEE0FCA3E0FD2F72
:10BCB000FFEC3EFEC3EF94E6EE940A500301BD7A1A
:10BCC000EF9486EE9410400301BD7A9000C6F3E035
:10BCD000FEA3E0FFED2FFFEC3ECFC394E6CF940A26
:10BCE000FE7C007D48120073D99000C7C0EFF09031
:10BCF00000C6F3E0FEA3E0FF9000C6EEE0FCA3E088
:10BD00002FFFEC3ECFC394E6CF940AFE7C007D4823
:10BD1000120073D99000C7C1EDF09000C7C0E07564
:10BD2000F0AFA424C3F974AB35F0FA7B01A3E07E35
:10BD30000029F9EE3AFA120073629000C7C2F0903F
:10BD400000C6F3E0FEA3E025E0FFEE33FE9000C660
:10BD5000F2E07C002FFFEC3EFE74F82FF974C63E33
:10BD6000FA7B01E4120073B39000C7C2E0FD74F9DE
:10BD70002FF974C63EFAED01C1979000C6F3E0FEBC
:10BD8000A3E0FF9000C6EEE0FCA3E0FD2FFFEC3E39
:10BD9000FEC3EF9486EE9410500301BE58D3EF9487
:10BDA00026EE9416400301BE589000C6F3E0FEA3B1
:10BDB000E0FFED2FFFEC3ECFC39486CF9410FE7CC6
:10BDC000007D48120073D99000C7C0EFF09000C604
:10BDD000F3E0FEA3E0FF9000C6EEE0FCA3E02FFF3F
:10BDE000EC3ECFC39486CF9410FE7C007D481200B9
:10BDF00073D99000C7C1EDF09000C7C0E075F0AFF7
:10BE0000A4240BF974AC35F0FA7B01A3E07E002981
:10BE1000F9EE3AFA120073629000C7C2F09000C6C1
:10BE2000F3E0FEA3E025E0FFEE33FE9000C6F2E073
:10BE30007C002FFFEC3EFE74F82FF974C63EFA7BAF
:10BE400001E4120073B39000C7C2E0FD74F92FF94A
:10BE500074C63EFAED01C1979000C6F3E0FEA3E080
:10BE6000FF9000C6EEE0FCA3E02FFFEC3EFEC3EF28
:10BE70009458EE941B500301BF2BD3EF9489EE949A
:10BE80001B400301BF2BC3EF9458FFEE941BFEEF42
:10BE900025E0FFEE33FE74522FF974D13EFA7B0198
:10BEA00012007493E5F0FD9000C6F3E0FEA3E025D8
:10BEB000E0FFEE33FE9000C6F2E07A002FFFEA3E8C
:10BEC000FE74F82FF974C63EFA7B01ED120073B3CD
:10BED0009000C6F3E0FEA3E0FF9000C6EEE0FCA3F6
:10BEE000E02FFFEC3ECFC39458CF941BFEEF25E02C
:10BEF000FFEE33FE74522FF974D13EFA7B0112002B
:10BF00007493FD9000C6F3E0FEA3E025E0FFEE335E
:10BF1000FE9000C6F2E07A002FFFEA3EFE74F92F91
:10BF2000F974C63EFA7B01ED01C1979000C6F3E0BB
:10BF3000FEA3E0FF9000C6EEE0FCA3E0FD2FFFECC7
:10BF40003EFEC3EF948AEE941B500301C011D3EF61
:10BF50009485EE941C400301C0119000C6F3A3E049
:10BF6000FFED2FC3948A9000A8ABF075F00784759D
:10BF7000F00EA424BCF974C835F0FA7B01E075F02A
:10BF80000784E5F075F002A429F9EA35F0FA120009
:10BF90007362FD9000C6F3E0FEA3E025E0FFEE3300
:10BFA000FE9000C6F2E07A002FFFEA3EFE74F82F02
:10BFB000F974C63EFA7B01ED120073B39000A8AB92
:10BFC000E075F0078475F00EA424BDF974C835F04F
:10BFD000FA7B01E075F00784E5F075F002A429F919
:10BFE000EA35F0FA12007362FD9000C6F3E0FEA39A
:10BFF000E025E0FFEE33FE9000C6F2E07A002FFF6E
:10C00000EA3EFE74F92FF974C63EFA7B01ED01C1D8
:10C01000979000C6F3E0FEA3E0FF9000C6EEE0FCC0
:10C02000A3E02FFFEC3EFEBE1C3EBF863B9000C649
:10C03000F3E0FEA3E025E0FFEE33FE9000C6F2E061
:10C040007C002FFFEC3EFE74F82FF974C63EFA7B9D
:10C0500001E4120073B390009CF2E0FD74F92FF933
:10C0600074C63EFAED01C1979000C6F3E0FEA3E06E
