:10CC0C0000113333143C3C00113333143C3C000012
:10CC1C000000000000000000000000000040301088
:0ACC2C0004030100020304040404E1
:10B78C00027A323242019F0000C175C17842018DAC
:02B79C000101A9
:10711E007456253AF8E6FF747D253AF582E434017B
:10712E00F583229001C3E0FD25E0FFE433FE742DCC
:10713E00C39FFFE49EFE74502FF58274003EF583CC
:10714E00E022E0FEEF2EFF9001C3E075F006A424CE
:10715E00D5F582E43401F583E5822FF582E435839B
:10716E00F583E0229001C3E0FF2491F582E434011F
:10717E00F583E0FE74742FF8E622EE2402FDE4336C
:10718E00FCD3EF9DEC6480F874809822F090007E22
:10719E00E0FF7406C39FFFE49400FE22E6FF24FE88
:1071AE00FE7474253AF8E622E53A25E0FFE433FE54
:1071BE00742EC39FFDE49EFC74502DF58274003C2A
:1071CE00F583E022E0FEA3E0FF9001BFEEF0FCA30A
:1071DE00EFF0FD7A00900075E0FE900074E0240060
:1071EE0022749B2537F582E43400F583E022745631
:1071FE00253AF8E6FF22FFE53A75F006A424D6F507
:10720E0082E434012212C8539001C0EEF0A3EFF0D5
:10721E009001C0740175F0F4124BEBD39001C1E0F4
:10722E0094E89001C0E0940322E0241BFDE43401B5
:10723E00CDC39FFFED9EFE2275F006A424D5F582E8
:10724E00E43401F583227491253AF582E43401F594
:10725E0083229001B4E0FF248FF582E43400F5839D
:10726E00E0229001C3E0FD25E0FFE433FEC3742D60
:10727E009FFBE49EFA74502BF58274003AF583E07E
:10728E00FCC3742E22FFC374649FFFE49400AB070B
:10729E00FAE422900094E0FF248BF582E43401227C
:1072AE00E0FDEE75F006A424CFF582E43401F583FB
:1072BE00229001BBEEF0A3EFF0D39464EE94002283
:1072CE00900075E0900074FEE07C00240022748B28
:1072DE00253AF582E43401F58322E53A7B017A0101
:1072EE00799F2402FD227B007A00797822F0A30494
:1072FE00F0A304F0A304F022FDE43401FCC3ED9FDF
:10730E00FFEC9E9001B8F0A3EFF0EBD3940622FFB2
:10731E00EC3ECF240ACF3400FED39001C0E09F9004
:10732E0001BFE09E2274522FF582E43400F583E013
:10733E0022A3124DC4124C66E47B64FAF9F8124C87
:10734E00F19001C4E022E025E02406F582E4340049
:10735E00F583E0FCA3E0FD64014C2225E02497F5C3
:10736E0082E43401F58322AB3BAA3CA93D9001C3D4
:10737E00E0F582758300124B0FFE2212C853900166
:10738E00C0EEF0A3EFF022FFE6FEEFC39E22FFE079
:10739E002F24DBF582E43401F5832225E0246EF8F8
:1073AE00E6FE08E6D394E8EE648094832224A3F5E7
:1073BE0082E43401F58322D3E694E818E6648094DF
:1073CE00832274C02537F582E43400F583E022E091
:1073DE007B007A00792022FFEA3ECF24F6CF34FFDD
:1073EE00FEC3ED9FEC9E22FFEC3EFEE4FD9001C03D
:1073FE00024DD024A0F582E43400F583E022900102
:10740E0010E4F0A37464F0229001B4E0FFC3229064
:10741E0001B4E004F022900048E075F007A424D2F5
:10742E00FFE435F0FE222432F582E43400F58322A7
:10743E0074A62FF582E43400F583E0640922797492
:10744E00E77875969001B4E0229001B8E0FEA3E0D3
:10745E00FF22FFC374069FFE785AE6FDC39E222DBF
:10746E00FFE433FE785BE6FDC39FEE22FFE6FEEF00
:10747E00C39E22E0241BFFE43401FE227456253AFB
:10748E00F8E4F622E5822FF582E5833EF583E022CD
:10749E00246BF582E43400F583E02225E0246EF8B7
:1074AE00A60608A6072225E0246EF876030876E8DD
:1074BE0022AB3AAA3BA93C024AF625E0FFE433FE92
:1074CE002290019DEFF0E4FD7F102290019BEFF0E2
:1074DE00E4FD7F1122EEF0A3EFF09001BFE022FD5C
:1074EE00C3EF9DFFE49400FE2225E0246EF8E4F63F
:0D74FE0008F6222492F582E43400F5832282
:06CC60008B3A8A3B893C7F
:10CC66007F01AE05EFA806088002C333D8FCFF306B
:10CC760064061274BF4F80076307FF1274BF5F120A
:02CC86004B3C25
:01CC88002289
:06CE07007B017A0079B501
:10CE0D007F01AE05EFA806088002C333D8FCFF12E0
:05CE1D004AF65F24FF4E
:01CE220022ED
:10CC8900E4785BF618F6785AE6FFC39404501574F5
:10CC9900C12FF582E43400F583E0B4010208067877
:08CCA9005A0680E2785BE6FF09
:01CCB1002260
:10CBE100C2769000E27403F0A304F09000E17402B5
:10CBF100F09000E47405F09000E9741C1272FBA33C
:0BCC0100041272FBE4FD7F0502CDB7BA
:10CD8D008B3DEF7B017A01799FB50509E53D2402C5
:10CD9D00FDC2688007E53D2402FDD26812C4192248
:10CD01008F3D306608747D2F127129E4F07B017A22
:10CD110001799FD268AD3D12C419E53D1272EAC294
:04CD21006802C419C7
:10C4D9008F3D747A2FF8E62402FFE433FE74742545
:10C4E9003DF8E6D39FEE127193400C1272F4C268C4
:10C4F90012C527D2688021747A253DF8E624FEFF0B
:10C509007474253DF8E6C39F1272F45004D2688012
:10C5190002C26812C527C268AD3D12C41922AD3DD9
:0AC5290012C4197B007A0079762213
:021647008F3AD8
:1016490090005DE014603114607514700302172A6C
:1016590014700302178C1470030217A52405600384
:101669000217D6E50FB402081272F4D268E480407A
:10167900AF3A12C4D90217D67F0112C4D91272F433
:10168900304607121F81D2688005121F8FC268E495
:10169900FD12C419900183E0D3940050030217D6B8
:1016A900E014F0E060030217D6FB7A007978C2688B
:1016B900FD12C4197B007A007976C26802178490FA
:1016C90000B6E024FF92649000A7E0B405149000EE
:1016D90008E07004A3E064017004D265802FC2653C
:1016E900802B9000A6E0B40514900006E07004A3D6
:1016F900E064017004D2658014C26580109000A86E
:10170900E0B40509306404D2658002C2651272F43E
:10171900306507121F81D2688005121F8FC2688049
:101729005AA2B292649000A7E0B40514900008E0B0
:101739007004A3E064017004D265802FC265802B18
:101749009000A6E0B40514900006E07004A3E064DC
:10175900017004D2658014C26580109000A8E0B4BD
:101769000509306404D2658002C2651272F42065ED
:1017790007121FB9D2688003121FF0E4FD12C419C1
:101789000217D69000061271D21273E55002801723
:101799007C001271E312731D4033802290000812FD
:1017A90071D21273E5500F1272F4121FF0E4FD1298
:1017B900C419D27780171272CE12731D400F12729C
:1017C900F4121FB9D268E4FD12C419C277E53A12BE
:1017D9007136FF70141272DC7464F0127205F583AD
:1017E900E0FE127254EEF08027EFB406061272542E
:1017F900E48010E53A127136127204127164FF1214
:101809007254EFF0127205F583E0FF1272DCEFF00B
:10181900127254E0FF1271AFFEC39F400A1272DCCC
:10182900E0FFEED39F4031900069E0FF640260065B
:10183900EFD394045028121FC7500C1272DCE0FF3A
:101849001271AFC39F401112200B5012127254E053
:10185900FF1271AFD39F400612748A021B4E1220E9
:101869000B40030219E7E4785AF61271B6FD785A6B
:10187900E6FCC39D501612713C2C1272041271645D
:10188900FF745C2CF8A607785A0680DEE4785AF6CD
:10189900E53A1274C8742E12713E127460500CEF3E
:1018A9002D245CF87602785A0680E51271AFFFD3D1
:1018B9009403500B785AA6077474253AF87603787E
:1018C90061E624FEFF1271AFFEC39F500A745625CC
:1018D9003AF8760602192AEED3785C964005127416
:1018E9008A803EE4785BF61271B6FD12713C12747F
:1018F9006D127193502B745D2DF91271AFFFD3974F
:10190900401A785BE6FE245CF8E624FEFDEFC39DF1
:10191900500AEE04FF7456253AF8A607785B06804C
:10192900C6785C1271AAFDC39E4011EDD39F500C7D
:101939001271FC64016005EF60027601785D127135
:10194900AAFDC39E4013EDD39F500E1271FC640192
:101959006007EF640260027602785E1271AAFDC325
:101969009E4013EDD39F500E1271FC64026007EF85
:10197900640360027603785F1271AAFDC39E401367
:10198900EDD39F500E1271FC64036007EF6404608D
:1019990002760478601271AAFDC39E4013EDD39FAD
:1019A900500E1271FC64046007EF6405600276054D
:1019B90078611271AAFDC39E4013EDD39F500E1298
:1019C90071FC64056007EF6406600276061271AF68
:1019D900B4030B785AE6FF7474253AF8A607121F68
:1019E900C74003021B4EE4785AF6E53A127136FFF6
:1019F900785AE6C39F5013E6127204127164FE749A
:101A09005C2FF8A606785A0680E0E4785AF6E53A9B
:101A1900127136127460500CEF2D245CF8766678DA
:101A29005A0680EA7861E62402FFE4331271AEFDBA
:101A3900D39FEE127193400A7456253AF8760C0238
:101A49001A9CEDC3785C96500612748A021A9CE4BB
:101A5900785BF61271B6FD12713C12746D127193B6
:101A69005031745D2DF91271AFFFC3975020785B27
:101A7900E6FE245CF8E62402FDE433FCEFD31271A0
:101A890091400BEE2407FF7456253AF8A607785BB8
:101A99000680C01271AF785C12739540111271887B
:101AA900500C1271FC64076005EF60027607127131
:101AB900AF785D1273954013127188500E1271FC44
:101AC90064076007EF6408600276081271AF785EF8
:101AD90012747A4013127188500E1271FC640860F6
:101AE90007EF6409600276091271AF785F12747AA0
:101AF9004013127188500E1271FC64096007EF647B
:101B09000A6002760A1271AFFF7860E6FEEFC39EA3
:101B19004013127188500E1271FC640A6007EF6459
:101B29000B6002760B1271AFFF7861E6FEEFC39E80
:101B39004013127188500E1271FC640B6007EF6438
:101B49000C6002760C127125E0FF743B253AF8A669
:101B59000790019F122000504D121F9D404812719D
:101B690025E070397456253AF8E6D394064010906A
:101B7900017F12200040081271257407F080241299
:101B890071FCD39400401CEF94075017900181E039
:101B9900FEA3E0FFAD3A12CE59400880001271252C
:101BA900E004F0121FD490019FE0FEA3E0FFE53AA4
:101BB9002402FD12CE595025121F9D402012712575
:101BC900E0FFB40707127125E4F08009EF600612FF
:101BD9007125E014F01272E8C26812C4197456250E
:101BE9003AF8E6124E191C17011C38021C64031C32
:101BF90092041CC3051CF4061D1A071D32081D5743
:101C0900091D830A1DB00B1DE20C00001E12127182
:101C190025E0FFD394005003021D7EEF9407400393
:101C2900021D7E121F04E0FFAB3A7D01021DC512A1
:101C39007125E0FFD394014011EF9407500C121F56
:101C490004E0FFAB3A7D02021DC5127125E0B40123
:101C590005C266021E0BD266021E0B127125E0FF39
:101C6900D394024011EF9407500C121F1DE0FFABF3
:101C79003A7D03021DC5127125E0FF64026035EF4C
:101C8900B40103021D79021D7E127125E0FFD39470
:101C9900034011EF9407500C121F1DE0FFAB3A7D72
:101CA90004021DC5127125E0FFD394035009EFC347
:101CB90094014003021D79021D7E127125E0FFD3B4
:101CC90094044011EF9407500C121F36E0FFAB3A11
:101CD9007D05021DC5127125E0FFD394045009EF5B
:101CE900C394014003021D79021D7E127125E0B4DF
:101CF9000609121F367406F0021E32127125E0FF22
:101D0900D394055009EFC394014003021D79021DC4
:101D19007E127125E0D39406400C121F4FE0FFABF1
:101D29003A7D07021DC5021D7E127125E0D3940775
:101D3900400C121F4FE0FFAB3A7D08021DC512711E
:101D490025E0B40704C2668002D266021E0B127136
:101D590025E0D39408400C121F68E0FFAB3A7D09D7
:101D6900021DC5127125E0FF64086004EFB4070580
:101D7900C266021E0BD266021E0B127125E0D394B5
:101D890009400B121F68E0FFAB3A7D0A802E1271E1
:101D990025E0FFD394094005EF94074005C2660288
:101DA9001E0BD266021E0B127125E0D3940A401253
:101DB900121FD4127125E0FFAB3A7D0B12CD8D02B3
:101DC9001E32127125E0FFD3940A4005EF940740B3
:101DD90004C266802DD2668029127125E0D3940B46
:101DE900400B122028127125740CF0803C127125C9
:101DF900E0FFD3940B4005EF94074004C2668002CC
:101E0900D266AF3A12CD018020122028127125E046
:101E1900C3940140071272E8D268800A12711EEF5A
:101E2900F01272E8C26812C4197B017A0179307D17
:101E39000212CE0D500D127125E0B4010612712562
:101E49007402F0127125E0FF743B253AF8E66F60E1
:101E59001B90018D7401F0A3F0FB7A007916D2680A
:101E6900AD3A12C419E4FD7F0F12CDB790017DE0A0
:101E7900706BE53BD394004029E53B94075023124E
:101E89002018EF600C121FAB1220181274CF12CD5C
:101E9900B7122020EF6046121FE21220201274D9D7
:101EA9008038E53BC3940740347F577E0012BF5BFF
:101EB900EF6010121FE27F577E0012BF5B1274D9C8
:101EC90012CDB77F587E0012BF5BEF6010121FABB7
:101ED9007F587E0012BF5B1274CF12CDB720761ADD
:101EE900E490019FF0A3F0900181F0A3F090017FAD
:0A1EF900F0A3F012711EEFF0D27694
:101F0300227B017A01799FC268AD3A12C419747DAC
:101F1300253AF582E43401F583227B017A01799F26
:101F2300C268AD3A12C419747D253AF582E43401CE
:101F3300F583227B017A01799FC268AD3A12C419F5
:101F4300747D253AF582E43401F583227B017A011D
:101F5300799FC268AD3A12C419747D253AF582E4BB
:101F63003401F583227B017A01799FC268AD3A126D
:101F7300C419747D253AF582E43401F58322C268DD
:101F8300E4FD12C4197B007A00797622D268E4FD5D
:101F930012C4197B007A00797622900016E0FEA322
:101FA300E0FFAD3A12CE59227B017A017981D268E2
:101FB300E4FD12C41922C268E4FD12C4197B007A3D
:101FC300007976227876E6FE08E6FFAD3A12CE591E
:101FD300227B017A01799FC268AD3A12C419227B30
:101FE300017A01797FD268E4FD12C41922D268E430
:101FF300FD12C4197B007A007976C26822E0FEA341
:10200300E0FFAD3A12CE59227878E6FE08E6FFAD3E
:102013003A12CE59227F577E0012BF5B227F587E31
:102023000012BF5B227B017A01799FC268AD3A122D
:03203300C41922AB
:069FC2008F3A8D3B8B3C41
:109FC8009001BFE53AF0E49001C4F09001C4E0FFCD
:109FD800C39402400302A12AEF701C9000AAE090EB
:109FE80000A91272D51273F5E53BC4540FF53E90E3
:109FF80001C5E53AF0801C9000ACE0FE9000ABE0B3
:10A008007C0024001273F5E53D540FF53E9001C520
:10A01800E53CF0E53E1460101460151460181460F7
:10A028002024047027E480209001BF7464F0801C11
:10A038009001C5E080129001C5E0FFC3132432806F
:10A04800079001C5E0FFC3139001BFF09000B3E093
:10A05800B4010C9001C0124DB8E47B3CFA80129018
:10A0680000B3E0B402139001C0124DB8E47B107A3B
:10A078000EF9F8124C661273FB9001BFE0FFE4FC86
:10A08800FDFE12733F1273691274E3FF7464127158
:10A09800A2E4FCFD12733FFD25E02484F582E4343C
:10A0A80001F5831274E3FC744B2DF582E43400F55A
:10A0B80083ECF0ED127369E0FEA3E0FFD39400EEA9
:10A0C80094004038ECD394004032748D2DF582E42E
:10A0D8003401F583E0B40124D25A9001C4E004FBB2
:10A0E800E4FD12B6CA9001C4E0FF1274347401F0A2
:10A0F800748D2FF582E43401F583E4F09001C4E017
:10A10800FF127369E0FCA3E04C60069001BFE070A9
:10A118000874322F127436E4F09001C4E004F0029F
:02A128009FD3C3
:01A12A002212
:0863C0008F3A8B3B8A3C893DBA
:1063C800E49001C2F09001C2E0FFC39402400302CE
:1063D8006750E0FE2494F582E43400F583E09001F0
:1063E800C3F074A02E127403B407089001BFE53AF5
:1063F800F08017127375EF25E0FFEEA807088002FA
:10640800C313D8FC54039001BFF09001C3E0127489
:10641800C8742D1271C09001C4F0C3742E12713F5C
:106428009001C5F09001BFE01470030265B01460DC
:106438001014700302651B240360030265BA026529
:10644800A79001C31272A412717EFFD39E4041909F
:1064580001C3E0FE247D1271291272AEE5822D126D
:1064680071691274EDE4FCFD12683FC006C0079024
:1064780001C4E0127154127293F9F8D007D00612D1
:106488007389D394E8EE940350030265BA0265B0A9
:10649800127172FFC39E50789001C3E0247D12717F
:1064A80029E0FD9001C4E02DFDE433FCC3ED9FFF1E
:1064B800EC9400FE9001C3E0127246127492FFE45D
:1064C800FCFDFE12683FC004C005C006C00790016D
:1064D800C5E0FF9001C4E02FFDE433FC9001C3E068
:1064E800FB1274C8C3ED9FFFEC9EFEEB12724612BE
:1064F8007492FBE4FAF9F8D007D006D005D004125C
:106508007389D394E8EE940350030265BA0265B028
:106518000265A79001C31272A412717EFFD39E4038
:106528003E9001C3E0FE247D1271291272AEE5820D
:106538002D1271691274ED12682EC004C005C006D0
:10654800C007127131FFED127159127293F9F8D028
:1065580007D006D005D00412721340560265B31254
:106568007172F9C39E5038127131FF747D2D12710A
:1065780029127150126812C004C005C006C0071263
:10658800727012713F2CFFED127159FBE4FAF9F8A1
:10659800D007D006D005D0041272134015800CE441
:1065A8009001C0F0A3F0800A9001C07403F0A374B6
:1065B800E8F09001C2E0FF127401B40703E4800F11
:1065C8001273757440A807088002C333D8FC5E9024
:1065D80001BFF09001BFE0700302666E127172F99C
:1065E800C39E502A127131FF747D2D1271291271C8
:1065F80050126812C004C005C006C007127270129B
:10660800713F2CFFED127159FBE4FA0266581272C1
:10661800A112717ED39E40479001C3E0FF247D12F2
:106628007129E0FEEF1272B1E5822E127169FF90B6
:1066380001C3E02474F8E61271A212682EC004C0E7
:1066480005C006C007127131FFED1271591272931D
:10665800F9F8D007D006D005D0041273898007E472
:106668009001C0F0A3F012722940077403F0A374DC
:10667800E8F09001C2E0FD12749EFCB4020F900194
:10668800C0E0C313FEA3E013FFED0266F6EC64035B
:10669800702C9001C0E0FEA3E0FF7C007D05124B4A
:1066A8004E0D124B60EF24B1FFE43EFEA3E0FD1255
:1066B80074A9ED1273A94039ED1274B480339001B6
:1066C800C2E0FF12749E9001C0B4041BE0FCA3E07A
:1066D800FDC374E89DFD74039CFCEF25E0246EF86F
:1066E800A60408A605800AE0FEA3E0FFA3E0127452
:1066F800A99001C2E0127401640970439001BFF0CF
:106708009001BFE0FFC39402503512743E70289088
:1067180001BF127354700712733364036012ED647F
:10672800014C70139001BFE02452127336B4050770
:106738009001C2E01274F79001BFE004F080C190AC
:1067480001C2E004F00263CD900099E064016003A7
:10675800026811AB3BAA3CA93D900044124B0FC400
:10676800540314607914600A1460392403707202A7
:1067780067DD1272A112717EFFD39E4006EEFDEF17
:106788009D800F900094127175FFC39E5014C374BE
:10679800329FFFE49400FEEF25E0FFEE33900110F6
:1067A800801180311272A112717EFFD39E400A902F
:1067B8000110E4F0A3EFF08028900094127175FFA7
:1067C800C39E5011C374649F900111F0E49400902B
:1067D8000110F0800CE4900110F0A3F08003127413
:1067E8000C900110E0FEA3E0FFC39405EE648094D2
:1067F800805008E4900110F0A3F022D3EF945FEEEC
:0968080064809480400312740CBA
:1068110022FFE9FDC3EF9DFFE49400FEE4FCFD755A
:1068210047F4754601F545F54412CE2322E4FCFDFB
:106831007547F4754601F545F54412CE2322754797
:0C684100E8754603F545F54412CE23220D
:1029BC00E4FD7F0212CDB71291F0E49001B4F01255
:1029CC0074169402500812164712741D80F130725E
:1029DC001E90007DE090017DF09000A5E0FF7E0050
:1029EC007C007D3C124B4E9001A1EEF0A3EFF0E485
:1029FC009001B4F012741694045031EF123157BF99
:102A0C000208D312744C401980109001B4E01231BA
:102A1C0057BF0313C312744C5007127501E4F080B6
:102A2C00061275017401F012741D80C890017DE0CE
:102A3C00F9D39406504C127424E97C002FFFEC3E21
:102A4C00FE12318FF090017DE0241B123139900180
:102A5C007DE0FF90007DE02F12724A787412310DE8
:102A6C009001BBEEF0A3EFF090007DE0FDA3E02D14
:102A7C0012724AE0FD7C00124B601272BF4072026F
:102A8C002AF712742490017DE07C002FFFEC3EFEAF
:102A9C0090007EE0FDC374069DFDE49CFCC3EF9D9D
:102AAC00FFEE9CFE9001BBF0A3EFF012318F127180
:102ABC009A90017D12723712319AEFF090017DE0FD
:102ACC001272B5E0FF7874E61271A2123147C0069B
:102ADC00C00790007DE012724AE0127293F9F8D0B0
:102AEC0007D00612C8531272BF40069001BB127475
:102AFC000F90017EE0FFD394065050900048E07098
:102B0C0009EF2429FFE43401800990017EE024F5CB
:102B1C00FFE433FE12318390017E12748112316F07
:102B2C0090007B12739C787512310DC00790007B5E
:102B3C00E0A312739CE0FBE4FAF9F8D00712C85337
:102B4C009001BD1272C24075022BC3900048E090F8
:102B5C00007C700F12719E90017EE02429FDE434FC
:102B6C0001800C12719E90017EE024F5FDE433127D
:102B7C00723E12318390007C12719E90017E127213
:102B8C003712316F12724AE0FF7875E61271A21299
:102B9C0031479001BDEEF0A3EFF090007BE0127393
:102BAC009FE0FDC374649DFDE49400FC124B6090A7
:102BBC0001BD1272C240069001BD12740F9000BF8D
:102BCC00E07003022C68D263E49001B8F0A3F01219
:102BDC007457C39405EE9400502074C02F1273D414
:102BEC00B4030BB263A263E4332438F8A607900154
:102BFC00B8E475F001124BEB80D5748F2538127246
:102C0C0067702B748F25391272679001BB700BA300
:102C1C00E0FBFF9001B4E0FD803DA3E0FF9001B428
:102C2C00E0FD9001BDA3E0FB9001B5E08029748F1D
:102C3C0025391272679001BD7014A3E0FF9001B5A5
:102C4C00E0FD9001BBA3E0FB9001B4E08009A3E0A0
:102C5C00FBFF9001B5E0FDF53D129FC2E49001B47D
:102C6C00F01274169405507B748F2F127267B40295
:102C7C00107874E6D308969001B4E0402024A38029
:102C8C0011127260B4031E7874E6C30896500A746D
:102C9C00A32F1273BDE4F080189001B4E01273BB43
:102CAC007401F0800C127260FE74A32F1273BDEECF
:102CBC00F09001B4E0FD1273BBE025E02493F582A3
:102CCC00E43401F583E0FEA3E0FF12CE5992687B59
:102CDC00017A01798F9001B4E0FD12C41912741DB0
:102CEC00022C6D900099E0B4010590018F80139037
:102CFC00011BE0D3940390018F5007A3E0F4F5205F
:102D0C008004A3E0F520E50F24FE7003022DE124DE
:102D1C00026003022E5C786F743226F618E436F6E5
:102D2C00081273C54004E4F608F6787174CE26F6E2
:102D3C001874FF36F6C3E664809480500576030859
:102D4C0076E8900209E0C394034033303B30786E50
:102D5C00E6FE08E6FFD394EEEE6480948240079082
:102D6C00005074028031D3EF9490EE6480948140D3
:102D7C000790005074018004E49000508019D378BF
:102D8C006FE694F418E664809481400790005074C8
:102D9C00018004E4900050F09001EA7405F0786E24
:102DAC00E6FE08E6FF7C007D04124BB59001B4EF03
:102DBC00F0FD7F0A7E0012BCBC7F0A7E0012319AA5
:102DCC00E06F7003022FB27B9D7D9D7F0D12CF3A79
:102DDC0012CFD780F2900060E06401703DE50D24C5
:102DEC00C0FFE50C34FEFE7C007D05124B4E7D09C8
:102DFC00124BB5786EA60608A6071272CEFFEC3EF3
:102E0C00CF24C0CF34FEFE7D05124B4E7D09124BF4
:102E1C00607870A60608A6078011786EA60C08A626
:102E2C000D1272CE7871F6EC3E18F6786F1273C5EF
:102E3C00400576030876E8D378711273C6400576A0
:102E4C00030876E85320F8A25972529200022FB26E
:102E5C0090017DE0FFD394065029EF2422123139E2
:102E6C00900048E090017D700EE0240AFFE43401EC
:102E7C00123161C4022ED7E024FCFFE4331231611D
:102E8C00022ED712719B90017DE0242212723A120D
:102E9C00BF5B9001B4EFF0900048E070189001B463
:102EAC00E0C4540F12719A90017DE0240A12723A18
:102EBC00123129801912719B90017DE024FCFDE4F4
:102ECC003312723E1231299001B4E0540FF090008D
:102EDC0048E0701D90007C12719E90017EE0FB24F6
:102EEC00301273065006AF05AE0480201274578062
:102EFC001B90007C12719E90017EE0FB24031273E8
:102F0C00065006AF05AE04800312745712BF5B90D7
:102F1C0001B7EFF09001B4E0FF7B017A0179B612B2
:102F2C0063C07D0512CE07501E7FFB12317C7F00E3
:102F3C00FEC006C0077FFA12317CFDD0E02D786F01
:102F4C00F6D0E0340018F67D0612CE0750247FF937
:102F5C007E0112BF5BEF7F00FEC006C0077FF87ECC
:102F6C000112BF5BEFFDD0E02D7871F6D0E034009C
:102F7C0018F6E49001B4F012741694025028EF1273
:102F8C0073A94004E01274B49001B4E0FF25E0246E
:102F9C006EF8E6FC08C3EC648094805004EF127465
:102FAC00F712741D80D17FF77E0112BF5B9001BABE
:102FBC00EFF0E4F5377B017A0079B5AD3712CE0D21
:102FCC0050137A0179BAAD3712CE0D92641B7A0088
:102FDC00792002306B1271EFB40103305220127160
:102FEC00EFB4020A900006E07002A3E060101271C8
:102FFC00EFB40311900008E07002A3E070071273A5
:10300C00DEC264805A1271EFB4041A9000BFE070F3
:10301C0014900032E0640160030230BAFB7A00794C
:10302C0020D264803A1271EF6405701E9000BFE0EC
:10303C007018FB7A007920AD3712CE0DE433FF9077
:10304C000032E05F24FF926480151271EFB4061712
:10305C009000BFE0B402103075541273DEC264AD40
:10306C003712CC600230BA1271EF640970409001D3
:10307C00B4F01274169402503512743E702B9001F9
:10308C00B4127354700712733364036012ED64014D
:10309C004C70169001B4E02452127336B4050A1227
:1030AC0073DEC264AD3712CC6012741D80C4053758
:1030BC00E537C394055003022FC1D263E4F53712F0
:1030CC0073D06402701190004A1273DDB40104D203
:1030DC0064801FC264801B1273D064037019B263C6
:1030EC00A263331274341273DDB40104D26480020F
:1030FC00C264AD3712CC600537E537C3940540BFC9
:10310C0022E0FFE6FDC3EF9DFFE49400FEE4FCFD2E
:10311C00754764F546F545F54412CE23229001BB64
:10312C00F0A3EFF012BF5B9001B6EFF022FFE43496
:10313C0001FE12BF5B9001B4EFF022E4FCFD754779
:10314C0064F546F545F54412CE23222491FFE43371
:10315C00FE12BF5B22FE12BF5B9001B6EFF0900136
:10316C00B4E02212BF5B9001B5EFF090017EE0223B
:10317C007E0112BF5BEF2212BF5B900195E4F0A3BE
:10318C00EFF02212BF5B900193E4F0A3EF2212BF89
:05319C005B9001B4226C
:10C47A00304B1FE49001BCF09001BCE0FD24FCFFAE
:10C48A00E433FEED90CC0C9312C4CEE0C394154075
:10C49A00E722E49001BCF09001BCE0FFC394155080
:10C4AA0022EF24FEFFE434ECFE7B017A0179BD120F
:10C4BA00C9599001BCE024FCFFE433FEA3E012C496
:03C4CA00CE80D44D
:0CC4CD0022FD12BCBC9001BCE004F02277
:10C58C00304B1CE49001BCF09001BCE0FD127482B5
:10C59C00ED90CC289312C5D9E0C3940740EA22E46D
:10C5AC009001BCF09001BCE0FFC39407501EEF2437
:10C5BC001DFFE434EDFE7B017A0179BD12C959905F
:0CC5CC0001BC127481A3E012C5D980D814
:0CC5D80022FD12BCBC9001BCE004F0226B
:10C3B800304B20E49001BCF09001BCE0FD2422FF4A
:10C3C800E43401FEED90CC2F9312C40EE0C3940721
:10C3D80040E622E49001BCF09001BCE0FFC3940762
:10C3E8005023EF2424FFE434EDFE7B017A0179BD6C
:10C3F80012C9599001BCE02422FFE43401FEA3E0F5
:05C4080012C40E80D3F8
:0CC40D0022FD12BCBC9001BCE004F02237
:08B79E00C16CC16DC16EC1EB6D
:10CB2900D390011FE0940090011EE094002290012F
:10CB39001EE0FEA3E0FF7B012274FFF5F0024BEB40
:10CB49009000BFE06401227523FF7524FF7525FF5E
:01CB590022B9
:10C05200203A76EF54031460101460621460652471
:10C06200037066852380D2A022307E07755803C2F2
:10C072007E802BE558D3940040241558900037E079
:10C08200600FE52430E6055324BF8012432440802C
:10C092000DE52430E0055324FE800343240185246A
:10C0A20080900070E0FFB405089001FBE0F580800D
:10C0B2000AEFB40606207C037580FFD2A1228525F3
:0AC0C20080D2A222852680D2A3229C
:10B18E00D3900200E0948F9001FFE094014053E4CD
:10B19E00F0A3F09001F9E004F0E0D39414400930EC
:10B1AE006E06C26EE024FEF012CB4970229000B300
:10B1BE00E0FF700D20780A12CB29401312CB42808B
:10B1CE000EEF700B30780812CB37E4FD12B6CAD3EF
:10B1DE00786DE6940018E69400400708E61618709D
:10B1EE0001169001F9E0D3943B4038E4F09001FE53
:10B1FE00E004F0E054077002D26E12CB4970249036
:10B20E0000B3E0FFB4010D20780A12CB29401412CE
:10B21E00CB42800FEFB4010B30780812CB377D0193
:10B22E0012B6CA9001FEE0D3943B4031E4F0900296
:10B23E0001E004F012CB4970249000B3E0FFB40299
:10B24E000D20780A12CB29401412CB42800FEFB496
:10B25E00020B30780812CB377D0212B6CA9002016B
:0DB26E00E0D394174006E4F0D26DD26C22BC
:03000B0002BB0431
:10BB0400C0E0C0F0C083C082C0D075D000C000C007
:10BB140001C002C003C004C005C006C00705087503
:10BB24008A04758CF79001FFE475F001124BEBD297
:10BB34006FC2A0C2A1C2A2C2A3900070E0FFB4056C
:10BB4400149001FAE0F523A3E0F524A3E0F525A37E
:10BB5400E0F526801FEFB40208206B0512CB50805D
:10BB640013900070E0B4060C207909207C0612CBF7
:10BB7400507526FFAF0812C05212B18ED007D006FE
:10BB8400D005D004D003D002D001D000D0D0D082D0
:07BB9400D083D0F0D0E032B5
:0301000013017A6E
:10CD2500E4FCFDFB7AECF9F8D3024D9175F65575E7
:10CD3500F6AA75F65543BF0422E4FCFD7BFF0AF80D
:04CD4500C3024D9147
:07CFB2008F828E83E493FFE0
:01CFB9002255
:0AC959008E398F3A8B3B8A3C893DF2
:10C963009000BBE0B4011912CD255014AE39AF3A93
:10C9730012CD3E400BE4253AF53A74FE3539F539CC
:10C98300853A82853983E493AB3BAA3CA93D124B9C
:03C993003C7F01E5
:01C99600227E
:10C897008F368C378D38C2AF9000BBE0B4011DAE28
:10C8A70037AF3812CD255014AE37AF3812CD3E40D2
:10C8B7000BE42538F53874FE3537F53712CD31E5F9
:10C8C70037F5F48538F58536F675F780D2AF7F00F2
:01C8D700223E
:10CDCC00C2AF9000BBE0B40104BF76011F12CD319D
:0ECDDC00EF25E0F5F4E4F5F575F782D2AF220D
:08B7A600C17CC179C17AC17BAD
:08CFBA00C258E4900204F022C9
:10A3F30020610302A537C261C2A9C2A0C2A1C2A241
:10A40300C2A3C2B77580FF7F057E0012CF93E5809C
:10A41300F4F532D2B7AF0812C052D2A9900204E0C9
:10A42300FF6532FE55326002D27B207B0302A51406
:10A43300EF5E700302A514C23AC27BD27C90020580
:10A443007464F0900204E0900202F024FC6018248B
:10A45300FC601824F8601824D0601824C060182405
:10A463007E70197F0480127F02800E7F06800A7F30
:10A473000380067F0180027F0512CE3FE559D39406
:10A48300005009900069E0600302A5142052379040
:10A4930000A7E0B40304D26280189000A6E0B403DE
:10A4A30004D262800D9000A8E0B40304D26280025B
:10A4B300C262306211D252430E01AD0E7F097E009B
:10A4C30012BCBC12A53820593B900055E06035E41E
:10A4D300FD7F1212CDB7D259D27A900055E0FB7CA2
:10A4E300007D3CFF7E00124B4E786CA60608A60743
:10A4F300AF037E00E4FB7D0112B6CA900069E070F1
:10A503000312A538D23C751300751401E490003191
:10A51300F0900204E532F0B48815900203E0FF04E2
:10A52300F0EFD3941E400D7F0912CE3FD27922E47F
:04A53300900203F09F
:10A53700229000487404F090007AF0FD7F797E0045
:04A5470012BCBC2264
:10C6D900C0D1CEBBA183674F3D2D9B19293D536620
:10C6E900717065554333261C15410504050505067A
:10C6F90006060707080808090A0A0B0B0D0D0F1093
:10C709001112151A1E232324292B2E2F2F2B2824EF
:0DC71900211D1B191715131311100F0F0E02
:10B7AE0050016A00000000000000000000000000D0
:10B7BE000000000120000121000122FFC171C173B0
:02B7CE00C17246
:1078F2009001BBE025E025E0246AF582E43401F53D
:1079020083124DB8E47B64FAF9F812C8539001BBB4
:10791200E025E02406F582E43400F5832225E02404
:1079220054F582E43401F583E0FEA3E0FFEE3395E3
:10793200E0FDFCE47B64FAF9F8124C669001BBE0CE
:1079420025E025E0246AF582E43401F583229001E2
:10795200BBE02452F582E43400F583E022ED25E019
:107962002410F582E43400F58322124DB8E47B64DE
:10797200FAF9F812C853A804A905AA06AB079001A0
:10798200BBE025E02454F582E43401F583E0FEA354
:10799200E0FFEE3395E0FDFC124C589001B7124D1A
:1079A200D07F28E4FEFDFC9001B7024DC4AF3CEF4E
:1079B2003395E0FEEF25E0FFEE33FEE5372F22AFF1
:1079C20037EF7D0A3395E0FE7C00024B4E7B007A56
:1079D200C078441248A4E4FBFA7948784212479BE3
:1079E20012497F9001B4EEF0A3EFF0229001AAE0D9
:1079F200FEA3E0FF7C00024B4EE0FEA3E0FF7C0012
:107A02007D09124B4E7D05124BB5EF2440FFEE343B
:107A120001229001BBE025E02454F582E43401F513
:107A220083E0FEA3E0FFEE3395E0FDFCE47B64FA25
:107A3200F9F822EEF0A3EFF0ED25E024F1F582E46F
:107A42003401F583E0223395E0FE7C007D64124B25
:107A52004E9001BCEE229000107403F0A374FFF06C
:107A620022FC124946797F7B007AC078440248A4FE
:107A7200FE7C037DFF124B4EAA06AB07AE38AF3930
:107A82007C007D0A024B4EE6FE08E6FFEE3395E0EF
:107A92008F478E46F545F5442274A62536F582E4D5
:107AA2003400F583E0229001BBE0FD25E0244DF88F
:107AB200E4F608F67B017A0079452274502536F502
:107AC20082E43401F58322EEF0A3EFF0D394FFEECB
:107AD20064809483223400FEC3E53E9FF53EE53D7B
:107AE2009EF53DAF3CEF3395E0229000B2E0FE9070
:107AF20000B1E07C002400FFEC3EFEC3E50D9FFFD9
:107B0200E50C9EFE22E0547FFEA3E0FFC3E49FFF4C
:107B1200E49E22E0FCA3C3E09FEE6480F8EC648064
:107B22009822900056E0FFE4FCFDFE227403F0A3CD
:107B320074E8F022E4FBFA79C8784212479B0249C2
:107B42007F9001BBE0FD75F016A4241BFFE435F025
:107B5200FEED22124BB59001AAEEF0A3EFF0222522
:107B6200E02454F582E43401F583E0FCA3E0FD2235
:107B7200EF25E0244DF8E6FE08E6D39496EE940055
:107B8200227B017A01793022E0FCA3E0FDEC02497C
:107B920046C39001B5E0941A9001B4E064809480E9
:107BA20022900051E024FFFFE434FFFEE4FCFD22BA
:107BB2009001BBE0FF25E0244DF80806E61822E01C
:107BC20025E0FF9001B4E033FEF0A3EFF022900134
:107BD200BCE0FEA3E0FF229001BBE0FFC3940222BF
:107BE20074F32FF58274C63EF583E493229001BBB1
:107BF200E004F022A200B39208A208B392A7C21036
:107C020022A201B39209A209B392A6C21122A20230
:107C1200B3920AA20AB39293C21222A203B3920BA4
:107C2200A20BB39290C21322A204B3920CA20CB381
:107C32009291C21422FEEF2401FFE43E22747A25BF
:107C420036F582E43401F58322124DC4124C66905B
:107C520001BBE0FB223EF583E493FF9001BEE422E8
:107C6200A20BB39294A20CB3929522900032E07EC2
:107C72000022EEF0A3EFF04E227B017A0079C822B7
:107C8200E50D2405FFE4350CFE227B017A0079B470
:107C920022900051E0FBE4FAF9F822CF240CCF3411
:027CA200FE22C0
:027F76008F3446
:107F7800C264E53424FE602314603714604B146037
:107F88005F24047070E4F537A2009265A21092672E
:107F9800A2089266F535753601805A753701A20137
:107FA8009265A2119267A209926675350275360329
:107FB8008043753702A2029265A2129267A20A92C2
:107FC80066753504753605802C753703A2039265EE
:107FD800A2139267A20B926675350675360780154F
:107FE800753704A2049265A2149267A20C92667572
:107FF8003508753609A266306501B350030281D38E
:10800800AD3512820E9263A265B3306301B3504E50
:108018007B017A01794DA265B39268AD3512C41916
:10802800E53720630A24161281D47401F0800724EE
:10803800111281D4E4F0745D2537F582E43401F53A
:1080480083E0D3940040177B017A01794DD268AD63
:108058003612C419E537240AFFE4FD12CDB7AD3650
:1080680012820E50030281D3853451206602D267F2
:10807800E534124E19809601809B0280A00380A5EA
:108088000480AA0581410680AF07000081D3A2675A
:10809800921022A267921122A267921222A26792DC
:1080A8001322A2679214221281F513135403FFBFFF
:1080B8000308900012127B2E8007E4900012F0A3B0
:1080C800F09000A1E0FFB401069000B6E06063EF15
:1080D800B4020A900006E07002A3E060559000A187
:1080E800E0B4030C900008E07002A3E07002804244
:1080F8009000A1E0FFB4040F900032E0B4010890B2
:1081080000BFE070028025EF640560030281D39010
:1081180000BFE060030281D3127C6DB401047F01CB
:1081280080027F00900012127C7460069000120298
:1081380081C8E49000120281D01281F55403FFBF78
:108148000308900010127B2E8007E4900010F0A323
:10815800F09000A0E0FFB401069000B6E0601FEFC9
:10816800B4020A900006E07002A3E060119000A03B
:10817800E0B40310900008E07002A3E07006E490F9
:10818800001080449000A0E0FFB40412900032E098
:10819800B4010B9000BFE070059000108022EF64DE
:1081A8000570289000BFE07022127C6DB401047F36
:1081B8000180027F00900010127C7460079000100C
:0B81C800127B2E22E4900010F0A3F0C8
:1081D30022FFE43401FE12BF5B745D2537F582E4B0
:1081E3003401F583EFF074632537F582E43401F548
:1081F3008322900094E0247DF582E43401F583E04A
:1082030024FCFFE433FE12BF5BEF2290014DE0FE3E
:07821300A3E0FF12CE592287
:04CFD700759FA6227A
:10C7C000E4FD7908EF5403FBA2E19291139290EFFC
:10C7D0007802CEC313CE13D8F9FBAF0119EF601264
:10C7E000EB54014205E960F2ED25E0FDEBC313FBDC
:10C7F00080E8C2A9C2A0C2A1C2A2C2A38D80C2B356
:09C80000D2B3AF0812C052D2A954
:01C80900220C
:10C2F100785A7602087600087601087600EF1392E4
:10C3010094EFA2E19295785DE618466040785AE68E
:10C31100FE08E6FF12C7C07F0F7E0012CF9330B236
:10C3210010785CE6FE08E6785B26F618EE36F680B5
:10C331000DC3785BE6795D97F618E61997F6785C98
:10C34100E6C313795CF708E61309F780B9785AE672
:04C35100FE08E6FFFD
:01C3550022C5
:04BA5D008E368F375B
:10BA6100E4FB90C6F393FF7E009001ACEEF0A3EFF0
:10BA7100F0D39537EE95364009E49001AAF0A30280
:10BA8100BAFA0BEBFF3395E0FE127BE2FD9001ACBD
:10BA9100E48DF0124BEB9001ACE0FCA3E0FDD395FB
:10BAA10037EC95364049ED9537FDEC9536FC127B28
:10BAB100E2FAC39DFEE49C9001AAF0A3CEF07D0AB8
:10BAC1001279EE127B589001AAE0FEA3E0FFEAFD95
:10BAD100127B557D051279EE7D0A127B55EBFF7DB8
:10BAE100051279C69001AAEE8FF0124BEB800BEB99
:10BAF10070909001AAF0A374FFF09001AAE0FEA358
:02BB0100E0FF63
:01BB0300221F
:04AC60008E368F3766
:10AC64007B0EEB304C0E3395E0FE74E4240EF5823B
:10AC740074C6800CFF3395E0FE74D92FF58274C638
:10AC8400127C57F0A3EFF0D39001BFE09537900109
:10AC9400BEE09536400AEBFF127A48F0A3EFF022AB
:10ACA4001BEBFF3395E0FE304C0974E42FF58274FE
:10ACB400C6800774D92FF58274C6127C578FF012A0
:10ACC4004BEB9001BEE0FEA3E0FFD39537EE953643
:10ACD400500302AD63EF9537FFEE9536127A4BF0D1
:10ACE400A3EFF0127BD0EBFD3395E0FC304C0974FC
:10ACF400E42DF58274C6800774D92DF58274C63CA0
:10AD0400F583E493FD7C00124BB59001BCEEF0A3F7
:10AD1400EFF0C3EB64809484EBFF401C3395E0FEBA
:10AD2400EF24FCFFEE34FF127A4B8FF0124BEB90C2
:10AD340001BCE0547FF08037127A488FF0124BEB5D
:10AD4400127BD0C374909FFF74019EFE9001BCF0EF
:10AD5400A3EFF0EE44809001BCF0A3EFF08010EB81
:10AD6400600302ACA49001BC7483F0A374E8F012F5
:02AD74007BD092
:01AD760022BA
:0893DB008E368F378C388D3976
:1093E300753C0A129554C006C0071279AF1295AEA8
:1093F300D0E02DF53ED0E03400F53DC3E53994FFD0
:10940300E538648094834009853D3A853E3B029567
:1094130024127A7E7C037DFF124BB58F3C30637040
:10942300EF3395E0127C371279B512959BC006C0D5
:1094330007129578D0E02DF53ED0E03400F53D12CB
:109443009554C006C0071279AF1295AED0E02DFF38
:10945300D0E0127AD7127A72C3EF9BFDEE9A127A9A
:1094630063C004C005C006C007AC3DAD3EEC124965
:1094730046D003D002D001D000127B3D8E3A8F3B01
:109483001279AF12959BC006C007127AE502950BBD
:109493001279AFCFE5363ECF2401CF3400FE12BFA1
:1094A3005BEF7F00FEC006C0071279AF1295B9D0FB
:1094B300E02DF53ED0E03400F53D129529C006C0FD
:1094C30007129578D0E02DFFD0E0127AD7127C37BF
:1094D300127A72C3EB9FFDEA9E127A63C004C00541
:1094E300C006C007AC3DAD3EEC124946D003D002E6
:1094F300D001D000127B3D8E3A8F3B129529C006D6
:10950300C007127AE5127C371279B51295B9D0E00B
:109513002DFFD0E03400FEEF253BF53BEE353AF569
:059523003AAE3AAF3B37
:1095280022AF3CEF3395E0FEEF2401FFE43EFEEF6F
:1095380025E0FFEE33FEE5372FCFE5363ECF240199
:10954800CF3400FE12BF5BEF7F00FE22AF3CEF334B
:1095580095E0FEEF25E0FFEE33FEE5372FCFE53649
:109568003ECF2401CF3400FE12BF5BEF7F00FE2206
:10957800AF3CEF3395E0FEEF2401FFE43EFEEF251C
:10958800E0FFEE33FEE5372FFFE5363EFE12BF5B08
:10959800EFFD22CFE5363ECF2401CF3400FE12BFC7
:1095A8005BEF7F00FE22FFE5363EFE12BF5BEFFD5C
:0C95B80022FFE5363EFE12BF5BEFFD22F5
:107CA4009000A3E0F537E4F536127A9B640660038E
:107CB400027D4C127C7BFD12CE0D4003027D4C12E2
:107CC4007C7B7D0112CE0D503A127AECC3900133C5
:107CD400E09F900132E09E5007127B83D264801BA8
:107CE400127C82D3900133E09FEE6480F8900132DD
:107CF400E06480984052127B83C2647D0212CC609F
:107D0400027D4C127AECE536127913E0FCA3E0C351
:107D14009FEC9E5007127B83D2648016127C82E50E
:107D240036127913E0FCA3D3127B19400A127B8329
:107D3400C2647D0212CC60E536127913E0FFA3E041
:107D4400900132CFF0A3EFF0127C7BE4FD12CE0D54
:107D54004005E4900130F0745225361279566401DE
:107D6400703A127A9B64016003027E5630720302F9
:107D74007E561279C1E536127913127B155005200F
:107D8400730280481279C1E536127913127B1540CB
:107D940003027E56207303027E56804C74522536AD
:107DA400127956FF64036008EF64056003027E568F
:107DB400127A9B64017038307203027E56E53612E3
:107DC4007913E0FEA3E04E701020730D9000A4E040
:107DD400FD7F1412CDB7027E56E536127913E0FE0C
:107DE400A3E04E706D30736AC273D272027E561273
:107DF4007A9B6402705C900055E0D3940040531267
:107E04007C3FE0FFE536127913E0FCA3E06F7001DC
:107E1400EC603A127ABDE004F0127ABDE0D394002B
:107E24004030127ABDE4F0E536127913A3E0FF1274
:107E34007C3F127F2470037404F0127F5530520586
:107E4400430E108003530EEF127F6A8005127ABD31
:107E5400E4F00536E536C394025003027CAD90008D
:107E6400A8E06401702F307203027F239000B6E013
:107E740024FF926320630D20730A9000A4E0FD7F29
:107E84001402CDB7306303027F23207303027F23E0
:107E9400C273D272229000A8E064026003027F23BE
:107EA400900069E0FF6407600BEF640860069000CF
:107EB400C77401F09000B6E024FF9263900055E08F
:107EC400D39400405A9000C7E064017052A2633317
:107ED400FF90017CE06F6042900152E004F0E0D337
:107EE4009400403BE4F090017C127F2470037404FE
:107EF400F0127F55900069E0B40810900042E090C1
:107F0400004FF0FD7FF57E0112BCBC305205430EDC
:0F7F1400108003530EEF127F6A22E4900152F0A7
:107F230022EFF0E4FD7F1212CDB7D259900055E055
:107F3300FB7C007D3CFF7E00124B4E786CA606084E
:107F4300A607AF037E00E4FB7D0112B6CA90011CB5
:107F5300E02290011CE0900048F090007AF0FD7F51
:107F6300797E0012BCBC22AD0E7F097E0012BCBC20
:037F7300D27A229D
:104E6C009001B67402F0304C1E900209E0701812DA
:104E7C00C13D900209E0C394035004C23B8008D2A8
:104E8C003B9001EA7405F0204C030251F712979BFA
:104E9C00400302541E303B069001B67403F0E490BC
:104EAC0001BBF09001B6E0FF9001BBE0FDC39F4059
:104EBC0003024FA89001EAE07020900051E0601AC4
:104ECC00127C8C12CE0D40129001BBE0FF12795473
:104EDC0064037024EFC39402501E9001BBE0FF12D8
:104EEC007B61EF127913ECF0A3EDF09001BBE012B3
:104EFC00791F124DD0024FA212793E12796CC31257
:104F0C004D91500D74FF7FD81279A6D3124D91504C
:104F1C002812793EC083C082124DC4C000C001C0AB
:104F2C0002C0037F0A1279A5124C66D003D002D0BE
:104F3C0001D000124C4B024F93127BA312793E12FC
:104F4C007C4B127942124DD0EB127942C083C08255
:104F5C00124DC4C000C001C002C003127A14124C1E
:104F6C0066D003D002D001D000124C4BD082D0833B
:104F7C00124DD012793EC083C082124DB8C00712B8
:104F8C007C93D00712C853D082D083124DD01278A4
:104F9C00F2EEF0A3EFF0127BEF024EAF203B0302D8
:104FAC00503090000A1254501279E5EE9001B43052
:104FBC00E708127B0790000A8008E0FFA3E090004E
:104FCC000ACFF0A3EFF0900060E0600D90000A12A1
:104FDC0079FB90000AF0A3EFF09001F5E0FEA3E05E
:104FEC00FF90000BE02FFF90000AE03E127C9DF03A
:104FFC00A3EFF0127C8C7D0312CE0D50277FF37E35
:10500C000112BF5BEF7F00FEC006C0077FF27E017E
:10501C0012BF5BEFFDD0E02DFED0E0340090000A13
:10502C00F0A3CEF0E49001BBF0127BD94003025404
:10503C001E74522F1279566401600302513E127C89
:10504C008C125459500302513E125441506C900131
:10505C00EAE07066127AB6125459403012790FE0B9
:10506C00FEA3E0FFD394B6EE64809483500BC3EFA1
:10507C009432EE648094805060127BB27001061200
:10508C007B724055127AA8D2640250E212790FE07A
:10509C00FEA3E0FFC394A2EE64809483503BEF9494
:1050AC005AEE648094804031127BB2700106127B00
:1050BC00724026127AA8C264801C125441401A1203
:1050CC007AB69001BBE0FD12CE0D500D127AB6905F
:1050DC0001BBE0FDC26412CC6012790F1254501265
:1050EC0079E5EE9001B430E706127B07FE8005E00F
:1050FC00FEA3E0FF12790FEEF0A3EFF0900060E05A
:10510C0060159001BBE0FB1279131279FBFEEB12D8
:10511C007913EEF0A3EFF09001BBE0FF127A3BFCA9
:10512C00A3E0FDEF127913E0FEA3E02DFFEE3C02AD
:10513C0051E59001BBE0FF12795464027013EF1239
:10514C007913E0FCA3E0FDEC127A64127B36025179
:10515C00E9127950FF64036005EF6405704B127916
:10516C000F127B8A797F1279CFD39418EE648094D6
:10517C00805014127950FFB40504D271801FEF6473
:10518C0003701AC2718016127B934011127950FF72
:10519C00B40504C2718006EFB40302D271A271E4AB
:1051AC0033FF12790FE40251ED9001BBE0F9127953
:1051BC005464047030127B43127913125421900101
:1051CC00BBE0FD127913127A35FEA3E0FFED1279E4
:1051DC0013E0FCA3E02FFFEC3E127C9DFE12790F36
:1051EC00EEF0A3EFF0127BEF025035B2703070107E
:1051FC007F0312C2F11279E5127BC1900156800E29
:10520C007F0212C2F11279E5127BC1900154EEF0CB
:10521C00A3EFF0E49001BBF0127BD940030252F8EB
:10522C009001EAE07006900051E0701B9001BBE029
:10523C00FE127B61EE127913ECF0A3EDF0EF127914
:10524C001F124DD00252F212793E12796CC3124DDC
:10525C0091500D74FF7FD81279A6D3124D9150291D
:10526C0012793EC083C082124DC4C000C001C0027E
:10527C00C003E47F0A1279A6124C66D003D002D088
:10528C0001D000124C4B0252E3127BA312793E1256
:10529C007C4B127942124DD0EB127942C083C08202
:1052AC00124DC4C000C001C002C003127A14124CCB
:1052BC0066D003D002D001D000124C4BD082D083E8
:1052CC00124DD012793EC083C082124DB8C0071265
:1052DC007C93D00712C853D082D083124DD0127851
:1052EC00F2EEF0A3EFF0127BEF025224E49001BB3C
:1052FC00F0127BD9400302541E74522F127956FAC5
:10530C006401705E12790FE0FEA3E0FF12AC601234
:10531C0079E5EE9001B430E706127B07FE8005E0DC
:10532C00FEA3E0FF12790FEEF0A3EFF0900060E027
:10533C0060159001BBE0FB1279131279FBFEEB12A6
:10534C007913EEF0A3EFF09001BBE0FF127A3BFC77
:10535C00A3E0FDEF127913E0FEA3E02DFFEE3C027B
:10536C00540CEA6402701112790F127B8A79FF12C5
:10537C007A69127B36025410127950FF640360056F
:10538C00EF6405704B12790F127B8A79FF1279CF7B
:10539C00D39418EE648094805014127950FFB405A5
:1053AC0004D271801FEF6403701AC2718016127BD5
:1053BC00934011127950FFB40504C2718006EFB40A
:1053CC000302D271A271E433FF12790FE402541478
:1053DC009001BBE0F912795464047030127B4312D3
:1053EC0079131254219001BBE0FD127913127A3516
:1053FC00FEA3E0FFED127913E0FCA3E02FFFEC3EDF
:10540C00127C9DFE12790FEEF0A3EFF0127BEF02EF
:05541C0052FD027CA41A
:10542100E0FCA3E0FD746829F582E43401F583E032
:1054310024FF92631293DB9001B4EEF0A3EFF0220C
:105441007B017A0079D09001BBE0FD12CE0D22E004
:10545100FEA3E0FF12AC60229001BBE0FD12CE0D75
:015461002228
:105F0700E4FD7F0512CDB77F737E0112BF5B900161
:105F17005CEFF07F747E0112BF5B900162EFF07F50
:105F2700757E0112BF5B90014FEFF07F767E011205
:105F3700BF5B900153EFF0787C06E6D394014002F3
:105F4700E4F6204203304C09787CE6B40103124E94
:105F57006CE50F60030260CE30424A786EE6FE08B9
:105F6700E6FFC3944AEE6480948150057520018052
:105F770013D3EF9494EE64809482400575200280D9
:105F870003752004A208300001B340028075A209FE
:105F9700300101B340028078A20A300201B35003F6
:105FA7000260418078786EE6FE08E6FFC394C8EE8B
:105FB7006480948050057520018033C3EF9490EE80
:105FC7006480948150057520028023C3EF9458EEB6
:105FD7006480948250057520048013C3EF9420EEEB
:105FE7006480948350057520088003752010204431
:105FF7000AB200B201B202B203B204A20830000131
:10600700B340057551018032A209300101B3400543
:106017007551028025A20A300201B340057551036C
:106027008018A20B300301B34005755104800BA201
:106037000C300401B3400375510590003CE0700338
:106047000262D7787CE67031127B24C006C00778DD
:106057006E127A89D007D00612CE23127A2E12C872
:1060670053900010127AC94003127A58C390001057
:10607700E064809480503F8039787CE66401703614
:10608700127B24C006C0077870127A89D007D00621
:1060970012CE23127A2E12C853900012127AC940D8
:1060A70006900012127A5BC3900012E0648094801D
:1060B7005004E4F0A3F0205C030262C91263854038
:1060C70003127A580262C97533011263B59404400A
:1060D700F9204C0620421D204C1A7533041263B573
:1060E700940640F990011BE0FF64016004EFB403DC
:1060F70003127C6290006BE060030261F890003C41
:10610700E070030261F82042030261BF787CE62554
:10611700E02410300308127964127B2E800712796D
:1061270064E4F0A3F090009EE0FFB4010330527CDA
:10613700EFB4020A900006E07002A3E0606E9000E0
:106147009EE0B4030C900008E07002A3E0700280A8
:106157005B90009EE0FFB40412900032E0B4010BA4
:106167009000BFE07005787CE68024EF6405702A14
:106177009000BFE07024127C6DB401047F0180029F
:106187007F00787CE6FD127960127C746009ED125D
:106197007960127B2E802AED801590009EE06407BF
:1061A700701F127B837D0212CE0D4015787CE6129C
:1061B7007960E4F0A3F08009787CE62406FF127F7B
:1061C70076305C1F127B247547E8754603F545F565
:1061D70044126358E0FEA3E0127ACE400612795FBC
:1061E700127A5B787CE6127960E0FEA3E0FF12C5C5
:1061F700E490003CE070030262D790006BE070030C
:106207000262D7127B24C006C007787CE625E0240B
:106217006EF8127A89D007D006126358E0FEA3E021
:10622700127ACE400612795F127A5B12795FE0FE2E
:10623700C3EE64809480500712795FE4F0A3F09076
:1062470000A1E0FFB401069000B6E0601FEFB402C2
:106257000A900006E07002A3E060119000A1E0B48C
:106267000310900008E07002A3E07006E4900012AB
:1062770080429000A1E0FFB4040F900032E0B40127
:10628700089000BFE07002801FEF64057029127943
:106297005FE0FEA3E0C3127ACF4015900032E0B46E
:1062A700010E9000BFE0700812795F127A5B8007D9
:1062B70012795FE4F0A3F0305C08126385400312A3
:1062C7007A58787CE6127960E0FEA3E0FF12C5E415
:1062D70020746BE551606790011BE0B4040F9000D8
:1062E70099E07009539BEFFD7F1312CDB7E5516419
:1062F700016003301005127BF68036E551640260B9
:1063070003301105127C038028E5516403600330D4
:106317001205127C10801AE55164046003301305DE
:10632700127C1D800CE55164056003301403127C58
:106337002AE4F5517FDC7E0512CF9312CFD7900167
:106347001BE0FF64016004EFB40303127C62C274B4
:106357002212CE23E47B64FAF9F812C853787CE65C
:10636700FD25E02410F582E43400F583EEF0A3EF79
:10637700F0ED25E02410F582E43400F58322900047
:1063870056E0FFE4FCFDFE7547E8754603F545F565
:106397004412CE23E47B64FAF9F812C85390001034
:1063A700EEF0A3EFF0D394FFEE6480948322AF3333
:0963B700127F760533E533C322A1
:10C5E4008E348F3590003CE0F9B40215787CE66017
:10C5F4000612BA5D8FAC22AF35AE3412BA5D8FA786
:10C6040022E9B40315787CE6AF35AE34600612BA7D
:10C614005D8FA62212BA5D8FA522D294D295AF3532
:10C62400AE3412C7C07F197E0012CF93787CE61314
:05C634009294C2952262
:10C35600E4F534F535304C02C322D294D295E4FF8D
:10C36600FE12C7C07F1912C3AE7FE87E0312CF93B9
:10C3760012CFD70535E535AE347002053414C394B3
:10C38600D0EE9407501DE535640145347010D29403
:10C39600D2957FFF7E0312C7C07F3212C3AE20B292
:07C3A600D2D32212CFD7C34E
:0BC3AD00227E0012CF93C294C29522A2
:0300130002B84CE4
:10B84C00C0E0C0F0C083C082C0D075D000C000C0C2
:10B85C0001C002C003C004C005C006C007D274E515
:10B86C0051607890011BE0B40419900099E07013BA
:10B87C00539BEF7FE97E0212CF93E4FD7F1312CD31
:10B88C00B780077FE97E0212CF93E5516401600314
:10B89C00301005127BF68036E551640260033011DE
:10B8AC0005127C038028E5516403600330120512F5
:10B8BC007C10801AE55164046003301305127C1D62
:10B8CC00800CE55164056003301403127C2A7FDC84
:10B8DC007E0512CF9312CFD7755100D007D006D06A
:10B8EC0005D004D003D002D001D000D0D0D082D06B
:06B8FC0083D0F0D0E03221
:08CFC200000000000000000067
:10CDEA00D2B47F017E002225E02454F582E4340186
:0DCDFA00F583229001C6E075F002A4FF222F
:10979B0078BC7C017D017BFF7ACF79C27E007F088C
:1097AB00124AD012CCB27FB112CB5A12994A12C6BE
:1097BB008AEF4E600512CFA8C32212994A12C80A2B
:1097CB009001BCEEF0A3EFF0BE0306BFB8031299F5
:1097DB0052129932C2DA12C80A9001BEEEF0A3EF10
:1097EB00F0D2DAD39484EE94034003129952129977
:1097FB003212C80A9001C0EEF0A3EFF0900209E01C
:10980B00C39403401712CD6C7F017E0012CF9312CD
:10981B00C80A9001C2EEF0A3EFF080149001C0E0F3
:10982B00FFA3E0A3CFF0A3EFF0E49001C0F0A3F00F
:10983B0012CFA89001BEE0FEA3E0FF9001BDE02F88
:10984B00FF9001BCE03EFE9001C1E02FFF9001C0F4
:10985B00E03E5403FE9001C4F0A3EFF09001C2E090
:10986B006E7003A3E06F60030299309001C6F09015
:10987B0001C6E0FDC3940240030299167B017A00F6
:10988B0079B412CE0D5033C2AF12CDFD74FF1299C5
:10989B003D7F00FEC006C00712CDFD74FE12993D40
:1098AB00FDD0E02DFFD0E03400FE9001C6E012CDDC
:1098BB00F1EEF0A3EFF0D2AF80487F077E0012BF2E
:1098CB005BBF12209001BEE0FFA3E0900154CFF0EC
:1098DB00A3EFF09001BCE0FFA3E0900156CFF0A303
:1098EB00EFF0801E9001C6E0FF25E024BCF582E47A
:1098FB003401F583E0FCA3E0FDEF12CDF1ECF0A316
:10990B00EDF09001C6E004F002987A900209E0C3F2
:10991B009403400F9001C0E0FFA3E0900158CFF0FB
:06992B00A3EFF0D322C3FC
:109931002212CD6C7F017E0012CF9322C39FFF7450
:109941000195F0FE12BF5BEF227F017E0012CF93E3
:0D99510022C2DA7F037E0012CF93D2DA2209
:10C13D009002097402F0C2AD12CCB27FB212CB5A8A
:10C14D0012C1A412C68AEF4E600712CFA8D2AD80DD
:10C15D003F12C1A412C80A9001BCEEF0A3EFF01279
:10C16D00CD6C7F017E0012CF9312C80A9001BEEEF6
:10C17D00F0A3EFF012CFA8D2AD9001BEE07004A3F2
:10C18D00E06469700B9001BCA3E0900209F0D3222A
:06C19D00E4900209F0C36A
:09C1A300227F017E0012CF9322DD
:10CCB20012CCC7900209E0600BD2B512CDEA12CFB6
:10CCC2009312CCC722C2B57F057E0012CF93C2B4A5
:08CCD2007F027E0012CF9322C5
:10CD6C00E4FFFE20B50E0FBF00010EEF64644E70A1
:10CD7C00F202CFA8C2B512CDEA12CF93C2B4D2B58B
:01CD8C002284
:02CB5A008F3614
:10CB5C009001C77408F07F017E0012CF93E5363345
:10CB6C0092B512CDEA12CF93C2B4E53625E0F53674
:0ACB7C009001C7E014F070DED2B59E
:01CB8600228C
:10C80A00E49001C8F0A3F09001C7F012CDEA12CF6C
:10C81A00939001C9E025E0FF9001C8E033FEA2B57C
:10C82A00E433FDEF4DFFEEF0A3EFF0C2B47F017EDB
:10C83A000012CF939001C7E004F0E0C3940A40CB02
:08C84A009001C8E0FEA3E0FF2D
:01C8520022C3
:10C68A00E4F536900209E06024E4F537A2B5E43314
:10C69A00F536700ED2B47F01FE12CF93C2B4E4FE17
:10C6AA00FF220537E537C3940A40E1801BD2B5D291
:10C6BA00B4E4F537A2B5E433F5367005C2B4FEFF2B
:0EC6CA00220537E537B40AECC2B47E007F01CA
:01C6D800223F
:0EB7D00002743232C17F066E000000000000DD
:10995E00C3785FE5379618E66480F8E5366480983C
:10996E0022C3785FE50D9618E66480F8E50C6480F6
:10997E009822E6FBFDC3EF9DFFE49400FE7C007D84
:10998E0064124B4E7860E6FD024B60900083E090CF
:10999E000082FEE07C002400FFEC3EFE22AC38ADDF
:1099AE0039124B4E7C007D06124BB5EE3395E0FD21
:1099BE00FC22742DC39FFFE49EFE74502FF582741B
:1099CE00003EF583E022E47F107E27FDFC124DC49D
:1099DE00D3024D91953BFFE4953AFE3395E08F3FD0
:1099EE008E3EF53DF53CE47FE87E03FDFCAB3FAAE1
:1099FE003EA93DA83C024C667869E6FE08E6FF24C7
:109A0E00FFFDEE34FFFCC3227869E6FE08E6FF2474
:109A1E0001FDE43EFCD32275F006A424D6F582E4C3
:109A2E003401F58322E53B253FFFEE353EFEED3555
:109A3E003DFDEC353CFCE47B64FAF9F8C3024D9134
:109A4E00FE3395E0FDFCE4754764F546F545F544B7
:109A5E002290005AE0FFE48F47F546F545F5442283
:109A6E00D3E53B9464E53A6480948022D3E5379441
:109A7E0064E5366480948022E6753600F537253F1E
:109A8E00F537E53E3536F53622E53B253FF537E52C
:109A9E003A353EF53622F582E43401F58322FFE0B5
:109AAE00FE2F7860F6EED3940022E47547E87546F3
:109ABE0003F545F544223395E08F478E46F545F57F
:109ACE0044223395E08F478E46F545F54422E53B1B
:109ADE00253FEE353EED353D2225E0FFE433FE22F7
:109AEE009001E2024DC4E4F53FF53EF53DF53C2212
:109AFE00E6C39FF53BE49EF53A22D3EF9400EE6465
:049B0E00809480229D
:1031A100E4FD7F0312CDB7207F03023333E478605F
:1031B100F67860E6FFC39406500B74D62F129A2B53
:1031C100E4F00680ECE47860F67860E6FFC39406EC
:1031D100500B74DC2F129AA4E4F00680EC90007E70
:1031E100E090007D129AAC4024E408F690007DE066
:1031F100FF7861E6C39F5015129980C374649FFFE5
:1032010074D62B129A2BEFF078610680DF90007E46
:10321100E0D394004022E47862F690007EE0FF78EB
:1032210062E6C39F501212998090007DE02B129AA2
:1032310029EFF078620680E290007CE090007B123A
:103241009AAC4024E408F690007BE0FF7861E6C385
:103251009F5015129980C374649FFF74DC2B129ADE
:10326100A4EFF078610680DF90007CE0D394004009
:1032710024E47862F690007CE0FF7862E6C39F5018
:103281001412998090007BE02B24DC129AA4EFF0B9
:1032910078620680E0E47863F67863E6F9C3940225
:1032A1004003023331E6FB25E025E024E2F582E428
:1032B1003401F583124DDC00000000EB129AE7C3E4
:1032C100742E9FFDE49EFC74502DF58274003CF534
:1032D10083E0FD1299C02D7860F61299C8700874C8
:1032E1007A29F876648043E9129AE7742E1299C21A
:1032F10078637008E6247AF8E4F6802EE6FD129AE7
:10330100E71299C0FFED129A25E5822FF582E43587
:1033110083F583E0FFE6FD129A25E02FFFE433C336
:1033210013EF13FF747A2DF8A60778630602329A19
:10333100C27F7869E6FE08E6FF90002DE02FFD9040
:10334100002CE03EFC785CF608EDF690000EE0FA09
:10335100A3E0FBC3EF9B785FF6EE9A18F6D3E50D79
:103361009DEC12997740030233F312996F500302D7
:1033710033F39001E21299D440097538FF7539ECA5
:10338100023418E4FFFEFDFC9001E21299DB401DBE
:10339100129A06E50D9DEC1299775003C3802A120B
:1033A1009A16E50D9DEC129977406C80357FF07E81
:1033B100D87DFF7CFF9001E21299DB402D129A1615
:1033C100E50D9DEC129977400CE50D9FF539E50C63
:1033D1009EF5388042129A06E50D9DEC12997750C0
:1033E10036C3EF950DF539EE80297538007539141E
:1033F1008025D3785D129972400FE50D786A96F5B4
:1034010039E50C1896F538800EC3786AE6950DF506
:103411003918E6950CF538D3E5399432E5386480EE
:103421009480400675380075393290005BE0D39482
:103431000050030234F7D3E50D785D1299745017EB
:1034410012996F4012129AEEC00090005BE0FF7E6D
:10345100001299AB0234E1D3E50D785D1299744005
:10346100469001E2124DB8C004C005C006C007AEC7
:1034710038AF391299B9C00790005BE0FFE48F477C
:10348100129A58D00712CE23E4754706129A671292
:10349100CF65A804A905AA06AB07D007D006D005B9
:1034A100D004124C58803E12996F503F129AEEC0D0
:1034B10000C001C002C003AE38AF391299B9C007CC
:1034C10090005BE0FFE48F47129A58D00712CE2399
:1034D100E4754706129A6712CF65D003D002D00176
:1034E100D000124C4B9001E2124DD0129AB89001CB
:1034F100E21239698003129AF4785CE6FE08E6FF6D
:10350100D3E50D9FEE129977500812996F4003028F
:1035110035B590005AE0D39400404DD3E50D9FEEB0
:10352100129977401CE50D785D96FFE50C1239394B
:10353100C007129A5FD00712CF65787A129AFE807F
:103541002FC3785FE6950DFF18E6950C129A4E127F
:10355100CE23C007129A5FD00712CF65787AE62F83
:10356100F53BE43EF53A8008787AE6753A00F53B9A
:10357100129A6E4006753A00753B64C3129A7350F5
:1035810005E4F53AF53BAE3A1299B9129A33500572
:10359100C374648011AE3A1299B9129ADCFDEC350C
:1035A1003C33500BC3E41299E29001E2124DD01268
:1035B1009A978005787A129A86C3129A7F5007E407
:1035C100F536F537800B129A7A4006753600753755
:1035D100647874A63790007FE0FFB4011590005223
:1035E100E0FE64046007EE6401600280259000063D
:1035F1008017EFB4021C900053E0FF64046007EFF2
:1036010064016002800C900008E0F536A3E0F53714
:103611008007787BE67875F62220520330590690B0
:103621000048E0700A900087E0FE900086800890D4
:103631000085E0FE900084E07C002400785BF6ECDD
:103641003E18F67F12123978FEE4785B26FFEE18F9
:1036510036FEC006C0077F11123978FDD0E02D7803
:103661005DF6D0E0340018F67F107E0012BF5BEFEC
:10367100FEC3785BE69400FF18E69EFEC006C00715
:103681007F0F7E0012BF5BEFFDC3D0E09D785FF638
:10369100D0E0940018F6D318129961400302373133
:1036A10012995E50030237319001E61299D4400914
:1036B1007538FF7539FE023758E4FFFEFDFC9001B5
:1036C100E61299DB4021785A129A08E5379DEC12EF
:1036D10099665003C3802E785A129A18E5379DECEB
:1036E100129966407280397FF07ED87DFF7CFF9011
:1036F10001E61299DB4031785A129A18E5379DECB0
:10370100129966400CE5379FF539E5369EF538800C
:1037110046785A129A08E5379DEC1299665038C3DB
:10372100EF9537F539EE802B753800753902802712
:10373100D3E537785D129963400FE537785B96F5ED
:1037410039E5361896F538800EC3785BE69537F57E
:103751003918E69536F538129999129B08500302EB
:103761003828D3E537785D129963502412995E4069
:103771001F129AEEC000900083E0FE900082E012DA
:1037810099A41299ABD000124C4B9001E202381A65
:10379100D3E537785D12996340429001E6124DB846
:1037A100C004C005C006C007AE38AF391299B9C010
:1037B10004C006C007129999129AC4D007D006D046
:1037C1000412394FA804A905AA06AB07D007D006F1
:1037D100D005D004124C589001E6803D12995E50FC
:1037E1003B9001E6124DC4C000C001C002C003AE4F
:1037F10038AF391299B9C004C006C007129999129D
:103801009AC4D007D006D00412394FD003D002D0C9
:1038110001D000124C4B9001E6124DD0129AB89093
:1038210001E61239698003129AF4785CE6FC08E635
:10383100FDD3E5379DEC129966500812995E40035D
:10384100023917900081E0FE900080E07A002400A8
:10385100FFEA3EFE129B084072D3E5379DEC1299B8
:1038610066402EE537785D96FFE536123939C0049A
:10387100C006C007900081E09000801299A0129AC2
:10388100D0D007D006D00412CF65787B129AFE8083
:1038910042C3785FE69537FF18E69536129A4E12C5
:1038A100CE23C004C006C007900081E0FE900080D6
:1038B1001299A1129AD0D007D006D00412CF657800
:1038C1007BE62FF53BE43EF53A8008787BE6753AD6
:1038D10000F53B129A6E4006753A00753B64C312BF
:1038E1009A735005E4F53AF53BAE3A1299B9129A3A
:1038F100335005C374648010AE3A1299B9129ADC40
:10390100EC353C33500BC3E41299E29001E6124DC1
:10391100D0129A978005787B129A86C3129A7F50AB
:1039210007E4F536F537800B129A7A4006753600B2
:073931007537647875A637B5
:10393800221896FE3395E0FDFCE4754764F546F5DC
:1039480045F54412CE232212CE23E47B0AFAF9F875
:10395800124C66E4754706F546F545F54412CF6501
:1039680022124DB812CF658F3F8E3E8D3D8C3C2282
:073978007E0012BF5BEF228D
:1059F3000000000000010001000200020003000398
:105A03000004000400050005000600060007000767
:105A130000080008014D00090143000A00B6000F09
:105A2300000B0010000C0011000D0012000A0013FF
:105A330001440065014500660146006701470068AF
:105A43000149006A014A006B014C006C004B006D78
:105A5300004D006E004F006F00550070005900723A
:105A6300005A0073005B0076005D0077005E0078EB
:105A7300005F00790060007A0061007B0062007CB7
:105A83000065007D0066007E0067007F006800807F
:105A930000690081006C0083006D0084006E008546
:105AA3000072008600730087007500880079008902
:105AB30000D2008A00D3008B00D4008C00D5008D67
:105AC30000D6008E00D7008F00D8009000D9009137
:105AD30000DA009200DB009300DC009400DD009507
:105AE30000DE009600DF009700E0009800E10099D7
:105AF30000E2009A00E3009B00E4009C00E5009DA7
:105B030000E6009E00E7009F00E800A000E900A176
:105B130000EA00A200EB00A300EC00A400ED00A546
:105B230000EE00A600EF00A700F000A800F100A916
:105B330000F200AA00F300AB00F400AC00FC00ADDF
:105B430000FD00AE00FE00AF00FF00B0010000B199
:105B5300010100B2010200B3013700B4013800B5FE
:105B6300006300B6006400B7000900B8005600B92E
:105B7300006A00BA006B00BB005100BC005200BDBC
:105B8300005300BE011100BF011200C0011300C188
:105B9300011400C2011500C3011600C4011700C59A
:105BA300011800C6011900C7011A00C8005700C92F
:105BB300005800CA006F00CB008700CC008800CDDE
:105BC300008900CE008A00CF008B00D0008C00D16A
:105BD300008D00D2005400D3014E00D4005000D5F4
:105BE300005C00D6015500D7015600D8004900D902
:105BF300004700DA001B00DB001D00DC001F00DD96
:105C0300002100DE002300DF002500E0002700E183
:105C1300002900E2002B00E3002D00E4002F00E543
:105C2300003100E6003300E7003500E8003700E903
:105C3300003900EA003B00EB003D00EC003F00EDC3
:105C4300004100EE004300EF004500F0007E00F14C
:105C5300000F00F2001100F3007F00F4008100F553
:105C6300008300F6008E00F7008F00F8009000F923
:105C7300009100FA009200FB009300FC009400FDE9
:105C830000F500FE00F600FF00F7010000F8010137
:105C930000F9010200FA010300FB010401030105FD
:105CA30001040106010501070106010801070109B5
:105CB3000108010A0109010B007A010C007B010DA7
:105CC3000148010E0013010F001501100017011107
:105CD3000019011200850113007C0114007D0115D8
:105CE300014B011600700117009501180096011968
:105CF3000097011A0098011B0099011C0157011D0F
:105D0300009A011E009B011F009C0120009D0121A0
:105D1300009E0122009F012300A0012400A1012570
:105D2300014F012600A2012700A3012800A4012995
:105D330000A5012A00A6012B00A7012C00A8012D14
:105D430000AA012E00B2012F01500130015101318F
:105D530001520132015301330154013400B30135BF
:105D630000B4013600B50137017101380172013900
:105D73000173013A0175013B0177013C00B7013D15
:105D830000B8013E00AC013F00AE014000BC014140
:105D930000BD014200B9014300BA014400BB014503
:105DA3000158014600BE014700BF0148015901499E
:105DB300015A014A015B014B015C014C015D014D3C
:105DC30000C0014E00C1014F00C2015000C3015188
:105DD30000C4015200C5015300C60154011B015503
:105DE300011C0156011D0157011E0158011F0159D4
:105DF3000120015A0121015B015E015C015F015D2C
:105E030000C7015E010A015F010B0160010C016122
:105E1300010D0162010E0163010F016401100165AF
:105E230000C801660160016700C9016800B001692B
:105E33000122016A0123016B0124016C0125016D1B
:105E43000126016E0127016F0128017000CA01714B
:105E530000CB017200CC017300CD017400CE01753B
:105E630001610176016201770163017801640179BF
:105E730000CF017A0165017B0077017C00D0017DB1
:105E83000166017E0167017F01680180016901816B
:105E9300016A0182016B0183016C0184016D01853B
:105EA300016E0186016F018700D1018801290189F3
:105EB300012A018A012B018B012C018C012D018DFB
:105EC300012E018E012F018F0130019001310191CB
:105ED300013201920133019301340194013501959B
:105EE300013601960178019701790198017A0199A8
:105EF3000139FFFF013AFFFF013BFFFF013CFFFFB9
:045F03000142FFFF59
:0FB7DE0041011D0101180041012CFE021501451A
:10870300900138E0A3FEE07C002400FFEC3E2290C1
:108713000138E0FDA3FEE07A002400FFEA3E22E0F8
:10872300FCA3E0FDC3EF9DFFEE9CFE9001ACF0A324
:10873300EFF022E0FCA3E0FD2FFFEC3EFED3EF942D
:1087430000EE9400229001ACE0FEA3E0FFED2FFDCC
:10875300EC3EFCC3ED94E8EC940322F0A3EFF0E5C8
:10876300342401FFE43533FE227E007C007D0A12AF
:108773004B4E9001AAEEF0A3EFF0229001AAE0FC89
:10878300A3E0FDEC9001B0FF3395E0EFF0227427F6
:108793002FF582E43401F583E4F09001AEE004F0B8
:1087A30022E53364809480229001AAF0FAA3EFF0CB
:1087B300FB90006EE0FF7E007D0A124B4EEBC39FE1
:1087C300EE6480F82290006DE0FF7E007C007D0A5D
:1087D300124B4ED39001ABE09FEE6480F89001AA58
:1087E300E06480982290007CE090007BFFE02F9073
:1087F30001AEF0D3940622FE9001AAF0A3EFF0227B
:108803003400FE7C007D0A024BB5A3E09001B7F073
:1088130022C39001ABE0950DFF9001AAE0950C22D5
:10882300C25A90018D7401F0A3F02274342FF582A3
:10883300E43401F58322FE9001B2F0A3EFF022E5C8
:108843003664809480227B017A0079B422900139C6
:10885300E0FDAF34AE3322786CF608F690007AE090
:1088630090011CF022900075E0FE90007422E0FF5E
:108873003395E0EF9001B7F02290002AF0A3EFF0D8
:10888300E4900032F09001AEF022D3E5399464E530
:10889300389400229000ADE0FF900139E0227B0183
:1088A3007A0079B57D0622D394E7EE64809483221F
:1088B3009000ACE0FE9000AB229001AEE0FFC394C9
:1088C30004229001ACE0FEA3E0FF22E0FF7E007CE7
:1088D300007D3C024B4E9001AAE0FCA3E022340150
:1088E300FEE07C002FFFEC3EFE2274212FF582E494
:1088F3003401F58322900135E0640622900135E0CE
:10890300641022900135E06419229001B6E004F06E
:10891300229001B7EFF0E022FF7E00E0FCA3E0FD30
:108923006F2290017DE0FFC32290017EE0FFC3220E
:10893300E5336480948122E490007AF0FD7F79FE30
:1089430022E07C002400FDEC3EFC229000BFE064AA
:10895300012290004E7401F022EF94E8EE9403227A
:04B519008E388F39A0
:10B51D00E4FDFC9000B7E0B4011112888D400C746D
:10B52D00BF2539F53974633538F538D3E539940AC3
:10B53D00E5389400400BD3E539940DE5389400407F
:10B54D0010D3E5399416E5389400400812888D50D3
:10B55D00037F0022E539646945386020E53964715F
:10B56D0045386018E539647445386010E5396475FF
:10B57D0045386008E5396482453870037F00221232
:10B58D00888D400AE53924A6FDE53834FFFCC3ED6E
:10B59D009516EC9515504BEDAE047802C333CE33B2
:10B5AD00CED8F924F5F58274593EF583740193B51F
:10B5BD003929E493B53824EDAE047802C333CE3384
:10B5CD00CED8F924F3F58274593EF583E493FF74D4
:10B5DD000193CF8FF0124C2C7F01220DBD00010C79
:04B5ED0080AC7F00AF
:01B5F1002237
:0ECF0B00C292E4F518F51F9000E8741BF022A6
:0CCF4100C292E4F518F51F7F0902CFD161
:0BCF7D00C27DD2927F0A7E0002CF939B
:0300230002AE8C9E
:10AE8C00C0E0C0F0C083C082C0D075D000C000C08C
:0DAE9C0001C002C003C004C005C006C0070D
:10AEA90020980302AF73C298E518C39419500CAFE8
:10AEB90018051812882EE599F0800312CF41E5187C
:10AEC900B40105751B088021E518640470219001FF
:10AED90036128706FEEF640A4E600302AF7A1288C3
:10AEE900F8600302AF7A751B0C85191C02AF7AE56D
:10AEF90018B407151288FF707890013AE0FF240909
:10AF0900F51BEF2408F51C8068E518B51B139001A3
:10AF190035E0FF64036015EF64066010EF641060AC
:10AF29000BE5186406704A1289067045751C0012F3
:10AF39008BB9502E7F097E0012BF5B7864EFF654FF
:10AF4900606005751D048003751D01751F02D27EA1
:10AF5900D2539000CA1288CE90012DEEF0A3EFF0E3
:10AF6900800F751F0112CF418007309904C299D211
:01AF79007D5A
:10AF7A00D007D006D005D004D003D002D001D0002B
:0BAF8A00D0D0D082D083D0F0D0E032D5
:10CAC300E51F6402702A12CF7D12CFCA12028C12A4
:10CAD30020367B017A0079C87D0112CE0D7B017A65
:10CAE3000179305004D2648002C2647D0412CC60A8
:03CAF30002CF412E
:108BB900900134E0FFF4601190012CE0FEEF6E604B
:108BC90008900134E06002C32212890670727F04A2
:108BD900128DBB900138E0128717FEEF6D7002EE1F
:108BE9006C6002C322900137E0FF900136E0FEC3BA
:108BF9009F40028002AF06900137E0FDEEC39D4021
:108C090007900136E0FE8002AE0590012CE0FDC31D
:108C19009F4005EDD39E4002C322AF087E0012C7D4
:108C2900B512C7731288068D4BE4F54AE54AC39518
:108C39004B500B7F147E0012CF93054A80EED3224E
:108C4900900135E0FF6403600CEF64066007EF6490
:108C5900106002C322900136128706FEEF640A4EA5
:108C69006003028D151288F87038900026E0FF9095
:108C7900013AE06F6002C322900027E0FF90013BB8
:108C8900E06F6002C322900028E0FF90013CE06F92
:108C99006002C322900029E0FF90013DE06F60026D
:108CA900C322900135E0B4031512C7731288067EFA
:108CB900007F02CFCDCFCECCCE124BB58F1EE51E95
:108CC9006401602C90012FE004F0E075F00584E563
:108CD900F0701BF0751E0112C7731288068D4BE4E4
:108CE900F54AE54AC3954B5023128DC980F4C32236
:108CF900E490012FF012C7731288068D4BE4F54AF0
:108D0900E54AC3954B5005128DC980F41288F87055
:108D19005AA3128706FEC3EF9405EE9400400CEFA8
:108D290064084E6006EF64074E7040900137E0FF1B
:108D3900C39402500990012BE030E02FC322EFC306
:108D49009404500990012BE030E120C322900137AF
:108D5900E0FFB4080990012BE030E20FC322EFB421
:108D6900070990012BE030E302C322900139E0B4F6
:108D7900A110900137E0B41009900134E0B4FF026A
:108D8900C322E51B24FEFF128DBB7432251BF5821D
:108D9900E43401F583E0FE7433251BF582E43401E4
:108DA900F583128719FEEFB50506EEB50402D32245
:018DB900C3F6
:108DBA002212B9029001CCEEF0FCA3EFF0FD227F63
:098DCA004B7E0012CF93054A22F2
:0CCF4D00307DFDE4F599C27DFF02C1AC0F
:0ACF9E00307DFD8F99C27D02C1AC09
:10203600E49001B6F0900135E0B40625E49001B6CF
:10204600F09001B6E0FFC3951B400302286C12888E
:102056002EE0F599C27D12CFD7307DFD12890D8015
:10206600E01288FF70439001B6F09001B6E0FFC31E
:10207600940650201288EDE09001B7F0E0F599C281
:102086007D12CFD7307DFD9001B7E0FF12C1AC12B3
:10209600890D80D6851799C27D307DFD851A99C236
:1020A6007D307D0302286C80F8900135E064036082
:1020B6000302282D900139E09001B4F012292F90E7
:1020C6000135E09001B7F0307DFD12286D9001B426
:1020D600E025E09001B7F0900136E0700BA3E0B484
:1020E6000A069001B77406F0307DFD12286D900146
:1020F600B4E0FF9001B6E0FDC39F400302281890AC
:102106000136E0128717FE7C00EF2DFFEC3EFE7BCA
:10211600007A00793612B519EF7003022807C3E575
:10212600379437E5366480948140030222A8E53768
:10213600944D128842500AC3E537940F12884250D4
:1021460030C3E537947F128842400AD3E537948539
:10215600128842401CC3E53794A8128842400AD32D
:10216600E53794B01288424008E537647745367003
:10217600051228C68005E49001B7F0307DFD1228CF
:102186007AE537647345367037122974C006C0077E
:102196001229B2D0E02DFFD0E012880312891490E4
:1021A600003E12891B7001EC600C30380990003E2D
:1021B600EEF0A3EF80049001B7EDF0C2380222A240
:1021C600E537647545367037122974C006C00712A4
:1021D60029B2D0E02DFFD0E01288031289149000B6
:1021E6003512891B7001EC600C305F09900035EEEA
:1021F600F0A3EF80049001B7EDF0C25F0222A2E5E2
:1022060037645F453670191228A17B017A0179B7C8
:1022160090004DE024FF92647D0112CC600222A260
:10222600E5376409453670301228A1E054EFF0E531
:102236000E30E306E04408F080079001B7E054F75B
:10224600F0900048E0D394009001B7E040054401C7
:10225600F0804954FEF08044E53764B54536701089
:102266001288497D0212CE0D40069000B6E0801E0F
:10227600E53764C74536AF37AE36701812BF5B1206
:1022860089145403F0E0FF900130E0FEEF4E900118
:10229600B7F0800812BF5B9001B7EFF0307DFD020A
:1022A600274BE5378536F0124E3F24A8013724B771
:1022B600013823F60143237C01442386014523BAD2
:1022C6000146241001472420014824F70149251915
:1022D600014A2560014B25DF014C25B6014D26013B
:1022E600014E25C7014F262F015026420151264B8C
:1022F600015226540153265D015426660155269641
:10230600015625A701572701015826E8015D2467D4
:10231600015E2480015F2499016024C6016124D8EE
:10232600016224E8016327110164273D01652751F5
:10233600016627640167277701682788016927995D
:10234600016A27AA016B27BA016C27CA016D27DA31
:10235600016E27EA016F2721017127210172272CBF
:102366000173272C0175242D017824450179245603
:10237600017A00002802E50C12299BE50D022426AD
:1023860012295D50077FFB1228AE8009786EE69011
:1023960001B712878A307DFD12287A12295D50070F
:1023A6007FFA1228AE8007786FE69001B7F0307D8D
:1023B600FD02274B1288A112CE0D50077FF9122875
:1023C600E580097870E6FFEF9001B7F09001B7E07D
:1023D600FF12CF9E1288A112CE0D50077FF8122849
:1023E600E580077871E69001B7F09001B70227F60D
:1023F600122985307DFD122887900139E06401603D
:10240600030228121229410227F612CF4D7874E6EC
:102416009001B7F0307DFD02274B12CF4D7875E65F
:102426009001B7F00227F69001ED128871307DFD1C
