:020000040000FA
:20000000020200FFFFFFFFFFFFFFFF023C8C8F3612C4EE500302AF44AB367DD47F5A12AB81
:200020006522FF02378BFFFFFFFFFF023A1EE4F5337F09FE12362C8F0DE5BF30E705430D6F
:20004000028003530DFD125F03123681E50D90002930E5057404F080037402F0C2517F0ACF
:200060007E001200D07F0A7E001236817F0A7E0012362CEF65336028C27A7543FF754434E6
:2000800075450E1236EAD27A7543FF7544347545161236EA7F107E2712CDB1123F2180D8E6
:2000A000D2517FE87E031200D07FE87E031236817FE87E0312362CEF65336007E490007C68
:2000C000F0800690007C7401F07F327E0002CDB112362C8F337E00123D1D123CDB7C017D47
:2000E0002C12287EEF04F533FD22123F21E4FD7F04123EEA12CACC203303129CD802C94142
:2001000054656D636F545354415437000000006501000080070165545354415437534D3531
:20012000393132388F368D37128DBD900289128C99128CDBEC648098500CE9FF7D0A128C6A
:200140008A9002898016128D7E90028AE0128CE7900289E06480984008128D11EEF0A3EFE7
:20016000F0900289128C24128CA07F577E0212368190028BE0FD7F587E0212368190028C1D
:20018000E0900124F090028BE090010E128D4F900138E02FFFEC3E900289F0A3EFF0900230
:2001A00089128C24128CA07F957E001236817F961201ED900161F090028BE0900162128DD5
:2001C0004F900139E0900289128D43900289128C24128CA07F977E001236817F981201ED9A
:2001E000900163F090028BE0900164F02290028BE0FD7E0012368190028CE022FFFFFFFFBA
:2002000078FFE4F6D8FD75818912360A02024A02317EE493A3F8E493A34003F68001F20808
:20022000DFF48029E493A3F85407240CC8C333C4540F4420C8834004F456800146F6DFE403
:20024000800B01020408102040809038E4E47E019360BCA3FF543F30E509541FFEE493A378
:2002600060010ECF54C025E060A840B8E493A3FAE493A3F8E493A3C8C582C8CAC583CAF044
:20028000A3C8C582C8CAC583CADFE9DEE780BE54535441543700000000000000000000C3B3
:2002A0004F4646000000000000C3484541540000000000C3434F4F4C0000000000C3474143
:2002C00053000000000000C34155544F000000000000960055003C002D00230019000F0030
:2002E00005FFFBFFF1FFCE0000012C0258038404B005DC0708083409600A8C0BB80011334E
:2003000033143C3C00113333143C3C00000000000000004030100403010002020401030384
:2003200004C0D1CEBBA183674F3D2D9B19273D5366717065554333261C150F0B0806171BC8
:200340002A3E566068675E504033281F17110D0A081E05040505050606060707080808098A
:200360000A0A0B0B0D0D0F101112151A1E232324292B2E2F2F2B2824211D1B191715131325
:2003800011100F0F0E202020202020202000202054454D50202000534554504F494E5400E4
:2003A00020494E50555431200020494E50555432200020494E50555433200020494E5055DB
:2003C0005434200020494E50555435200020494E50555436200020494E5055543720002043
:2003E000494E505554382000204D4F444520202000205553455220202000434F325F5F70BF
:20040000706D0048554D494449545900574F524B204441595745454B20454E44203C204270
:2004200041434B0048454154434F4F4C0046414E4D4F444520004D414E2048454154004D19
:20044000414E20434F4F4C004155544F20482F430020202020202020205343484544554CA5
:20046000452020434C4F434B20414456414E434544C34C4F46000000000000C34C4F4E00E5
:200480000000000000C3504F46000000000000C3504F4E000000000000C34A616E00000028
:2004A000000000C3466562000000000000C34D6172000000000000C34170720000000000A3
:2004C00000C34D6179000000000000C34A756E000000000000C34A756C000000000000C391
:2004E000417567000000000000C3536570000000000000C34F6374000000000000C34E6F8B
:2005000076000000000000C3446563000000000000C34D6F6E200000000000C35475657325
:200520000000000000C3576564200000000000C3546875720000000000C34672692000004E
:20054000000000C3536174200000000000C353756E2000000000004D414E204F4646200080
:200560004D414E204C4F2020004D414E204D454420004D414E204849202000202D415554AE
:200580004F2D20008343414C000000000000837453530000000000008346494C0000000071
:2005A00000008341493100000000000083414932000000000000834F727400000000000006
:2005C0008364414300000000000083624155000000000000836453430000000000008364D1
:2005E0004348000000000000835050720000000000008350496E00000000000083534F50DC
:200600000000000000008348430000000000000083436462000000000000834864620000AF
:200620000000000083435F460000000000008346416E000000000000836E4864000000003A
:200640000000836E4364000000000000836E5370000000000000836E48534800000000007A
:20066000836E4353000000000000836E4353480000000000834150500000000000008350ED
:200680004F5300000000000083504F6E000000000000835041640000000000008341557423
:2006A000000000000000834F5531000000000000834F553200000000000083534849000022
:2006C0000000000083534C4F000000000000834C4F430000000000008364495300000000C5
:2006E000000083567474000000000000824E4554574F524B00008344454D414E4400000061
:200700008300000000000000000082000000000000000000830000000000000000008300CE
:20072000000000000000000083000000000000000000820000000000000000008200000032
:2007400000000000000081576F726B646179000081576F726B646179000081576F726B644D
:200760006179000081576F726B6461790000815765656B656E640000815765656B656E64B5
:200780000000815765656B656E640000815765656B656E640000836445460000000000005F
:2007A000834641430000000000008341646400000000000083534574000000000000834608
:2007C0004153000000000000000000000000000000002020202020202020002020202020E5
:2007E0002043200020202020202046200020202020202025200020202020202052480020D1
:2008000020202020414D50002020202020204B57002020202020204B4100202020202070BC
:20082000706D00434F415354494E4700434F4F4C494E47000048454154494E4700004641F1
:200840004E204F4646000046414E202D312D000046414E202D322D000046414E202D332DCC
:20086000000046414E204155544F00202020202020202020554E495453200054696D6520C8
:20088000446973204E657420494420202020534F5020204F43432053454C004F4343544947
:2008A0004D4552203C204241434B20000000000000000000000000000000000000000000A7
:2008C000000000000000000000000000000000000000000000000000000000020A0A0A0AEE
:2008E000040A3204090A0A0A0A0A0A0A6464645B0A640A6414B40505050A05000A006400AE
:2009000005000500FF00FF0001001400C800FF00FF0007000501FF01FF0001000300FF00E5
:20092000FF00FF00FF00FF00FF000100FF00030008000200FF00FF00FF00FF000400060A9F
:20094000FF000100020063000C0007001F0017003C003C003C003C003C003C003C003C0009
:200960003C003C00FF00FF00FF00FF00FF00FF00FF00FF00040006000600060006000600E5
:2009800006000A00FF00FF00FF00FF00FF00FF00FF00FF001E001E001E001E001E001E009B
:2009A0001E00030003000300030003000300030003000300030003000300070007000700E0
:2009C00007000700070007010A00FF05FF05FF000A000A00FF00FF00FF00FF00FF00FF00DB
:2009E000FF00FF000200FF00FF00FF000100FF0005000100030003000300030003000300E2
:200A0000FF0002000100010064006400640064006400640064006400FF00FF00FF00FF00B7
:200A20000F000F000200020001000300FF00FF00FF00FF00FF00FF00FF00FF00FF00FF009A
:200A40000A00640005000500FF00FF0001001400C800FF00FF0007000501FF01FF00010038
:200A600003005F006300FF00FF00FF00FF000100FF00030008000200FF00FF00FF00FF00AC
:200A80000400060AFF000100020063000C0007001F0017003C003C003C003C003C003C002C
:200AA0003C003C003C003C00FF00FF00FF00FF00FF00FF00FF00FF00040006000600060038
:200AC0000600060006000A00FF00FF00FF00FF00FF00FF00FF00FF001E001E001E001E008A
:200AE0001E001E001E00030003000300030003000300030003000300030003000300070071
:200B00000700070007000700070007010A00FF05FF05FF000A000A00FF00FF00FF00FF0089
:200B2000FF00FF00FF00FF000200FF00FF00FF000100FF00050001000300030003000300A8
:200B400003000300FF0002000100010064006400640064006400640064006400FF00FF006E
:200B6000FF00FF000F000F000200020001000300FF00FF00FF00FF00FF00FF00FF00FF0059
:200B8000FF00FF0205000000640100003C3201000A0A00030A0A96002C0100140201000176
:200BA00001320F00005A00000000000000000000000000000000000000C800BE00D2000041
:200BC00003030303030303E8030A00D007B80B0302010F171813000000000000000000001A
:200BE0000000000000000000000A050A1E0000000000000100FE0000000000003C01000082
:200C0000000000000014000000010101010101010101000064010000000101050505050537
:200C200005050505050205000000640100003C3201000A0A01030A0A8A022003004402019E
:200C4000000101633700005A00000000000000000000000000000000000000A8029602BAA2
:200C6000000003030303030303E8030A00D007B80B0302010F171813000000000000000079
:200C800000000000000000000000000A280A1E0000000000000100FE0000000000003C01BE
:200CA000000000000000004400000001010101010101010100006401000000010105050571
:200CC00005050505050505000000000000000101090901011102020A0A02021204040C0C7C
:200CE0000404140141CACC41D2D40041CACC41D2D40000000000000000113103070000000F
:200D00000000000000000000000000000000000000000000000000000000000000000000D3
:200D2000000000091903070000000000000000000000000000000000000000000000000087
:200D4000000000000000000000000000000919050700000000000000000000000000000065
:200D600000000000000000000000000000000000000000000000000D1D0103000000000045
:200D8000000000000000000000000000000000000000000000000000000000000000000053
:200DA0000000000000000000C1814001C0804101C0804100C1814001C0804100C181400027
:200DC000C1814001C0804101C0804100C1814000C1814001C0804100C1814001C080410102
:200DE000C0804100C1814001C0804100C1814000C1814001C0804100C1814001C0804101E3
:200E0000C0804100C1814000C1814001C0804101C0804100C1814001C0804100C1814000C3
:200E2000C1814001C0804101C0804100C1814000C1814001C0804100C1814001C0804101A1
:200E4000C0804100C1814000C1814001C0804101C0804100C1814001C0804100C181400083
:200E6000C1814001C0804100C1814001C0804101C0804100C1814001C0804100C181400062
:200E8000C1814001C0804101C0804100C1814000C1814001C0804100C1814001C080410141
:200EA000C0804100C1814000C0C101C30302C2C60607C705C5C404CC0C0DCD0FCFCE0E0A81
:200EC000CACB0BC90908C8D81819D91BDBDA1A1EDEDF1FDD1D1CDC14D4D515D71716D6D29A
:200EE0001213D311D1D010F03031F133F3F23236F6F737F53534F43CFCFD3DFF3F3EFEFA1A
:200F00003A3BFB39F9F83828E8E929EB2B2AEAEE2E2FEF2DEDEC2CE42425E527E7E62622F9
:200F2000E2E323E12120E0A06061A163A3A26266A6A767A56564A46CACAD6DAF6F6EAEAA79
:200F40006A6BAB69A9A86878B8B979BB7B7ABABE7E7FBF7DBDBC7CB47475B577B7B6767219
:200F6000B2B373B17170B0509091519353529296565797559594549C5C5D9D5F9F9E5E5AD9
:200F80009A9B5B99595898884849894B8B8A4A4E8E8F4F8D4D4C8C44848545874746868279
:200FA00042438341818040026C026E02700272027402760278027A027C027E0280028202F9
:200FC0008402860288028A028C028E029002922020557365722020204D65737361676500A7
:200FE0000000000001000100020002000300030004000400050005000600060007000700B9
:20100000080008017F00090264000A0175000B00F0000E00D7000F000B0010000C0011002A
:201020000D0012000A001302940014017B0065017C0066006A0067006E0068006F00690087
:2010400078006A007A006B0094006C0009006D0065006E0063006F01800070006B007100E1
:20106000CB007200CD007300D3007400D8007500E4007600EE0077008200780176007900B6
:20108000E5007A00E6007B00E7007C00E8007D00E9007E00EA007F00EB008000EC0081011F
:2010A000870082016700830168008401690085016A0086016B0087016C0088016D0089018F
:2010C0006E008A02B0008B02B2008C00D4008D0060008E00F7008F00F8009000F9009100B4
:2010E000FA009200FB009300FC009400FD009500FE009600FF009701000098005D009900FB
:201100005B009A0047009B0049009C004B009D004D009E004F009F005100A0005300A1006D
:201120005500A2026C00A3026E00A4027000A5027200A600C900A700CA00A8029E00A90235
:201140009F00AA02A000AB02A100AC02A200AD02A300AE001B00AF001D00B0001F00B1009F
:201160002100B2002300B3002500B4002700B5002900B6002B00B7002D00B8002F00B90083
:201180003100BA003300BB003500BC003700BD003900BE003B00BF003D00C0003F00C100A3
:2011A0004100C2004300C3004500C4026500C5026600C6026700C7026800C8026900C9002D
:2011C000B900CA00BA00CB00BB00CC00BC00CD00BD00CE007B00CF007C00D0017E00D10185
:2011E0007700D2017800D3006400D4014000D5014100D6014200D7014300D8014400D9019F
:201200004500DA014600DB024900DC024A00DD024B00DE024C00DF024D00E0024E00E10283
:201220004F00E2014700E3014800E4014900E5014A00E6014B00E7014C00E8014D00E90224
:201240004200EA024300EB024400EC024500ED024600EE024700EF024800F0006600F100CD
:201260006700F2008100F3018800F400BE00F500BF00F600C000F700C100F800C200F90091
:20128000C300FA00C400FB00C700FC00C800FD00D600FE018900FF018A0100018B010101D2
:2012A0008C0102018D010302AC010402AE010502510106025201070253010802550109002F
:2012C000DC010A00DD010B00DE010C00DF010D00E0010E02A4010F02A50110009B0111005C
:2012E000B2011200B3011300B4011400B5011500B6011600B7011700B80118012401190121
:2013000025011A0126011B0127011C0128011D0129011E012A011F010101200102012101E1
:20132000030122010401230105012401060125010701260108012701090128010A0129013D
:201340000B012A010C012B010D012C010E012D010F012E0110012F0111013001120131019D
:20136000130132011401330115013401160135011701360118013701190138011A013901FD
:201380001B013A011C013B011D013C011E013D011F013E0120013F0121014001220141015D
:2013A000230142012B0143012C0144012D0145012E0146012F01470130014801310149008D
:2013C0009E014A009F014B00A0014C00A1014D0139014E013A014F013B0150013C0151012C
:2013E0003D0152013E0153013F015400E1015500E2015600F501570260015802570159000A
:201400006C015A006D015B0095015C0097015D0099015E0076015F007001600071016100E3
:201420007201620074016302590164025B016500A9016600A70167000F0168001101690268
:20144000A6016A02A8016B0077016C007D016D007E016E0260016F0260017002600171022E
:20146000600172026001730260017400C5017500C6017602600177026001780260017902E1
:2014800060017A0260017B0260017C0260017D005F017E00A2017F017901800068018100EF
:2014A00069018200A3018300A50184017A0185001301860015018700170188001901890173
:2014C0007D018A0079018B007F018C0080018D02AA018E0181018F0182019001830191016D
:2014E000840192018501930186019400D9019500CF019600D10197018E019800DB019902C2
:2015000096019A0297019B0298019C0299019D029A019E029B019F029C01A0029D01A101FC
:201520004E01A2014F01A3015001A4015101A5015201A6015301A7015401A8015501A901E3
:201540005601AA015701AB015801AC015901AD015A01AE015B01AF015C01B0015D01B10044
:20156000ED01B2018F01B3019101B4019301B5019501B6019701B7019901B8019B01B901AF
:201580009D01BA019F01BB01A101BC01A301BD01A501BE01A701BF01A901C001AB01C1012F
:2015A000AD01C201AF01C301B101C401B301C501B501C601B701C701B901C801BB01C9014F
:2015C000BD01CA01BF01CB01C101CC01C301CD01C501CE01C701CF01C901D001CB01D1016F
:2015E000CD01D201CF01D301D101D401D301D501D501D601D701D701D901D801DB01D9018F
:20160000DD01DA01DF01DB01E101DC01E301DD01E501DE01E701DF01E901E001EB01E101AE
:20162000ED01E201EF01E301F101E401F301E501F501E601F701E701F901E801FB01E901CE
:20164000FD01EA01FF01EB020101EC020301ED020501EE020701EF020901F0020B01F102E7
:201660000D01F2020F01F3021101F4021301F5021501F6021701F7021901F8021B01F90206
:201680001D01FA021F01FB022001FC022101FD022201FE022301FF02240200022502010239
:2016A000260202022702030228020402290205022A0206022B0207022C0208022D02090292
:2016C0002E020A022F020B0230020C0231020D0232020E0233020F023402100235021102F2
:2016E000360212023702130238021402390215023A0216023B0217023C0218023D02190252
:201700003E021A00F1021B00F2021C0083021D00EF021E00E3021F026A0220026B0221027C
:201720007402220276022302780224027A0225027C0226027E022702800228028202290285
:2017400084022A0286022B0288022C028A022D028C022E028E022F029002300292023102A5
:20176000B4023202B5023302B6023402B7023502B8023602B9023702BA023802BB023902E1
:20178000BC023A02BD023B02BE023C02BF023D02C0023E02C1023F02C2024002C302410241
:2017A000C4024202C5024302C6024402C7024502C8024602C9024702CA024802CB024902A1
:2017C000CC024A02CD024B02CE024C02CF024D02D0024E015E024F015F025001600251015E
:2017E00061025201620253016302540164025500F3025800F4025902D3025B02D4025C0202
:20180000D5025D02D6025E02F0025F02D7026002D8026102DA026202DB026302D1025A02DE
:20182000DD026502DE026602DF026702E0026802E1026902E2026A02E3026B02E4026C0240
:20184000E5026D02E6026E02E7026F02E8027002E9027102EA027202EB027302EC027402A0
:20186000ED027502EE027602EF027701320278013302790134027A0135027B0136027C01BC
:2018800037027D0138027E02F1027F02F2028002F3028102F4028202F6028302F8028402FE
:2018A000FA028502FC028602FE028703000288030202890303028A0304028B0305028C03BC
:2018C00006028D0307028E0308028F03090290030A0291030B0292030C0293030D02940310
:2018E0000E0295009C0296009D0297030F0298031002990311029A0312029B0313029C0366
:2019000014029D0315029E0316029F031702A0031802A1031902A2031A02A3031B02A403DF
:201920001C02A5031D02A6031E02A7031F02A8032002A9032102AA032202AB032302AC033F
:201940002402AD032502AE032602AF032702B0032802B1032902B2023F02B3025D02B4025B
:201960005E02B5025F02B6032A02B7032B02B8032C02B9032D02BA032E02BB032F02BC03B4
:201980003002BD033102BE033202BF033302C0033402C1033502C2033602C3033702C4037F
:2019A0003802C5033902C6033A02C7033B02C8033C02C9033D02CA033E02CB034002CC03DE
:2019C0004202CD034402CE034602CF034802D0034A02D1034C02D2034E02D3035002D40313
:2019E0005202D5035302D6035402D7035502D8035602D9035702DA035802DB016FFFFF011D
:201A000070FFFF0171FFFF0172FFFF0173FFFF0174FFFF43BF017F837E0012362C9000D734
:201A2000EFF07FF37E0212362C9002F8EFF0BFFF031222DFE49000D9F0D39401400BE4F060
:201A40007D017FF17E0212368175140075155E123F4EE4FD7F94FE1236817FD21222EB7F95
:201A600000FEC006C0077FD11222EBFDD0E02DFED0E03400900247F0A3CEF07F0712228448
:201A8000F460127F08122284F4600A7F087E0012362CBF07127D067F077E001236817D0A1B
:201AA0007F087E001236817FB67E0212362CBFFF057FB612232912230F7F9A7E0012362C8A
:201AC000900166EFF07F997E0012362C900165EFF07F757E0012362C900141EFF07F747E49
:201AE0000012362C900140EFF07F737E0012362C90013FEFF07F727E0012362C90013EEF8E
:201B0000F07F717E0012362C90013DEFF07F707E0012362C90013CEFF07F587E0212362CEE
:201B200090010EEFF07F577E0212362C900124EFF0BFFF1290010EE0B4FF0B90012474C8CB
:201B4000F0E490010EF07F967E0012362C900162EFF07F957E0012362C900161EFF07F985B
:201B60007E0012362C900164EFF07F977E0012362C900163EFF07F6C7E0012362C9001381E
:201B8000EFF07F6D7E0012362C900139EFF07FFD7E0612362C9000E8EFF07F057E001236CA
:201BA0002CBF010C7F041222C864657003021C5C9001367401F0E490013AF09001A6E0F521
:201BC00035E4F0C2AFC2A9C2AA1222B0D2271236869001A67401F0D227C2AFC2A9C2AAE448
:201BE0001222B01236869001A6E535F07D017F057E001236817D657F047E00123681E4FF1A
:201C0000FE12362CEF70277F01FE12362CEF701E7F02FE12362CEF70157F03FE12362CEF13
:201C2000700C9000E8F0FD7FFD7E06123681530D3F1222F2122295E4F535E53524401222AC
:201C4000CF940740F5E4F535E53524471222CF940740F59002F81222DF021CE67F6E7E0073
:201C600012362C90013AEFF0D394014002E4F0E4F533F534123B4A12362C123B3BEFF0120F
:201C8000223AE0D39F400E12223A123B48123B3BE0FD123681123B12E0C39F5011123F21A3
:201CA000123B12123B48123B3BE0FD123681123B4AEF647B4E6006EF647C4E7016123F21D4
:201CC00090008BE0700D123B4AE4FD123681123B3BE4F00534E53470020533C394A2E533E2
:201CE00064809480408EE4FFFE12362C900043EFF07F017E0012362C900044EFF07F027EF3
:201D00000012362C900045EFF07F037E0012362C900046EFF0E4F535123B5D24581222A367
:201D2000C006C007123B5D245712233DD0E02DFFD0E03400FE123B6FF583EEF0A3EFF0121B
:201D40003B6F123B9F5006C3EE94005010123B6F123B54245712227324581223480535E55B
:201D600035C3940440B2E4F535123B5D24481222A3C006C007123B5D244712233DD0E02DF5
:201D8000FFD0E03400FE123B7BF583EEF0A3EFF0123B7B123B9F5006C3EE94005010123BC6
:201DA0007B123B54244712227324481223480535E535C3940840B2900136E0F511E5117054
:201DC00002C2AA900144E014601514602A14602C2403702EE412233190010F7401801090D5
:201DE0000167E07006123BB8123681E490010FF0FD7FFE7E06800812231C8006123BB8126F
:201E00003681E4FD7F17123EEAC21EE4FD7F1E123EEA900167E0900025F09000E9F01223A7
:201E2000537F0A7E0012365EE53530E403122353E53520E427900195E064026006A3E064EB
:201E400002701990012FE0D394004010E49000E9F0122331C23D530D2E1222F29000E9E0E1
:201E6000D394004005D23C123DEB12368BE4F5351222FCE4C39F500B1222FCEFC3940350F3
:201E800002D24B0535E535C3940540E4304B19D2CA90001F122AE300000000E4FD7F0412DB
:201EA0003EEA78777602D200204B07C2CA7F041235FA900198E07006900197E0600C90017B
:201EC0009AE0700A900199E07004C24C8038E4900068F090019AE0FE900199E07C0024004B
:201EE000FFEC3E900052F0A3EFF09001A7E064036014D24C900052E0FEA3E0FF90019FE002
:201F0000FD7B011236907F067E0012362C90011BEFF06004E0B4FF0E90011B74FEF0FD7FDF
:201F2000067E001236817FD712235D64016009C2557FD71223298002D2557FB712235D243E
:201F4000FF922CE4F535E53524F7FFE433FE12362C123B87EFF0123B87E0B4FF13123B87F8
:201F60007403F0E53524F7FFE433FE7D031236810535E535C3940840CD7F007E0112362C36
:201F8000900104EFF07FFF7E0012362C900105EFF012230FD394195004E0B4FF0312229571
:201FA000E49000EAF075350190010DE02401FFE433FEC3E5359FEE6480F87480985021E549
:201FC0003524B7FFE43402FE12362C123B93EFF0123B93E0B4FF05123B93E4F0053580C8F9
:201FE000900262E0C39403501090012BE0B40209E4F0FD7F5FFE123681303603123695300C
:20200000361090006FE0700A7F507EC312365E12369512367C30251BE4F535AF3512369A86
:202020007FC87E0012365E123F210535E535C3940A40E890006FE0C394035004C2208002F5
:20204000D22012369FE4F53574532535F582E43402F583E4F074322535F582E43400F58394
:20206000E4F00535E535B403DF7F3012228BC006C0077F2F1222C8FDD0E02DFFD0E0340040
:20208000FEC006C0077F1C12228BC006C0077F1B122308FDD0E02DFDD0E03400FCD007D099
:2020A00006123BC450089000E37401F08005E49000E3F07F461223087F00FEC006C0077F82
:2020C00045122364FDD0E02DFFD0E03400FEC006C0077F321223647F00FEC006C0077F31D6
:2020E0007E0012362CEFFDD0E02DFDD0E03400FCD007D006123BC450089000E47401F080D9
:2021000005E49000E4F012231CD3940140037401F090014AE0FF9001ADE0C39F400D9001F9
:2021200049E0FF9001ADE0D39F400E9001AD74C8F0FD7FE17E001236819001F8742CF0E48E
:20214000FD7F1A123EEA123F2190010EE0FE900124E07C002400F534EC3EF5337FF67E001D
:2021600012362C9001C2EFF03051261236A41236A91236AE1236B31236B81236BD90005758
:2021800074C8F0D2501236C2123F211236C7123F211236CC9000E9E07007530DFEC23D8033
:2021A00005430D01D23D530DFBAD0D7F097E001236819001F27424F01236D1E47BFF7A7F5B
:2021C000F9F8123D28AE02AF03123D1DE4FD7F19123EEA7FCC7E0612362CEFD39464400ECB
:2021E000E4FD7FCC7E06123681E490006BF07FCC7E0612362C90006BEFF07F517E021236E2
:202200002CEFD394024009E4FD7F517E021236817F3E7E0312362CBFFF1FE4F535E535241C
:202220003EFFE43403FEE53590028F93FD1236810535E535C3941040E422123F21E5342503
:20224000E0FFE53333FE90013AE0FD75F0449008FC122B14ED2583F583E5822FF582E5839E
:202260003EF583E493FF742B2534F58274013533F58322FFE435F0FE7DF4123681E535757D
:20228000F002A4227E0012362CEF227E0012362CEF7F00FE22E490010DF0FD7FB67E0212CD
:2022A000368122FFE435F0FE12362CEF7F00FE22F59F7F76123E7C7FE87E0312365E123F09
:2022C00021D2AAD2A9D2AF227E0012362CEF22FFE43401FEE4FD1236810535E535C32274D3
:2022E0001EF0FD7FF37E02123681227E0212362CEF22AD0D7F097E0012368122E53524B94F
:20230000FFE433FE12362C227E0012362CEF227FB67E0212362C90010DEFF0227FFE7E0647
:2023200012362C90010FEFF022E4FD7E0212368122900167F0FD7F9BFE12368122FFE4353C
:20234000F0FE12362CEFFD22FFE435F0FE7D01123681227F097E0012362C8F35227E0212AC
:20236000362CEF227E0012362CEF22C064123F0289828A83BB80005003E08002E493D0829F
:20238000C582C082123F0AD0E022C064C0E0123F02D0E089828A83BB80005001F080DFC00D
:2023A00064123F0289828A83BB80005007E0F5F0A3E080CAE493F5F074019380C1C064C0A1
:2023C000E0123F02D0E089828A83BB80005005F0A3E5F0F08023C064123F0289828A83BB2D
:2023E0008000500AE0FBA3E0FAA3E0F9800BE493FB740193FA740293F9D0E090360073C085
:2024000064C0E0123F02D0E089828A83BB8000500AC5F0F0A3C5F0F0A3E8F080DCC064120E
:202420003F0289828A83BB8000500DE0FCA3E0FDA3E0FEA3E0FF80C1E493FC740193FD741F
:202440000293FE740393FF80B0C064123F0289828A83BB8000500BECF0A3EDF0A3EEF0A30B
:20246000EFF08095EC4D6011E8497017ED33EC3304600DE4FCFFFEFD22E933E8330470F8B7
:202480000226B412267F58046009E4CC248150062850090226BE2840030226BBC0E0EB4AAF
:2024A0007044B98006D0E0FB0226AAEF4E701CBD8008EBFFEAFEE9FD80EBE98DF0A4FEE58E
:2024C000F002254DE9CDF9EAFEEBFFEF89F0A4FCE5F0CE89F0A42EFFE435F0CD89F0A42D02
:2024E000FEE435F08067EF4E7005BD80D780C3EF8BF0A4ACF0EE8BF0A42CFCE435F0F8EF16
:202500008AF0A42CE5F038FCE433CB8DF0A42CFCE5F03BF8EE8AF0A42CFCE5F038F8E433E5
:20252000CF89F0A42CFCE5F038CF3400CE89F0A42FFFE5F03EFEE433C98DF0A42EFEE5F04B
:2025400039CD8AF0A42FFFE5F03EFEE43DFD33D0E0FB50070BBB000F0226BEEC2CFCEF33D4
:20256000FFEE33FEED33FD0226960226BEEC5D046005E8590470030226B412267F580460C3
:20258000F6EC4860F2EC7004FDFEFF22C860DB2481C85009C398600250060226BB9850CAD2
:2025A000F582E9294B4A7005AB820226AA75F0007C1A7880C3EF9BEE9AED99400DC3EF9BA1
:2025C000FFEE9AFEED99FDE842F0DC23ACF0D0E0FFD0E0FED0E0FDAB8220E7101BEB60BAD0
:2025E000EC2CFCEF33FFEE33FEED33FD022696E803F830E705C0F075F000EF2FFFEE33FE5C
:20260000ED33FD40B830E7C280AA75F020800E75F010800575F0087D007E007F003392D514
:2026200030D503122A4CEC334010EF33FFEE33FEED33FDEC33FCD5F0ED22E5F0247EA2D561
:2026400013CC92E7CDCEFF22EDD2E7CD33EC3392D524814006E4FFFEFDFC22FCE4CFCECD09
:20266000CC24E0501174FF80EDC3CC13CCCD13CDCE13CECF13CF0470F030D5DE022A4CE926
:20268000D2E7C933E833F892D5EDD2E7CD33EC33FC5002B2D522EC30E7100FBF000C0EBE96
:2026A00000080DBD00040BEB6014A2D5EB13FCED92E7FD2274FFFCFDFEFF22E480F8A2D586
:2026C00074FF13FC7D80E480EFE709F608DFFA8046E709F208DFFA803E88828C83E709F021
:2026E000A3DFFA8032E309F608DFFA8078E309F208DFFA807088828C83E309F0A3DFFA8051
:202700006489828A83E0A3F608DFFA805889828A83E0A3F208DFFA804C80D280FA80C6803F
:20272000D4806980F28033801080A680EA809A80A880DA80E280CA803389828A83ECFAE4BA
:2027400093A3C8C582C8CCC583CCF0A3C8C582C8CCC583CCDFE9DEE7800D89828A83E49399
:20276000A3F608DFF9ECFAA9F0EDFB2289828A83ECFAE0A3C8C582C8CCC583CCF0A3C8C5FF
:2027800082C8CCC583CCDFEADEE880DB89828A83E493A3F208DFF980CC88F0EF60010E4EB1
:2027A00060C388F0ED2402B4040050B9F582EB2402B4040050AF232345822390271973BB3D
:2027C000010689828A83E0225002E722BBFE02E32289828A83E49322BB010CE58229F5823D
:2027E000E5833AF583E0225006E92582F8E622BBFE06E92582F8E222E58229F582E5833AE3
:20280000F583E49322BB010689828A83F0225002F722BBFE01F322EF8DF0A4A8F0CF8CF08E
:20282000A428CE8DF0A42EFE22BC000BBE0029EF8DF084FFADF022E4CCF875F008EF2FFF01
:20284000EE33FEEC33FCEE9DEC984005FCEE9DFE0FD5F0E9E4CEFD22EDF8F5F0EE8420D2A9
:202860001CFEADF075F008EF2FFFED33FD4007985006D5F0F222C398FD0FD5F0EA22C2D51D
:20288000EC30E709B2D5E4C39DFDE49CFCEE30E715B2D5E4C39FFFE49EFE122829C3E49DDB
:2028A000FDE49CFC800312282930D507C3E49FFFE49EFE22C5F0F8A3E028F0C5F0F8E5826A
:2028C000158270021583E038F022BB010A89828A83E0F5F0A3E022500687F009E71922BB32
:2028E000FE07E3F5F009E3192289828A83E493F5F074019322BB010A89828A83F0E5F0A300
:20290000F0225006F709A7F01922BBFE06F3E5F009F31922EF2BFFEE3AFEED39FDEC38FC3D
:2029200022C3EF9BFFEE9AFEED99FDEC98FC22E88FF0A4CC8BF0A42CFCE98EF0A42CFC8AA3
:20294000F0EDA42CFCEA8EF0A4CDA8F08BF0A42DCC3825F0FDE98FF0A42CCD35F0FCEB8E5C
:20296000F0A4FEA9F0EB8FF0A4CFC5F02ECD39FEE43CFCEAA42DCE35F0FDE43CFC2275F0FE
:2029800008758200EF2FFFEE33FECD33CDCC33CCC58233C5829BED9AEC99E58298400CF5BC
:2029A00082EE9BFEED9AFDEC99FC0FD5F0D6E4CEFBE4CDFAE4CCF9A88222B800C1B9005987
:2029C000BA002DEC8BF084CFCECDFCE5F0CBF97818EF2FFFEE33FEED33FDEC33FCEB33FB09
:2029E00010D703994004EB99FB0FD8E5E4F9FA227818EF2FFFEE33FEED33FDEC33FCC933CC
:202A0000C910D7059BE99A4007EC9BFCE99AF90FD8E0E4C9FAE4CCFB2275F010EF2FFFEEE2
:202A200033FEED33FDCC33CCC833C810D7079BEC9AE899400AED9BFDEC9AFCE899F80FD57C
:202A4000F0DAE4CDFBE4CCFAE4C8F922C3E49FFFE49EFEE49DFDE49CFC22EB9FF5F0EA9EB7
:202A600042F0E99D42F0EC6480C864809845F022EB9FF5F0EA9E42F0E99D42F0E89C45F067
:202A800022E6FC08E6FD08E6FE08E6FF22E0FCA3E0FDA3E0FEA3E0FF22E6FB08E6F908E615
:202AA000FA08E6CBF822E0F8A3E0F9A3E0FAA3E0FB22ECF608EDF608EEF608EFF622ECF034
:202AC000A3EDF0A3EEF0A3EFF022D083D082E493F608740193F608740293F608740393F62A
:202AE000740473A8828583F0D083D082122AFA122AFA122AFA122AFAE473E493A3C583C5CE
:202B0000F0C583C8C582C8F0A3C583C5F0C583C8C582C822A42582F582E5F03583F58322EC
:202B2000FAE6FB0808E6F925F0F618E6CA3AF622D083D082F8E4937012740193700DA3A345
:202B400093F8740193F5828883E4737402936860EFA3A3A380DFD083D082F8E493701274F7
:202B60000193700DA3A393F8740193F5828883E473740293B5F0067403936860E9A3A3A33A
:202B8000A380D88A838982E4732020202020202020004F4F4F4F4F4F4F4F004F4F4F4F4FC8
:202BA0004F4F4B0020204155582020200048454154494E472000726573746172745F0069B1
:202BC0006E672E2E2E00000000000000000000000000000000000000000000000000000096
:202BE0000000000000000000000000000000000000000000000000000000000000000000D5
:202C00000000000000000000000000000000000000000000000000000000000000000000B4
:202C2000000000000000000000000000000000000000000000000000000000000000000094
:202C4000000000000000000000000000000000000000000000000000000000000000000074
:202C6000000000000000000000000000000000000000000000000000000000000000000054
:202C8000000000000000000000000000000000000000000000000000000000000000000034
:202CA000000000000000000000000000000000000000000000000000000000000000000014
:202CC00000000000000000000000000000000400000404040404000000000009090B0505B5
:202CE0000A1F0A1F0A05040F15141F151404091509071812151216091502020C0000000028
:202D000000000C08080802020101010102020808101010100808000B041F040B00000404DE
:202D2000041F04040400040C0818100000000000001F0000000018180000000000001010B5
:202D40001008080404020E1111111111110E1F040404040404061F1102040810111E0E11EE
:202D600010100C10110E1C081F0A0A0C0C080E1110100E02021E0E1111110F01021C04049B
:202D800008080810111F0E1111110E11110E0708100E1111110E000C0C00000CC000020404
:202DA0000C00000C0C00100806010608100000001F001F00000001020C100C020100060040
:202DC00004081012C0000E0119151519110E111111111F11110E0F1111110F11110F1E0147
:202DE00001010101011E0F1111111111110F1F0101011F01011F010101011F01011F0E1167
:202E000011110D01010E111111111F1111111F0404040404041F060505040404041F110532
:202E20000301030509111F0202020202020711111111151B110011191115111311110E1100
:202E400011111111110E010101010F11110F1E0D09090909090619050301070909070F110B
:202E600010100E01110E020202020202021F0E1111111111111104040A0A0A111111111BCD
:202E800015111111110011110A04040A11110E0404040A0A11111F1102040408111F0E02A7
:202EA00002020202020E181818141412121100000000110A04041F00000000000000000013
:202EC0000000000402010000000000000000160909090E0807000F1111130D0101010E112A
:202EE0000101110E00001E1111111E1010101E11011F110E000002020202021F021C0E113E
:202F000011100E11110E11111111130D01010E0404040600040006080808080E000819056E
:202F20000305090101010E040404040404001F1515151506000013121212161600000E114A
:202F40001111110E00001F02020E12120F001810101E11111E000F020202061B00000F10E1
:202F6000100E011E00001C020202021F020016191111111B0000040A0A11111100000A15E8
:202F80001515111100001B0A04040A1B00000F10101C121212001F120408111F0000080895
:202FA00004060604080840404040040404040202040C0C0402020000000D12000000000096
:202FC00000000000000017F018501760180017D0183017F018201760186017B0186017B090
:202FE000187017E0180017F0187017F0186017E0187015F016501560160015D0163015F087
:2030000016201560166015B0166015B0167015E0160015F0167015F016601570165012F00B
:2030200013501260130012D0133012F013201260136012B0136012B0137012E0130012F0E8
:20304000137012F01360120013000DF00C500D600C000DB00C600DF00C200D600C300DD0A9
:203060000C300DD00C700D700C000DF00C700DF00C300DF00C300FF00E500F600E000FB0AE
:203080000E600FF00E200F600E300FD00E300FD00E700F700E000FF00E700FF00E300FF028
:2030A0000E3011F010501160100011B0106011F010201160103011D0103011D010701170DA
:2030C000100011F0107011F0103011F0103008F009500860090008D0093008F00920086081
:2030E000096008B0096008B0097008E0090008F0097008F0096008F0096006F0075006603E
:20310000070006D0073006F007200660076006B0076006B0077006E0070006F0077006F017
:20312000076006F0076004F005500460050004D0053004F005200460056004B0056004B061
:20314000057004E0050004F0057004F0056004F0056002F003500260030002D0033002F055
:2031600003200260036002B0036002B0037002E0030002F0037002F0036002F00360E4F560
:2031800030F531F5329000D9F090003CF0D222C292D249D20F123F2190006F7463F0E490AD
:2031A0000110F09000D8F075D802F531AF31EF3395E0FEEF25E0FFEE33FE74A82FF5827484
:2031C000003EF583E4F0A3F00531E531B408DDE490007CF090024BF090005774C8F090009D
:2031E000497405F0123BD09000257404F0123622121A13123627C2477FD87E0012362C7EFB
:20320000007C007D3C122817900023EEF0A3EFF09001F57427F09001F37425F09001F874FA
:203220002CF09001FC7430F09001F6742AF0A304F09001F47426F09001FD7434F0E4FD7F10
:203240001F123EEAE4900013F0A3F0A3F0900017F0A3F0D233D23B900058F0A3F090012A16
:20326000F0900222F0A3F0C223F50BC296C29790006AF0900089F0303D05FF7E0280047FAA
:20328000807E0012363112363612363B123F2130412DC2419000E1E0D39400400AE014F0BD
:2032A000E07004900080F09000E7E0D394004003E014F0302A099000E7E07003123640E53B
:2032C0000BD394275003023389E4F50BD257900110E0D394004005E014F08002C253A25697
:2032E000303D01B35014A23D9256303D067F007E0280047F807E00123631900000E004F032
:20330000E0D394054002E4F0900013E070099000007408F0123645900000E0FFC31314600D
:203320000C14600E2402700D12364A800812364F8003123654E4900221F0900221E0FFC3B0
:20334000648094A05043EF3395E0FE74012FF58274023EF583E06029900221E0FD3395E045
:20336000FC123BAC14F0123BAC701674DE2FF58274013EF583E0F531F532AF327E001236DE
:2033800059900221E004F080B190008CE0700302328614F0E024FEF582E43401F583E0F510
:2033A0000C24CDF582E43401F583E0F532FF7E0012365980D42020202020202020004F43FD
:2033C000435550494544005343484544554C45002020202D2D2020200020204D4F44452047
:2033E000200053595354454D20002053595354454D20004156455241474520005645525328
:20340000494F4E20002020414444522020005741524E494E470045325F6572726F72004DA8
:2034200041494E4D454E55004D414E204F46462000202D4155544F2D2000204D414E204F4A
:203440004E2000202020474F2020200044415920534554200044495341424C450020454EF7
:2034600041424C450057454C434F4D452000205453544154372000494E5445524E414C00A8
:2034800020494E50555431200020494E50555432200020494E50555433200020494E5055CA
:2034A0005434200020494E50555435200020494E50555436200020494E5055543720002032
:2034C000494E505554382000554E4F434355502000202057414C4C2020004345494C494E63
:2034E0004720004F5554444F4F5220004F5645524C41502100203C204241434B20002053BF
:20350000454E534F52200020434F4F4C494E47002048454154494E4700434F415354494EA8
:20352000470020204F4646202020002020204F4E202020002020204C4F2020200020204D84
:2035400045442020200020202048492020200020204155544F2020004A414E4645424D4144
:20356000524150524D41594A554E4A554C4155475345504F43544E4F5644454300000000ED
:20358000000000D3900063E0948F900062E09401402FE4F0A3F0900016E004F0E0D3941450
:2035A0004009303F06C23FE024FEF0D390027EE0940090027DE09400400774FFF5F01228A7
:2035C000B4900016E0D3943B400FE4F090004AE004F0E054077002D23F90004AE0D3943B24
:2035E0004008E4F09000D5E004F09000D5E0D394174006E4F0D221D21B22123B64E4F022F0
:20360000C0647436C0E0C082C08375640A53BFF722C0647436C0E0C082C08375641B43BFC0
:20362000082290002EC10090C6BCC100907C60C111907946C111906860C11190B20CC10076
:20364000907E83C111908039C11190801AC111907E51C111907EE5C1119049C0C10090CD43
:20366000B1C100908091C111907CD1C1119001C8C111907F3AC11190A602C10090AD5CC11D
:2036800000907BDAC111906326C10090C88EC10090B541C10090C59AC10090000EC100900C
:2036A000797AC100900003C11190CB99C1009000EEC1119080ADC111907829C11190CB6A95
:2036C000C100905FDCC11190535AC1009080FAC11190C45EC10090C033C100908125C111F3
:2036E000907DDFC11190818FC111906E9DC11190725CC11190758BC111907FB3C1119081F6
:2037000009C111908058C1119080E1C111907426C111900124C1119076DDC11190CD4BC130
:203720000090C71CC10090CDC7C10090AA5FC10090C37BC10090CD2FC10090CDA5C10090E7
:20374000CD19C10090936AC100908003C10090BC0EC10090BEB4C10090B2E1C10090BC9AF8
:20376000C10090BF34C1009099F7C100909192C10090CD7DC10090CD65C10090CBEEC100C7
:20378000900124C10090C77CC10000C0E0C0F0C083C082C0D075D000C000C001C002C0036F
:2037A000C004C005C006C0072098030238C2D239D22DC298900080E0C394195013E0FF0432
:2037C000F074632FF582E43402F583E599F080031236DB900080E0FFB401087408123E67F7
:2037E0000238BEEF6404702E900265E0FEA3E07C002400FFEC3EFEEF640A4E60030238BEB7
:20380000900264E0640660030238BE740C123E67123E750238BE900080E0FDB4071E9002C1
:2038200064E0641060030238BE900269E0FE24099000D4F09000E1EEF00238BEEDB4061716
:20384000900264E0B41910900029E09000E7123E74D22AC2AC80679000D4E0FF900080E05D
:203860006F705B900264E0FF6403600AEF64066005EF641070489000E1E4123E741236E04E
:203880005031900029E09000E7F090010DE0700A9001BDE0600BA3E0600790001BE4F0802D
:2038A0000690001B740AF0D21FD21ED22AB26AC2AC800BC22A9002607401F01236DBC29639
:2038C0008007309904C299D226D007D006D005D004D003D002D001D000D0D0D082D083D090
:2038E000F0D0E03241008B00C11CC152C1A2C12FC11AC148C15342024F0000C1B8C1C5C19C
:2039000027C144C119C14341008C00C131C11DC1B5C13EC12AC149C155C1A5420256000080
:20392000C139C1504100D900C15741023A0041010D004100E20141011BFE4202490000C1B1
:2039400034430106010101C11FC14BC13C410129000120FF0122FFC11B42027D0000C137BB
:203960004100260041025F0041027C0043005E3232324300D13232324200E5000002120063
:2039800000C12141003C00410080000121FFC11EC12DC146C1AC42003F00004100A60841F4
:2039A00000A708C118C13FC14C42006800004200660000410042010669000000000000C16C
:2039C0003041026100410000004102F9004102F8004202F400004202F600004102F300C1F2
:2039E0007E4C02D30000000000000000000000004102E3004102E1004102E000011F01C1D9
:203A000071C16DC170C174C1F5C16CC16EC172C1EA4102FA004102FB010262028D00C0E0A2
:203A2000C0F0C083C082C0D075D000C000C001C002C003C004C005C006C007C2CF123F215D
:203A400090001F122A8DEF2401FFE43EFEE43DFDE43CFC90001F122ABE30332F123E59E4B9
:203A6000FD90001F122AA6D3122A70401E7D01E4FF1236D67D017F011236D690001F122A55
:203A8000E300000000C233787776007877E664017065D37870E6940018E664809480402E41
:203AA00008E61618700116900238E475F0011228B4123E59D3900239E09FEE6480F890023F
:203AC00038E06480984030EEF0A3EFF08029C3786FE664809480501F0806E618700106D38C
:203AE000900239E09400900238E064809480400774FFF5F01228B4D007D006D005D004D032
:203B000003D002D001D000D0D0D082D083D0F0D0E032E53425E0FFE53333FE90013AE0FD3A
:203B200075F0449008FB122B14ED2583F583E5822FF582E5833EF583E493FF742B2534F55D
:203B40008274013533F58322EFF0E534245FFFE43533FE22F5837401F0A374F4F0E535751F
:203B6000F002A42274012FF582E43402F58322E53525E0243FF582E4340222E53525E02446
:203B800096F582E434002274FC2535F582E43400F5832274EA2535F582E43400F58322F515
:203BA00083E0FEA3E0D394E8EE94032274012DF58274023CF583E0229001677404F0FD7F0A
:203BC0009B7E0022C3ED9FEE6480F8EC6480982243BF01D294D2A47F107E2712365E123FFD
:203BE0002112366312366812366D123F217F107E2712365E123672123F21E4900062F0A3B3
:203C0000F09000D5F090004AF0900016F090010CF09000D0F090011AF043BF02D2DB7598C9
:203C20005075892175CDDCF5CC75CBDCF5CAC2CDC2CCC2CBC2C9C2C8C2CAD2AD758DFD751D
:203C40008BFDF58A758C80D28ED28CD2A9D2ACD2AFD2B9D2BC123677123F21900262E0D3B3
:203C6000940350037521FFE49001A6F07F65FE12362CEF600B75878090008E7403F0800980
:203C8000E4F58790008E7406F002367CC0E0C0F0C083C082C0D075D000C000C001C002C0DB
:203CA00003C004C005C006C007050B758A04758CF7900062E475F0011228B4D241123583D9
:203CC000D007D006D005D004D003D002D001D000D0D0D082D083D0F0D0E032AC5EAD5FAE9D
:203CE00060AF617810EC4D4E4F70047CA57DA5C3EC13FCED13FDEE13FEEF13FF5010EC64D4
:203D0000CCFCED644CFDEE644EFEEF64CEFFD8DF8C5E8D5F8E608F61EE547FFE228E5E8FBC
:203D20005F74A5F560F56122C2D5E830E70FB2D5E4C39BFBE49AFAE499F9E498F8EC30E770
:203D400017B2D5123D5E1229BAE4C39BFBE49AFAE499F9E498F880031229BA30D50DE4C353
:203D60009FFFE49EFEE49DFDE49CFC228F388C398D3AC2AF9001A6E0B4011DAE39AF3A127A
:203D80003E355014AE39AF3A123E4E400BE4253AF53A74FE3539F539123E41E539F5F485F6
:203DA0003AF58538F675F780D2AF7F00228E3B8F3C8B3D8A3E893F9001A6E0B40119123EF2
:203DC000355014AE3BAF3C123E4E400BE4253CF53C74FE353BF53B853C82853B83E493AB5D
:203DE0003DAA3EA93F1228057F012220472190012FE0601BE4FD7F14123EEAD24790012FAB
:203E0000E075F03CA4FF90027DE5F0F0A3EFF022E4F5367F107E2712365E123F210536E58B
:203E200036C3940A40ED7B007A0279008B088A09890A022B83E4FCFDFB7AECF9F8D3022AB7
:203E40005A75F65575F6AA75F65543BF0422E4FCFD7BFF0AF8C3022A5A90014DE0FF7E006E
:203E60007C007D640228179000D4F090008EE09000E1F022F090003C743CF022C2AF90014F
:203E8000A6E0B40104BF76011F123E41EF25E0F5F4E4F5F575F782D2AF22000000000000C1
:203EA0000000000000000000000000000000000000000000000090008CE0C394035010E06C
:203EC000FE04F074FE2EF582E43401F583EFF0224F434355504945440020204F43432020A6
:203EE000200044697361626C6500ED700CEF9008DB93FE123B64EEF022123B64EDF022EF42
:203F00008004EB14543F903F0E93903600730A1B7761726E696E670045325F6572726F72C7
:203F20000075971E7597E1E4F59F7597E175971E2275971E7597E1759FA77597E175971ED0
:203F4000224552524F52004E4F2050494300E4FF123B64E4F00FBF20F722EE30E707C3E4FA
:203F60009FFFE49EFE228F43900137E014602C14605C14700302401814700302407B14706E
:203F8000030240D524056003024122E511B406030240F6AF4312C65C0241227F0112C65CEC
:203FA0001277C7302E07124929D27D800512491BC27DE4FD12C5FB900049E0D39400500319
:203FC000024122E014F01277C7C27D0240FB900196E0B4051490002CE07004A3E064017090
:203FE00004D27B801DC27B8019900195E0B4051290002AE07004A3E064017004D27B8002F3
:20400000C27B1277C7307B08124929D27D02411D12491BC27D02411D7B017A0179A07D0289
:2040200012CD194006D254A254927A900196E0B4051490002CE07004A3E064017004D27B8D
:20404000801DC27B8019900195E0B4051290002AE07004A3E064017004D27B8002C27B1294
:2040600077C7207B0EC27DE4FD12C5FB1278B8D27D800512496EC27D02411D90002A1278A5
:20408000F5A3EFF07872E624F6FD18E634FFFCC3EF9DEE9C50161277C712496EC27DE4FD1D
:2040A00012C5FB90011A7402F00241227872E6240AFF18E4361278BF4013124907D27DE458
:2040C000FD12C5FB90011A7401F0024122E490011AF002412290002C1278F5FCA3EFF0FD02
:2040E0007A001276FEFFEA3ECF24F6CF34FFFEC3ED9FEC9E50111277C7D27DE4FD12C5FB24
:204100001278B8C27D80161276FCFFEC3ECF240ACF34001278BF400A124907D27DE4FD12A4
:20412000C5FB127645FF70161277E2F5837464F01276C3F583E0FE127724EEF08027EFB44C
:204140000606127724E4800E1276451276C2127637FF127724EFF01276C3F583E0FF1277A8
:20416000E2F583EFF012772412777A127614FEC39F400C1277E2F583E0FFEED39F403390E9
:204180000145E0FF64026006EFD39404502A124953500D1277E2127778127614C39F401293
:2041A000124995501312772412777A127614D39F40061278D30244EC124995400302436C35
:2041C000E490028DF01278DB7442127853FD90028DE0FCC39D501712764D2C1276C2127662
:2041E00037FF748F2C127748EF12788180D7E490028DF01278DB744212764F1278A0500CCD
:20420000ED2F127746740212788180E774D12543127614FFD39403501390028DEFF074D173
:204220002543F582E43400F5837403F0900294E024FEFF74D12543127614FEC39F5009740B
:204240000E2543F87606804790028FE0FFEED39F40051278D38038E490028EF090028EE0FF
:20426000FFC394045029127770127614FED39F4016127741E024FEFDEEC39D500AEF04FFAD
:20428000740E2543F8A60790028EE004F080CD90028F127766127614FDC39E4011EDD39F94
:2042A000500C1276BA64016005EF60027601900290127766127614FDC39E4013EDD39F50C1
:2042C0000E1276BA64016007EF640260027602900291127766127614FDC39E4013EDD39FD5
:2042E000500E1276BA64026007EF640360027603900292127766127614FDC39E4013EDD300
:204300009F500E1276BA64036007EF640460027604900293127766127614FDC39E4013ED0F
:20432000D39F500E1276BA64046007EF640560027605900294127766127614FDC39E401305
:20434000EDD39F500E1276BA64056007EF64066002760674D12543127614B4030F90028D29
:2043600012777AF582E43400F583EFF012495340030244ECE490028DF0127645FF90028D53
:20438000E0C39F5014E01276C2127637FE748F2F127748EE12788180E0E490028DF01276B9
:2043A000451278A0500CED2F127746746612788180EC90029412792A2543127614FDD39FA8
:2043C000EE12767C4009740E2543F8760C804D90028FE0FFEDC39F50051278D3803EE4903E
:2043E000028EF090028EE0FFC39404502F127770127614FEC39F501C127741E02402FDE452
:2044000033FCEED312767A400BEF2407FF740E2543F8A60790028EE004F080C774D12543CF
:2044200012761490028F12783F4011127671500C1276BA64076005EF6002760774D12543C3
:2044400012761490029012783F4013127671500E1276BA64076007EF64086002760874D197
:2044600025431276149002911278CC4013127671500E1276BA64086007EF640960027609C3
:2044800074D125431276149002921278CC4013127671500E1276BA64096007EF640A6002DA
:2044A000760A74D12543127614FF900293E0FEEFC39E4013127671500E1276BA640A600720
:2044C000EF640B6002760B74D12543127614FF900294E0FEEFC39E4013127671500E1276CD
:2044E000BA640B6007EF640C6002760C1275F5E0FF74442543F8A60790024F12497C504D74
:2045000012493740481275F5E07039740E2543F8E6D39406401090002712497C400812759A
:20452000F57407F080241276BAD39400401CEF94075017900047E0FEA3E0FFAD4312CD4B30
:20454000400880001275F5E004F012496090024FE0FEA3E0FFE5432403FD12CD4B5025124A
:20456000493740201275F5E0FFB407071275F5E4F08009EF60061275F5E014F01277BBC2AA
:204580007D12C5FB740E2543F8E6122B3045B50145D60246020346300446610546920646EA
:2045A000B80746D00846F50947210A474E0B47800C000047B01275F5E0FFD39400500302E7
:2045C000471CEF9407400302471C12488AE0FFAB437D010247631275F5E0FFD39401401157
:2045E000EF9407500C12488AE0FFAB437D020247631275F5E0B40105C27C0247A9D27C0263
:2046000047A91275F5E0FFD394024011EF9407500C1248A3E0FFAB437D030247631275F53D
:20462000E0FF64026035EFB4010302471702471C1275F5E0FFD394034011EF9407500C1226
:2046400048A3E0FFAB437D040247631275F5E0FFC394034009EFD394015003024717024724
:204660001C1275F5E0FFD394044011EF9407500C1248BCE0FFAB437D050247631275F5E0B4
:20468000FFD394045009EFC39401400302471702471C1275F5E0B406091248BC7406F00267
:2046A00047D01275F5E0FFD394055009EFC39401400302471702471C1275F5E0D39406406B
:2046C0000C1248D5E0FFAB437D0702476302471C1275F5E0D39407400C1248D5E0FFAB432B
:2046E0007D080247631275F5E0B40704C27C8002D27C0247A91275F5E0D39408400C1248FD
:20470000EEE0FFAB437D090247631275F5E0FF64086004EFB40705C27C0247A9D27C02470B
:20472000A91275F5E0D39409400B1248EEE0FFAB437D0A802E1275F5E0FFD394094005EF70
:2047400094074005C27C0247A9D27C0247A91275F5E0D3940A40121249601275F5E0FFAB29
:20476000437D0B12CCD40247D01275F5E0FFD3940A4005EF94074004C27C802DD27C8029E2
:204780001275F5E0D3940B400B1249B21275F5740CF0803C1275F5E0FFD3940B4005EF94B6
:2047A000074004C27C8002D27CAF4312CCB080201249B21275F5E0C3940140071277BBD262
:2047C0007D800A1275EEEFF01277BBC27D12C5FB1275F5E0FF74442543F8E66F601D900153
:2047E000067401F0A3F0A3F0FB7A00793FD27DAD4312C5FBE4FD7F11123EEA900013E0704C
:204800006BE544D394004029E544940750231249A2EF600C1249451249A2127934123EEA0F
:204820001249AAEF60461249871249AA12793E8038E544C3940740347F667E0012362CEFB5
:2048400060101249877F667E0012362C12793E123EEA7F677E0012362CEF60101249457FD6
:20486000677E0012362C127934123EEA20241AE490024FF0A3F0900047F0A3F0900027F03F
:20488000A3F01275EEEFF0D224227B017A02794FC27DAD4312C5FB74132543F582E43400DA
:2048A000F583227B017A02794FC27DAD4312C5FB74132543F582E43400F583227B017A028D
:2048C000794FC27DAD4312C5FB74132543F582E43400F583227B017A02794FC27DAD4312F6
:2048E000C5FB74132543F582E43400F583227B017A02794FC27DAD4312C5FB74132543F53B
:2049000082E43400F583227B007A007967C27DE4FD12C5FB7B007A00796522D27DE4FD1265
:20492000C5FB7B007A00796522C27DE4FD12C5FB7B007A0079652290003FE0FEA3E0FFADFF
:204940004312CD4B227B017A007947D27DE4FD12C5FB227865E6FE08E6FFAD4312CD4B2204
:204960007B017A02794FC27DAD4312C5FB22D27DE4FD12C5FB7B007A00796522E0FEA3E0FC
:20498000FFAD4312CD4B227B017A007927D27DE4FD12C5FB227867E6FE08E6FFAD4312CDA3
:2049A0004B227F667E0012362C227F677E0012362C227B017A02794FC27DAD4312C5FB22B4
:2049C000C277EF122B304A42004A48014B34024B1D034B23044B3C054AAB074A99094A9F68
:2049E0000A4AB10D4ABB0E4AC00F4AC3104AC9114ACF124AD5134B14144B2E154B55184BD7
:204A00005B1A4B7F1B4BA31C4BC71D4BEB1E4C0F1F4C33204C56214C73224C9B234CC424B4
:204A20004D25254D47264D4D274E302A4E8D2B4B422C5214304AA5314AA8324E6E34000033
:204A40005217123F210236B8123F21302314900064E004F0E0D394354008E4F09002491265
:204A60005C129001A7E0B403047F0280027F0112B489301D1ED3900252E09400900251E0CA
:204A80009400400F125C60900251E07002A3E07002C21D1236EFB26422123F2102BAF112BC
:204AA0003F2102BA5C02B92A02B9C6123F2102A94C12CDD29002E07420F022123F21805A9A
:204AC000023F21123F2102A0FD123F21027CC3123F210271EA123F219002DFE0FF64046057
:204AE00004EFB40505E4FFFE80249002DFE0FF64066004EFB407067F017E0080119002DFB2
:204B0000E0FF64086004EFB409077F027E0012BB82028327123F2112832702CB39123F2193
:204B20000236C2D297123F211200EAC29722123F2102CB99123F2112535A801C123F210210
:204B40006DD9123F21304806302C03129E41E4FD7F1A025211123F21029192123F21900057
:204B60004BE0D394004003E014F090004BE07008125EC67D01024CBAE4FD7F0A02521112AC
:204B80003F2190004CE0D394004003E014F090004CE07008125EC67D03024CBAE4FD7F0B0E
:204BA000025211123F2190004DE0D394004003E014F090004DE07008125EC67D05024CBADE
:204BC000E4FD7F0C025211123F2190004EE0D394004003E014F090004EE07008125EC67D5D
:204BE00007024CBAE4FD7F0D025211123F2190004FE0D394004003E014F090004FE07008DE
:204C0000125EC67D09024CBAE4FD7F0E025211123F21900050E0D394004003E014F09000AD
:204C200050E07008125EC67D0B024CBAE4FD7F0F025211123F21900051E0D394004003E075
:204C400014F0900051E07007125EC67D0D806BE4FD7F10025211123F21E4F5337B017A0024
:204C6000793FC27DAD3312C5FB0533E533C3940340EA22123F2190005612619B4016E4F005
:204C800090024CE014F0E0700B7B017A007947C27DFD8026E4FD7F12025211123F21900086
:204CA0003712619B4017E4F0900126E014F0E0700C7B017A007927C27DFD02C5FBE4FD7F99
:204CC00013025211123F2190012FE0605130474EE4FF12B88D9277307744C247203D03300D
:204CE0003C33C23CC23D9001AFE0700B900145E064067003025217E49000E9F0530DFEAD57
:204D00000D7F09FE123681125FF8E4900167F0FD7F9BFE8006430D10125F03023681E4FDF9
:204D20007F14025211123F217F087E0012362CEF60030252177F08FE12362CEF6003025234
:204D400017439B30F5A322123F21D23122123F21202C1990012FE060137FED7E0212362C93
:204D6000BF01099000E5A3E090025FF0301E167FD87E0012362C7D3C125E76900023EEF0B4
:204D8000A3EFF08006900023125C60900023E07002A3E06003024E27301E03024E277FD809
:204DA000FE12362CEF7003024E271260B5125F03123681125F701236817F517E0212362CD6
:204DC000BF010BE49001A2F0FD7FD6FE80567F517E0212362CEF6402704D9001A274FFF06F
:204DE000FD7FD67E001236817F527E0212362CAD077FFF7E061236817F147E0012CDB190A5
:204E0000008A7F0312535290008F7F0212535290008DE0FD7F017E07123681900095E0FDAE
:204E20007F007E07123681C21EE4FD7F17025211123F2190010C12619B402CE4F09000D02C
:204E4000E0D394004003E014F09000D0E07018D20FC278E521F4F5335333DF207809AF33F7
:204E600012C37B927880F4E4FD7F180252111296E49002E1E0600FA3E0FF9002E8E0FDA2BE
:204E800075927912CB03E4FD7F1F0252119001BDE07019A3E07015C27A125E381236EA12E7
:204EA0005E361236EAE4FD7F190252119001BEE070427FB67E0212362C90010DEFF0BF11F7
:204EC00007E09001BDF0802C90010DE0FFC394115022EF9400401D9000E2E0FF9001BDF03B
:204EE0009000E204F090010DE0FEEFB506069000E27401F090014CE0C3940640030251FF9A
:204F0000E4FF12A4D79001BDE0640C7049F533125DAB74FC125270125DA974FB1252708F5A
:204F200017125DAB74FA1252A48F18125DAB74F91252A48F19125DAB74F81252C474F712C1
:204F400052EF74F61252DA74F512533B8F1DE4F51EC27A02504D9001BDE0640D600302508D
:204F60005890012FE06013303D1030470DC27A7543FF7544337545BE800BC27A7543FF757B
:204F800044337545C71236EA90012FE07003025014203D0302501430477A7C0E7D10125E30
:204FA0001A8F3375183A751B3AE533125EB0F516E533125DA0F5177E007C0E7D1012281728
:204FC000C3EB9FFFEA9EFE125E59AA06AB077D0A125CD9F519125D16125E13F51A90027DD2
:204FE000E0FEA3E0FF7C0E7D101228297F3C125C32122829AA04AB057D0A125D18125CDB64
:20500000F51C7D0A125D18125E13F51DE4F51ED27A02504D12611E4039EF1412606D748F0B
:20502000125218748E1252B0748D12522E748C12527C748B125244748A1252907489125271
:205040005A74881253478F1DE4F51ED27AF5430251ED125FAE0251F59001BDE0FFB40E1081
:20506000C27A125CFB1236EAE4FF12693D0251F89001BDE0B40F0EC27A7543FF7544337520
:2050800045D90251F59001BDE0B41023900146E0B4010EC27A7543FF7544337545E202514D
:2050A000F5C27A7543FF7544337545EA0251F59001BDE0B4110EC27A7543FF754433754596
:2050C000F30251F59001BDE0FFC3940350030251F2EFD3940A40030251F2EF64036005EFE4
:2050E0006404704DEF24FD12606D74E412533B125DA9C374E39FFF740695F0FE12362C8FD4
:2051000017125DABC374E29FFF740612530FC374E19FFF740612531F74E01252C474DF1224
:2051200052EF74DE1252DAC374DD9FFF74060251C99001BDE0FF64056005EF6406703590CD
:2051400001BDE024FB12606D74F712521874F61252B074F512522E74F412527C74F3125240
:205160004474F212529074F112525A74F09FFF74070251C99001BDE024F912606D74E7123E
:205180005303125DA974E61253038F17125DABC374E59FFF740712530FC374E49FFF740742
:2051A00012531F74E312532F8F1A125DAB74E212532F8F1B125DABC374E11253478F1C128E
:2051C0005DABC374E09FFF740795F0FE12362C8F1DE4F51EE516B4FF05E517F46005E518F8
:2051E000B4FF05125CF5800DC27A754300125C078003125CF51236EAE4FF12693D800EC29B
:205200007A125E381236EA125E361236EAE4FD7F19023EEA12CDBC22C39FFF740795F0FEA3
:2052200012362C8F16E53375F008A4FFC322C39FFF740795F0FE12362C8F18E53375F00849
:20524000A4FFC322C39FFF740795F0FE12362C8F1AE53375F008A4FFC322C39FFF740795CC
:20526000F0FE12362C8F1CE53375F008A4FFC322C39FFF740695F0FE12362C229FFF740707
:2052800095F0FE12362C8F19E53375F008A4FF229FFF740795F0FE12362C8F1BE53375F0EE
:2052A00008A4FF22C39FFF740695F0FE12362C229FFF740795F0FE12362C8F17E53375F0FA
:2052C00008A4FF22C39FFF740695F0FE12362C8F1AE53375F008A4FFC322C39FFF74069509
:2052E000F0FE12362C8F1CE53375F008A4FF229FFF740695F0FE12362C8F1BE53375F00819
:20530000A4FF22C39FFF740795F0FE12362C2295F0FE12362C8F18E53375F008A4FF229556
:20532000F0FE12362C8F19E53375F008A4FF22C39FFF740795F0FE12362C22C39FFF740649
:2053400095F0FE12362C229FFF740795F0FE12362C22E0FD7E0712368122E4FD7F02123E03
:20536000EA12C88EE4F536AF36123F660536E536C3940340F2301D1E90016CE0900013F073
:20538000900194E0FF7E007C007D3C122817900251EEF0A3EFF0E4F536125B8EBF030AD319
:2053A00012771974814016800D125B8EBF041412771874815007127952E4F08006127952A0
:2053C0007401F00536E536C3940440CD900013E0FDD3940650581278707C00EF2DFFEC3E5A
:2053E000125BA59000137009E02452FFE434038003127898FE12362C8F36900013E0FF9021
:20540000016CE02F12769FE09000D1127683125B81C00790016CE0FFA3E02F12769FE0FB58
:20542000E4FAF9F8D00712790B40780254A0127870900013E07C002FFFEC3EFE90016DE055
:20544000FDC374069DFDE49CFCC3EF9DFFEE9C125BA590016D700FE09000131276652452AF
:20546000FDE434038009127784245EFDE43401125B9A8F36900013E0127737E0FF9000D197
:20548000E0C39F127689125B81C006C00790016CE012769F1276A9D007D00612790B400383
:2054A000753A64900014E0FFD39406506E9000E9E07009EF24DDFFE43402800A900014E042
:2054C0002424FFE43401FE12362C900113E4F0A3EFF09000E9E09000147009E02452FFE451
:2054E00034038003127898FE12362C8F3B900014E090016A127846E09000D2127683125B8B
:20550000B6C00790016AE0A3127846E0FBE4FAF9F8D007127916407802558D1278E4700B19
:2055200012766124DDFDE4340280091276612424FDE43401125B9A900113E4F0A3EFF01287
:2055400078E4700B1276612452FDE434038009127661245EFDE4340112795CFE12362C8F0B
:205560003B900014E012769FE0FF9000D2E0C39F127689125BB6C006C00790016AE012789C
:20558000491276A9D007D0061279164003753C649001A7E07003025625D279E4F541F54247
:2055A000C3E5429405E54164809480501774852542F58274013541F583E064037021B279A6
:2055C000A279801574422542F58274013541F583E0B4110BB279A279E433243FF8A64205CF
:2055E00042E542700205416407454170B3747E253F1277B270171277AE7007853646AB3ACA
:205600008005853B46AB3CAD36AF3A80151277AE7007853646AB3A8005853B46AB3CAD3BC9
:20562000AF3C129B6FE4F536747E25361277B2FFB403119000D2E0FE9000D1E0D39E745847
:205640004014800BEFB40416127718745850071277D8E4F080151277D87401F0800D747EDB
:2056600025361277B2FF1277D6EFF01277D6E025E02411F582E43401F583E0FEA3E0FFADC9
:205680003612CD4B927D7B017A0079FAAD3612C5FB0536E536C39405408E204B099000FAFF
:2056A000A3E0F5208042E4F53D7485253DF582E43401F583E0B4012712775F74017E00A8D8
:2056C0003D088005C333CE33CED8F9FF9000FAE05EFEA3E05F4E24FF927AAD3D12CBEE058C
:2056E0003DE53DC3940340C1D279E4F53EE53EC39405501E7485253EF582E43401F583E05D
:205700006403702F127750B40104D27A8020C27A801C7442253EF582E43401F583E06411B7
:205720007011127750B40104D27A8002C27AAD3E12CBEE053EE53EC3940740B1E4F53612C0
:205740005BCABF03119000D2E0FF9000D1E0D39F74834016800D125BCABF04141277187460
:205760008350071278AEE4F080061278AE7401F00536E536C3940240C6E51124FA607C2457
:20578000066003025870786A743226F618E436F6081278654004E4F608F6786C74CE26F6B5
:2057A0001874FF36F6C3E664809480500576030876E87869E6FE08E6FF7C007D0412287EF6
:2057C0008F36AD367F0A7E001236817F0A7E0012362CEF65367003025A8FC27A7543FF7586
:2057E000443F7545101236EAD27A7543FF75443F7545181236EA123F2180DF90013AE0644B
:205800000170377872E624C0FF18E634FEFE7C007D051228177D0912287E1276F5FFEC3ECC
:20582000CF24C0CF34FEFE7D051228177D09122829786BA60608A60780117871E6FE08E66A
:20584000FF1276F5786CF6EC3E18F6786A127865400576030876E8D3786C12786640057663
:20586000030876E85320F8A247723D9200025A8F900013E0FFD3940650259000E9E07016FC
:20588000EF2439FFE43401FE12362C8F37E536C4540FF536804E900013E01278EE803C90EA
:2058A00000E9E07022E536C4540FF5361277812439FDE4340112795CFE900289F0A3EFF031
:2058C00012362C8F37801D127781242BFDE43401CDC39FF542ED9EF541AF42FE12362C8F69
:2058E0003753360F90016B127661FD2432FBE43401CBC39FF542EB9EF541EDD39406501BA5
:205900009000E9E09000147009E024E4FFE434028025E02432FFE43401801C1278E4700B98
:2059200012766124E4FDE4340280091276612432FDE4340112795CFE12362C8F387B007A6C
:20594000007937AF3612863C7D0512CD13501E7F03125BC37F00FEC006C0077F02125BC38F
:20596000FDD0E02D786AF6D0E0340018F67D0612CD1350227F017E0712362CEF7F00FEC0F7
:2059800006C0077E0712362CEFFDD0E02D786CF6D0E0340018F6204B03025A8F900183E05F
:2059A000FF2437F8E6FEC45403147003025A4C14600D14604E24036003025A52025A4374D9
:2059C000DA2FF582E4340012760DD39E400E900183E0FFEEFD127611C39D80159001831249
:2059E0007604C39E501B127963127614FFC374329FFFE49400FEEF25E0FFEE339002228013
:205A00001A80409001831277A412760DD39E4011127963127614FF900222E4F0A3EFF08001
:205A200031900183127604C39E5018127963127614FFC374649F900223F0E4940090022238
:205A4000F0800FE4900222F0A3F0800612796A7464F07D07127971500A90006BE0FF12792A
:205A60006AEFF0900222E0FEA3E0FFC39405EE648094805009E4900222F0A3F08011D3EFC0
:205A8000945FEE64809480400612796A7464F0E4F53D7FFF7E0612362C8F3DE4F53EAD3ED0
:205AA00012797150131B7A00793DAD3E12CD19927A7A007920025B3D127794FFB40103309C
:205AC0003D1EEFB4020A90002AE07002A3E06010127794B4031190002CE07002A3E07007D0
:205AE00012775FC27A8056127794FCB404179001A7E07011900068E064017046FB7A00794A
:205B000020D27A8038EC6405701E9001A7E07018FB7A007920AD3E12CD19E433FF900068DF
:205B2000E05F24FF927A8015127794B406149001A7E0B4020D30180A12775FC27AAD3E1229
:205B4000CBEE053EE53EC394055003025A9ED279E4F53E74A8253EF582E43401F583E06450
:205B600002701490010F12775EB40104D27A8002C27AAD3E12CBEE053EE53EC3940540D3CA
:205B800022754E64F54DF54CF54B12CD2F22E53624B5FFE433FE12362C22CDC39FFFED9E72
:205BA000FE12362C22FE12362C900111E4F0A3EFF09000E9E022754E64F54DF54CF54B1270
:205BC000CD2F227E0712362CEF22E53624B7FFE433FE12362C227516207517207518327572
:205BE00019309002EAE0FF75F00A842430F51AEF75F00A84E5F02430F51B751C20751D202D
:205C0000E4F51ED27AF543754400754516229002E4E475F0010228B4D27A9002E4E0FEA37D
:205C2000E022751A2EAF037C007D64AE0212287E7F0A7E00CFCDCFCECCCE22E53425E024F0
:205C4000DDF582E43400F583E0FEA3E022D39002E5E094019002E4E064809480229002E438
:205C600074FFF5F00228B474202DF582E43401F5832290028FE0FEA3E0FF7C007D0A122845
:205C80002990028FEEF0A3EFF07C007D0A12281790028FEEF0A3EFF090028FE0FCA3E0FD08
:205CA000EC90028AF0ED90028CF0E0FD22E0FF7E00EE9002E4F0A3EFF0227C037DE8AF0307
:205CC000AE0212287E8F187E007C037DE8122817C3EB9FFFEA9EFE7D647C00122829EF245D
:205CE00030229002E3E01425E0FF9002E7E01475F008A42F22C27A9001BDE075F009A42476
:205D000085F9740335F07543FFF54489452212287EEF2430F51A7D0A7C00AF03AE02229068
:205D2000028FE0FEA3E0FF7D091228177D05122829EF2440FFEE3401FE90028FF0A3EFF0B0
:205D40002274BD2DF582E43401F583E022900016E0FFEB25E025E024D6F582E43402F5833C
:205D600022FEE07C002400FFEC3EFE900052F0A3EFF074682AF582E43400F58322900290B7
:205D8000E024C0FF90028FE034FEFE7C007D051228177D0902282975F00A842430F51BEFA1
:205DA00075F00A84E5F02430228F16E53375F008A4FF229002E4E4F0A32290028DE0FEA307
:205DC000E0FF900289E075F0A2900B24122B14E5822FF582E5833EF583E4932275F00AA4FB
:205DE000FFE5F0F0A3EFF090014CE0FFC3940322A3E075F008A4FFC3748F9FFF740795F02E
:205E0000FEC3EF9DFFEE9400FE22E0FEA3E0FF7C007D0A122829ED24302290027DE0FAA3DF
:205E2000E0FBFFAE02022829FFED25E024DDF582E43400F58322D27A7543FF7544337545C1
:205E4000B5229002E4A3E09002E2F09002E17401F022E5F0F0AE48AF497C007D3C022829D9
:205E60009001D97411F0A304F09002E07421F09001DC7413F0227E007C00022817751620C9
:205E800075172022900280E02416F8A607E004F022244EFFE43401FE9002E4A3E0FD22C20B
:205EA0007A7543FF754434754543229002E8E0FF75F00A84243022EB25E025E024D5F5827E
:205EC000E43402F583227B017A007917C27D22D3EF9400EE648094802290028DE0FEA3E049
:205EE000FF227C007D64AF03AE02022829D39002E5E09F7480F89002E4E064809822C23DC7
:205F0000530DFEAD0D7F097E0022FF7C007D090228179002D1E538C31375F002022B14E41D
:205F20009002E4F0A3F0D27A7543FF754434754555229002E4A3E09002EBF0FD9002EAE088
:205F4000FF7E002290014DE0FF7E007C007D14022817EF25E025E024D3F582E43402F58320
:205F600022EF25E025E024D4F582E43402F583229000E9E0FD900167F07F9B7E002204F0F7
:205F8000D27A7543FF75443475455D2212287EEF243022900292F075F03CE0FF8424FF92EE
:205FA0007AEF22740E9001E5F0E4FD7F0722D27A7543FF7544337545D022D27A7543FF75D2
:205FC000443475453122D27A7543FF75443475453A22C27A7543FF75443475454C22E490BA
:205FE00000E9F0C24790027DF0A3F022C27A7543FF7544347545FE22900167E0900025F0D4
:20600000229002D2E0FFC3940722751C20751D20E4F51E229001D97411F0A304F09001DC3C
:2060200004F0D2747F192290028F7403F0A374E7F0227865E6FE08E6FFE4FD2224AEF582DA
:20604000E43401F583E022E0FEA3E0FF7C007D0A02287E90010EE0FE900124E02400FF224B
:20606000E0FAA3E0FB7C007D0AFFAE0222F53375F008A4FF22AE33AF340228299002DFF022
:206080009002E6229002E4A3E0FF9002EAF07E00A3E0FD22D39002E5E0940022E490028DFF
:2060A000F0A3F02274362CF8E6FE2212287EAC06AD07ED4C22D23D430D019000E97404F0AD
:2060C00022E0FF78749618E66480F8EE648098229001D6F09002E9E0640122E49002E4F054
:2060E000A3F022AF0109748A2FF582E43401F583E02290027FE024FFFFE434FFFEEF780369
:2061000022900286F0E0FFC313F0E4900285F0227401F0EA25E0241CF582E43401229000CD
:206120006AE0FFD394002290028DE0FAA3E0FB22D3900059E09458900058E094022275185F
:206140002075192022C26FC273C27622C26BC25CC25AC25BC259C25D22E51464809480229C
:206160007E009002E4EEF0A3EFF07D0322E0FD7C009002E4E0FAA3E0FB2234ECFE7B017ACC
:2061800002798A2290007EE06480948022751B20751C202212287EED243022E004F0E0C3BB
:2061A0009406227873E6FF08E6CFF0A3EFF0227874E6F018E6FF3395E0EF22D27A7543FF87
:2061C000754434754528229002E4F0A304F0229002EAE024D0FFE43407FE229002E4E0FCCF
:2061E000A3E0FD2274772CF582E43401F583E022900013E0FF640222900013E0FF640322C7
:20620000D27A7543FF7544347545F522C3E49FFFE49EFEF0A3EFF0227C037DE812287E7E4A
:20622000007F6422D27A7543FF75443575452222EA25E02491F582E43400229002E4A3E01C
:206240009002EDF0FB22C2A7C2A6C293C290C29122900282E09F900281E09E229001E57495
:206260000EF07D647F0722E515645E45142274362FF9740422FFD39404EE6480948022740E
:20628000572FF97405229002E4A3E0F51FE51F222404F974043E229002E6E024FE2290028A
:2062A000E4A3E09002ECF0229002E4A3E09002EEF0229002E4A3E09002EFF022D3EF940179
:2062C000EE64809480227D017F9B7E0022D394E8EE940322C39408EE940022C3EB9401EA58
:2062E0006480948122FF900295EEF0A3EFF022AB48AA49A94A0228CA74302518F518227C82
:2063000000AF82AE8302287EFFC374F49FFF74069E22FFC374179FFF74089E22E0FAA3E0ED
:20632000FB7C037DE8227F5C7E0012362C8F367F5B7E0012362C8F3712617D7F007EEC124D
:206340003DAD7F0112691190028AE0B45509A3E0B4AA04C2358002D2357F057E0012362C5E
:20636000BF010C7F047E0012362CEF64656004C2798002D279301920E4900289F090013A95
:20638000F0FD7F6EFE1236819001367401F0FD7F6A7E00123681800890013AE0900289F0C5
:2063A000900289E0D394014002E4F07F70126911900289E0FF90028BE06F60057455F080E5
:2063C00005E490028BF02027092019063079030265C190028DE4F0A3745FF0125ED9C3946B
:2063E00001EE940140030265C1307924EF646A4E70030265B8EF64944E70030265B8EF642A
:206400006E4E70030265B8EF64DA4E70030265B8EF647B4E6006EF647C4E701F90008BE0F8
:206420007019125ED9E412692DE0FEA3E024CCF58274003EF583E4F00265B830351A125D2B
:20644000BAFD123681125DBAFD74CC2FF58274003EF583EDF00265B890028EE02402FF90D5
:20646000028DE012617A123DAD90028BE06455600302659612612764774A7003026583EBA7
:20648000647D4A7003026583126127647E4A7003026583EB64587003EA6402704A7B017A37
:2064A00002798C7F597EEE123DAD90028AE0FE90028CE07C002400FFEC3E125D3990028911
:2064C000E0B4010D125D1F1262CD400D1260278008125D7DEEF0A3EFF0125C72900124F00C
:2064E0007F577E0202656090028DE07004A3E0649670327F971268AC125D39900289E0B45A
:20650000010D125D1F1262CD400D1260278008125D7DEEF0A3EFF0125C72900161F07F950E
:206520007E0002656090028DE07004A3E0649870347F991268AC125D39900289E0B4010DDD
:20654000125D1F1262CD400D1260278008125D7DEEF0A3EFF0125C72900163F07F977E005A
:20656000123681803112612764724A70028014EB64744A7002800C90028DE07004A3E0647C
:20658000C6701390028AE0FF900289E024FF927A12CC65A3EFF0125ED990028AE0FD12363E
:2065A0008190028AE0FF90028DE0FCA3E024CCF58274003CF583EFF090028D125C11026370
:2065C000DB30272512609C125ED91262D45008126877125C1180F0123F2112682E1268D227
:2065E00012C7DA123F2112C3ED30790620190302670B3035783019757F5D12691D7F5E1257
:2066000068F67F5712691D7F581269257DF47F5B7E001236817F5C1268F67DF47F597E0093
:206620001236817F5A12692512609C125ED91262D45034EF25E0FFEE33FEEF2447FFE43E68
:20664000FE7DF412368190028EE025E0FF90028DE033FEEF2448FFE43EFE7D01123681907D
:20666000028D125C1180C412682E0266B920354930194612609C125ED9C39418EE9400503A
:2066800025EF245BFFEE12617A123DAD90028EE02459FF90028DE03400FE90028AE012696D
:2066A0002D125C1180D012609C125ED91262D45008126877125C1180F07D017F097E001271
:2066C0003681123F211268D2123F2112C3ED12C7DAC219304335E4FD7FFD7E06123681E44D
:2066E000FDFFFE1236817F011269087F02FE123681E4FD7F03FE1236817DFE1269357F07B1
:206700001269087F08FE123681C243123F217A3479657FFC1268FE7A34796E7FF47E061214
:20672000CA1A7A3479777FEC1268FE7A3479807FE47E0612CA1A7BFF7A3479897FDC7E0667
:2067400012CA1A7A3479927FF71268A27A34799B7FEF7E0712CA1A7A3479A47FE71268C8DA
:206760007A3479AD7FDF7E0712CA1A7A3479B67FD71268A27A3479BF7FCF7E0712CA1A7FEF
:206780008F1268207A3479C87F877E0712CA1A7F7F1268207A3379BE7F777E0712CA1A7AF9
:2067A0003479D17F6F1268C87A3479DA7F677E0712CA1A7BFF7A3479E37F5F7E0712CA1AEC
:2067C0007BFF7A3379F37F577E0712CA1A7B017A01791B7F067EEF123DAD90011BE0FFF4DD
:2067E0006003EF70297F067E0012362C90011BEFF0E06003B4FF0B90011B74FEF0E0FD12AE
:20680000693590011BE0FF7D067CEF123D6CAD367F5C7E00123681AD377F5B7E00023681AC
:206820007BFF7A3379BE7E0712CA1A7BFF227D707F137E001236817D307F147E0012368196
:206840007D6D7F157E001236817D707F167E001236817D707F177E001236817D307F187E1E
:20686000001236817D6D7F197E001236817D707F1A7E0012368122EF2415FFEE34ECFE7BE9
:20688000017A02798A123DAD90028EE02413FF90028DE03400FE90028AE0FD1236819002C1
:2068A0008D227BFF7E0712CA1A7BFF227B017A02798C7EEC123DAD90028AE0FE90028CE03D
:2068C0007C002400FFEC3E227BFF7E0712CA1A7BFF227F6A7E0012362C90028AEFF0E0FF87
:2068E00012A3A9123F2112C9D7123F2112BE34123F2112B7EC227D017E00123681227BFFF6
:206900007E0612CA1A7BFF22E4FDFE123681E4FD227B017A02798B7EEC123DAD227DF47E43
