:020000040000FA
:20000000020200FFFFFFFFFFFFFFFF0247849001FA7406F07D03FF124A1690025EE004F06D
:2000200022FFFF023C5EFFFFFFFFFF023EC7C2589001AFE0FF64036004EFB4041790002A86
:20004000E07004A3E064017004D2588002C2589001AF80229001AEE0FF64036004EFB404B8
:2000600018900028E07004A3E064017004D2588002C2589001AEE08001E47887F6A2583097
:200080003A01B35008900068E004F0800C900068E0D394004003E014F0900068E0C3940A23
:2000A000405BE4F07887E6605024FC6022047049205846126C46123B72126C97E490010111
:2000C000F0126E31123B72C248E4126D6C802A305818C23D530EFE900180E0FF900024F0AB
:2000E000126D65900024EFF08003126E3A126C4B123B72126CA0123B72A258923A22FFFF01
:2001000054656D636F54535441543600000000B301000080D2477F19124AB2E5168515F0A9
:200120001236ED013B01710182017201D0017301DF017401EF0176000001F8202F13126B0D
:20014000A64006EFD394044023126E72126F7C801B9000E8E0FEA3E0FF9000FAE02FFF906C
:2001600000F9E03EC313F545EF13F5467883A64508A646900072E0FDAF46AE4512A0710255
:2001800001EA7BFF7A4179A37F81123BD190015EE0B4070C7FF57E07123B2C126B3E80586A
:2001A000126D80126F7C7883F608A646D3E54694E7E54564809483400EAE45AF467D0A12F1
:2001C000342112CB988007AF46AE4512C411801A9001C8126B3CE62402FF12CDB0800B909E
:2001E0000180126B3CE6FF12C49A12000E80099001DB126B3C12CC967407126DE1024A16F1
:2002000078FFE4F6D8FD758197123B0A02024A023720E493A3F8E493A34003F68001F2084D
:20022000DFF48029E493A3F85407240CC8C333C4540F4420C8834004F456800146F6DFE403
:20024000800B010204081020408090397EE47E019360BCA3FF543F30E509541FFEE493A3DD
:2002600060010ECF54C025E060A840B8E493A3FAE493A3F8E493A3C8C582C8CAC583CAF044
:20028000A3C8C582C8CAC583CADFE9DEE780BEC34F4646000000000000C3484541540000BA
:2002A000000000C3434F4F4C0000000000C3474153000000000000C34155544F00000000B4
:2002C00000434600960055003C002D00230019000F0005FFFBFFF1FFCE0000012C025803B0
:2002E0008404B005DC0708083409600A8C0BB800113333143C3C00113333143C3C000000D2
:2003000000000000004030100403010002020401030304C0D1CEBBA183674F3D2D9B192709
:200320003D5366717065554333261C150F0B0806171B2A3E566068675E504033281F171188
:200340000D0A081E05040505050606060707080808090A0A0B0B0D0D0F101112151A1E2311
:200360002324292B2E2F2F2B2824211D1B191715131311100F0F0E202020202020202000CE
:20038000202054454D50202000534554504F494E540020494E50555431200020494E5055D4
:2003A0005432200020494E50555433200020494E50555434200020494E505554352000206B
:2003C000494E50555436200020494E50555437200020494E505554382000204D4F444520C3
:2003E000202000205553455220202000434F32202070706D0048554D494449545900C34C31
:200400004F46000000000000C34C4F4E000000000000C3504F46000000000000C3504F4E43
:20042000000000000000C34A616E000000000000C3466562000000000000C34D617200002D
:2004400000000000C3417072000000000000C34D6179000000000000C34A756E00000000DC
:200460000000C34A756C000000000000C3417567000000000000C3536570000000000000C3
:20048000C34F6374000000000000C34E6F76000000000000C3446563000000000000C34D9E
:2004A0006F6E200000000000C3547565730000000000C3576564200000000000C3546875E4
:2004C000720000000000C3467269200000000000C3536174200000000000C353756E200082
:2004E00000000000C34F4646000000000000C32D312D000000000000C32D322D00000000C1
:200500000000C32D332D000000000000C34155544F0000000000C34F4E000000000000002F
:200520008343414C000000000000837453530000000000008346494C0000000000008341A9
:20054000493100000000000083414932000000000000834F727400000000000083644143BF
:20056000000000000000836241550000000000008364534300000000000083644348000011
:2005800000000000835050720000000000008350496E00000000000083534F5000000000C7
:2005A000000083484300000000000000834364620000000000008348646200000000000010
:2005C00083435F460000000000008346416E000000000000836E4864000000000000836EAA
:2005E0004364000000000000836E5370000000000000836E4853480000000000836E435345
:20060000000000000000836E43534800000000008341505000000000000083504F53000032
:200620000000000083504F6E00000000000083504164000000000000834155740000000025
:200640000000834F5531000000000000834F55320000000000008353484900000000000082
:2006600083534C4F000000000000834C4F430000000000008364495300000000000083564C
:200680007474000000000000824E4554574F524B00008344454D414E440000008300000017
:2006A0000000000000008200000000000000000083000000000000000000830000000000B2
:2006C000000000008300000000000000000082000000000000000000820000000000000093
:2006E000000081576F726B646179000081576F726B646179000081576F726B6461790000D4
:2007000081576F726B6461790000815765656B656E640000815765656B656E640000815717
:2007200065656B656E640000815765656B656E64000083644546000000000000834641434A
:20074000000000000000834164640000000000008353457400000000000083464153000021
:2007600000000000000000000000000000002054454D5F53502020434F325F5350202048E3
:20078000554D5F53502020202020202020200020202020202043200020202020202046204C
:2007A000002020202020202520002020202020205248002020202020414D500020202020DC
:2007C00020204B57002020202020204B4100202020202070706D00434F415354494E4700A6
:2007E000434F4F4C494E47000048454154494E47000046414E204F4646000046414E202DFC
:20080000312D000046414E202D322D000046414E202D332D000046414E204155544F000544
:200820000A0A0A0A040A1E04090A0A0A0A0A0A0A6464645B0A640A64036405050500140024
:20084000640005000500FF00FF0001001400C800FF00FF0007000501FF01FF000100030041
:20086000FF00FF00FF00FF00FF00FF000100FF00030008000200FF00FF00FF00FF00040071
:20088000060AFF000100020063000C0007001F0017003C003C003C003C003C003C003C00F6
:2008A0003C003C003C00FF00FF00FF00FF00FF00FF00FF00FF000400060006000600060070
:2008C00006000600FF00FF00FF00FF00FF00FF00FF00FF00FF001F001F001F001F001F007A
:2008E0001F001F000300030003000300030003000300030003000300030003000700070088
:20090000070007000700070007010A00FF05FF05FF000A000A00FF00FF00FF00FF00FF0093
:20092000FF00FF00FF000200FF00FF00FF000100FF000500010003000300030003000300A6
:200940000300FF0002000100010006000600060006000600060006000600FF00FF00FF0064
:20096000FF000F000F000200020001000300FF00FF00FF00FF00FF00FF00FF00FF00FF005B
:20098000FF00FF00FF001400640005000500FF00FF0001001400C800FF00FF0007000501F2
:2009A000FF01FF00010003005F006300FF00FF00FF00FF000100FF00030008000200FF006A
:2009C000FF00FF00FF000400060AFF000100020063000C0007001F0017003C003C003C00A4
:2009E0003C003C003C003C003C003C003C00FF00FF00FF00FF00FF00FF00FF00FF00040057
:200A0000060006000600060006000600FF00FF00FF00FF00FF00FF00FF00FF00FF001F009C
:200A20001F001F001F001F001F001F000300030003000300030003000300030003000300DE
:200A40000300030007000700070007000700070007010A00FF05FF05FF000A000A00FF003A
:200A6000FF00FF00FF00FF00FF00FF00FF000200FF00FF00FF000100FF0005000100030075
:200A800003000300030003000300FF00020001000100050005000500050005000500050021
:200AA0000500FF00FF00FF00FF000F000F000200020001000300FF00FF00FF00FF00FF0014
:200AC000FF00FF00FF00FF00FF00FF00FF0202000000640100003C3201000A0A00030A0A1A
:200AE00096002C0100140201000101320F00005A000000000000000000000000000000007F
:200B0000000000C800BE00D2000003030303030303E8030A00D007B80B0302010F17181382
:200B2000000000000000000000000000000000000000000A050A1E0000000000000100FE7F
:200B400000000000000000010000000000000014000000000000000000000001000064011A
:200B600000000001010303030303030303030300000202000000640100003C3201000A0A69
:200B800001030A0A8A02200300440201000101633700005A00000000000000000000000051
:200BA00000000000000000A8029602BA000003030303030303E8030A00D007B80B0302018F
:200BC0000F171813000000000000000000000000000000000000000A280A1E00000000006A
:200BE000000100FE00000000000000010000000000000044000000000000000000000001B0
:200C000000006401000000010103030303030303030303000000000000000000010109093B
:200C200001011102020A0A02021204040C0C0404140141CACC41D2D40041CACC41D2D400BA
:200C4000000000000000001131030700000000000000000000000000000000000000000048
:200C6000000000000000000000000000000000000009190307000000000000000000000048
:200C8000000000000000000000000000000000000000000000000000000000091905070026
:200CA000000000000000000000000000000000000000000000000000000000000000000034
:200CC00000000000000D1D01030000000000000000000000000000000000000000000000E6
:200CE00000000000000000000000000000000000000000000000C1814001C0804101C080AF
:200D00004100C1814001C0804100C1814000C1814001C0804101C0804100C1814000C181C2
:200D20004001C0804100C1814001C0804101C0804100C1814001C0804100C1814000C181A3
:200D40004001C0804100C1814001C0804101C0804100C1814000C1814001C0804101C08084
:200D60004100C1814001C0804100C1814000C1814001C0804101C0804100C1814000C18162
:200D80004001C0804100C1814001C0804101C0804100C1814000C1814001C0804101C08044
:200DA0004100C1814001C0804100C1814000C1814001C0804100C1814001C0804101C08023
:200DC0004100C1814001C0804100C1814000C1814001C0804101C0804100C1814000C18102
:200DE0004001C0804100C1814001C0804101C0804100C1814000C0C101C30302C2C606074A
:200E0000C705C5C404CC0C0DCD0FCFCE0E0ACACB0BC90908C8D81819D91BDBDA1A1EDEDF1A
:200E20001FDD1D1CDC14D4D515D71716D6D21213D311D1D010F03031F133F3F23236F6F7BA
:200E400037F53534F43CFCFD3DFF3F3EFEFA3A3BFB39F9F83828E8E929EB2B2AEAEE2E2FBA
:200E6000EF2DEDEC2CE42425E527E7E62622E2E323E12120E0A06061A163A3A26266A6A75A
:200E800067A56564A46CACAD6DAF6F6EAEAA6A6BAB69A9A86878B8B979BB7B7ABABE7E7F9A
:200EA000BF7DBDBC7CB47475B577B7B67672B2B373B17170B05090915193535292965657FA
:200EC00097559594549C5C5D9D5F9F9E5E5A9A9B5B99595898884849894B8B8A4A4E8E8F3A
:200EE0004F8D4D4C8C44848545874746868242438341818040026E02700272027402760273
:200F000078027A027C027E02800282028402860288028A028C028E02900292029420205546
:200F20007365722020204D65737361676543BF017F837E00123B2C9000EDEFF07F057E03E5
:200F4000123B2C9002611219F9BFFF0E7FF61219137D647FF57E02123B727F0D7E03123B94
:200F60002C900076EFF07F0E7E03123B2C90006BEFF07F0F7E03123B2C900293E4F0A3EFEC
:200F8000F07F107E03123B2C900278E4F0A31219F97E00C006C0077FF512194CFDD0E02D63
:200FA000F514D0E03400F5137FF37E02123B2C9000EFEFF0D3940140087401F07FF3121AC0
:200FC000037F347E03123B2C900072EFF0D39403400AE4F0FD7F347E03123B727515007509
:200FE000165E124A9AE4FD7F94FE123B727FD412194C7F00FEC006C0077FD3121981FDD037
:20100000E02DFED0E0340090025AF0A3CEF07F3E7E03123B2CEFF4600A7F3F7E03123B2CE8
:20102000BFFF057D061218DF7FB87E02123B2CBFFF04E41218E71219B57F9A7E00123B2C8A
:2010400090017FEFF07F997E00123B2C90017EEFF07F757E00123B2C90015AEFF07F747E7E
:2010600000123B2C900159EFF07F737E00123B2C900158EFF07F727E00123B2C900157EFBE
:20108000F07F717E00123B2C900156EFF07F707E00123B2C900155EFF07F5A7E02123B2C36
:2010A000900126EFF07F597E02123B2C90013CEFF0BFFF12900126E0B4FF0B90013C74C8EF
:2010C000F0E4900126F07F967E00123B2C90017BEFF07F957E00123B2C90017AEFF07F9892
:2010E0007E00123B2C90017DEFF07F977E00123B2C90017CEFF07F6C7E00123B2C9001514F
:20110000EFF07F6D7E00123B2C900152EFF07FF47E07123B2C900100EFF07F057E00123B1B
:201120002CBF010C7F0412195364B3700302122090014F7401F0E4900153F09001BFE0F5D6
:2011400031E4F0C2AFC2A9C2AA121932D2AAD2A9D2AFD226123B779001BF7401F0D226C242
:20116000AFC2A9C2AAE4121932D2AAD2A9D2AF123B77E49000EFF07F06FE123B2C8F317FDE
:201180003D1218D7E4FFFE123B2C8F317F391218D77F4112190B7F011219887F3A12190B26
:2011A0007F421219447F021219887F3B1219447F431219901218BB1218BB7F07121A0A128D
:2011C00018DF7F451219907F08121A0A7F3F7E03123B72AD317F467E03123B7212195AE492
:2011E0009001BFF07D017F05FE123B727DB37F047E00123B72D23F530E3F121998E4900117
:2012000025F01218E7E4F531E531244212196740F7E4F531E531244912196740F70212AA45
:201220007F6E7E00123B2C900153EFF0D394014002E4F0E4F52FF530124272123B2C1242C9
:2012400063EFF0121882E0D39F400E121882124270124263E0FD123B7212423AE0C39F501D
:2012600011124A5112423A124270124263E0FD123B72124272EF647B4E6006EF647C4E7036
:2012800016124A5190009FE0700D124272E4FD123B72124263E4F00530E5307002052FC35B
:2012A00094A4E52F64809480408EE4F5311242852458121925C006C0071242852457121961
:2012C000E3D0E02DFFD0E03400FE124297F583EEF0A3EFF01242971242F664809483500822
:2012E000C3EE64809480501012429712427C24571218F024581219EE0531E531C394044019
:20130000ACE4F5311242852448121925C006C00712428524471219E3D0E02DFFD0E03400E3
:20132000FE1242A3F583EEF0A3EFF01242A31242F694035006C3EE940050101242A31242C2
:201340007C24471218F024481219EE0531E531C3940840B090014FE0F512E5127002C2AAD0
:2013600090015DE014601514602A14602C2403702EE41219CF90012774018010900180E087
:2013800070061242DE123B72E4900127F0FD7FF57E0780081219C280061242DE123B72E494
:2013A000FD7F17124A16C21E900180E0900024F0900101F012191B7F0A7E00123B59E53128
:2013C00030E40312191BE53120E4279001AEE064026006A3E064027019900148E0D39400F2
:2013E0004010E4900101F01219CFC23D530E2E121998900101E0D394004005D23C1249570E
:20140000A23D925B124A2B7873A60608A607303D0B9001511242C790015280099001561253
:2014200042C7900155E09000331242CBE4F5311219A2E4C39F500B1219A2EFC3940350021B
:20144000D24C0531E531C3940540E4304C19D2CA90001E12367800000000E4FD7F04124A43
:201460001678857602D200204C07C2CA7F04124AB29001B1E070069001B0E0600C9001B316
:20148000E0700A9001B2E07004C24D8038E4900070F09001B3E0FE9001B2E07C002400FFDC
:2014A000EC3E900057F0A3EFF09001C0E064036014D24D900057E0FEA3E0FF9001B8E0FD11
:2014C0007B01123B7C7B017A0179337F067EEF124919900133E0FFF46003EF701712195AC9
:2014E0001219DBEF60061219DBBFFF0690013374FEF0801A7F3D7E03123B2C900133EFF0AE
:20150000E0FFF46003EF700690013374FEF0E49000EFF0900133E0FD7F3D7E03123B727F9B
:20152000D912198164016009C2567FD91219138002D2567FDC121A1464016009C22E7FDC4C
:201540001219798002D22E7FB9121A1424FF922BE4F531E53124F7FFE433FE123B2C1242F1
:20156000AFEFF01242AFE0B4FF131242AF7403F0E53124F7FFE433FE7D03123B720531E52B
:2015800031C3940840CD7F007E01123B2C90011CEFF07FFF7E00123B2C90011DEFF012197E
:2015A000B5D394195004E0B4FF0AE4900125F07FB8121A03E4900102F0753101900125E071
:2015C0002401FFE433FEC3E5319FEE6480F87480985021E53124B9FFE43402FE123B2C12FE
:2015E00042BBEFF01242BBE0B4FF051242BBE4F0053180C87F027E01123B2C90026DE4F0BB
:20160000A3EFF0E0F8E4F0E890026DF07401FFFE123B2C90026DE48FF012345790027BE0EE
:20162000C394035018900144E064026004E0B4050CE4900144F0FD7F5FFE123B723036031A
:20164000123B81303616900079E07010124A517F507EC3123B59124A51123B81123B6D300F
:20166000241BE4F531AF31123B867FC87E00123B59124A510531E531C3940A40E890007978
:20168000E0C394035004C2208002D220123B8BE4F53174682531F582E43402F583E4F07401
:2016A000302531F582E43400F583E4F00531E531B403DF7F30121901C006C0077F2F1219A6
:2016C00053FDD0E02DFFD0E03400FEC006C0077F1C121901C006C0077F1B1219AEFDD0E0FB
:2016E0002DFDD0E03400FCD007D0061242EA50089000FB7401F08005E49000FBF07F4612F2
:2017000019AE7F00FEC006C0077F45121A1BFDD0E02DFFD0E03400FEC006C0077F32121AC8
:201720001B7F00FEC006C0077F317E00123B2CEFFDD0E02DFDD0E03400FCD007D006124236
:20174000EA50089000FC7401F08005E49000FCF01219C2D3940140037401F0900163E0FFA1
:201760009001C6E0C39F400D900162E0FF9001C6E0D39F400E9001C674C8F0FD7FE17E005C
:20178000123B72900126E0FF90013CE0FD12430190020E742EF0E4FD7F1A124A16124A5129
:2017A000900126E0FE90013CE07C002400F530EC3EF52F7FF67E00123B2C9001DBEFF030ED
:2017C000512E123B90123B95123B9A123B9F123BA4123BA990005C74C8F0431707E4FD7F38
:2017E00003124A161224CA124A51123BAE124A51123BB3900101E07007530EFEC23D800553
:20180000430E01D23D530EFBAD0E7F097E00123B729002087426F0123BB8E47BFF7A7FF912
:20182000F8124894AE02AF03124889E4FD7F19124A167FEB7E07123B2CEFD39464400EE43E
:20184000FD7FEB7E07123B72E4900074F07FEB7E07123B2C900074EFF0123BBD7F537E025E
:20186000123B2CEFD3940240057F531219797FEF7E02123B2CBFFF09E4FD7FEF7E02123B92
:201880007222124A51E53025E0FFE52F33FE900153E0FD75F04890083E1236A9ED2583F5EA
:2018A00083E5822FF582E5833EF583E493FF74442530F5827401352FF583227F037E0012FB
:2018C0003B2C8F31AD317F3C7E03123B72AD317F447E03123B7222AD317E03123B72227F46
:2018E0003E7E03123B7222FD7FB87E02123B7222FFE435F0FE7DF4123B72E53175F002A45C
:20190000227E00123B2CEF7F00FE22AD317E03123B7222E4FD7E02123B72227F097E001286
:201920003B2C8F3122FFE435F0FE123B2CEF7F00FE22F59F7F761249C57FE87E03123B591A
:20194000124A5122AD317E03123B72227E02123B2CEF227E00123B2CEF227F3D7E03123BDC
:201960002C900133EFF022FFE43401FEE4FD123B720531E531C3940722E4FD7E02123B72D4
:20198000227E02123B2CEF227E00123B2C8F3122AD317E03123B7222AD0E7F097E00123BF4
:2019A0007222E53124B9FFE433FE123B2C227E00123B2CEF227FB87E02123B2C900125EF14
:2019C000F0227FF57E07123B2C900127EFF022900180F0FD7F9BFE123B72227F3D7E031284
:2019E0003B2C22FFE435F0FE123B2CEFFD22FFE435F0FE7D01123B7222EFF07FF67E021286
:201A00003B2C22FD7E02123B72227E00123B2C8F31AD31227E02123B2CEF227E00123B2C27
:201A2000EF2200000000000100010002000200030003000400040005000500060006000764
:201A400000070008000801810009026602B60177000A00F0000E00D7000F000B0010000C37
:201A60000011000D0012000A001302960014017D0065017E0066006A0067006E0068006F8F
:201A800000690078006A007A006B0094006C0009006D0065006E0063006F01820070006B9D
:201AA000007100CB007200CD007300D3007400D8007500E4007600EE007700820078017872
:201AC000007900E5007A00E6007B00E7007C00E8007D00E9007E00EA007F00EB008000ECDE
:201AE00000810189008201690083016A0084016B0085016C0086016D0087016E0088016F3D
:201B000000890170008A02B2008B02B4008C00D4008D0060008E00F7008F00F8009000F96A
:201B2000009100FA009200FB009300FC009400FD009500FE009600FF009701000098010113
:201B40000264005D0099005B009A0047009B0049009C004B009D004D009E004F009F00515B
:201B600000A0005300A1005500A2026E00A3027000A4027200A5027400A600C900A700CA42
:201B800000A802A000A902A100AA02A200AB02A300AC02A400AD02A500AE001B00AF001DD6
:201BA00000B0001F00B1002100B2002300B3002500B4002700B5002900B6002B00B7002D59
:201BC00000B8002F00B9003100BA003300BB003500BC003700BD003900BE003B00BF003D79
:201BE00000C0003F00C1004100C2004300C3004500C4026700C5026800C6026900C7026A17
:201C000000C8026B00C900B900CA00BA00CB00BB00CC00BC00CD00BD00CE007B00CF007C5D
:201C200000D0018000D1017900D2017A00D3006400D4014200D5014300D6014400D701451C
:201C400000D8014600D9014700DA014800DB024B00DC024C00DD024D00DE024E00DF024F45
:201C600000E0025000E1025100E2014900E3014A00E4014B00E5014C00E6014D00E7014ED8
:201C800000E8014F00E9024400EA024500EB024600EC024700ED024800EE024900EF024A99
:201CA00000F0006600F1006700F2008100F3018A00F400BE00F500BF00F600C000F700C1B1
:201CC00000F800C200F900C300FA00C400FB00C700FC00C800FD00D600FE018B00FF018C61
:201CE0000100018D0101018E0102018F010302AE010402B0010502530106025401070255AF
:201D000001080257010900DC010A00DD010B00DE010C00DF010D00E0010E02A6010F02A75F
:201D20000110009B011100B2011200B3011300B4011400B5011500B6011600B7011700B871
:201D40000118012601190127011A0128011B0129011C012A011D012B011E012C011F010375
:201D60000120010401210105012201060123010701240108012501090126010A0127010BFB
:201D80000128010C0129010D012A010E012B010F012C0110012D0111012E0112012F01135B
:201DA0000130011401310115013201160133011701340118013501190136011A0137011BBB
:201DC0000138011C0139011D013A011E013B011F013C0120013D0121013E0122013F01231B
:201DE00001400124014101250142012D0143012E0144012F01450130014601310147013251
:201E0000014801330149009E014A009F014B00A0014C00A1014D013B014E013C014F013DF5
:201E20000150013E0151013F0152014001530141015400E1015500E2015600F501570262E0
:201E4000015802590159006C015A006D015B0095015C0097015D0099015E0076015F0070BF
:201E60000160007101610072016200740163025B0164025D016500A9016600A70167000FCC
:201E800001680011016902A8016A02AA016B0077016C007D016D007E016E0262016F02623D
:201EA00001700262017102620172026201730262017400C5017500C601760262017702629B
:201EC0000178026201790262017A0262017B0262017C0262017D005F017E00A2017F017BAD
:201EE0000180006801810069018200A3018300A50184017C018500130186001501870017E9
:201F0000018800190189017F018A0079018B007F018C0080018D02AC018E0183018F018495
:201F200001900185019101860192018701930188019400D9019500CF019600D101970190D5
:201F4000019800DB01990298019A0299019B029A019C029B019D029C019E029D019F029E77
:201F600001A0029F01A1015001A2015101A3015201A4015301A5015401A6015501A7015650
:201F800001A8015701A9015801AA015901AB015A01AC015B01AD015C01AE015D01AF015E01
:201FA00001B0015F01B100ED01B2019101B3019301B4019501B5019701B6019901B7019BA6
:201FC00001B8019D01B9019F01BA01A101BB01A301BC01A501BD01A701BE01A901BF01ABF5
:201FE00001C001AD01C101AF01C201B101C301B301C401B501C501B701C601B901C701BB15
:2020000001C801BD01C901BF01CA01C101CB01C301CC01C501CD01C701CE01C901CF01CB34
:2020200001D001CD01D101CF01D201D101D301D301D401D501D501D701D601D901D701DB54
:2020400001D801DD01D901DF01DA01E101DB01E301DC01E501DD01E701DE01E901DF01EB74
:2020600001E001ED01E101EF01E201F101E301F301E401F501E501F701E601F901E701FB94
:2020800001E801FD01E901FF01EA020101EB020301EC020501ED020701EE020901EF020BAE
:2020A00001F0020D01F1020F01F2021101F3021301F4021501F5021701F6021901F7021BCC
:2020C00001F8021D01F9021F01FA022101FB022201FC022301FD022401FE022501FF0226FB
:2020E0000200022702010228020202290203022A0204022B0205022C0206022D0207022E50
:202100000208022F02090230020A0231020B0232020C0233020D0234020E0235020F0236AF
:202120000210023702110238021202390213023A0214023B0215023C0216023D0217023E0F
:202140000218023F02190240021A00F1021B00F2021C0083021D00EF021E00E3021F026C6A
:202160000220026D02210276022202780223027A0224027C0225027E022602800227028252
:202180000228028402290286022A0288022B028A022C028C022D028E022E0290022F02926B
:2021A00002300294023102B6023202B7023302B8023402B9023502BA023602BB023702BCC0
:2021C000023802BD023902BE023A02BF023B02C0023C02C1023D02C2023E02C3023F02C4FF
:2021E000024002C5024102C6024202C7024302C8024402C9024502CA024602CB024702CC5F
:20220000024802CD024902CE024A02CF024B02D0024C02D1024D02D2024E0160024F0161A6
:202220000250016202510163025201640253016502540166025500F3025800F4025902D537
:20224000025B02D6025C02D7025D02D8025E02F2025F02D9026002DA026102DC026202DD87
:20226000026302D3025A02DF026502E0026602E1026702E2026802E3026902E4026A02E513
:20228000026B02E6026C02E7026D02E8026E02E9026F02EA027002EB027102EC027202ED5E
:2022A000027302EE027402EF027502F0027602F1027701340278013502790136027A0137BA
:2022C000027B0138027C0139027D013A027E02F3027F02F5028102F6028202F8028302FA6F
:2022E000028402FC028502FE02860300028703020288030402890305028A0306028B03076A
:20230000028C0308028D0309028E030A028F030B0290030C0291030D0292030E0293030FBD
:20232000029403100295009C0296009D029703110298031202990313029A0314029B031517
:20234000029C0316029D0317029E0318029F031902A0031A02A1031B02A2031C02A3031D8D
:2023600002A4031E02A5031F02A6032002A7032102A8032202A9032302AA032402AB0325ED
:2023800002AC032602AD032702AE032802AF032902B0032A02B1032B02B2024102B3026601
:2023A00002B600D502B7032C02B8032D02B9032E02BA032F02BB033002BC033102BD03320E
:2023C00002BE033302BF033402C0033502C1033702C2034002C3034102C4034202C50343F0
:2023E00002C6034402C7034502C8034602C9034702CA034802CB034A02CC034C02CD034E27
:2024000002CE035002CF035202D0035402D1035602D2035802D3035A02D4035C02D5025F50
:2024200002D6026002D7026102D8035D02D9035E02DA035F02DB036002DC036102DD0362AC
:2024400002DE036302DF0171FFFF0172FFFF0173FFFF0174FFFF0175FFFF0176FFFF038C17
:2024600007D0038D07D1038E07D2038F07D3036407D4036607D5036807D6036A07D7036CBE
:2024800007D8036E07D9037007DA037207DB037407DC037607DD037807DE037A07DF037C68
:2024A00007E0037E07E1038007E2038207E3038407E4038607E5038807E6038A07E7039183
:2024C00007E8039007E9039207EA9002A17409F0E5177003022727E4F0E51730E004E4F0ED
:2024E0008010E5179002A130E1057401F080037402F0E47895F67895E6FFC3940650209083
:2025000002A1E075F006A42400F582E43400F583E5822FF582E43583F583E4F00680D7901C
:2025200002A1E014601414601E2402702A900185E090029FF09001868018900183E09002F2
:202540009FF0900184800B900233E090029FF0900265E09002A0F09002A0E0FF90029FE06B
:20256000FE2F7895F6EED3940050030225ECE408F690029FE0FF7896E6C39F506FA3E07076
:2025800026E6FBFDC3EF9DFFE49400FE7C007D641233BA7895E62401FDEC33FC1233CCC313
:2025A00074649FFFA380267896E6FBFF90029FE0C39FFFE49400FE7C007D641233BA78951D
:2025C000E6FD1233CCC374649FFF9002A1E075F006A42400F582E43400F583E5822BF58278
:2025E000E43583F583EFF078960680859002A0E0D394005003022677E47897F69002A0E069
:20260000FF7897E6C39F506F90029FE0FB7022E6FAFDC3EF9DFFE49400FE7C007D641233C4
:20262000BA7895E62401FDEC33FC1233CCEB2A80237897E6FBFF9002A0E0C39FFFE494000D
:20264000FE7C007D641233BA7895E6FD1233CC90029FE02BFE9002A1E075F006A42400F5AA
:2026600082E43400F583E5822EF582E43583F583EFF078970680859002A1E0FB25E025E017
:20268000247AF582E43400F5831236780000000090029FE0FFA3E0FE2F7895F6EF700F7430
:2026A000652BF582E43400F5837464F0805EEE70119002A1E02465F582E43400F583E4F0F7
:2026C000804A90029FE0FF9002A1E0FE75F006A42400F582E43400F583E5822FF582E435AF
:2026E00083F583E0FDEE75F006A42400F582E43400F583E02DFFE433C313EF13FF9002A1AD
:20270000E02465F582E43400F583EFF0E4F5179002A1E0FF70035317FEEFB401035317FD7F
:20272000EFB402035317FCE49002A1F09002A1E0FFC394034003022F0DEF1460711470033C
:202740000228782402600302291A90014DE0FF9002A3E4F0A3EFF090014EE0FF9002A5E4E8
:20276000F0A3EFF0900185E090029FF0900186E09002A0F0303D12900151E0FF900059E4AA
:20278000F0A3EFF09001528010900156E0FF900059E4F0A3EFF0900155E0FF900033E4F0F3
:2027A000A3EFF0900144E09002A2F002291A203D03304806900101E0700A90018FE0FE9021
:2027C000018E800890018DE0FE90018CE07C002400FFEC3EFE9002A1E025E02473F8A606CF
:2027E00008A607900189E0FE900188E07C002400FFEC3E9002A3F0A3EFF090018BE0FE9039
:20280000018AE02400FFEC3E9002A5F0A3EFF0900183E090029FF0900184E09002A0F0909B
:202820000187E09002A2F07F127E00123B2CEF7F00FEC006C0077F117E00123B2CEFFDD048
:20284000E02DFED0E03400900059F0A3CEF07F107E00123B2CEF7F00FEC006C0077F0F7EC4
:2028600000123B2CEFFDD0E02DFED0E03400900033F0A3CEF002291A203D0330480690016C
:2028800001E070137F387E03123B2CEF7F00FEC006C0077F3780117F367E03123B2CEF7FC6
:2028A00000FEC006C0077F357E03123B2CEFFDD0E02DFFD0E03400FE9002A1E025E0247386
:2028C000F8A60608A607900293E0FFA3E09002A3CFF0A3EFF0900278E0FFA3E09002A5CF30
:2028E000F0A3EFF0900233E090029FF0900265E09002A0F0900261E09002A2F07F0D7E03A3
:20290000123B2C900059E4F0A3EFF07F0E7E03123B2C900033E4F0A3EFF09002A2E024FE29
:20292000B40D0040030229C590293675F003A4C58325F0C5837302295D02295D02295D02F6
:20294000296502296E02297702298002298902299202299B0229A40229AD0229B67881E665
:20296000FE08E680589000BCE0FEA3E0804F9000BEE0FEA3E080469000C0E0FEA3E0803D34
:202980009000C2E0FEA3E080349000C4E0FEA3E0802B9000C6E0FEA3E080229000C8E0FEE1
:2029A000A3E080199000CAE0FEA3E0801090001BE0FEA3E0800790026BE0FEA3E0FF7887C1
:2029C000A60608A6079002A1E0F925E02473F8E6FE08E6FF90005AE02F7892F6900059E063
:2029E0003E18F6900033E0FCA3E0FDC3EF9D7894F6EE9C18F67887E6FE08E6FFD378929640
:202A000018E66480F8EE6480984003022B68C3EF78949618E66480F8EE6480985003022B82
:202A200068E925E025E0247AF582E43400F583E0FCA3E0FDA3E0FEA3E0FFE47B107A27F92E
:202A4000F8C31235EF500A788976FF0876EC022BA89002A1E025E025E0247AF582E434002C
:202A6000F583E0FCA3E0FDA3E0FEA3E0FFE4FBFAF9F8C31235EF50579002A1E0F925E024E0
:202A800073F8E6FE08E6FF24FFFDEE34FFFC7887E6FA08E6FBC39DEC6480F8EA6480985017
:202AA00003C3807DE925E02473F8E6FE08E6FF2401FDE43EFCD3EB9DEC6480F8EA6480983C
:202AC0004003022B4C788976FF0876FE022BA89002A1E025E025E0247AF582E43400F583B1
:202AE000E0FCA3E0FDA3E0FEA3E0FF7BF07AD879FF78FFC31235EF50669002A1E0F925E00B
:202B00002473F8E6FE08E6FF2401FDE43EFC7887E6FA08E6FBD39DEC6480F8EA648098406F
:202B20000BEB9F788AF6EA9E18F6807CE925E02473F8E6FE08E6FF24FFFDEE34FFFCC3EB3D
:202B40009DEC6480F8EA648098500BC3EF788896FFEE1896804C7889760008760280497868
:202B600089760008761480407887E6FE08E6FFD378929618E66480F8EE6480989002A1E06A
:202B8000401425E02474F8C3EF96FDEE18967889F608A605801225E02474F8C3E69FFF183B
:202BA000E69E7889F608A607D3788AE6943218E66480948040057600087632D39002A6E018
:202BC00094009002A5E0648094805003022D067887E6FE08E6FFD378929618E66480F8EEBF
:202BE0006480985013C3EF78949618E66480F8EE6480984003022C837887E6FE08E6D3784E
:202C0000929618E66480F8EE64809840619002A1E025E025E0247AF582E43400F583C083A2
:202C2000C082E0FCA3E0FDA3E0FEA3E0FFC004C005C006C0079002A5E0FCA3E0FD7889E663
:202C4000FE08E6FF1233BA7C007D06123421AB07AA06EA3395E0F9F8D007D006D005D004E9
:202C6000C3EF9BFFEE9AFEED99FDEC9880637887E6FE08E6C378949618E66480F8EE6480B6
:202C80009850569002A1E025E025E0247AF582E43400F583C083C082E0F8A3E0F9A3E0FADE
:202CA000A3E0FBC0009002A5E0FCA3E0FD7889E6FE08E6FF1233BA7C007D06123421EE33EB
:202CC00095E0FDFCD000EB2FFFEA3EFEE93DFDE83CFCD082D0831236539002A1E025E025B7
:202CE000E0247AF582E43400F583E0FCA3E0FDA3E0FEA3E0FFE47BE87A03F9F812489478D5
:202D00008D1236478009788D12365F000000007891E6FE08E6FF7887E6FC08E6FDD39FEE5C
:202D20006480F8EC6480985013C3ED78949618E66480F8EC6480984003022EA7D39002A435
:202D4000E094009002A3E0648094804079D3ED9FEE6480F8EC6480984031ED789296FFECBF
:202D60001896FE7C007D641233BAE0FCA3E0FD1234219002A1E02465F582E43400F583E005
:202D8000C39F788CF6E49E18F6804F7893E6FE08E6C3788896FFEE1896FE7C007D64123307
:202DA000BA9002A3E0FCA3E0FD1234219002A1E02465F582E43400F583E07C002F788CF639
:202DC000EC3E18F680149002A1E02465F582E43400F583E0788B760008F6D3788CE6946478
:202DE00018E66480948040057600087664C3788BE6648094805004E4F608F6788BE6FE0881
:202E0000E6FFEE3395E0FDFC0812362EEF2BFFEE3AFEED39FDEC38FCE47B64FAF9F8C312BB
:202E200035EF5014C37464788C96FFE41896FE3395E0FDFC788D8034788BE6FE08E6FFEE2A
:202E40003395E0FDFC0812362EEF2BFFEE3AFEED39FDEC38FC33503A788BE6FE08E6FFC37D
:202E6000E49FFFE49EFE3395E0FDFC08123647E47FE87E03FDFC788D12362E1234C490023C
:202E8000A1E025E025E0247AF582E43400F583123653788D123616EF788C26FFEE18367838
:202EA00087F608A60780229002A1E02465F582E43400F583E07887760008F6788D123616E5
:202EC0007888EF26F618EE36F67887E6FE08E6FFC3EE648094805007E418F608F68012D390
:202EE000EF9464EE648094804007788776000876647888E6FF9002A1E024E5F582E43400D7
:202F0000F583EFF09002A1E004F002272C22C06E123AF089828A83BB80005003E08002E486
:202F200093D082C582C082123AF8D0E022C06EC0E0123AF0D0E089828A83BB80005001F0BF
:202F400080DFC06E123AF089828A83BB80005007E0F5F0A3E080CAE493F5F074019380C1C7
:202F6000C06EC0E0123AF0D0E089828A83BB80005005F0A3E5F0F08023C06E123AF089827F
:202F80008A83BB8000500AE0FBA3E0FAA3E0F9800BE493FB740193FA740293F9D0E0903B3F
:202FA0000073C06EC0E0123AF0D0E089828A83BB8000500AC5F0F0A3C5F0F0A3E8F080DC73
:202FC000C06E123AF089828A83BB8000500DE0FCA3E0FDA3E0FEA3E0FF80C1E493FC74014F
:202FE00093FD740293FE740393FF80B0C06E123AF089828A83BB8000500BECF0A3EDF0A3EA
:20300000EEF0A3EFF08095EC4D6011E8497017ED33EC3304600DE4FCFFFEFD22E933E833F6
:203020000470F802325712322258046009E4CC2481500628500902326128400302325EC0F0
:20304000E0EB4A7044B98006D0E0FB02324DEF4E701CBD8008EBFFEAFEE9FD80EBE98DF0A5
:20306000A4FEE5F00230F0E9CDF9EAFEEBFFEF89F0A4FCE5F0CE89F0A42EFFE435F0CD89E2
:20308000F0A42DFEE435F08067EF4E7005BD80D780C3EF8BF0A4ACF0EE8BF0A42CFCE43580
:2030A000F0F8EF8AF0A42CE5F038FCE433CB8DF0A42CFCE5F03BF8EE8AF0A42CFCE5F03872
:2030C000F8E433CF89F0A42CFCE5F038CF3400CE89F0A42FFFE5F03EFEE433C98DF0A42E64
:2030E000FEE5F039CD8AF0A42FFFE5F03EFEE43DFD33D0E0FB50070BBB000F023261EC2CC5
:20310000FCEF33FFEE33FEED33FD023239023261EC5D046005E859047003023257123222F9
:20312000580460F6EC4860F2EC7004FDFEFF22C860DB2481C85009C3986002500602325E6D
:203140009850CAF582E9294B4A7005AB8202324D75F0007C1A7880C3EF9BEE9AED99400DE1
:20316000C3EF9BFFEE9AFEED99FDE842F0DC23ACF0D0E0FFD0E0FED0E0FDAB8220E7101BDC
:20318000EB60BAEC2CFCEF33FFEE33FEED33FD023239E803F830E705C0F075F000EF2FFF1B
:2031A000EE33FEED33FD40B830E7C280AA75F020800E75F010800575F0087D007E007F00E4
:2031C0003392D530D5031235E1EC334010EF33FFEE33FEED33FDEC33FCD5F0ED22E5F02471
:2031E0007EA2D513CC92E7CDCEFF22EDD2E7CD33EC3392D524814006E4FFFEFDFC22FCE4D3
:20320000CFCECDCC24E0501174FF80EDC3CC13CCCD13CDCE13CECF13CF0470F030D5DE026F
:2032200035E1E9D2E7C933E833F892D5EDD2E7CD33EC33FC5002B2D522EC30E7100FBF00C3
:203240000C0EBE00080DBD00040BEB6014A2D5EB13FCED92E7FD2274FFFCFDFEFF22E48071
:20326000F8A2D574FF13FC7D80E480EFE709F608DFFA8046E709F208DFFA803E88828C83E6
:20328000E709F0A3DFFA8032E309F608DFFA8078E309F208DFFA807088828C83E309F0A31E
:2032A000DFFA806489828A83E0A3F608DFFA805889828A83E0A3F208DFFA804C80D280FA01
:2032C00080C680D4806980F28033801080A680EA809A80A880DA80E280CA803389828A8313
:2032E000ECFAE493A3C8C582C8CCC583CCF0A3C8C582C8CCC583CCDFE9DEE7800D89828A1E
:2033000083E493A3F608DFF9ECFAA9F0EDFB2289828A83ECFAE0A3C8C582C8CCC583CCF089
:20332000A3C8C582C8CCC583CCDFEADEE880DB89828A83E493A3F208DFF980CC88F0EF6032
:20334000010E4E60C388F0ED2402B4040050B9F582EB2402B4040050AF2323458223903270
:20336000BC73BB010689828A83E0225002E722BBFE02E32289828A83E49322BB010CE58247
:2033800029F582E5833AF583E0225006E92582F8E622BBFE06E92582F8E222E58229F58239
:2033A000E5833AF583E49322BB010689828A83F0225002F722BBFE01F322EF8DF0A4A8F08C
:2033C000CF8CF0A428CE8DF0A42EFE22BC000BBE0029EF8DF084FFADF022E4CCF875F00828
:2033E000EF2FFFEE33FEEC33FCEE9DEC984005FCEE9DFE0FD5F0E9E4CEFD22EDF8F5F0EE57
:203400008420D21CFEADF075F008EF2FFFED33FD4007985006D5F0F222C398FD0FD5F0EAB4
:2034200022C2D5EC30E709B2D5E4C39DFDE49CFCEE30E715B2D5E4C39FFFE49EFE1233CC0C
:20344000C3E49DFDE49CFC80031233CC30D507C3E49FFFE49EFE22C5F0F8A3E028F0C5F02B
:20346000F8E582158270021583E038F022BB010A89828A83E0F5F0A3E022500687F009E71D
:203480001922BBFE07E3F5F009E3192289828A83E493F5F074019322BB010A89828A83F0D6
:2034A000E5F0A3F0225006F709A7F01922BBFE06F3E5F009F31922EF2BFFEE3AFEED39FD3A
:2034C000EC38FC22E88FF0A4CC8BF0A42CFCE98EF0A42CFC8AF0EDA42CFCEA8EF0A4CDA8A5
:2034E000F08BF0A42DCC3825F0FDE98FF0A42CCD35F0FCEB8EF0A4FEA9F0EB8FF0A4CFC50E
:20350000F02ECD39FEE43CFCEAA42DCE35F0FDE43CFC2275F008758200EF2FFFEE33FECD17
:2035200033CDCC33CCC58233C5829BED9AEC99E58298400CF582EE9BFEED9AFDEC99FC0FFB
:20354000D5F0D6E4CEFBE4CDFAE4CCF9A88222B800C1B90059BA002DEC8BF084CFCECDFCC0
:20356000E5F0CBF97818EF2FFFEE33FEED33FDEC33FCEB33FB10D703994004EB99FB0FD868
:20358000E5E4F9FA227818EF2FFFEE33FEED33FDEC33FCC933C910D7059BE99A4007EC9BAC
:2035A000FCE99AF90FD8E0E4C9FAE4CCFB2275F010EF2FFFEE33FEED33FDCC33CCC833C8FC
:2035C00010D7079BEC9AE899400AED9BFDEC9AFCE899F80FD5F0DAE4CDFBE4CCFAE4C8F9E8
:2035E00022C3E49FFFE49EFEE49DFDE49CFC22EB9FF5F0EA9E42F0E99D42F0EC6480C864EB
:20360000809845F022EB9FF5F0EA9E42F0E99D42F0E89C45F022E6FC08E6FD08E6FE08E6D8
:20362000FF22E0FCA3E0FDA3E0FEA3E0FF22E6FB08E6F908E6FA08E6CBF822E0F8A3E0F911
:20364000A3E0FAA3E0FB22ECF608EDF608EEF608EFF622ECF0A3EDF0A3EEF0A3EFF022D034
:2036600083D082E493F608740193F608740293F608740393F6740473A8828583F0D083D0C3
:203680008212368F12368F12368F12368FE473E493A3C583C5F0C583C8C582C8F0A3C583E4
:2036A000C5F0C583C8C582C822A42582F582E5F03583F58322E0FBA3E0FAA3E0F922EBF05A
:2036C000A3EAF0A3E9F022D083D082F8E4937012740193700DA3A393F8740193F582888359
:2036E000E4737402936860EFA3A3A380DFD083D082F8E4937012740193700DA3A393F8740B
:203700000193F5828883E473740293B5F0067403936860E9A3A3A3A380D88A838982E4737A
:20372000E4FBF52DF52E9000EFF0EBFF3395E0FEEF7802C333CE33CED8F9247AF5827400DE
:203740003EF583123678000000000BBB03DCD20F124A51C2609000797463F0E4900128F041
:203760009000EEF075D802F52DAF2DEF3395E0FEEF25E0FFEE33FE74BC2FF58274003EF56A
:2037800083E4F0A3F0052DE52DB408DDE4900086F090025EF090005C74C8F090004E740529
:2037A000F01240A39000247404F0123B22120F2D123B27C2487FD87E00123B2C7E007C0085
:2037C0007D3C1233BA900022EEF0A3EFF07FD87E00123B2CBF6302C23F90020B7429F090F2
:2037E00002097427F090020E742EF090020C742CF0A304F090020A7428F0E4900012F0A3FB
:20380000F0A3F0900016F0A3F0D233D23B90005DF0A3F0900143F0900235F0A3F0C222F593
:203820000CC296C297900073F0900094F0123B31123B36124A5130422DC2429000F7E0D339
:203840009400400AE014F0E0700490008BF09000FFE0D394004003E014F03029099000FF59
:20386000E07003123B3BE50CD3942750030239523060069002DEE004F09002DEE0D3941E5F
:203880004004C260E4F0E4F50CD257900128E0D394004005E014F08002C254303D0B900116
:2038A000D8E0700E123B4080099001D9E07003123B459001D8E0B40207A3E0B40202803676
:2038C0009001D8E0B4010AA3E0B40105123B4A802D9001D8E0B4020E203D06A3E07002807A
:2038E00015123B4080189001D9E0B40211303D0B9001D8E07005123B4F8003123B45E49022
:203900000234F0900234E0FFC36480949E5043EF3395E0FE74152FF58274023EF583E06040
:2039200029900234E0FD3395E0FC1242D214F01242D2701674F42FF58274013EF583E0F533
:203940002DF52EAF2E7E00123B54900234E004F080B19000A0E0700302382D14F0E024124C
:20396000F582E43402F583E0F50D24E8F582E43401F583E0F52EFF7E00123B5480D4410092
:203980009F00C11CC152C12EC11AC14942001B03E7C15441027A014202630000C1B8C1C603
:2039A000C126C145C119C1444100A000C131C11DC1B5C13EC129C14AC156C1A442026B00F5
:2039C00000C1390117004100EF00C15741024D00410125004100F801410133FE42025C0049
:2039E00000C13443011E010101C11FC14CC13C41001A00410142000120FF0122FFC11B4244
:203A000002910000C13741027600410290004200FD000002130000C13FC12141008B00018C
:203A200021FFC153420061000041007200C11EC12CC147C1AB410100FF42004200004100B6
:203A4000BA084100BB08C118C140C14D4200700000028100C842006E000041004501067905
:203A6000000000000000C12F4200F900004200E800004C007A00000000000000000000002B
:203A800000430065323232C1304102E3004202E100004102DD004C02D1000000000000006D
:203AA00000000000004102E4004202DF0000C1604102DE00026C02AA4102CE004102CB0041
:203AC0004202CC03E84202C901F44202BF01904202C700C84102C5324202C3015E4202C1DD
:203AE00000B44202BD00004202CF00DC00EF8004EB14543F903AFC93903B00730A1BFFFF63
:203B0000C06E743BC0E0C082C083756E0A53BFF722C06E743BC0E0C082C083756E1B43BF89
:203B2000082290BBD3610090C03B6100907B746111907539611190002E610090019B611192
:203B4000907F4D6111907F576111907F6B6111907F616111905512610090D1336100907E96
:203B60003C6111907BC9611190AFB6610090B7796100907E8B6111907958610090BED0618E
:203B80000090C9BF610090B876610090849A6100900003611190CF006100907EB6611190F3
:203BA0007E58611190780F611190CD6E6100905EE46100907EC6611190C8EA6100907A2AB8
:203BC000611190C59C6100907EF16111907F7F6111907DBF6111907DDF61119076B96111E3
:203BE000907F216111907F2C6111907D786111907ED56111907D526111907E1F6111907EAC
:203C0000726111907C486111907EFE611190D095610090D0C7610090B568610090C80761D0
:203C200000909E89610090D0F7610090C49A610090000E610090AAB661009087D36100903A
:203C4000BD53610090989A610090C790610090C61B610090CF55610090CB3F610000C0E006
:203C6000C0F0C083C082C0D075D000C000C001C002C003C004C005C006C007209803023D24
:203C80007FD239D22CC29890008BE0C394145013E0FF04F0747C2FF582E43402F583E59900
:203CA000F08003123BC790008BE0FFB401079000EA7408802DEF6404702F90027EE0FEA39D
:203CC000E07C002400FFEC3EFEEF640A4E6003023D8690027DE064066003023D869000EA6F
:203CE000740CF09000A2E0802190008BE0FDB4071F90027DE064106003023D86900282E050
:203D0000FE24099000EAF0EE24089000F7F08076EDB4061B90027DE0B41914900027E090CE
:203D200000FFF090008BE09000EAF0D22980579000EAE0FF90008BE06F704B90027DE0FFF1
:203D40006403600AEF64066005EF641070389000F7E4F0900133E0FF90027CE0FE6F60040C
:203D6000EEB4FF0E900027E09000FFF0D21ED2298014C2299002777401F0123BC7800730DB
:203D80009904C299D225D007D006D005D004D003D002D001D000D0D0D082D083D0F0D0E0E3
:203DA000328F448D45EFFE7C00E42DFFEC3E90029FF0A3EFF07F7E7E00123B2CEF75F00A94
:203DC000A4FFC39002A0E09FE5F06480F890029FE064809850047F7E80237F7D7E00123BD3
:203DE0002CEF75F00AA4FFD39002A0E09FE5F06480F890029FE064809840187F7D7E0012F0
:203E00003B2C7E007C007D0A1233BA90029FEEF0A3EFF090029FE0FCA3E0FDECFF3395E00A
:203E2000EFA3F0EDA3F07F997E00123B729002A1E0FD7F9A7E00123B727F717E00123B2CDE
:203E4000AD077C00E544FE7A00E42545FFEA3ECF2DCF3C90029FF0A3EFF090029FE0FCA3C2
:203E6000E0FDECFF3395E0EFA3F0EDA3F07F747E00123B729002A1E0FD7F757E00123B725F
:203E80007F707E00123B2CAD07E544FE7A00E42545FFEA3ECFC39DCF940090029FF0A3EF2D
:203EA000F090029FE0FCA3E0FDECFF3395E0EFA3F0EDA3F07F727E00123B729002A1E0FDB2
:203EC0007F737E00023B72C0E0C0F0C083C082C0D075D000C000C001C002C003C004C0058A
:203EE000C006C007C2CF124A5190001E123622EF2401FFE43EFEE43DFDE43CFC90001E12B2
:203F0000365330332F124A71E4FD90001E12363BD3123605401E7D01E4FF123BC27D017FBC
:203F200001123BC290001E12367800000000C233788576007885E664017065D37880E69439
:203F40000018E664809480402E08E6161870011690024BE475F001123457124A71D3900264
:203F60004CE09FEE6480F890024BE06480984030EEF0A3EFF08029C3787FE6648094805012
:203F80001F0806E618700106D390024CE0940090024BE064809480400774FFF5F012345769
:203FA000D007D006D005D004D003D002D001D000D0D0D082D083D0F0D0E032EF14B40800BF
:203FC000400302409E903FD375F003A4C58325F0C58373023FEB02400402401D02403602AD
:203FE000404F02406802408E0240927F5A7E02123B2C7554008F55E555755500F5547F5940
:204000007E02807B7F967E00123B2C7554008F55E555755500F5547F957E0080627F987E16
:2040200000123B2C7554008F55E555755500F5547F977E0080497F9A7E00123B2C755400D7
:204040008F55E555755500F5547F997E0080307F757E00123B2C7554008F55E5557555004D
:20406000F5547F747E0080177F737E00123B2C7554008F55E555755500F5547F727E00128B
:204080003B2CEF2555F555E43554F55480107F7E80027F7F7E00123B2C7554008F55AE549D
:2040A000AF552243BF01D290D2A47F107E27123B59124A51123B5E123B63124A5190013DA2
:2040C0007401F0E4900069F0A3F09000EBF090004FF0900015F0900124F09000E4F09001B2
:2040E00032F043BF02D2DB75985075892175CDDCF5CC75CBDCF5CAC2CDC2CCC2CBC2C9C2C0
:20410000C8C2CAD2AD758DFD758BFDF58A758C80D28ED28CD2A9D2ACD2AFD2B9D2BC123B32
:2041200068124A5190027BE0D3940350037521FFE49001BFF07F65FE123B2CEF600B758756
:20414000809000A27403F08009E4F5879000A27406F0123B6D7F827E00123B2CBF0108D275
:204160004AD292430E8022C292C24A530E7F222020416464202020005741524E494E47007D
:2041800045325F6572726F720041555800504952002053595354454D200046616E537065E4
:2041A000656400536574706F696E740044454D414E44004E4F0059455300554E4954530016
:2041C0002D462D002D432D004B455950414400324100344100364100364200344200324223
:2041E00000324300364300344300464143204445460053415645204445460043414C20444F
:2042000041430042415544524154450020202000202020200020204D4F4445004155544F54
:204220000020434F4F4C494E47002048454154494E470000000000000000E53025E0FFE535
:204240002F33FE900153E0FD75F04890083D1236A9ED2583F583E5822FF582E5833EF58392
:20426000E493FF74442530F5827401352FF58322EFF0E530245FFFE4352FFE22F583740106
:20428000F0A374F4F0E53175F002A42274152FF582E43402F58322E53125E02452F582E421
:2042A000340222E53125E024AAF582E434002274142531F582E43401F5832274022531F543
:2042C00082E43401F58322E0900059FFE4F0A3EFF02274152DF58274023CF583E02290017F
:2042E000807404F0FD7F9B7E0022C3ED9FEE6480F8EC64809822F583E0FEA3E0D394E8EE66
:20430000228F448D45EFFE7C00E42DFFEC3E90029FF0A3EFF090029FE0FCA3E0FDECFF33E5
:2043200095E0EFA3F0EDA3F07F597E02123B729002A1E0FD7F5A7E02123B727F6C7E00124C
:204340003B2CEFFDE544FE7A00E42545FFEA3ECF2DCF340090029FF0A3EFF090029FE0FC45
:20436000A3E0FDECFF3395E0EFA3F0EDA3F07F957E00123B729002A1E0FD7F967E00123BE7
:20438000727F6D7E00123B2CEFFDE544FE7A00E42545FFEA3ECFC39DCF940090029FF0A370
:2043A000EFF090029FE0FCA3E0FDECFF3395E0EFA3F0EDA3F07F977E00123B729002A1E096
:2043C000FD7F987E00023B72E0FCA3E0FDAB07ECFF3395E08F48EDF549EB14B408004003FB
:2043E0000244809043F175F003A4C58325F0C5837302440902441A02442B02443C02444DDA
:2044000002445E02446F024477AD487F5A7E02123B72AD497F597E028063AD487F967E00C0
:20442000123B72AD497F957E008052AD487F987E00123B72AD497F977E008041AD487F9AC1
:204440007E00123B72AD497F997E008030AD487F757E00123B72AD497F747E00801FAD48C2
:204460007F737E00123B72AD497F727E00800EAD497F7D7E008006AD497F7E7E00123B72F4
:20448000228D44EE6003024536EF24FE6030146056146076240360030245367F01123FBB73
:2044A00090029FEEF0A3EFF0E02544F090029FE03400F07F021243C8AD447F6C80737F0110
:2044C000123FBB90029FEEF0A3EFF0C39544FFEE9400FE90029FF0FCA3EFF0FD7F031243B1
:2044E000CDAD447F6D804A7F04123FBB90029FEEF0A3EFF0E02544F090029FE03400F07F3B
:20450000051243C8AD447F7180277F04123FBB90029FEEF0A3EFF0C39544FFEE9400FE9026
:20452000029FF0FCA3EFF0FD7F061243CDAD447F707E00123B72228F448D457F04123FBB55
:2045400090029FEEF0FCA3EFF0FDE544FE7A00E42545FFEA3EFEA3F0A3EFF0D39DEC648068
:20456000F8EE648098504C90029FE0FEA3E0FF9002A3EEF0FCA3EFF0FDE544FEC3ED9400B3
:20458000FFEC9EFEC3EF9545FFEE9400FE9002A3F0A3EFF08E46F547AD457F727E00123B24
:2045A00072AD447F737E00123B72AD477F707E00123B7222D390006AE0948F900069E094EA
:2045C00001402FE4F0A3F0900015E004F0E0D394144009304006C240E024FEF0D390029286
:2045E000E09400900291E09400400774FFF5F0123457900015E0D3943B400FE4F090004F4B
:20460000E004F0E054077002D24090004FE0D3943B4008E4F09000EBE004F09000EBE0D30D
:2046200094174006E4F0D221D21B228F448D457F04123FBB90029FEEF0FCA3EFF0FDE544CC
:20464000FE7A00E42545FFEA3EFEA3F0A3EFF0C39DEC6480F8EE64809840467F04123FBBB3
:204660009002A3EEF0FCA3EFF0FDE544FE7A00E42545FFEA3ECFC39DCF9CFE9002A3F0A336
:20468000EFF08E46F547AD457F747E00123B72AD447F757E00123B72AD477F717E00123B38
:2046A00072228F448D457F01123FBB90029FEEF0FCA3EFF0FDE544FE7A00E42545FFEA3E95
:2046C000FEA3F0A3EFF0C39DEC6480F8EE64809840437F01123FBB9002A3EEF0FCA3EFF095
:2046E000FDE544FE7A00E42545FFEA3ECFC39DCF9C9002A3F0A3EFF0F546AD457F957E00A7
:20470000123B72AD447F967E00123B72AD467F6C7E00123B72228F448D457F01123FBB9099
:20472000029FEEF0FCA3EFF0FDE544FE7A00E42545FFEA3EFEA3F0A3EFF0D39DEC6480F81E
:20474000EE648098503DE544FEC39002A0E09400FF90029FE09EFEC3EF9545FFEE94009089
:2047600002A3F0A3EFF0F546AD457F977E00123B72AD447F987E00123B72AD467F6D7E0000
:20478000123B7222C0E0C0F0C083C082C0D075D000C000C001C002C003C004C005C006C079
:2047A00007050C758A04758CF7900069E475F001123457D242900165E0B4061220340F20CD
:2047C000540C90009574FFF0A3F0A3F0A3F01245B4D007D006D005D004D003D002D001D091
:2047E00000D0D0D082D083D0F0D0E0328E458F467F6C7E00123B2C8F47AD46AC457F0112FC
:2048000043CD7E00E5462547FFEE3545FE900295F0FCA3EFF0FD7F021243CD7F6D7E00125D
:204820003B2C8F477F01123FBB900295EEF0A3EFF0C39547FFEE9400FE900295F0FCA3EF65
:20484000F0FD7F030243CDAC68AD69AE6AAF6B7810EC4D4E4F70047CA57DA5C3EC13FCEDBB
:2048600013FDEE13FEEF13FF5010EC64CCFCED644CFDEE644EFEEF64CEFFD8DF8C688D69B7
:204880008E6A8F6BEE547FFE228E688F6974A5F56AF56B22C2D5E830E70FB2D5E4C39BFBF4
:2048A000E49AFAE499F9E498F8EC30E717B2D51248CA12354FE4C39BFBE49AFAE499F9E42C
:2048C00098F8800312354F30D50DE4C39FFFE49EFEE49DFDE49CFC228F448C458D46C2AF54
:2048E0009001BFE0B4011DAE45AF461249A15014AE45AF461249BA400BE42546F54674FE2A
:204900003545F5451249ADE545F5F48546F58544F675F780D2AF7F00228E478F488B498A31
:204920004A894B9001BFE0B401191249A15014AE47AF481249BA400BE42548F54874FE357A
:2049400047F547854882854783E493AB49AA4AA94B1233A87F0122204821900148E0601B97
:20496000E4FD7F14124A16D248900148E075F03CA4FF900291E5F0F0A3EFF022E4F5447F12
:20498000107E27123B59124A510544E544C3940A40ED7B007A0279008B088A09890A0237AD
:2049A0001AE4FCFDFB7AECF9F8D30235EF75F65575F6AA75F65543BF0422E4FCFD7BFF0A97
:2049C000F8C30235EFC2AF9001BFE0B40104BF76011F1249ADEF25E0F5F4E4F5F575F782A6
:2049E000D2AF229000A0E0C394035010E0FE04F074122EF582E43402F583EFF0222020205A
:204A0000202020202000726573746172745F00696E672E2E2E00ED700CEF90081F93FE1218
:204A2000428CEEF02212428CEDF022305B047F0180027F04123FBB8E528F53AE52AF5322C3
:204A40007761726E696E670045325F6572726F720075971E7597E1E4F59F7597E175971EBA
:204A60002275971E7597E1759FA77597E175971E22900166E0FF7E007C007D640233BA0069
:204A8000000000000000000000000000004552524F52004E4F2050494300E4FF12428CE44C
:204AA000F00FBF1EF722EE30E707C3E49FFFE49EFE2212428CE4F0228F52900150E0146022
:204AC0002C14605C147003024B6A147003024BCD147003024C2724056003024C74E512B406
:204AE0000603024C48AF5212CA81024C747F0112CA811282C0302D0712547BD25E800512BA
:204B0000546DC25EE4FD12CA2090004EE0D394005003024C74E014F01282C0C25E024C4DAA
:204B20009001AFE0B4051490002AE07004A3E064017004D25C801DC25C80199001AEE0B4C9
:204B40000512900028E07004A3E064017004D25C8002C25C1282C0305C0812547BD25E020D
:204B60004C6F12546DC25E024C6F7B017A0179B97D0212D0954006D255A255925B9001AF1A
:204B8000E0B4051490002AE07004A3E064017004D25C801DC25C80199001AEE0B405129002
:204BA0000028E07004A3E064017004D25C8002C25C1282C0205C0EC25EE4FD12CA201283DF
:204BC000CED25E80051254C0C25E024C6F90002812841DA3EFF07882E624F6FD18E634FF3A
:204BE000FCC3EF9DEE9C50161282C01254C0C25EE4FD12CA209001327402F0024C7478821E
:204C0000E6240AFF18E4361283D54013125459D25EE4FD12CA209001327401F0024C74E4F8
:204C2000900132F0024C7490002A12841DFCA3EFF0FD7A001281F2FFEA3ECF24F6CF34FF06
:204C4000FEC3ED9FEC9E50111282C0D25EE4FD12CA201283CEC25E80161281F0FFEC3ECF27
:204C6000240ACF34001283D5400A125459D25EE4FD12CA20128152FF70161282DBF58374BE
:204C800064F01281DBF583E0FE128232EEF08027EFB40606128232E4800E1281521281DA78
:204CA000128144FF128232EFF01281DBF583E0FF1282DBF583EFF01282321282A11281213F
:204CC000FEC39F400C1282DBF583E0FFEED39F403390015EE0FF64026006EFD39404502A21
:204CE0001254A5500D1282DB12829F128121C39F40121254E750131282321282A1128121E3
:204D0000D39F400612840302503E1254E74003024EBEE49002A4F012840B7442128350FDD1
:204D20009002A4E0FCC39D501712815A2C1281DA128144FF74A62C128256EF12839F80D794
:204D4000E49002A4F012840B744212815C1283B6500CED2F128254740212839F80E774E5EE
:204D60002552128121FFD3940350139002A4EFF074E52552F582E43400F5837403F0900257
:204D8000ABE024FEFF74E52552128121FEC39F5009740F2552F8760680479002A6E0FFEEF0
:204DA000D39F40051284038038E49002A5F09002A5E0FFC394045029128297128121FED346
:204DC0009F401612824FE024FEFDEEC39D500AEF04FF740F2552F8A6079002A5E004F08038
:204DE000CD9002A612828D128121FDC39E4011EDD39F500C1281B964016005EF6002760191
:204E00009002A712828D128121FDC39E4013EDD39F500E1281B964016007EF6402600276D1
:204E2000029002A812828D128121FDC39E4013EDD39F500E1281B964026007EF6403600222
:204E400076039002A912828D128121FDC39E4013EDD39F500E1281B964036007EF6404608A
:204E60000276049002AA12828D128121FDC39E4013EDD39F500E1281B964046007EF6405C4
:204E8000600276059002AB12828D128121FDC39E4013EDD39F500E1281B964056007EF6446
:204EA000066002760674E52552128121B4030F9002A41282A1F582E43400F583EFF012540D
:204EC000A5400302503EE49002A4F0128152FF9002A4E0C39F5014E01281DA128144FE74FA
:204EE000A62F128256EE12839F80E0E49002A4F01281521283B6500CED2F128254746612EB
:204F0000839F80EC9002AB1284472552128121FDD39FEE1281884009740F2552F8760C8009
:204F20004D9002A6E0FFEDC39F5005128403803EE49002A5F09002A5E0FFC39404502F1205
:204F40008297128121FEC39F501C12824FE02402FDE433FCEED3128186400BEF2407FF740D
:204F60000F2552F8A6079002A5E004F080C774E525521281219002A612833A401112817DC8
:204F8000500C1281B964076005EF6002760774E525521281219002A712833A401312817DDC
:204FA000500E1281B964076007EF64086002760874E525521281219002A81283E2401312A0
:204FC000817D500E1281B964086007EF64096002760974E525521281219002A91283E240A3
:204FE0001312817D500E1281B964096007EF640A6002760A74E52552128121FF9002AAE032
:20500000FEEFC39E401312817D500E1281B9640A6007EF640B6002760B74E525521281219B
:20502000FF9002ABE0FEEFC39E401312817D500E1281B9640B6007EF640C6002760C12814D
:2050400002E0FF74532552F8A6079002631254CE504D1254894048128102E07039740F2589
:2050600052F8E6D3940640109000251254CE40081281027407F080241281B9D39400401C5F
:20508000EF94075017900049E0FEA3E0FFAD5212D0C740088000128102E004F01254B29065
:2050A0000263E0FEA3E0FFE5522403FD12D0C750251254894020128102E0FFB4070712819A
:2050C00002E4F08009EF6006128102E014F01282B4C25E12CA20740F2552F8E61236C75107
:2050E000070151280251540351820451B30551E406520A0752220852470952730A52A00B1D
:2051000052D20C00005302128102E0FFD39400500302526EEF9407400302526E1253DCE06A
:20512000FFAB527D010252B5128102E0FFD394014011EF9407500C1253DCE0FFAB527D023D
:205140000252B5128102E0B40105C25D0252FBD25D0252FB128102E0FFD394024011EF947A
:2051600007500C1253F5E0FFAB527D030252B5128102E0FF64026035EFB401030252690238
:20518000526E128102E0FFD394034011EF9407500C1253F5E0FFAB527D040252B5128102E5
:2051A000E0FFC394034009EFD39401500302526902526E128102E0FFD394044011EF94078A
:2051C000500C12540EE0FFAB527D050252B5128102E0FFD394045009EFC394014003025282
:2051E0006902526E128102E0B4060912540E7406F0025322128102E0FFD394055009EFC30C
:205200009401400302526902526E128102E0D39406400C125427E0FFAB527D070252B50211
:20522000526E128102E0D39407400C125427E0FFAB527D080252B5128102E0B40704C25D35
:205240008002D25D0252FB128102E0D39408400C125440E0FFAB527D090252B5128102E098
:20526000FF64086004EFB40705C25D0252FBD25D0252FB128102E0D39409400B125440E00E
:20528000FFAB527D0A802E128102E0FFD394094005EF94074005C25D0252FBD25D0252FBF9
:2052A000128102E0D3940A40121254B2128102E0FFAB527D0B12D015025322128102E0FFC3
:2052C000D3940A4005EF94074004C25D802DD25D8029128102E0D3940B400B125504128176
:2052E00002740CF0803C128102E0FFD3940B4005EF94074004C25D8002D25DAF5212CFF1E4
:205300008020125504128102E0C3940140071282B4D25E800A1280FBEFF01282B4C25E1286
:20532000CA20128102E0FF74532552F8E66F601D90011E7401F0A3F0A3F0FB7A007942D2CB
:205340005EAD5212CA20E4FD7F11124A16900012E0706BE553D394004029E5539407502366
:205360001254F4EF600C1254971254F4128451124A161254FCEF60461254D91254FC12849A
:205380005B8038E553C3940740347F667E00123B2CEF60101254D97F667E00123B2C128404
:2053A0005B124A167F677E00123B2CEF60101254977F677E00123B2C128451124A1620236E
:2053C0001AE4900263F0A3F0900049F0A3F0900025F0A3F01280FBEFF0D223227B017A0248
:2053E0007963C25EAD5212CA2074122552F582E43400F583227B017A027963C25EAD52128B
:20540000CA2074122552F582E43400F583227B017A027963C25EAD5212CA2074122552F59B
:2054200082E43400F583227B017A027963C25EAD5212CA2074122552F582E43400F5832223
:205440007B017A027963C25EAD5212CA2074122552F582E43400F583227B007A007971C296
:205460005EE4FD12CA207B007A00796F22D25EE4FD12CA207B007A00796F22C25EE4FD12D3
:20548000CA207B007A00796F22900042E0FEA3E0FFAD5212D0C7227B017A007949D25EE45B
:2054A000FD12CA2022786FE6FE08E6FFAD5212D0C7227B017A027963C25EAD5212CA20223E
:2054C000D25EE4FD12CA207B007A00796F22E0FEA3E0FFAD5212D0C7227B017A007925D230
:2054E0005EE4FD12CA20227871E6FE08E6FFAD5212D0C7227F667E00123B2C227F677E0069
:20550000123B2C227B017A027963C25EAD5212CA2022C258EF1236C755A30055A9015695E5
:2055200002567C03568904569B05567606561B0755F70955FD0A56030B56090C560F0D5629
:20554000150E56210F564710564C11565212565813565E14566415566D16568F1756D11A1A
:2055600056D71B56E31C57071D572B1E574F1F57732057972157BB2257DE2357FB24582338
:2055800025584C26589B2758B72858BD295A152C5A662D56A12E56B42F56BE3056C8310014
:2055A000005E63124A51023BA4124A5130221490006CE004F0E0D394354008E4F090025C33
:2055C000126C639001C0E0B403047F0280027F0112BC94301D1ED3900267E0940090026676
:2055E000E09400400F126F4A900266E07002A3E07002C21D023BDB124A5102C698124A512D
:2056000002BE12124A5102B216124A5102BA3B124A5102C239124A5102BB0F124A5102B318
:2056200037900164E0FF6003B40405C23702CE9D900164E0FF64026008EF64036003025E1E
:205640006312CE9DD23722124A518027124A5102B0EF124A5102AD3B124A51028E0D124A60
:2056600051028AF4124A511270DF029646124A511270DF02D054124A5102D109124A51E41F
:20568000FD7F03124A160224CA124A5102D0E1124A5102CF00124A51025EE4124A51027536
:2056A0004F124A51304906302B0312A7F0E4FD7F1A025E60E566FD7C00AF6702B674E566DD
:2056C000FD7C00AF6702B451A25F925AAF6702C193124A5102989A124A519002777403F0DD
:2056E000023B3B124A51900050E0D394004003E014F0900050E07008126BE07D0102584288
:20570000E4FD7F0A025E60124A51900051E0D394004003E014F0900051E07008126BE07D50
:2057200003025842E4FD7F0B025E60124A51900052E0D394004003E014F0900052E0700868
:20574000126BE07D05025842E4FD7F0C025E60124A51900053E0D394004003E014F0900014
:2057600053E07008126BE07D07025842E4FD7F0D025E60124A51900054E0D394004003E0D9
:2057800014F0900054E07008126BE07D09025842E4FD7F0E025E60124A51900055E0D39443
:2057A000004003E014F0900055E07008126BE07D0B025842E4FD7F0F025E60124A51900098
:2057C00056E0D394004003E014F0900056E07007126BE07D0D806BE4FD7F10025E60124A6A
:2057E00051E4F52F7B017A007942C25EAD2F12CA20052FE52FC3940340EA22124A5190007C
:205800005B126F514016E4F090025FE014F0E0700B7B017A007949C25EFD8026E4FD7F1214
:20582000025E60124A51900035126F514017E4F090013FE014F0E0700C7B017A007925C2D3
:205840005EFD02CA20E4FD7F13025E60124A51900148E0603F30483CE4FF12C7159258302A
:205860005832C248303D03303C21C23CC23D9001C8E0700B90015EE064067003025E63E493
:20588000900101126C96126E308006430E10126C4B023B72E4FD7F14025E60124A517E00F4
:2058A000125ED66003025E63FE125ED66003025E63439B30F5A322124A51D23122124A51CB
:2058C000D3900062E09400900061E094004003126F4A900061E07002A3E07002C253202B84
:2058E0006F7FEF125EDD60689000FDE0FEA3E0FFD39464EE64809480500BC3EF940AEE641B
:205900008094805022D23D7FF67E02123B2C7E00C006C0077FF5125EDDFDD0E02DF514D085
:20592000E03400F5138020E514151470021513E51445137004C23DD296C3E5136480948010
:205940005005E4F513F5149000FDA3E0900276F07FD87E00123B2CEF7003025A0C301E1679
:205960007FD87E00123B2C7D3C126BFE900022EEF0A3EFF08006900022126F4A900022E0FE
:205980007002A3E06003025A0C301E03025A0C126E3A126C4B123B72126CA0123B727F539D
:2059A0007E02123B2CBF010BE49001BBF0FD7FD6FE80567F537E02123B2CEF6402704D9070
:2059C00001BB74FFF0FD7FD67E00123B727F547E02123B2CAD077FF67E07123B727F147ECF
:2059E0000012D13390009E7FFA125EBB9000A37FF9125EBB9000A1E0FD7FF87E07123B7220
:205A00009000A9E0FD7FF77E07123B72C21EE4FD7F17025E60124A51900124126F51403FEC
:205A2000E4F09000E4E0D394004003E014F09000E4E0702BD20FC259E521F4F52F532FDF46
:205A4000E4900142F0205917AF2F12C8079259900142E004F0E0D3943240EAD25980E6E4A6
:205A6000FD7F18025E60203003025E593053147A41796F125EC3900133E0FF7E0012CB98C3
:205A8000025E59124A519001D6E0700D123BE0123BE5E4FD7F19025E609001D6E0C39401A5
:205AA00040609002DDE094035005E004F08053E49002DDF07FB87E02123B2C900125EFF05C
:205AC000D3941940037401F0900125E0FF60339000F8E02402F582E43401F583E090027AF4
:205AE000F09000F8E004F0EF126D41E0C39FEE6480F874809840037401F090027AE09001EE
:205B0000D6F0900165E0C394064003025E53E4FF12BF879001D6E0640C703CF52F126EF262
:205B20002491125E642492125E7D40F1E4F539FB7A0079317F81123BD1E4F52F126EF2241B
:205B400099125E64249A125E7D40F17B007A007931125EB1025E609001D6E0640D6003025F
:205B60005D287F08123BEAEF123BEF8F3A7F07123BEAEF541FFF123BEF8F3B7F06123BEA0E
:205B8000EF5407FF123BEF8F3C7F05125ECB8F3DE53B1236C75BBD015BC4025BCF035BD465
:205BA000045BE4055BEE065BFE075C08085C12095C1B0A5C2B0B5C3B0C00005C46744A12E3
:205BC0006E6A80337446126CDF7462F0025C46126E6880099000967441F0A37470F0A374EF
:205BE00072F08062126E68F0A37479F08058900096744AF0A37475F0A3746EF08048744AE6
:205C0000126DD5746CF0803E7441126DD57467F080347453126CDF74708009900096744FA0
:205C2000F0A37463F0A37474F0801B900096744EF0A3746FF0A37476F0800B9000967444C0
:205C4000126CE27463F0E53B900095B409157420F090009A742EF0E53D126A5BE53D126831
:205C6000DE80177420F0900099742EF0E53D126A5BE53D1268DEA3742CF01269EF7F81124E
:205C80003BD19000957432F0A37430F0E53A126A5BE53A1268DEA3742CF0E53C1236C75CDA
:205CA000B8015CC3025CD4035CE3045CF4055D04065D140700005D1F90009A744DF0A374F2
:205CC0006F801A9000997454F0A37475126CE27473F0804B90009A7457F0A37465F0A31444
:205CE000F0803C9000997454F0A37468126DD87472F0802B90009A7446F0A37472F0A3745C
:205D000069F0801B90009A7453F0A37461F0A37474F0800B90009A7453126DD8746EF01214
:205D200069EF125EB1025E609001D6E0640E70737F04125ECB8F3E7F03123BEAEF547FFF89
:205D4000123BEF8F3F7F02123BEAEF123BEF8F40126BBBA3F0A37454F0A37469F0A3746D6D
:205D6000126CE27420F01269ED7F81123BD1E53E126CAEE53E1268DEA3743AF0E53F126A0E
:205D80005BE53F1268DEA3743AF0E540126A5BE5401268DE1269EF7FC1123BD6E4FD7F192C
:205DA000025E609001D6E0B40F137A0379EC125EC37F0F12A957E4FD7F19025E609001D6B1
:205DC000E0B410177BFF7A0379F57F81123BD17F1012A957E4FD7F19025E609001D6E0FF65
:205DE000C394034050EFD3940A504A900138741AF0EF24FDF530E4F52F126EF224A9125E8C
:205E0000972431F8A607126EF224AA125E972432F8A607052FE52FC3940440DDE531B4FF26
:205E200005E532F4600FE533B4FF0280087B007A00793180129001D6E075F009A42477F970
:205E4000740335F0FA7BFF7F81123BD1E4FF129AB18006123BE0123BE512989AE4FD7F1932
:205E6000124A1622FFE5F03401FE123B2CE52F25E02431F8A607E52F75F002A422FFE5F0E6
:205E80003401FE123B2CE52F25E02432F8A607052FE52FC3940422FDE5F03401FCE53075F0
:205EA000F008A42DFFE5F03CFE123B2CE52F25E0227FC1123BD6E4FD7F1922E0FD7E0712E5
:205EC0003B72227BFF7F81123BD122123BEAEF543FFF123BEF227F08123B2CEF227E021280
:205EE0003B2CEF22E4FD7F02124A16A23D925B124A2B7873A60608A607303D0B900151124B
:205F000083789001528009900156128378900155E090003312837CE4F545AF45124AB80561
:205F200045E545C3940340F2301D1E900185E0900012F09001ADE0FF7E007C007D3C12335E
:205F4000BA900266EEF0A3EFF0E4F545126822BF030912820C749A4017800E126822BF04B8
:205F600015C312820D749A5007128479E4F080061284797401F00545E545C3940440CD90FA
:205F80000012E0FDD3940650461283837C00EF2DFFEC3E12683E9000121268168F459000E8
:205FA00012E0FF900185E02F1281AFE09000E51267D9C007900185E0FFA3E02F1281AFE052
:205FC000FBE4FAF9F8D0071283624060026029128383900012E07C002FFFEC3EFE9001867B
:205FE000E0FDC374069DFDE49CFCC3EF9DFFEE9C12683E12816E9000121268048F4590005C
:2060000012E01282451283FC1281751267F4C006C007900185E024FFF582E434FF12818F59
:20602000D007D0061283624003754964900013E0FFD39406504D900101E07009EF24DFFFEF
:20604000E43402800A900013E02426FFE4340112684B9000131268168F4A900013E09001D2
:206060008312830C9000E61267D9C007900183E0A312830CFBE4FAF9F8D007128433406D1E
:206080000260EA900101E0900184700F128171900013E024DFFDE43402800D1281719000EC
:2060A00013E02426FDE4340112839812684B9001841281719000131268048F4A900013E005
:2060C0001281AFE0FF9000E6E01281751267F4C006C007900183E02405F582E43400128108
:2060E0008FD007D0061284334003754B64900014E0FFD39406504E900101E07005EF24208C
:206100008006900014E02412FFE43403FE12685F9000141283F012686B128341F583E0FF13
:206120009000E7E012846F12682E8F49900182128341F583E0FFE5498FF084F549D3946409
:20614000405E02619D900101E090018270071282A8242080051282A82412C39FF549FF7E11
:206160000012685F900182128171900014E02460128394FE12686BE012830FFF9000E7E041
:2061800012817512682EC006C007900181E012834812818FD007D0061283624003754964C8
:2061A0009001C0E0700302623DD25AE4F550F551C3E5519405E550648094805017749E25A2
:2061C00051F58274013550F583E064037021B25AA25A8015745B2551F58274013550F583E2
:2061E000E0B4110BB25AA25AE433244EF8A6510551E551700205506407455070B3749725C9
:206200004E128229701B7497254F1282297007854555AB498005854A55AB4BAD45AF498019
:20622000197497254F1282297007854555AB498005854A55AB4BAD4AAF4B12A686E4F54593
:20624000128225B4030912820C746F4018800F128225B404181283F9C39F746F5007128214
:20626000D1E4F080111282D17401F08009128225FF1282CFEFF01282CFE025E02429F5828F
:20628000E43401F583E0FEA3E0FFAD4512D0C7925E7B017A017912AD4512CA200545E5459E
:2062A000C39405409B204C09900112A3E0F5208042E4F54C749E254CF582E43401F583E0A5
:2062C000B4012712828674017E00A84C088005C333CE33CED8F9FF900112E05EFEA3E05FFE
:2062E0004E24FF925BAD4C12CF55054CE54CC3940340C1D25AE4F54DE54DC39405501E7472
:206300009E254DF582E43401F583E06403702F128277B40104D25B8020C25B801C745B2541
:206320004DF582E43401F583E064117011128277B40104D25B8002C25BAD4D12CF55054D20
:20634000E54DC3940740B1E4F545126877BF030912820C749C4018800F126877BF0416126F
:2063600083F9C39F749C50071283C4E4F080061283C47401F00545E545C3940240CCE51297
:2063800024FA60762406600302646F787A743226F618E436F60812836D4004E4F608F6782D
:2063A0007C74CE26F61874FF36F6C3E664809480500576030876E87879E6FE08E6FF7C0039
:2063C0007D041234218F45AD457F0A7E00123B727F0A7E00123B2CEF654570030266E57BF5
:2063E000FF7A4A79407F81123BD17BFF7A4A79487FC1123BD6124A5180E5900153E0640166
:2064000070377882E624C0FF18E634FEFE7C007D051233BA7D091234211281E9FFEC3ECF86
:2064200024C0CF34FEFE7D051233BA7D091233CC787BA60608A60780117881E6FE08E6FFB2
:206440001281E9787CF6EC3E18F6787A12836D400576030876E8D3787C12836E40057603FE
:206460000876E85320F8A248723D92000266E5900012E0FFD394065025900101E07016EF89
:20648000243BFFE43401FE123B2C8F46E545C4540FF5458052900012E0128416804090015D
:2064A00001E07022E545C4540FF54512816E900012E0243B128394FE9002A0F0A3EFF0121F
:2064C0003B2C8F46802112816E900012E0242DFDE43401CDC39FF551ED9EF550AF51FE12A0
:2064E0003B2C8F4653450F900184128171900013E0FD2434FBE43401CBC39FF551EB9EF5C3
:2065000050EDD39406501B900101E09000137009E024E6FFE434028031E02434FFE43401D4
:206520008028900101E0900184700F128171900013E024E6FDE43402800D128171900013D1
:20654000E02434FDE43401128398FE123B2C8F47900014E0FFD394065018900101E0700534
:20656000EF24198006900014E02406FFE43403FE801C900101E090026570071282A82419AE
:2065800080051282A82406C39FF549FF7E00123B2C8F487B007A007946AF45127D587D0592
:2065A00012D08F501E7FFA1268587F00FEC006C0077FF9126858FDD0E02D787AF6D0E034B7
:2065C0000018F67D0612D08F50247FF87E07123B2CEF7F00FEC006C0077FF77E07123B2C63
:2065E000EFFDD0E02D787CF6D0E0340018F6204C030266E590019CE02446F8E6FFC45403CB
:206600001470030266A514600D146050240360030266AB02669C90019C12821B12811AD3A4
:206620009E401290019CE012821DF583E0FD12811EC39D801590019C128111C39E501B1202
:206640008483128121FFC374329FFFE49400FEEF25E0FFEE33900235801A804090019C128F
:20666000821B12811AD39E4011128483128121FF900235E4F0A3EFF0803190019C128111A3
:20668000C39E5018128483128121FFC374649F900236F0E49400900235F0800FE49002350A
:2066A000F0A3F0800612848A7464F07D07128491500A900074E0FF12848AEFF09002351229
:2066C00083E99405EE648094805009E4900235F0A3F08011D3EF945FEE64809480400612C4
:2066E000848A7464F0E4F54C7FF67E07123B2C8F4CE4F54DAD4D12849150131B7A00794C4D
:20670000AD4D12D095925B7A0079200267951281CDB40103303D201281CDB4020A9000288D
:20672000E07002A3E060101281CDB4031190002AE07002A3E07007128286C25B8057128145
:20674000CDB404179001C0E07011900070E064017048FB7A007920D25B803A1281CD640530
:20676000701E9001C0E07018FB7A007920AD4D12D095E433FF900070E05F24FF925B801559
:206780001281CDB406149001C0E0B4020D30180A128286C25BAD4D12CF55054DE54DC39443
:2067A0000550030266F4D25AE4F54D74C1254DF582E43401F583E06402701490012712820E
:2067C00085B40104D25B8002C25BAD4D12CF55054DE54DC3940540D322FFE0FDC3EF9DFF40
:2067E000E49400FEE4FCFD755D64F55CF55BF55A12D0AB22E4FCFD755D64F55CF55BF55A6E
:2068000012D0AB22E02460FDE43401CDC39FFFED9EFE123B2C22E02460FFE43401FE123B36
:206820002C22E54524B5FFE433FE123B2C22E4FCFD755D64F55CF55BF55A12D0AB22FE1296
:206840003B2C900129E4F0A3EFF022FE123B2C90012BE4F0A3EFF0227E07123B2CEF2212D3
:206860003B2C90012DE4F0A3EFF022123B2C90029FEFF090001422E54524B7FFE433FE1201
:206880003B2C22FEE07C002400FFEC3EFE9002A0F0A3EFF07D091233BA7D051233CC90027C
:2068A000A0EEF0A3EFF09002A0229001ED7415F0A3F0C3E5169484E5156480948022F074AC
:2068C0002EA3F07D0AAE49AF4A7C00023421900295E0900097FD75F00A842430F0ED75F0F9
:2068E0000A84E5F02430A3F022AE49AF4A7C007D64123421EF2430900096F0AE49AF4A7CB3
:20690000007D641234217F0A7E00CFCDCFCECCCE22E51625E0FFE51533FE900153E09007AE
