:020000040000FA
:20000000020200FFFFFFFFFFFFFFFF0250AF8F4312D696500302C12FAB437DD47F5A12B86C
:200020006022FF02457CFFFFFFFFFF0247CF78AC7C027A52798212D65712E4097FC112E48C
:200040002F7F017E0012E5E312E3E150051244E0C3227F017E0012E5E312E10A9002AC122E
:2000600000D89002AE1200D89002B01200EB9002B21200EB9002B4EEF0A3EFF01244E09092
:2000800002AEE0FEA3E0FF9002ADE02FFF9002ACE03EFE9002B1E02FFF9002B0E03EFE906A
:2000A00002B3E02FFF9002B2E09002B612D6D69002B4E06E7003A3E06F701B9002AE12D6A7
:2000C000AC9002AC12D6629002B012D6789002B2A3E0F50BD322C322EEF0A3EFF012E498BB
:2000E0007F017E0012E5E312E10A22EEF0A3EFF012E4987F017E0012E5E312E10A22FFFF26
:2001000054656D636F54535441543600000000C001000080D2477F19125408E5168515F03C
:20012000123F5B013B01710182017201D0017301DF017401EF0176000001F8202F1312768B
:200140002D4006EFD3940440231278F9127A35801B9000E5E0FEA3E0FF9000F7E02FFF9096
:2001600000F6E03EC313F545EF13F546788FA64508A646900073E0FDAF46AE4512AE260288
:2001800001EA7BFF7A4A79C07F811244E590015CE0B4070C7FF57E0712442C1275DE805876
:2001A000127807127A35788FF608A646D3E54694E7E54564809483400EAE45AF467D0A128F
:2001C0003C8F12DFC08007AF46AE4512D6E6801A9001C61275DCE62402FF12E1D8800B9021
:2001E000017E1275DCE6FF12DD8412E58480099001D91275DC12E0BE740712786802536919
:2002000078FFE4F6D8FD7581A312440A02024A023F8EE493A3F8E493A34003F68001F208C2
:20022000DFF48029E493A3F85407240CC8C333C4540F4420C8834004F456800146F6DFE403
:20024000800B0102040810204080904258E47E019360BCA3FF543F30E509541FFEE493A3FA
:2002600060010ECF54C025E060A840B8E493A3FAE493A3F8E493A3C8C582C8CAC583CAF044
:20028000A3C8C582C8CAC583CADFE9DEE780BEE49002ABF090026BE0700302092D20E003A1
:2002A0000204CBE49002ABF078A1F678A1E6FFC3940650209002ABE075F006A42400F582BB
:2002C000E43400F583E5822FF582E43583F583E4F00680D79002ABE014601414601E2402DF
:2002E000702A900183E09002A9F09001848018900181E09002A9F0900182800B900231E03A
:200300009002A9F0900265E09002AAF09002AAE0FF9002A9E0FE2F78A1F6EED39400500395
:200320000203A1E408F69002A9E0FF78A2E6C39F506FA3E07026E6FBFDC3EF9DFFE494003D
:20034000FE7C007D64123C2878A1E62401FDEC33FC123C3AC374649FFFA3802678A2E6FB8B
:20036000FF9002A9E0C39FFFE49400FE7C007D64123C2878A1E6FD123C3AC374649FFF906C
:2003800002ABE075F006A42400F582E43400F583E5822BF582E43583F583EFF078A20680FA
:2003A000859002AAE0D39400500302042CE478A3F69002AAE0FF78A3E6C39F506F9002A943
:2003C000E0FB7022E6FAFDC3EF9DFFE49400FE7C007D64123C2878A1E62401FDEC33FC12EE
:2003E0003C3AEB2A802378A3E6FBFF9002AAE0C39FFFE49400FE7C007D64123C2878A1E60F
:20040000FD123C3A9002A9E02BFE9002ABE075F006A42400F582E43400F583E5822EF582B0
:20042000E43583F583EFF078A30680859002ABE0FB25E025E0247BF582E43400F583123E8B
:20044000E6000000009002A9E0FFA3E0FE2F78A1F6EF700F74662BF582E43400F58374648B
:20046000F0805EEE70119002ABE02466F582E43400F583E4F0804A9002A9E0FF9002ABE0BC
:20048000FE75F006A42400F582E43400F583E5822FF582E43583F583E0FDEE75F006A42405
:2004A00000F582E43400F583E02DFFE433C313EF13FF9002ABE02466F582E43400F583EF9E
:2004C000F090026BE054FEF054FBF090026BE020E1030206FC9002AB7401F0E478A1F678DC
:2004E000A1E6FFC3940650209002ABE075F006A42400F582E43400F583E5822FF582E4352C
:2005000083F583E4F00680D79002ABE014601414601E2402702A900183E09002A9F0900108
:20052000848018900181E09002A9F0900182800B900231E09002A9F0900265E09002AAF013
:200540009002AAE0FF9002A9E0FE2F78A1F6EED3940050030205D5E408F69002A9E0FF7831
:20056000A2E6C39F506FA3E07026E6FBFDC3EF9DFFE49400FE7C007D64123C2878A1E62421
:2005800001FDEC33FC123C3AC374649FFFA3802678A2E6FBFF9002A9E0C39FFFE49400FE4C
:2005A0007C007D64123C2878A1E6FD123C3AC374649FFF9002ABE075F006A42400F582E400
:2005C0003400F583E5822BF582E43583F583EFF078A20680859002AAE0D394005003020670
:2005E00060E478A3F69002AAE0FF78A3E6C39F506F9002A9E0FB7022E6FAFDC3EF9DFFE4B2
:200600009400FE7C007D64123C2878A1E62401FDEC33FC123C3AEB2A802378A3E6FBFF906E
:2006200002AAE0C39FFFE49400FE7C007D64123C2878A1E6FD123C3A9002A9E02BFE90022A
:20064000ABE075F006A42400F582E43400F583E5822EF582E43583F583EFF078A3068085B0
:200660009002ABE0FB25E025E0247BF582E43400F583123EE6000000009002A9E0FFA3E0DF
:20068000FE2F78A1F6EF700F74662BF582E43400F5837464F0805EEE70119002ABE02466E8
:2006A000F582E43400F583E4F0804A9002A9E0FF9002ABE0FE75F006A42400F582E434009E
:2006C000F583E5822FF582E43583F583E0FDEE75F006A42400F582E43400F583E02DFFE48C
:2006E00033C313EF13FF9002ABE02466F582E43400F583EFF090026BE054FDF090026BE068
:2007000020E20302092D9002AB7402F0E478A1F678A1E6FFC3940650209002ABE075F006B3
:20072000A42400F582E43400F583E5822FF582E43583F583E4F00680D79002ABE0146014F3
:2007400014601E2402702A900183E09002A9F09001848018900181E09002A9F090018280CB
:200760000B900231E09002A9F0900265E09002AAF09002AAE0FF9002A9E0FE2F78A1F6EE3D
:20078000D394005003020806E408F69002A9E0FF78A2E6C39F506FA3E07026E6FBFDC3EFC9
:2007A0009DFFE49400FE7C007D64123C2878A1E62401FDEC33FC123C3AC374649FFFA38034
:2007C0002678A2E6FBFF9002A9E0C39FFFE49400FE7C007D64123C2878A1E6FD123C3AC3ED
:2007E00074649FFF9002ABE075F006A42400F582E43400F583E5822BF582E43583F583EF20
:20080000F078A20680859002AAE0D394005003020891E478A3F69002AAE0FF78A3E6C39FDF
:20082000506F9002A9E0FB7022E6FAFDC3EF9DFFE49400FE7C007D64123C2878A1E62401B9
:20084000FDEC33FC123C3AEB2A802378A3E6FBFF9002AAE0C39FFFE49400FE7C007D6412E3
:200860003C2878A1E6FD123C3A9002A9E02BFE9002ABE075F006A42400F582E43400F583F5
:20088000E5822EF582E43583F583EFF078A30680859002ABE0FB25E025E0247BF582E434E3
:2008A00000F583123EE6000000009002A9E0FFA3E0FE2F78A1F6EF700F74662BF582E434AF
:2008C00000F5837464F0805EEE70119002ABE02466F582E43400F583E4F0804A9002A9E024
:2008E000FF9002ABE0FE75F006A42400F582E43400F583E5822FF582E43583F583E0FDEEB8
:2009000075F006A42400F582E43400F583E02DFFE433C313EF13FF9002ABE02466F582E4A1
:200920003400F583EFF090026BE054FBF0E49002ABF09002ABE0FFC394034003021121EF23
:20094000146071147003020A7E24026003020B2090014BE0FF9002ADE4F0A3EFF090014CBE
:20096000E0FF9002AFE4F0A3EFF0900183E09002A9F0900184E09002AAF0303D1290014F62
:20098000E0FF90005AE4F0A3EFF09001508010900154E0FF90005AE4F0A3EFF0900153E0FF
:2009A000FF900033E4F0A3EFF0900142E09002ACF0020B20203D033048069000FEE0700A4B
:2009C00090018DE0FE90018C800890018BE0FE90018AE07C002400FFEC3EFE9002ABE02578
:2009E000E0247FF8A60608A607900187E0FE900186E07C002400FFEC3E9002ADF0A3EFF0B4
:200A0000900189E0FE900188E02400FFEC3E9002AFF0A3EFF0900181E09002A9F0900182B5
:200A2000E09002AAF0900185E09002ACF07F127E0012442CEF7F00FEC006C0077F117E00EE
:200A400012442CEFFDD0E02DFED0E0340090005AF0A3CEF07F107E0012442CEF7F00FEC073
:200A600006C0077F0F7E0012442CEFFDD0E02DFED0E03400900033F0A3CEF0020B20203DD2
:200A8000033048069000FEE070137F387E0312442CEF7F00FEC006C0077F3780117F367EB7
:200AA0000312442CEF7F00FEC006C0077F357E0312442CEFFDD0E02DFFD0E03400FE9002C5
:200AC000ABE025E0247FF8A60608A607900299E0FFA3E09002ADCFF0A3EFF0900279E0FF93
:200AE000A3E09002AFCFF0A3EFF0900231E09002A9F0900265E09002AAF0900260E09002BC
:200B0000ACF07F0D7E0312442C90005AE4F0A3EFF07F0E7E0312442C900033E4F0A3EFF0C1
:200B20009002ACE024FEB411004003020BD9900B3C75F003A4C58325F0C58373020B71020C
:200B40000B71020B71020B79020B82020B8B020B94020B9D020BA6020BAF020BB8020BC1A1
:200B6000020BCA020BD9020B71020B71020B718000788DE6FE08E680589000B9E0FEA3E065
:200B8000804F9000BBE0FEA3E080469000BDE0FEA3E0803D9000BFE0FEA3E080349000C1F4
:200BA000E0FEA3E0802B9000C3E0FEA3E080229000C5E0FEA3E080199000C7E0FEA3E0804C
:200BC0001090001BE0FEA3E0800790026CE0FEA3E0FF7893A60608A6079002ABE0F925E08D
:200BE000247FF8E6FE08E6FF90005BE02F789EF690005AE03E18F6900033E0FCA3E0FDC38B
:200C0000EF9D78A0F6EE9C18F67893E6FE08E6FFD3789E9618E66480F8EE648098400302BE
:200C20000D7CC3EF78A09618E66480F8EE6480985003020D7CE925E025E0247BF582E43488
:200C400000F583E0FCA3E0FDA3E0FEA3E0FFE47B107A27F9F8C3123E5D500A789576FF0868
:200C600076EC020DBC9002ABE025E025E0247BF582E43400F583E0FCA3E0FDA3E0FEA3E01A
:200C8000FFE4FBFAF9F8C3123E5D50579002ABE0F925E0247FF8E6FE08E6FF24FFFDEE34AB
:200CA000FFFC7893E6FA08E6FBC39DEC6480F8EA6480985003C3807DE925E0247FF8E6FE57
:200CC00008E6FF2401FDE43EFCD3EB9DEC6480F8EA6480984003020D60789576FF0876FEAE
:200CE000020DBC9002ABE025E025E0247BF582E43400F583E0FCA3E0FDA3E0FEA3E0FF7B82
:200D0000F07AD879FF78FFC3123E5D50669002ABE0F925E0247FF8E6FE08E6FF2401FDE4EF
:200D20003EFC7893E6FA08E6FBD39DEC6480F8EA648098400BEB9F7896F6EA9E18F6807C9C
:200D4000E925E0247FF8E6FE08E6FF24FFFDEE34FFFCC3EB9DEC6480F8EA648098500BC365
:200D6000EF789496FFEE1896804C7895760008760280497895760008761480407893E6FEEB
:200D800008E6FFD3789E9618E66480F8EE6480989002ABE0401425E02480F8C3EF96FDEE5E
:200DA00018967895F608A605801225E02480F8C3E69FFF18E69E7895F608A607D37896E63A
:200DC000943218E66480948040057600087632D39002B0E094009002AFE0648094805003F7
:200DE000020F1A7893E6FE08E6FFD3789E9618E66480F8EE6480985013C3EF78A09618E668
:200E00006480F8EE6480984003020E977893E6FE08E6D3789E9618E66480F8EE64809840C2
:200E2000619002ABE025E025E0247BF582E43400F583C083C082E0FCA3E0FDA3E0FEA3E09F
:200E4000FFC004C005C006C0079002AFE0FCA3E0FD7895E6FE08E6FF123C287C007D06127B
:200E60003C8FAB07AA06EA3395E0F9F8D007D006D005D004C3EF9BFFEE9AFEED99FDEC9893
:200E800080637893E6FE08E6C378A09618E66480F8EE64809850569002ABE025E025E024EC
:200EA0007BF582E43400F583C083C082E0F8A3E0F9A3E0FAA3E0FBC0009002AFE0FCA3E07C
:200EC000FD7895E6FE08E6FF123C287C007D06123C8FEE3395E0FDFCD000EB2FFFEA3EFE47
:200EE000E93DFDE83CFCD082D083123EC19002ABE025E025E0247BF582E43400F583E0FC50
:200F0000A3E0FDA3E0FEA3E0FFE47BE87A03F9F81251BF7899123EB580097899123ECD00AA
:200F2000000000789DE6FE08E6FF7893E6FC08E6FDD39FEE6480F8EC6480985013C3ED78C4
:200F4000A09618E66480F8EC64809840030210BBD39002AEE094009002ADE064809480402B
:200F600079D3ED9FEE6480F8EC6480984031ED789E96FFEC1896FE7C007D64123C28E0FC17
:200F8000A3E0FD123C8F9002ABE02466F582E43400F583E0C39F7898F6E49E18F6804F7827
:200FA0009FE6FE08E6C3789496FFEE1896FE7C007D64123C289002ADE0FCA3E0FD123C8F77
:200FC0009002ABE02466F582E43400F583E07C002F7898F6EC3E18F680149002ABE024665F
:200FE000F582E43400F583E07897760008F6D37898E6946418E66480948040057600087697
:2010000064C37897E6648094805004E4F608F67897E6FE08E6FFEE3395E0FDFC08123E9C2D
:20102000EF2BFFEE3AFEED39FDEC38FCE47B64FAF9F8C3123E5D5014C37464789896FFE488
:201040001896FE3395E0FDFC789980347897E6FE08E6FFEE3395E0FDFC08123E9CEF2BFF02
:20106000EE3AFEED39FDEC38FC33503A7897E6FE08E6FFC3E49FFFE49EFE3395E0FDFC08FC
:20108000123EB5E47FE87E03FDFC7899123E9C123D329002ABE025E025E0247BF582E434B3
:2010A00000F583123EC17899123E84EF789826FFEE18367893F608A60780229002ABE024C9
:2010C00066F582E43400F583E07893760008F67899123E847894EF26F618EE36F67893E625
:2010E000FE08E6FFC3EE648094805007E418F608F68012D3EF9464EE648094804007789391
:2011000076000876647894E6FF9002ABE024E2F582E43400F583EFF09002ABE004F0020961
:20112000322243BF017F837E0012442C9000EAEFF07F057E0312442C900260121EDCBFFFBA
:201140000E7FF6121DFD7D647FF57E0212447C7F0D7E0312442C900077EFF07F0E7E0312A4
:20116000442C90006CEFF07F0F7E0312442C900299E4F0A3EFF07F107E0312442C90027975
:20118000E4F0A3121EDC7E00C006C0077FF5121E05FDD0E02DF514D0E03400F5137FF37E59
:2011A0000212442C9000ECEFF0D3940140087401F07FF3121EE67F347E0312442C900073FA
:2011C000EFF0D394034007E4F07F34121EED75150075165E1253F0E4FD7F94FE12447C7FD0
:2011E000D4121E057F00FEC006C0077FD3121E45FDD0E02DFED0E03400900258F0A3CEF01E
:201200007F3E121E4CF4600A7F3F7E0312442CBFFF057D06121D9B7FB87E0212442CBFFF6F
:2012200004E4121DA3121E7E7FF47E0712442C9000FDEFF07F057E0012442CBF010A121DE3
:20124000C764C0700302137F7F05121D91C006C007121DC7FDD0E02DF530D0E03400F52FCE
:2012600090014D7401F0E4900151F09001BDE0F531E4F0C2AFC2A9C2AA121DDDD2AAD2A902
:20128000D2AFD2261244819001BD7401F0D226C2AFC2A9C2AAE4121DDDD2AAD2A9D2AF1291
:2012A0004481D3E53094B1E52F64809481400302133AC3E5309490E52F64809481407BE4F5
:2012C0009000ECF07F06FE12442C8F317F3D121D89E4FFFE12442C8F317F39121D897F4116
:2012E000121E237F01121DBD7F3A7E0312447C7F42121E237F02121DBD7F3B7E0312447C95
:20130000AD317F437E0312447C121D59121D597F07121E2B121D9BAD317F457E0312447C2A
:201320007F08121E2B7F3F7E0312447CAD317F467E03121DF2900130EFF0E49001BDF07D36
:20134000017F05FE12447C7DC07F047E0012447CD23F530E3F121E53E4900122F0121DA39B
:20136000E4F531E5312442121E0C940740F5E4F531E5312449121E0C940740F50214097FA4
:201380006E7E0012442C900151EFF0D394014002E4F0E4F52FF5301249E312442C1249D484
:2013A000EFF0121D20E0D39F400E121D201249E11249D4E0FD12447C1249ABE0C39F50114D
:2013C0001253B51249AB1249E11249D4E0FD12447C1249E3EF647B4E6006EF647C4E701670
:2013E0001253B590009AE0700D1249E3E4FD12447C1249D4E4F00530E5307002052FC39411
:20140000A4E52F64809480408E7F9A7E0012442C90017DEFF07F997E0012442C90017CEF34
:20142000F07F757E0012442C900158EFF07F747E0012442C900157EFF07F737E0012442C54
:20144000900156EFF07F727E0012442C900155EFF07F717E0012442C900154EFF07F707EEF
:201460000012442C900153EFF07F5A7E0212442C900123EFF07F597E0212442C900139EF26
:20148000F0BFFF12900123E0B4FF0B90013974C8F0E4900123F07F967E0012442C9001799D
:2014A000EFF07F957E0012442C900178EFF07F987E0012442C90017BEFF07F977E00124465
:2014C0002C90017AEFF07F6C7E0012442C90014FEFF07F6D7E0012442C900150EFF0124A44
:2014E00082F9124A4FFE90014FE02FFDEC3EFC900179E0FE900178E07A002400FFEA3EFE22
:20150000ED6F7002EC6E702D900123E0FEE9124A4FFE900150E0FDC3EF9DFDEE9CFC9001C1
:201520007BE0FE90017AE02400FFEA3EFEED6F7002EC6E6003121E70E4F5311249F624581C
:20154000121DD0C006C0071249F62457121EC6D0E02DFFD0E03400FE124A08F583EEF0A322
:20156000EFF0124A08124A77648094835008C3EE648094805010124A081249ED2457121DA3
:20158000AC2458121ED10531E531C3940440ACE4F5311249F62448121DD0C006C0071249E1
:2015A000F62447121EC6D0E02DFFD0E03400FE124A14F583EEF0A3EFF0124A14124A7794F7
:2015C000035006C3EE94005010124A141249ED2447121DAC2448121ED1124A5740B490016A
:2015E0004DE0F512E5127002C2AA90015BE014601514602A14602C2403702EE4121EB29034
:2016000001247401801090017EE07006124A5F12447CE4900124F0FD7FF57E078008121E77
:201620008B8006124A5F12447CE4FD7F17125369C21E90017EE0900024F09000FEF0121EA6
:20164000F47F0A7E00124463E53130E403121EF4E53120E4279001ACE064026006A3E06474
:20166000027019900146E0D394004010E49000FEF0121EB2C23D530E2E121E539000FEE0AE
:20168000D394004005D23C1252AAA23D925C12537E787FA60608A607303D0B90014F124AC6
:2016A000389001508009900154124A38900153E0900033124A3CE4F532F531121E5DE4C38B
:2016C0009F500C121E5DEFC3940350037532010531E531C3940540E3E532B40104D24C8005
:2016E00002C24C304C17D2CA90001E123EE600000000E4FD7F0412536978917602204C07A1
:20170000C2CA7F041254089001AFE070069001AEE0600C9001B1E0700A9001B0E07004C238
:201720004D8034E4900071F09001B1E0FE9001B0E0124A4F900058F0A3EFF09001BEE064FA
:20174000036014D24D900058E0FEA3E0FF9001B6E0FD7B011244867B017A0179307F067E8C
:20176000EF125244900130E0FFF46003EF701C121E987F3D121E4C600A7F3D7E0312442C37
:20178000BFFF0690013074FEF08011121E98E0FFF46003EF700690013074FEF0E49000ECEB
:2017A000F0900130E07F3D121EED7FD9121E4564016009C2577FD9121DFD8002D2577FDC81
:2017C000121EFE64016009C22E7FDC121E358002D22E7FB9121EFE24FF922BE4F531E53175
:2017E00024F7FFE433FE12442C124A20EFF0124A20E0B4FF13124A207403F0E53124F7FFA8
:20180000E433FE7D0312447C124A5740D17F007E0112442C900119EFF07FFF7E0012442C16
:2018200090011AEFF0121E7ED394195004E0B4FF0AE4900122F07FB8121EE6E49000FFF0C8
:20184000753101900122E02401FFE433FEC3E5319FEE6480F87480985021E53124B9FFE400
:201860003402FE12442C124A2CEFF0124A2CE0B4FF05124A2CE4F0053180C87F027E01123F
:20188000442C90026EE4F0A3EFF0E0F8E4F0E890026EF07401FFFE12442C90026EE48FF0A7
:2018A000123CC575190E751A107F647E0312442C8F1F7F637E0312442C7517008F18E51831
:2018C000F445177006F517F518803BD3E5189480E51764809480E518401F547FFFE49FF5F0
:2018E00018E49400F517E518121EA5C3E5189FF518E5179400F517800D121EA5EF2518F5EF
:2019000018E43517F5177F667E0312442CBFFF127D0B7F667E0312447C7DB87F657E03124F
:20192000447C124477E4F5311253B512448B500280107FC87E001244630531E531C3940A08
:2019400040E630241BE4F531AF311244907FC87E001244631253B50531E531C3940A40E8B5
:2019600090007AE0C394035004C2208002D220124495E4F53174682531F582E43402F58349
:20198000E4F074302531F582E43400F583E4F00531E531B403DF7F30121D91C006C0077F41
:2019A0002F121E1CFDD0E02DFFD0E03400FEC006C0077F1C121E1C7F00FEC006C0077F1BD9
:2019C000121E69FDD0E02DFDD0E03400FCD007D006124A6B50089000F87401F08005E49005
:2019E00000F8F07F46121E697F00FEC006C0077F45121F05FDD0E02DFFD0E03400FEC0061C
:201A0000C0077F32121F057F00FEC006C0077F317E0012442CEFFDD0E02DFDD0E03400FCB8
:201A2000D007D006124A6B50089000F97401F08005E49000F9F0121E8BD39401400374012F
:201A4000F07F617E0312442CEF702B900161E0FF9001C4E0C39F400D900160E0FF9001C44F
:201A6000E0D39F40119001C474C8F0FD7FE17E0012447C121E7090020C742EF0E4FD7F1A4B
:201A80001253691253B5124A827C002400F530EC3EF52F7FF67E0012442C9001D9EFF0307F
:201AA000513212449A12449F1244A41244A91244AE1244B390005D74C8F090026BE0440777
:201AC000F0E4FD7F0312536912028F1253B51244B81253B51244BD9000FEE07007530EFEA9
:201AE000C23D8005430E01D23D530EFBAD0E7F097E0012447C9002067426F01244C2E47B79
:201B0000FF7A7FF9F81251BFAE02AF031251B4E4FD7F191253697FEB7E0712442CEFD39433
:201B200064400EE4FD7FEB7E0712447CE4900075F07FEB7E0712442C900075EFF01244C706
:201B40007F537E0212442CEFD3940240057F53121E3590027CE0C394035018900142E06416
:201B6000026004E0B4130CE4900142F0FD7F5FFE12447C3036031244CC30361690007AE009
:201B800070101253B57F507EC31244631253B51244CC7FD87E0312442CBF7B077FD8121E84
:201BA0003DC2617F5F7E0312442CBF0104D2538002C2537F607E0312442C900045EFF07F4F
:201BC000EF7E0212442CBFFF09E4FD7FEF7E0212447C7FA67E0212442C9000A5EFF07FA74B
:201BE0007E0212442C9000B7EFF07F5E7E0312442C900261EFF07F5D7E0312442C90025C3E
:201C0000EFF07F397E0312442CC007E4FFFE12442CAE07D007EE6F60567F39121D75E4FF22
:201C2000FE12447C7F3A121D757F017E0012447C7F3B121D7F7F027E0012447C7F3C121D84
:201C40007F7F037E00121DF28F317F06121EBE7F3E7E0312442C8F317F07121EBE7F3F7E81
:201C60000312442C8F31AD317F087E0012447C7F687E0312442CBFFF0E7F68121E3D7D855E
:201C80007F677E0312447C7F6A7E0312442CBFFF12E4FD7F6A7E0312447C7D337F697E0319
:201CA00012447C7F6B7E0312442CEFF47048F532E4F531E53275F008A4246BFFE5F03403D7
:201CC000FE7C00EF2531FFEC3EFEE532C454F024B7F582E43421F58375F002E531123F1717
:201CE000E4740193FD12447C124A5740C60532E532C3940740BA7F487E0312442CBFFF1F23
:201D0000E4F532E532246BFFE43403FEE532901F3E93FD12447C0532E532C3941040E42299
:201D20001253B5E53025E0FFE52F33FE900151E0FD75F048902545123F17ED2583F583E56B
:201D4000822FF582E5833EF583E493FF74422530F5827401352FF583227F037E0012442C50
:201D60008F31AD317F3C7E0312447CAD317F447E0312447C227E0312442C8F31AD31227E60
:201D80000312442C8F31AD3122AD317E0312447C227E0012442CEF7F00FE227F3E7E0312CD
:201DA000447C22FD7FB87E0212447C22FFE435F0FE7DF412447CE53175F002A4227E00127D
:201DC000442C8F31AD31227F047E0012442CEF22FFE435F0FE12442CEF7F00FE22F59F7520
:201DE0003276AF321253187FE87E031244631253B52212447C7F3D7E0312442C22E4FD7EEE
:201E00000212447C227E0212442CEF22FFE43401FEE4FD12447C0531E531C3227E001244EB
:201E20002CEF22AD317E0312447C227E0012442C8F31AD3122E4FD7E0212447C22E4FD7E9E
:201E40000312447C227E0212442CEF227E0312442CEF22AD0E7F097E0012447C22E5312475
:201E6000B9FFE433FE12442C227E0012442CEF22900123E0FF900139E0FD124C2C227FB8C3
:201E80007E0212442C900122EFF0227FF57E0712442C900124EFF0227F3D7E0312442C900C
:201EA0000130EFF022751800F5177F627E0312442C2290017EF0FD7F9BFE12447C22AD316B
:201EC0007E0012447C22FFE435F0FE12442CEFFD22FFE435F0FE7D0112447C22EFF07FF62E
:201EE0007E0212442C22FD7E0212447C22FD7E0312447C227F097E0012442C8F31227E02F1
:201F000012442CEF227E0012442CEF22C34F4646000000000000C34845415400000000009A
:201F2000C3434F4F4C0000000000C3474153000000000000C34155544F0000000000545370
:201F400054415436434600960055003C002D00230019000F0005FFFBFFF1FFCE0000012C51
:201F60000258038404B005DC0708083409600A8C0BB800113333143C3C00113333143C3CD8
:201F800000000000000000004030100403010002020401030304C0D1CEBBA183674F3D2D48
:201FA0009B19273D5366717065554333261C150F0B0806171B2A3E566068675E5040332858
:201FC0001F17110D0A081E05040505050606060707080808090A0A0B0B0D0D0F1011121589
:201FE0001A1E232324292B2E2F2F2B2824211D1B191715131311100F0F0E20202020202017
:20200000202000202054454D50202000534554504F494E540020494E5055543120002049EA
:202020004E50555432200020494E50555433200020494E50555434200020494E505554351B
:20204000200020494E50555436200020494E50555437200020494E505554382000204D4F8F
:20206000444520202000205553455220202000434F32202070706D0048554D4944495459FA
:2020800000C34C4F46000000000000C34C4F4E000000000000C3504F46000000000000C385
:2020A000504F4E000000000000C34A616E000000000000C3466562000000000000C34D6116
:2020C00072000000000000C3417072000000000000C34D6179000000000000C34A756E00CE
:2020E0000000000000C34A756C000000000000C3417567000000000000C353657000000027
:20210000000000C34F6374000000000000C34E6F76000000000000C3446563000000000011
:2021200000C34D6F6E200000000000C3547565730000000000C3576564200000000000C368
:20214000546875720000000000C3467269200000000000C3536174200000000000C3537542
:202160006E200000000000C34F4646000000000000C32D312D000000000000C32D322D0096
:202180000000000000C32D332D000000000000C34155544F0000000000C34F4E0000000093
:2021A000000000C3484541540000000000C3434F4F4C000000000000200020004F00460075
:2021C0004600200020002000200020004D006F006400650031002000200020004D006F0047
:2021E0006400650032002000200020004D006F0064006500330020002000200041007500B6
:2022000074006F0020002000200020004800650061007400200020002000200043006F00A7
:202220006F006C002000208343414C000000000000837453530000000000008346494C0035
:2022400000000000008341493100000000000083414932000000000000834F727400000049
:202260000000008364414300000000000083624155000000000000836453430000000000FB
:202280000083644348000000000000835050720000000000008350496E000000000000832A
:2022A000534F50000000000000834843000000000000008343646200000000000083486463
:2022C0006200000000000083435F460000000000008346416E000000000000836E4864001C
:2022E0000000000000836E4364000000000000836E5370000000000000836E4853480000BE
:20230000000000836E4353000000000000836E435348000000000083415050000000000003
:202320000083504F5300000000000083504F6E00000000000083504164000000000000839D
:20234000415574000000000000834F5531000000000000834F5532000000000000835348A4
:202360004900000000000083534C4F000000000000834C4F430000000000008364495300BF
:20238000000000000083567474000000000000824E4554574F524B00008344454D414E44A4
:2023A000000000830000000000000000008200000000000000000083000000000000000095
:2023C0000083000000000000000000830000000000000000008200000000000000000082F3
:2023E00000000000000000000081576F726B646179000081576F726B646179000081576FD2
:20240000726B646179000081576F726B6461790000815765656B656E640000815765656BEE
:20242000656E640000815765656B656E640000815765656B656E640000836445460000006B
:20244000000000834641430000000000008341646400000000000083534574000000000014
:202460000083464153000000000000000000000000000000002054454D5F53502020434F25
:20248000325F5350202048554D5F5350202020202020202020002020202020204320002079
:2024A0002020202020462000202020202020252000202020202020524800202020202041D6
:2024C0004D50002020202020204B57002020202020204B4100202020202070706D00434F32
:2024E000415354494E4700434F4F4C494E47000048454154494E47000046414E204F46463B
:20250000000046414E202D312D000046414E202D322D000046414E202D332D000046414E63
:20252000204155544F00050A0A0A0A040A1E04090A0A0A0A0A0A0A6464645B0A640A640330
:2025400064050505001400640005000500FF00FF0001001400C800FF00FF0007000501FFA1
:2025600001FF0001000300FF00FF00FF00FF00FF00FF000100FF00030008000200FF00FF52
:2025800000FF00FF000400060AFF006500020063000C0007001F0017003C003C003C003C27
:2025A000003C003C003C003C003C003C00FF00FF00FF00FF00FF00FF00FF00FF00060006AF
:2025C0000006000600060006000600FF00FF00FF00FF00FF00FF00FF00FF00FF001F001FA8
:2025E000001F001F001F001F001F000300030003000300030003000300030003000300031F
:2026000000030007000700070007000700070007010A00FF05FF05FF000A000A00FF00FF62
:2026200000FF00FF00FF00FF00FF00FF000200FF00FF00FF000100FF000500010003000395
:20264000000300030003000300FF000200010001006400640064006400640064006400644B
:2026600000FF00FF00FF00FF000F000F000200020001000300FF00FF00FF00FF00FF00FF3E
:2026800000FF00FF00FF00FF00FF00FF001400640005000500FF00FF0001001400C800FFE4
:2026A00000FF0007000501FF01FF00010003005F006300FF00FF00FF00FF000100FF00034A
:2026C0000008000200FF00FF00FF00FF000400060AFF006500020063000C0007001F0017CE
:2026E000003C003C003C003C003C003C003C003C003C003C00FF00FF00FF00FF00FF00FF88
:2027000000FF00FF000600060006000600060006000600FF00FF00FF00FF00FF00FF00FF98
:2027200000FF00FF001F001F001F001F001F001F001F0003000300030003000300030003AD
:20274000000300030003000300030007000700070007000700070007010A00FF05FF05FF27
:20276000000A000A00FF00FF00FF00FF00FF00FF00FF00FF000200FF00FF00FF000100FF4E
:202780000005000100030003000300030003000300FF00020001000100640064006400648E
:2027A000006400640064006400FF00FF00FF00FF000F000F000200020001000300FF00FF69
:2027C00000FF00FF00FF00FF00FF00FF00FF00FF00FF00FF0202000000640100003C32012B
:2027E000000A0A00030A0A96002C0100140201000101320F00005A00000000000000000037
:2028000000000000000000000000C800BE00D2000003030303030303E8030A00D007B80BBC
:202820000302010F171813000000000000000000000000000000000000000A050A1E00000A
:20284000000000000100FE0000000000000001000000000000001400000000000000000064
:20286000000001000064010000000101030303030303030303030000020200000064010069
:20288000003C3201000A0A01030A0A8A02200300440201000101633700005A0000000000B1
:2028A0000000000000000000000000000000A8029602BA000003030303030303E8030A0012
:2028C000D007B80B0302010F171813000000000000000000000000000000000000000A28D5
:2028E0000A1E0000000000000100FE0000000000000001000000000000004400000000006C
:20290000000000000000010000640100000001010303030303030303030300000000000031
:202920000000000101090901011102020A0A02021204040C0C0404140141CACC41D2D40047
:2029400041CACC41D2D400000000000000001131030700000000000000000000000000006D
:2029600000000000000000000000000000000000000000000000000009190307000000002B
:20298000000000000000000000000000000000000000000000000000000000000000000037
:2029A0000000091905070000000000000000000000000000000000000000000000000000E9
:2029C0000000000000000000000000000D1D010300000000000000000000000000000000C9
:2029E0000000000000000000000000000000000000000000000000000000000000C1814055
:202A000001C0804101C0804100C1814001C0804100C1814000C1814001C0804101C08041A6
:202A200000C1814000C1814001C0804100C1814001C0804101C0804100C1814001C0804186
:202A400000C1814000C1814001C0804100C1814001C0804101C0804100C1814000C1814066
:202A600001C0804101C0804100C1814001C0804100C1814000C1814001C0804101C0804146
:202A800000C1814000C1814001C0804100C1814001C0804101C0804100C1814000C1814026
:202AA00001C0804101C0804100C1814001C0804100C1814000C1814001C0804100C1814006
:202AC00001C0804101C0804100C1814001C0804100C1814000C1814001C0804101C08041E6
:202AE00000C1814000C1814001C0804100C1814001C0804101C0804100C1814000C0C101C6
:202B0000C30302C2C60607C705C5C404CC0C0DCD0FCFCE0E0ACACB0BC90908C8D81819D965
:202B20001BDBDA1A1EDEDF1FDD1D1CDC14D4D515D71716D6D21213D311D1D010F03031F145
:202B400033F3F23236F6F737F53534F43CFCFD3DFF3F3EFEFA3A3BFB39F9F83828E8E929A5
:202B6000EB2B2AEAEE2E2FEF2DEDEC2CE42425E527E7E62622E2E323E12120E0A06061A185
:202B800063A3A26266A6A767A56564A46CACAD6DAF6F6EAEAA6A6BAB69A9A86878B8B979E5
:202BA000BB7B7ABABE7E7FBF7DBDBC7CB47475B577B7B67672B2B373B17170B050909151C5
:202BC0009353529296565797559594549C5C5D9D5F9F9E5E5A9A9B5B995958988848498925
:202BE0004B8B8A4A4E8E8F4F8D4D4C8C44848545874746868242438341818040026E0270A5
:202C00000272027402760278027A027C027E02800282028402860288028A028C028E029084
:202C2000029202942020557365722020204D65737361676500000000000100010002000260
:202C400000030003000400040005000500060006000700070008000801810009026602B687
:202C60000177000A00F0000E00D7000F000B0010000C0011000D0012000A001302960014CE
:202C8000017D0065017E0066006A0067006E0068006F00690078006A007A006B0094006C26
:202CA0000009006D0065006E0063006F01820070006B007100CB007200CD007300D3007466
:202CC00000D8007500E4007600EE0077008200780178007900E5007A00E6007B00E7007CD9
:202CE00000E8007D00E9007E00EA007F00EB008000EC00810189008201690083016A0084DF
:202D0000016B0085016C0086016D0087016E0088016F00890170008A02B2008B02B4008C6E
:202D200000D4008D0060008E00F7008F00F8009000F9009100FA009200FB009300FC009402
:202D400000FD009500FE009600FF00970100009801010264005D0099005B009A0047009BE9
:202D60000049009C004B009D004D009E004F009F005100A0005300A1005500A2026E00A3BE
:202D8000027000A4027200A5027400A600C900A700CA00A802A000A902A100AA02A200AB1F
:202DA00002A300AC02A400AD02A500AE001B00AF001D00B0001F00B1002100B2002300B30A
:202DC000002500B4002700B5002900B6002B00B7002D00B8002F00B9003100BA003300BBD7
:202DE000003500BC003700BD003900BE003B00BF003D00C0003F00C1004100C2004300C3F7
:202E0000004500C4026700C5026800C6026900C7026A00C8026B00C900B900CA00BA00CBA7
:202E200000BB00CC00BC00CD00BD00CE007B00CF007C00D0018000D1017900D2017A00D375
:202E4000006400D4014200D5014300D6014400D7014500D8014600D9014700DA014800DB68
:202E6000024B00DC024C00DD024D00DE024E00DF024F00E0025000E1025100E2014900E3DC
:202E8000014A00E4014B00E5014C00E6014D00E7014E00E8014F00E9024400EA024500EB98
:202EA000024600EC024700ED024800EE024900EF024A00F0006600F1006700F2008100F3D6
:202EC000018A00F400BE00F500BF00F600C000F700C100F800C200F900C300FA00C400FB64
:202EE00000C700FC00C800FD00D600FE018B00FF018C0100018D0101018E0102018F0103A7
:202F000002AE010402B001050253010602540107025501080257010900DC010A00DD010BF7
:202F200000DE010C00DF010D00E0010E02A6010F02A70110009B011100B2011200B301131F
:202F400000B4011400B5011500B6011600B7011700B80118012601190127011A0128011BA7
:202F60000129011C012A011D012B011E012C011F0103012001040121010501220106012389
:202F8000010701240108012501090126010A0127010B0128010C0129010D012A010E012B91
:202FA000010F012C0110012D0111012E0112012F01130130011401310115013201160133F1
:202FC000011701340118013501190136011A0137011B0138011C0139011D013A011E013B51
:202FE000011F013C0120013D0121013E0122013F012301400124014101250142012D0143AA
:20300000012E0144012F014501300146013101470132014801330149009E014A009F014B06
:2030200000A0014C00A1014D013B014E013C014F013D0150013E0151013F01520140015354
:203040000141015400E1015500E2015600F501570262015802590159006C015A006D015B1A
:203060000095015C0097015D0099015E0076015F007001600071016100720162007401634A
:20308000025B0164025D016500A9016600A70167000F01680011016902A8016A02AA016B6A
:2030A0000077016C007D016D007E016E0262016F0262017002620171026201720262017326
:2030C0000262017400C5017500C601760262017702620178026201790262017A0262017B49
:2030E0000262017C0262017D005F017E00A2017F017B0180006801810069018200A3018313
:2031000000A50184017C018500130186001501870017018800190189017F018A0079018BF8
:20312000007F018C0080018D02AC018E0183018F01840190018501910186019201870193C0
:203140000188019400D9019500CF019600D101970190019800DB01990298019A0299019B08
:20316000029A019C029B019D029C019E029D019F029E01A0029F01A1015001A2015101A3F1
:20318000015201A4015301A5015401A6015501A7015601A8015701A9015801AA015901AB37
:2031A000015A01AC015B01AD015C01AE015D01AF015E01B0015F01B100ED01B2019101B3DB
:2031C000019301B4019501B5019701B6019901B7019B01B8019D01B9019F01BA01A101BB53
:2031E00001A301BC01A501BD01A701BE01A901BF01AB01C001AD01C101AF01C201B101C373
:2032000001B301C401B501C501B701C601B901C701BB01C801BD01C901BF01CA01C101CB92
:2032200001C301CC01C501CD01C701CE01C901CF01CB01D001CD01D101CF01D201D101D3B2
:2032400001D301D401D501D501D701D601D901D701DB01D801DD01D901DF01DA01E101DBD2
:2032600001E301DC01E501DD01E701DE01E901DF01EB01E001ED01E101EF01E201F101E3F2
:2032800001F301E401F501E501F701E601F901E701FB01E801FD01E901FF01EA020101EB11
:2032A000020301EC020501ED020701EE020901EF020B01F0020D01F1020F01F2021101F32A
:2032C000021301F4021501F5021701F6021901F7021B01F8021D01F9021F01FA022101FB4A
:2032E000022201FC022301FD022401FE022501FF022602000227020102280202022902038A
:20330000022A0204022B0205022C0206022D0207022E0208022F02090230020A0231020BE5
:203320000232020C0233020D0234020E0235020F0236021002370211023802120239021345
:20334000023A0214023B0215023C0216023D0217023E0218023F02190240021A00F1021BF7
:2033600000F2021C0083021D00EF021E00E3021F026C0220026D022102760222027802232B
:20338000027A0224027C0225027E02260280022702820228028402290286022A0288022BC9
:2033A000028A022C028C022D028E022E0290022F029202300294023102B6023202B70233AA
:2033C00002B8023402B9023502BA023602BB023702BC023802BD023902BE023A02BF023B35
:2033E00002C0023C02C1023D02C2023E02C3023F02C4024002C5024102C6024202C7024395
:2034000002C8024402C9024502CA024602CB024702CC024802CD024902CE024A02CF024BF4
:2034200002D0024C02D1024D02D2024E0160024F0161025001620251016302520164025398
:20344000016502540166025500F3025800F4025902D5025B02D6025C02D7025D02D8025E7A
:2034600002F2025F02D9026002DA026102DC026202DD026302D3025A02DF026502E0026632
:2034800002E1026702E2026802E3026902E4026A02E5026B02E6026C02E7026D02E8026E94
:2034A00002E9026F02EA027002EB027102EC027202ED027302EE027402EF027502F00276F4
:2034C00002F1027701340278013502790136027A0137027B0138027C0139027D013A027E8D
:2034E00002F3027F02F5028102F6028202F8028302FA028402FC028502FE028603000287C6
:2035000003020288030402890305028A0306028B0307028C0308028D0309028E030A028FF4
:20352000030B0290030C0291030D0292030E0293030F029403100295009C0296009D029743
:2035400003110298031202990313029A0314029B0315029C0316029D0317029E0318029FC3
:20356000031902A0031A02A1031B02A2031C02A3031D02A4031E02A5031F02A6032002A723
:20358000032102A8032202A9032302AA032402AB032502AC032602AD032702AE032802AF83
:2035A000032902B0032A02B1032B02B2024102B3026602B600D502B7032C02B8032D02B9F1
:2035C000032E02BA032F02BB033002BC033102BD033202BE033302BF033402C0033502C14B
:2035E000033702C2034002C3034102C4034202C5034302C6034402C7034502C8034602C96B
:20360000034702CA034802CB034A02CC034C02CD034E02CE035002CF035202D0035402D1AD
:20362000035602D2035802D3035A02D4035C02D5035D02D6035E02D7035F02D8036002D9D8
:20364000036102DA036202DB036402DC036302DD036502DE036702DF036902E0036B02E12C
:20366000036D02E2036F02E3037102E4037302E5037502E6037702E7037902E8037B02E956
:20368000037D02EA037F02EB038102EC038302ED038502EE038702EF038902F0038B02F176
:2036A000038D02F2038F02F3039102F4039302F5039502F6039702F7039902F8039B02F996
:2036C000039D02FA039F02FB03A102FC025F02FD026002FE026102FF03A3030003A4030193
:2036E00003A5030203A6030303A7030403A8030503A903060171FFFF0172FFFF0173FFFF02
:203700000174FFFF0175FFFF0176FFFF03D207D003D307D103D407D203D507D303AA07D409
:2037200003AC07D503AE07D603B007D703B207D803B407D903B607DA03B807DB03BA07DCDD
:2037400003BC07DD03BE07DE03C007DF03C207E003C407E103C607E203C807E303CA07E4FD
:2037600003CC07E503CE07E603D007E703D707E803D607E903D807EA03D907EBC07A125344
:203780009689828A83BB80005003E08002E493D082C582C08212539ED0E022C07AC0E01278
:2037A0005396D0E089828A83BB80005001F080DFC07A12539689828A83BB80005007E0F5C9
:2037C000F0A3E080CAE493F5F074019380C1C07AC0E0125396D0E089828A83BB800050055A
:2037E000F0A3E5F0F08023C07A12539689828A83BB8000500AE0FBA3E0FAA3E0F9800BE4A9
:2038000093FB740193FA740293F9D0E090440073C07AC0E0125396D0E089828A83BB800047
:20382000500AC5F0F0A3C5F0F0A3E8F080DCC07A12539689828A83BB8000500DE0FCA3E026
:20384000FDA3E0FEA3E0FF80C1E493FC740193FD740293FE740393FF80B0C07A12539689B1
:20386000828A83BB8000500BECF0A3EDF0A3EEF0A3EFF08095EC4D6011E8497017ED33EC41
:203880003304600DE4FCFFFEFD22E933E8330470F8023AC5123A9058046009E4CC2481509E
:2038A00006285009023ACF284003023ACCC0E0EB4A7044B98006D0E0FB023ABBEF4E701CD0
:2038C000BD8008EBFFEAFEE9FD80EBE98DF0A4FEE5F002395EE9CDF9EAFEEBFFEF89F0A47D
:2038E000FCE5F0CE89F0A42EFFE435F0CD89F0A42DFEE435F08067EF4E7005BD80D780C3C8
:20390000EF8BF0A4ACF0EE8BF0A42CFCE435F0F8EF8AF0A42CE5F038FCE433CB8DF0A42C56
:20392000FCE5F03BF8EE8AF0A42CFCE5F038F8E433CF89F0A42CFCE5F038CF3400CE89F0C8
:20394000A42FFFE5F03EFEE433C98DF0A42EFEE5F039CD8AF0A42FFFE5F03EFEE43DFD33CE
:20396000D0E0FB50070BBB000F023ACFEC2CFCEF33FFEE33FEED33FD023AA7023ACFEC5DBD
:20398000046005E859047003023AC5123A90580460F6EC4860F2EC7004FDFEFF22C860DB72
:2039A0002481C85009C39860025006023ACC9850CAF582E9294B4A7005AB82023ABB75F058
:2039C000007C1A7880C3EF9BEE9AED99400DC3EF9BFFEE9AFEED99FDE842F0DC23ACF0D0D7
:2039E000E0FFD0E0FED0E0FDAB8220E7101BEB60BAEC2CFCEF33FFEE33FEED33FD023AA7D5
:203A0000E803F830E705C0F075F000EF2FFFEE33FEED33FD40B830E7C280AA75F020800E2B
:203A200075F010800575F0087D007E007F003392D530D503123E4FEC334010EF33FFEE33B3
:203A4000FEED33FDEC33FCD5F0ED22E5F0247EA2D513CC92E7CDCEFF22EDD2E7CD33EC3395
:203A600092D524814006E4FFFEFDFC22FCE4CFCECDCC24E0501174FF80EDC3CC13CCCD134F
:203A8000CDCE13CECF13CF0470F030D5DE023E4FE9D2E7C933E833F892D5EDD2E7CD33EC79
:203AA00033FC5002B2D522EC30E7100FBF000C0EBE00080DBD00040BEB6014A2D5EB13FC72
:203AC000ED92E7FD2274FFFCFDFEFF22E480F8A2D574FF13FC7D80E480EFE709F608DFFA6A
:203AE0008046E709F208DFFA803E88828C83E709F0A3DFFA8032E309F608DFFA8078E309B1
:203B0000F208DFFA807088828C83E309F0A3DFFA806489828A83E0A3F608DFFA8058898238
:203B20008A83E0A3F208DFFA804C80D280FA80C680D4806980F28033801080A680EA809AA8
:203B400080A880DA80E280CA803389828A83ECFAE493A3C8C582C8CCC583CCF0A3C8C58213
:203B6000C8CCC583CCDFE9DEE7800D89828A83E493A3F608DFF9ECFAA9F0EDFB2289828A5D
:203B800083ECFAE0A3C8C582C8CCC583CCF0A3C8C582C8CCC583CCDFEADEE880DB89828AB9
:203BA00083E493A3F208DFF980CC88F0EF60010E4E60C388F0ED2402B4040050B9F582EB55
:203BC0002402B4040050AF2323458223903B2A73BB010689828A83E0225002E722BBFE027E
:203BE000E32289828A83E49322BB010CE58229F582E5833AF583E0225006E92582F8E6223E
:203C0000BBFE06E92582F8E222E58229F582E5833AF583E49322BB010689828A83F0225063
:203C200002F722BBFE01F322EF8DF0A4A8F0CF8CF0A428CE8DF0A42EFE22BC000BBE0029F0
:203C4000EF8DF084FFADF022E4CCF875F008EF2FFFEE33FEEC33FCEE9DEC984005FCEE9D6F
:203C6000FE0FD5F0E9E4CEFD22EDF8F5F0EE8420D21CFEADF075F008EF2FFFED33FD4007E5
:203C8000985006D5F0F222C398FD0FD5F0EA22C2D5EC30E709B2D5E4C39DFDE49CFCEE3020
:203CA000E715B2D5E4C39FFFE49EFE123C3AC3E49DFDE49CFC8003123C3A30D507C3E49F1A
:203CC000FFE49EFE22C5F0F8A3E028F0C5F0F8E582158270021583E038F022BB010A89824B
:203CE0008A83E0F5F0A3E022500687F009E71922BBFE07E3F5F009E3192289828A83E49317
:203D0000F5F074019322BB010A89828A83F0E5F0A3F0225006F709A7F01922BBFE06F3E57D
:203D2000F009F31922EF2BFFEE3AFEED39FDEC38FC22E88FF0A4CC8BF0A42CFCE98EF0A48F
:203D40002CFC8AF0EDA42CFCEA8EF0A4CDA8F08BF0A42DCC3825F0FDE98FF0A42CCD35F00B
:203D6000FCEB8EF0A4FEA9F0EB8FF0A4CFC5F02ECD39FEE43CFCEAA42DCE35F0FDE43CFCFC
:203D80002275F008758200EF2FFFEE33FECD33CDCC33CCC58233C5829BED9AEC99E5829862
:203DA000400CF582EE9BFEED9AFDEC99FC0FD5F0D6E4CEFBE4CDFAE4CCF9A88222B800C144
:203DC000B90059BA002DEC8BF084CFCECDFCE5F0CBF97818EF2FFFEE33FEED33FDEC33FCFC
:203DE000EB33FB10D703994004EB99FB0FD8E5E4F9FA227818EF2FFFEE33FEED33FDEC3397
:203E0000FCC933C910D7059BE99A4007EC9BFCE99AF90FD8E0E4C9FAE4CCFB2275F010EFF2
:203E20002FFFEE33FEED33FDCC33CCC833C810D7079BEC9AE899400AED9BFDEC9AFCE89928
:203E4000F80FD5F0DAE4CDFBE4CCFAE4C8F922C3E49FFFE49EFEE49DFDE49CFC22EB9FF53F
:203E6000F0EA9E42F0E99D42F0EC6480C864809845F022EB9FF5F0EA9E42F0E99D42F0E8AC
:203E80009C45F022E6FC08E6FD08E6FE08E6FF22E0FCA3E0FDA3E0FEA3E0FF22E6FB08E617
:203EA000F908E6FA08E6CBF822E0F8A3E0F9A3E0FAA3E0FB22ECF608EDF608EEF608EFF637
:203EC00022ECF0A3EDF0A3EEF0A3EFF022D083D082E493F608740193F608740293F60874A4
:203EE0000393F6740473A8828583F0D083D082123EFD123EFD123EFD123EFDE473E493A3DF
:203F0000C583C5F0C583C8C582C8F0A3C583C5F0C583C8C582C822A42582F582E5F0358365
:203F2000F58322E0FBA3E0FAA3E0F922EBF0A3EAF0A3E9F022D083D082F8E49370127401F0
:203F400093700DA3A393F8740193F5828883E4737402936860EFA3A3A380DFD083D082F8FA
:203F6000E4937012740193700DA3A393F8740193F5828883E473740293B5F00674039368EB
:203F800060E9A3A3A3A380D88A838982E473E4FBF52DF52E9000ECF0EBFF3395E0FEEF78FE
:203FA00002C333CE33CED8F9247BF58274003EF583123EE6000000000BBB03DCD20F125308
:203FC000B5C26090007A7463F0E4900125F09000EBF075D802F52DAF2DEF3395E0FEEF254E
:203FE000E0FFEE33FE74B92FF58274003EF583E4F0A3F0052DE52DB408DDE4900087F09007
:20400000025DF090005D74C8F090004F7405F0124B609000247404F0124422121122124404
:2040200027C2487FD87E0012442C7E007C007D3C123C28900022EEF0A3EFF07FD87E0712CF
:20404000442CBF6302C23F9002097429F09002077427F090020C742EF090020A742CF0A380
:2040600004F09002087428F0E4900012F0A3F0A3F0900016F0A3F0D233D23B90005EF0A3CE
:20408000F0900141F0900233F0A3F0C222F50CC296C297900074F090008FF01244311244B0
:2040A000361253B530422DC2429000F4E0D39400400AE014F0E0700490008CF09000FCE048
:2040C000D394004003E014F03029099000FCE0700312443BE50CD3942750030241FC3060DF
:2040E000069002EAE004F09002EAE0D3941E4004C260E4F0E4F50CD258900125E0D3940043
:204100004005E014F08002C25520535A303D0B9001D6E0700E12444080099001D7E07003F9
:204120001244459001D6E0B40208A3E0B402030241A59001D6E0B40108A3E0B40103024139
:20414000969001D6E0B4020A203D2DA3E070290241A59001D7E06402704E303D2A9001D6CA
:20416000E070240241A5900045E0FF12444A124228500A1242344005124440802B12423423
:20418000500A1242284005124445801C124240400A12424C400512444F800D1242405008EC
:2041A00012424C5003124454E4900232F0900232E0FFC36480949E5043EF3395E0FE74139F
:2041C0002FF58274023EF583E06029900232E0FD3395E0FC124A4314F0124A43701674F231
:2041E0002FF58274013EF583E0F52DF52EAF2E7E00124459900232E004F080B190009BE0EB
:20420000700302409B14F0E02410F582E43402F583E0F50D24E6F582E43401F583E0F52E36
:20422000FF7E0012445980D47B017A0079457D0512445E227B017A0079457D0612445E22E5
:204240007B017A0079457D0512445E227B017A0079457D0612445E2241009A00C11CC1527A
:20426000C12EC11AC14942001B03E7C15541027B014202630000C1B8C1C6C126C145C119E0
:20428000C14441009B00C131C11DC1B5C13EC129C14AC157C1A442026C0000C1534100453C
:2042A00000C1394100EC00C15841024B00410122004100F501410130FE42025A0000C13492
:2042C00043011B010101C11F4100A5004100B700C14CC13C41001A00410140000120FF01B6
:2042E00022FFC11B4202970000C13741027700410296004200FA000002130000C13FC12128
:2043000041008C000121FFC154420062000041007300C11EC12CC147C1AB4100FDFF420083
:204320004200004102610041025C004100B6084100B808C118C140C14D4200710000028DCE
:2043400000C842006F0000410046010685000000000000C12F4200F600004200E500004C36
:20436000007B000000000000000000000000430066323232C1304102F500021B012CC162ED
:2043800002190E10011F00021D0BB84202F300004102E9004C02DD00000000000000000054
:2043A0000000004102F6004202F10000C1604102EA00C1614202EF00004202EB0000420279
:2043C000ED000002720000027402D24102DA004102D7004202D803E84202D501F44202CBD7
:2043E00001904202D300C84102D1324202CF015E4202CD00B44202C900004202DB00DC00C8
:20440000C07A7444C0E0C082C083757A0A53BFF722C07A7444C0E0C082C083757A1B43BF3E
:20442000082290CBFD810090D1D38100908BC281119085B4811190CB2D8100908B638111E1
:20444000908F5A8111908F648111908F0B8111908F788111908F6E811190540E810090E451
:20446000DC810090E5E38100908E4881119000B5811190B9B4810090C49B8100908E978113
:2044800011908417810090CFB2810090E558810090000E8100908BB7810090000381119058
:2044A000E36381009001F08111908E648111908426811190E19681009069908100908ED3BF
:2044C000811190DC4D8100908994811190DDE6810090D87D8100908EFE8111908C17811124
:2044E000908F8C8111908DCB8111908DEB811190873D8111908F2E8111908F398111908D9F
:20450000848111908EE28111908D5E8111908AFF8111908E2B8111908E7E8111908C548141
:204520001190E50E810090C5A9810090DB6A810090AA5F810090E597810090DD84810090E8
:20454000E584810090BB07810090964F810090CD7D810090A46C810090E540810090E52859
:20456000810090E3B8810090DF67810090CA56810090E21A810090D97E810000C0E0C0F0C1
:20458000C083C082C0D075D000C000C001C002C003C004C005C006C007209803024687D249
:2045A00039D22CC29890008CE0C394195013E0FF04F0747D2FF582E43402F583E599F080B1
:2045C000031244D690008CE0FFB401079000E77408802DEF6404703490027FE0FEA3E07C6C
:2045E000002400FFEC3EFEEF640A4E600302468E90027EE06406600302468E9000E7740C02
:20460000F090009DE09000F4F002468E90008CE0FFB4061890027EE0B41911900027E09091
:2046200000FCF09000E7EFF0D229806290008CE0FDB4071490027EE064107052900283E078
:2046400024099000E7F080469000E7E06D703F90027EE0FF6403600AEF64066005EF6410AC
:20466000702C9000F4E4F01244DB500E900027E09000FCF0D21ED2298014C22990027874BC
:2046800001F01244D68007309904C299D225D007D006D005D004D003D002D001D000D0D01B
:2046A000D082D083D0F0D0E0328F438D44EFFE7C00E42DFFEC3E9002A9F0A3EFF07F7E7E45
:2046C0000012442CEF75F00AA4FFC39002AAE09FE5F06480F89002A9E064809850047F7E40
:2046E00080237F7D7E0012442CEF75F00AA4FFD39002AAE09FE5F06480F89002A9E06480DC
:204700009840187F7D7E0012442C7E007C007D0A123C289002A9EEF0A3EFF09002A9E0FC04
:20472000A3E0FDECFF3395E0EFA3F0EDA3F07F997E0012447C9002ABE0FD7F9A7E001244F5
:204740007C7F717E0012442CAD077C00E543FE7A00E42544FFEA3ECF2DCF3C9002A9F0A3D4
:20476000EFF09002A9E0FCA3E0FDECFF3395E0EFA3F0EDA3F07F747E0012447C9002ABE0CE
:20478000FD7F757E0012447C7F707E0012442CAD07E543FE7A00E42544FFEA3ECFC39DCF23
:2047A00094009002A9F0A3EFF09002A9E0FCA3E0FDECFF3395E0EFA3F0EDA3F07F727E001D
:2047C00012447C9002ABE0FD7F737E0002447CC0E0C0F0C083C082C0D075D000C000C00190
:2047E000C002C003C004C005C006C007C2CF1253B590001E123E90EF2401FFE43EFEE43D91
:20480000FDE43CFC90001E123EC130332F1253D5E4FD90001E123EA9D3123E73401E7D01FA
:20482000E4FF1244D17D017F011244D190001E123EE600000000C233789176007891E6649E
:20484000017065D3788CE6940018E664809480402E08E61618700116900249E475F00112F3
:204860003CC51253D5D390024AE09FEE6480F8900249E06480984030EEF0A3EFF08029C392
:20488000788BE664809480501F0806E618700106D390024AE09400900249E064809480402F
:2048A0000774FFF5F0123CC5D007D006D005D004D003D002D001D000D0D0D082D083D0F0E5
:2048C000D0E032EF14B4080040030249A69048DB75F003A4C58325F0C583730248F30249A4
:2048E0000C02492502493E02495702497002499602499A7F5A7E0212442C7555008F56E521
:2049000056755600F5557F597E02807B7F967E0012442C7555008F56E556755600F5557F46
:20492000957E0080627F987E0012442C7555008F56E556755600F5557F977E0080497F9AF6
:204940007E0012442C7555008F56E556755600F5557F997E0080307F757E0012442C755554
:20496000008F56E556755600F5557F747E0080177F737E0012442C7555008F56E556755653
:2049800000F5557F727E0012442CEF2556F556E43555F55580107F7E80027F7F7E0012448E
:2049A0002C7555008F56AE55AF5622E53025E0FFE52F33FE900151E0FD75F048902544121D
:2049C0003F17ED2583F583E5822FF582E5833EF583E493FF74422530F5827401352FF58300
:2049E00022EFF0E530245FFFE4352FFE22F5837401F0A374F4F0E53175F002A42274132FE6
:204A0000F582E43402F58322E53125E02450F582E4340222E53125E024A6F582E434002293
:204A200074112531F582E43401F5832274FF2531F582E43400F58322E090005AFFE4F0A33F
:204A4000EFF02274132DF58274023CF583E0227C002400FFEC3E220531E531C394082290B6
:204A6000017E7404F0FD7F9B7E0022C3ED9FEE6480F8EC64809822F583E0FEA3E0D394E8CD
:204A8000EE22900123E0FE900139E0222020416464202020005741524E494E470045325F13
:204AA0006572726F720041555800504952002053595354454D200020204D4F444520200029
:204AC000536574706F696E740044454D414E44004E4F0059455300554E495453002D462D16
:204AE000002D432D004B455950414400324100344100364100364200344200324200324325
:204B000000364300344300464143204445460053415645204445460043414C204441430016
:204B20004241554452415445002020200020202020004F56455252414E470020204D4F44C9
:204B400045004155544F0020434F4F4C494E47002048454154494E4700000000000000008C
:204B600043BF01D290D2A47F107E271244631253B512446812446D1253B590013A7401F088
:204B8000E490006AF0A3F09000E8F0900050F0900015F0900121F09000E1F090012FF043F1
:204BA000BF02D2DB75985075892175CDDCF5CC75CBDCF5CAC2CDC2CCC2CBC2C9C2C8C2CA06
:204BC000D2AD758DFD758BFDF58A758C80D28ED28CD2A9D2ACD2AFD2B9D2BC1244721253DC
:204BE000B590027CE0D3940350037521FFE49001BDF07F65FE12442CEF600B7587809000D4
:204C00009D7403F08009E4F58790009D7406F01244777F827E0012442CBF0108D24AD292FA
:204C2000430E8022C292C24A530E7F228F438D44EFFE7C00E42DFFEC3E9002A9F0A3EFF02C
:204C40009002A9E0FCA3E0FDECFF3395E0EFA3F0EDA3F07F597E0212447C9002ABE0FD7F65
:204C60005A7E0212447C7F6C7E0012442CEFFDE543FE7A00E42544FFEA3ECF2DCF3400900E
:204C800002A9F0A3EFF09002A9E0FCA3E0FDECFF3395E0EFA3F0EDA3F07F957E0012447C67
:204CA0009002ABE0FD7F967E0012447C7F6D7E0012442CEFFDE543FE7A00E42544FFEA3E89
:204CC000CFC39DCF94009002A9F0A3EFF09002A9E0FCA3E0FDECFF3395E0EFA3F0EDA3F069
:204CE0007F977E0012447C9002ABE0FD7F987E0002447CE0FCA3E0FDAB07ECFF3395E08FAD
:204D000048EDF549EB14B408004003024DAB904D1C75F003A4C58325F0C58373024D340286
:204D20004D45024D56024D67024D78024D89024D9A024DA2AD487F5A7E0212447CAD497F78
:204D4000597E028063AD487F967E0012447CAD497F957E008052AD487F987E0012447CADDA
:204D6000497F977E008041AD487F9A7E0012447CAD497F997E008030AD487F757E0012443E
:204D80007CAD497F747E00801FAD487F737E0012447CAD497F727E00800EAD497F7D7E00F7
:204DA0008006AD497F7E7E0012447C228D43EE6003024E61EF24FE603014605614607624BD
:204DC000036003024E617F011248C39002A9EEF0A3EFF0E02543F09002A9E03400F07F028C
:204DE000124CF3AD437F6C80737F011248C39002A9EEF0A3EFF0C39543FFEE9400FE9002B0
:204E0000A9F0FCA3EFF0FD7F03124CF8AD437F6D804A7F041248C39002A9EEF0A3EFF0E0E5
:204E20002543F09002A9E03400F07F05124CF3AD437F7180277F041248C39002A9EEF0A323
:204E4000EFF0C39543FFEE9400FE9002A9F0FCA3EFF0FD7F06124CF8AD437F707E00124425
:204E60007C228F438D447F041248C39002A9EEF0FCA3EFF0FDE543FE7A00E42544FFEA3EA9
:204E8000FEA3F0A3EFF0D39DEC6480F8EE648098504C9002A9E0FEA3E0FF9002ADEEF0FC0D
:204EA000A3EFF0FDE543FEC3ED9400FFEC9EFEC3EF9544FFEE9400FE9002ADF0A3EFF08E39
:204EC00045F546AD447F727E0012447CAD437F737E0012447CAD467F707E0012447C22D3C7
:204EE00090006BE0948F90006AE09401402FE4F0A3F0900015E004F0E0D3941440093040E2
:204F000006C240E024FEF0D3900298E09400900297E09400400774FFF5F0123CC590001532
:204F2000E0D3943B400FE4F0900050E004F0E054077002D240900050E0D3943B4008E4F0DB
:204F40009000E8E004F09000E8E0D394174006E4F0D221D21B228F438D447F041248C39040
:204F600002A9EEF0FCA3EFF0FDE543FE7A00E42544FFEA3EFEA3F0A3EFF0C39DEC6480F8DE
:204F8000EE64809840467F041248C39002ADEEF0FCA3EFF0FDE543FE7A00E42544FFEA3ED5
:204FA000CFC39DCF9CFE9002ADF0A3EFF08E45F546AD447F747E0012447CAD437F757E0004
:204FC00012447CAD467F717E0012447C228F438D447F011248C39002A9EEF0FCA3EFF0FDD6
:204FE000E543FE7A00E42544FFEA3EFEA3F0A3EFF0C39DEC6480F8EE64809840437F0112E3
:2050000048C39002ADEEF0FCA3EFF0FDE543FE7A00E42544FFEA3ECFC39DCF9C9002ADF010
:20502000A3EFF0F545AD447F957E0012447CAD437F967E0012447CAD457F6C7E0012447CDD
:20504000228F438D447F011248C39002A9EEF0FCA3EFF0FDE543FE7A00E42544FFEA3EFE48
:20506000A3F0A3EFF0D39DEC6480F8EE648098503DE543FEC39002AAE09400FF9002A9E039
:205080009EFEC3EF9544FFEE94009002ADF0A3EFF0F545AD447F977E0012447CAD437F981F
:2050A0007E0012447CAD457F6D7E0012447C22C0E0C0F0C083C082C0D075D000C000C00125
:2050C000C002C003C004C005C006C007050C758A04758CF790006AE475F001123CC5D242BE
:2050E000900163E0B4061220340F20550C90009074FFF0A3F0A3F0A3F0124EDFD007D00604
:20510000D005D004D003D002D001D000D0D0D082D083D0F0D0E0328E458F467F6C7E001296
:20512000442C8F47AD46AC457F01124CF87E00E5462547FFEE3545FE90029FF0FCA3EFF056
:20514000FD7F02124CF87F6D7E0012442C8F477F011248C390029FEEF0A3EFF0C39547FFED
:20516000EE9400FE90029FF0FCA3EFF0FD7F03024CF8AC76AD77AE78AF797810EC4D4E4F59
:2051800070047CA57DA5C3EC13FCED13FDEE13FEEF13FF5010EC64CCFCED644CFDEE644EEB
:2051A000FEEF64CEFFD8DF8C768D778E788F79EE547FFE228E768F7774A5F578F57922C243
:2051C000D5E830E70FB2D5E4C39BFBE49AFAE499F9E498F8EC30E717B2D51251F5123DBDC1
:2051E000E4C39BFBE49AFAE499F9E498F88003123DBD30D50DE4C39FFFE49EFEE49DFDE448
:205200009CFC228F458C468D47C2AF9001BDE0B4011DAE46AF471252F45014AE46AF471247
:20522000530D400BE42547F54774FE3546F546125300E546F5F48547F58545F675F780D257
:20524000AF7F00228E468F478B488A49894A9001BDE0B401191252F45014AE46AF471253D4
:205260000D400BE42547F54774FE3546F546854782854683E493AB48AA49A94A123C167F53
:205280000122000000000000000000000000000000000000000000000000000000000000EB
:2052A00000000000000000000000204821900146E0601BE4FD7F14125369D248900146E020
:2052C00075F03CA4FF900297E5F0F0A3EFF022E4F5437F107E271244631253B50543E54365
:2052E000C3940A40ED7B007A0279008B088A09890A023F88E4FCFDFB7AECF9F8D3023E5D8F
:2053000075F65575F6AA75F65543BF0422E4FCFD7BFF0AF8C3023E5DC2AF9001BDE0B401C3
:2053200004BF76011F125300EF25E0F5F4E4F5F575F782D2AF2290009BE0C394035010E0CE
:20534000FE04F074102EF582E43402F583EFF022202020202020202000726573746172749A
:205360005F00696E672E2E2E00ED700CEF90252693FE1249FDEEF0221249FDEDF022305C07
:20538000047F0180027F041248C38E538F54AE53AF5422EF8004EB14543F9053A29390448C
:2053A00000730A1B7761726E696E670045325F6572726F720075971E7597E1E4F59F7597C4
:2053C000E175971E2275971E7597E1759FA77597E175971E22900164E0FF7E007C007D64E6
:2053E000023C284552524F52004E4F2050494300E4FF1249FDE4F00FBF1EF722EE30E70704
:20540000C3E49FFFE49EFE221249FDE4F022C259EF123F35549F0054A50155910255780322
:2054200055850455970555720655170754F30954F90A54FF0B55050C550B0D55110E551D9F
:205440000F554310554811554E12555413555A14556015556916558B1755CD1A55D31B554A
:20546000DF1C56031D56271E564B1F566E2056912156B42256D82356EB24571925574D2633
:20548000579C2757B82857BE2959EB2C5A3C2D559D2E55B02F55BA3055C43100005E681295
:2054A00053B50244AE1253B530221490006DE004F0E0D394354008E4F090025A1276FB9008
:2054C00001BEE0B403047F0280027F0112CCBE301D1ED3900267E09400900266E0940040FC
:2054E0000F1279FB900266E07002A3E07002C21D0244EF1253B502D7F61253B502C7BA122C
:2055000053B502BFFD1253B502C89B1253B502CE3C1253B502D0691253B502BEC690016238
:20552000E0FF6003B40405C23702E300900162E0FF64026008EF64036003025E6812E30078
:20554000D237221253B580271253B502C25D1253B502BC4B1253B50299701253B502930825
:205560001253B5127BBB029C6B1253B5127BBB02E4B71253B502E5A91253B5E4FD7F031288
:20558000536902028F1253B502E56E1253B502E3631253B50269901253B5027FFA1253B527
:2055A000304906302B0312B5A1E4FD7F1A025E65E568FD7C00AF6902C6B5E568FD7C00AF97
:2055C0006902C384A263925BAF6902D47E1253B502A46C1253B59002787403F002443B1271
:2055E00053B5900051E0D394004003E014F0900051E070081276677D010256CEE4FD7F0A1E
:20560000025E651253B5900052E0D394004003E014F0900052E070081276677D030256CE8C
:20562000E4FD7F0B025E651253B5900053E0D394004003E014F0900053E070081276677D28
:20564000050256CEE4FD7F0C025E651253B5900054E0D394004003E014F0900054E0700747
:205660001276677D078067E4FD7F0D025E651253B5900055E0D394004003E014F09000554C
:20568000E070071276677D098044E4FD7F0E025E651253B5900056E0D394004003E014F0D9
:2056A000900056E070071276677D0B8021E4FD7F0F025E651253B5900057E0D394004003D6
:2056C000E014F0900057E070081276677D0D02DEA8E4FD7F10025E651253B5E4F52F7A00D5
:2056E0007942125E9C127A0240F4221253B590005C127A0A401CE4F0F52F12798214F012EC
:20570000798270097A00794A125E9C8005127A0240E8E4FD7F12025E651253B59000351269
:205720007A0A4022E4F0F52F12798F14F012798F700F7B017A007925C25FAD2F12DEA8802B
:2057400005127A0240E2E4FD7F13025E651253B5900146E0603F30483CE4FF12DA78925906
:20576000305932C248303D03303C21C23CC23D9001C6E0700B90015CE064067003025E6846
:20578000E49000FE12772E1278B78006430E101276D702447CE4FD7F14025E651253B57EC6
:2057A00000125ECB6003025E68FE125ECB6003025E68439B30F5A3221253B5D231221253B3
:2057C000B5D3E51C9400E51B94004008E51C151C7002151B7F647E0312442CEF6065E51A63
:2057E000151A70021519E51A4519705775190E751A10151FE51F704B7F647E0312442C8F13
:205800001FD3E51E9490E51D648094814015E51E2470FFE51D34FEFEC3E49FF518E49EF58D
:2058200017800DC37490951EF5187401951DF517AD187F637E0312447CE518FD7F627E03B4
:2058400012447CD3900063E09400900062E0940040031279FB900062E07002A3E07002C212
:2058600054302B030259267FEF125ED270030259267F687E0312442C90029B127A9190028B
:205880009BF07F677E0312442C90029BE48FF0123CC57F6A7E0312442C90029D127A919029
:2058A000029DF07F697E0312442C90029DE48FF0123CC590029BE0FEA3E0FF9000FAE0FCD6
:2058C000A3E0FDD39FEC9E500C90029D12799CED9FEC9E5025D23D430E017FF67E02124463
:2058E0002C7E00C006C0077FF5125ED2FDD0E02DF514D0E03400F5138023E51415147002B5
:205900001513E51445137007C23D530EFED296C3E513648094805005E4F513F5149000FA4A
:20592000A3E0900277F07FD87E0012442CEF70030259E2301E167FD87E0012442C7D3C126F
:20594000776C900022EEF0A3EFF080069000221279FB900022E07002A3E060030259E2303D
:205960001E030259E21278C11276D712447C12773812447C7F537E0212442CBF010BE490A7
:2059800001B9F0FD7FD6FE80567F537E0212442CEF6402704D9001B974FFF0FD7FD67E00D4
:2059A00012447C7F547E0212442CAD077FF67E0712447C7F147E0012E5E39000997FFA1221
:2059C0005EB090009E7FF9125EB090009CE0FD7FF87E0712447C9000A4E0FD7FF77E0712FE
:2059E000447CC21EE4FD7F17025E651253B5900121127A0A403FE4F09000E1E0D39400401E
:205A000003E014F09000E1E0702BD20FC25AE521F4F52F532FDFE4900140F0205A17AF2F23
:205A200012DB6A925A900140E004F0E0D3943240EAD25A80E6E4FD7F18025E6520300302B7
:205A40005E5E3054147A4A798C125EB8900130E0FF7E0012DFC0025E5E1253B59001D4E015
:205A6000700D1244F41244F9E4FD7F19025E659001D4E0C3940140599002E9E09403500555
:205A8000E004F0804CE49002E9F07FB87E0212442C900122EFF0D3941940037401F0900193
:205AA00022E0FF602C9000F5E024FFF582E43400F583E090027BF09000F5E004F0EF12771C
:205AC000C8127A9C40037401F090027BE09001D4F0900163E0C394064003025E58E4FF12CB
:205AE000D11F9001D4E0640C703CF52F1279A32491125E692492125E8240F1E4F539FB7A15
:205B00000079317F811244E5E4F52F1279A32499125E69249A125E8240F17B007A00793154
:205B2000125EA6025E659001D4E0640D6003025D1F7F081244FEEF1245038F3AE53AD39480
:205B4000634003753A0F7F071244FEEF541FFF1245038F3BE53BD3940C4003753B017F0676
:205B60001244FEEF5407FF1245038F3CE53CD394074003753C017F05125EC08F3DE53DD36A
:205B8000941F4003753D01E53B123F355BB4015BBB025BC6035BCB045BDB055BE5065BF56F
:205BA000075BFF085C09095C120A5C220B5C320C00005C3D744A1278F18033744612777338
:205BC0007462F0025C3D1278EF80099000917441F0A37470F0A37472F080621278EFF0A3BE
:205BE0007479F08058900091744AF0A37475F0A3746EF08048744A12785C746CF0803E74C2
:205C00004112785C7467F08034745312777374708009900091744FF0A37463F0A37474F0F5
:205C2000801B900091744EF0A3746FF0A37476F0800B90009174441277767463F0E53B9029
:205C40000090B409157420F0900095742EF0E53D1274E2E53D12737180177420F0900094C6
:205C6000742EF0E53D1274E2E53D127371A3742CF01274477F811244E59000907432F0A35C
:205C80007430F0E53A1274E2E53A127371A3742CF0E53C123F355CAF015CBA025CCB035C50
:205CA000DA045CEB055CFB065D0B0700005D16900095744DF0A3746F801A9000947454F0A9
:205CC000A374751277767473F0804B9000957457F0A37465F0A314F0803C9000947454F00C
:205CE000A3746812785F7472F0802B9000957446F0A37472F0A37469F0801B90009574537C
:205D0000F0A37461F0A37474F0800B900095745312785F746EF0127447125EA6025E659046
:205D200001D4E0640E70737F04125EC08F3E7F031244FEEF547FFF1245038F3F7F02124443
:205D4000FEEF1245038F40127642A3F0A37454F0A37469F0A3746D1277767420F012744533
:205D60007F811244E5E53E127746E53E127371A3743AF0E53F1274E2E53F127371A3743AA5
:205D8000F0E5401274E2E5401273711274477FC11244EAE4FD7F19025E659001D4E0B40FD8
:205DA000137A20796F125EB87F0F12B156E4FD7F19025E659001D4E0B410177BFF7A207994
:205DC000787F811244E57F1012B156E4FD7F19025E659001D4E0FFC39403405EEFD3940A8E
:205DE0005058900135741AF0EF24FDF530E4F52F1279A324A912767E12442CE52F25E024BA
:205E000031F8A6071279A324AA12767E12442CE52F25E02432F8A607052FE52FC394044031
:205E2000CFE531B4FF05E532F4600FE533B4FF0280087B007A00793180129001D4E075F01B
:205E400009A424FAF9741F35F0FA7BFF7F811244E5E4FF12A68780061244F41244F912A420
:205E60006CE4FD7F1912536922FFE5F03401FE12442CE52F25E02431F8A607E52F75F00236
:205E8000A422FFE5F03401FE12442CE52F25E02432F8A607052FE52FC39404227B01C25F3D
:205EA000AD2F12DEA8227FC11244EAE4FD7F1922E0FD7E0712447C227BFF7F811244E52204
:205EC0001244FEEF543FFF124503227F0812442CEF227E0212442CEF228F5390014EE0148F
:205EE000605C147003025F71147003025FBA147003026016147003026075240560030260A0
:205F0000C0E512B406030260959000FEE0FF64056005EF6406701F7F0112DE479000FEE0CE
:205F20001289ADB405081268C6D25F0260BB1268B8C25F0260BBAF5312DE470260C07F017F
:205F400012DE471289AD302D071268C6D25F80051268B8C25FE4FD12DEA890004FE0D39476
:205F60000050030260C0E014F01289ADC25F02609A9001ADE0B4051490002AE07004A3E0E7
:205F800064017004D25D801DC25D80199001ACE0B40512900028E07004A3E064017004D282
:205FA0005D8002C25D1289AD305D0712690BD25F80051268D4C25F0260BB7B017A0179B718
:205FC0007D0212E4DC4006D256A256925C9001ADE0B4051490002AE07004A3E064017004C7
:205FE000D25D801DC25D80199001ACE0B40512900028E07004A3E064017004D25D8002C25A
:206000005D1289AD205D0712690BD25F80051268D4C25F0260BB900028128B3DA3EFF07803
:206020008EE624F6FD18E634FFFCC3EF9DEE9C501B1289ADD25FE4FD12DEA8128AC7E4FD2E
:2060400012DEA890012F7402F00260C0788EE6240AFF18E436128AE840131268A4D25FE40B
:20606000FD12DEA890012F7401F00260C0E490012FF00260C090002A128B3DFCA3EFF0FD7F
:206080007A00128AF5EA3ECF24F6CF34FFFEC3ED9FEC9E500F1289ADD25FE4FD12DEA812A8
:2060A0008AC780177C00128AF5EC3ECF240ACF3400128AE8400A1268A4D25FE4FD12DEA82B
:2060C00012885EFF70161289FBF5837464F01288E7F583E0FE12892AEEF08027EFB406069D
:2060E00012892AE4800E12885E1288E6128850FF12892AEFF01288E7F583E0FF1289FBF501
:2061000083EFF012892A1289A612882DFEC39F400C1289FBF583E0FFEED39F403390015CF7
:20612000E0FF64026006EFD39404502A1268F0500D1289FB1289A412882DC39F401212694E
:206140006C501312892A1289A612882DD39F4006128B2302648A12696C400302630AE4902E
:2061600002AEF0128B2B7442128A70FD9002AEE0FCC39D50171288662C1288E6128850FF80
:2061800074B02C12894EEF128AB080D7E49002AEF0128B2B7442128868128AD0500CED2FBC
:2061A00012894C7402128AB080E774E2255312882DFFD3940350139002AEEFF074E2255381
:2061C000F582E43400F5837403F09002B5E024FEFF74E2255312882DFEC39F5009740F2513
:2061E00053F8760680479002B0E0FFEED39F4005128B238038E49002AFF09002AFE0FFC3DB
:206200009404502912899C12882DFED39F4016128947E024FEFDEEC39D500AEF04FF740FAB
:206220002553F8A6079002AFE004F080CD9002B012896F12882DFDC39E4011EDD39F500C62
:206240001288C564016005EF600276019002B112896F12882DFDC39E4013EDD39F500E12B9
:2062600088C564016007EF6402600276029002B212896F12882DFDC39E4013EDD39F500E53
:206280001288C564026007EF6403600276039002B312896F12882DFDC39E4013EDD39F502B
:2062A0000E1288C564036007EF6404600276049002B412896F12882DFDC39E4013EDD39F49
:2062C000500E1288C564046007EF6405600276059002B512896F12882DFDC39E4013EDD374
:2062E0009F500E1288C564056007EF64066002760674E2255312882DB4030F9002AE128905
:20630000A6F582E43400F583EFF01268F0400302648AE49002AEF012885EFF9002AEE0C366
:206320009F5014E01288E6128850FE74B02F12894EEE128AB080E0E49002AEF012885E121E
:206340008AD0500CED2F12894C7466128AB080EC9002B5128B67255312882DFDD39FEE12F9
:2063600088944009740F2553F8760C804D9002B0E0FFEDC39F5005128B23803EE49002AF0E
:20638000F09002AFE0FFC39404502F12899C12882DFEC39F501C128947E02402FDE433FC51
:2063A000EED3128892400BEF2407FF740F2553F8A6079002AFE004F080C774E22553128828
:2063C0002D9002B0128A5A4011128889500C1288C564076005EF6002760774E22553128823
:2063E0002D9002B1128A5A4013128889500E1288C564076007EF64086002760874E2255329
:2064000012882D9002B2128B024013128889500E1288C564086007EF64096002760974E239
:20642000255312882D9002B3128B024013128889500E1288C564096007EF640A6002760AF3
:2064400074E2255312882DFF9002B4E0FEEFC39E4013128889500E1288C5640A6007EF64D9
:206460000B6002760B74E2255312882DFF9002B5E0FEEFC39E4013128889500E1288C5648E
:206480000B6007EF640C6002760C12880EE0FF74542553F8A60790026312693C504D126818
:2064A000E2404812880EE07039740F2553F8E6D39406401090002512693C400812880E74DB
:2064C00007F080241288C5D39400401CEF9407501790004AE0FEA3E0FFAD5312E50E400887
:2064E000800012880EE004F01268FD900263E0FEA3E0FFE5532403FD12E50E50251268E2A2
:20650000402012880EE0FFB4070712880EE4F08009EF600612880EE014F01289DBC25F1243
:20652000DEA8740F2553F8E6123F3565530165740265A00365CE0465FF05663006665607DB
:20654000666E0866930966BF0A66EC0B671E0C0000674E12880EE0FFD3940050030266BA28
:20656000EF940740030266BA126827E0FFAB537D0102670112880EE0FFD394014011EF9403
:2065800007500C126827E0FFAB537D0202670112880EE0B40105C25E026747D25E0267473F
:2065A00012880EE0FFD394024011EF9407500C126840E0FFAB537D0302670112880EE0FFAC
:2065C00064026035EFB401030266B50266BA12880EE0FFD394034011EF9407500C126840F8
:2065E000E0FFAB537D0402670112880EE0FFC394034009EFD3940150030266B50266BA12AE
:20660000880EE0FFD394044011EF9407500C126859E0FFAB537D0502670112880EE0FFD36D
:2066200094045009EFC3940140030266B50266BA12880EE0B406091268597406F002676E41
:2066400012880EE0FFD394055009EFC3940140030266B50266BA12880EE0D39406400C12D2
:206660006872E0FFAB537D070267010266BA12880EE0D39407400C126872E0FFAB537D08C3
:2066800002670112880EE0B40704C25E8002D25E02674712880EE0D39408400C12688BE09F
:2066A000FFAB537D0902670112880EE0FF64086004EFB40705C25E026747D25E0267471225
:2066C000880EE0D39409400B12688BE0FFAB537D0A802E12880EE0FFD394094005EF9407AC
:2066E0004005C25E026747D25E02674712880EE0D3940A40121268FD12880EE0FFAB537DE1
:206700000B12E47802676E12880EE0FFD3940A4005EF94074004C25E802DD25E80291288DE
:206720000EE0D3940B400B12698212880E740CF0803C12880EE0FFD3940B4005EF940740D5
:2067400004C25E8002D25EAF5312E454802012698212880EE0C3940140071289DBD25F802C
:206760000A128807EFF01289DBC25F12DEA812880EE0FF128B716F601D90011B7401F0A32B
:20678000F0A3F0FB7A007942D25FAD5312DEA8E4FD7F1112536912880EE07063128B71FFD6
:2067A000D39400402BEF94075026126979600D1269197F661269277F121253697F677E00C8
:2067C00012442CEF603912695E7F67126947802C128B71C394074027126979600B12695E77
:2067E0007F661269471253697F677E0012442CEF600D1269197F671269277F121253692047
:206800002324E4900263F0A3F090004AF0A3F0900025F0A3F0E50FC394074003E4F50F12B1
:206820008807EFF0D223227B017A027963C25FAD5312DEA874122553F582E43400F583221F
:206840007B017A027963C25FAD5312DEA874122553F582E43400F583227B017A027963C2EE
:206860005FAD5312DEA874122553F582E43400F583227B017A027963C25FAD5312DEA874F9
:20688000122553F582E43400F583227B017A027963C25FAD5312DEA874122553F582E4342B
:2068A00000F583227B007A00797DC25FE4FD12DEA87B007A00797B22D25FE4FD12DEA87B89
:2068C000007A00797B22C25FE4FD12DEA87B007A00797B22D25FE4FD12DEA87B007A00796B
:2068E0007B22900042E0FEA3E0FFAD5312E50E22787BE6FE08E6FFAD5312E50E227B017AC1
:20690000027963C25FAD5312DEA822C25FE4FD12DEA87B007A00797B227B017A00794AD28E
