:020000040800F2
:108000006882002009B900080D950008179500083E
:10801000219500082B950008359500080000000008
:108020000000000000000000000000005182000875
:108030004995000800000000858200086BDD0008FB
:1080400023B9000823B9000823B9000823B90008A0
:1080500023B9000823B9000823B9000823B9000890
:1080600023B9000823B9000823B9000823B9000880
:1080700023B9000823B9000823B9000823B9000870
:1080800023B9000823B9000823B9000823B9000860
:1080900023B9000823B9000823B9000823B9000850
:1080A00023B9000823B9000823B9000823B9000840
:1080B00023B9000885C3000823B9000823B90008C4
:1080C00023B9000823B9000823B9000823B9000820
:1080D00023B90008A122010823B9000823B9000828
:1080E00023B9000823B9000823B9000823B9000800
:1080F00023B9000823B9000823B9000823B90008F0
:1081000023B9000823B9000823B9000823B90008DF
:1081100023B9000823B90008F3C3000823B90008F5
:1081200023B9000823B9000823B9000823B90008BF
:1081300000F002F800F07CF80AA090E8000C8244FD
:108140008344AAF10107DA4501D100F071F8AFF2DA
:10815000090EBAE80F0013F0010F18BFFB1A43F025
:108160000103184794930100B493010010F8013BF8
:108170000A4413F0030408BF10F8014B1D1108BF97
:1081800010F8015B641E05D010F8016B641E01F845
:10819000016BF9D1002D15D010F8014B03F00C0341
:1081A0000C2BA1EB04040ABF10F8013BA4EB8314D1
:1081B000A4EB032405F1010314F8016B5B1E01F825
:1081C000016BF9D5914238BF10F8013BD1D370470C
:1081D0000023002400250026103A28BF78C1FBD8D0
:1081E000520728BF30C148BF0B607047642914F0A4
:1081F000F984752914F0F684632915F0DE8173295A
:1082000015F0E381002070471FB514F020FF15F032
:10821000DBFA04000020002116F04AFE401C6060DA
:108220000020002116F05AFEE0601FBD10B510BD01
:1082300015F0FEFC1146FFF7E7FF01F09AF815F084
:108240006FFF03B4FFF7F2FF03BC05F02FFE000041
:108250001A4B19680868B0E8F00F80F309884FF0EE
:10826000000080F311884EF00D0E704700000000F2
:1082700003480068006880F3088862B600DF00BF2A
:1082800008ED00E0EFF309800C4B1A6820E9F00FCD
:10829000106008B54FF0BF0080F3118805F0BCFAFC
:1082A0004FF0000080F31188BDE8084019680868A5
:1082B000B0E8F00F80F30988704700BF9C000020F1
:1082C00001B44FF0BF0080F3118801BC704701B4C6
:1082D0004FF0000080F3118801BC70470B49D1F8C2
:1082E00000C04A685CF8043B1068184442F8040B6C
:1082F0008C4528BFA1F1DC0C8A4228BFA1F1DC0229
:10830000C1F800C04A6020F000407047FC7B0020AC
:1083100010B501210D2001F0FBFF0121FE4801F005
:108320000CFE10BD10B50C2411F042FA204611F0DD
:108330004CFA10BD86B00024FFF7F4FF002011F0C6
:108340007FFD002013F0AAFF00BFF448407C012805
:1083500010D1F248407C00234FF41672F04900908F
:1083600001A810F03EFE044624B12246EC4901A8C3
:1083700012F0D6FD052005F066FEE6E704F048FEA3
:1083800000BF04F0AFFE642005F05DFEF9E704F0E5
:1083900023FC00BF04F075FD04F0B6FD642005F079
:1083A00052FEF7E710B5DF48007860B90120DD49DB
:1083B00008704FF4FA71DC4806F082F842F210714E
:1083C000DA4806F07DF807F044FFD94908800846EE
:1083D0000088002824DD4FF4006006F0ECF8D54951
:1083E000898988420BD1012006F0BCFAD048008868
:1083F00000284BDD07F073FD07F033FF46E040F641
:10840000060006F0D8F8CB49898988423ED107F0AA
:10841000FAFCC7480088002838DD07F022FF35E065
:10842000C14806F060F888B3BF4806F051F8002450
:1084300009E0BF480088002803DD07F050FD07F081
:1084400010FF601CC4B2282CF3DB002413E000BF33
:10845000B94800EB8410B9490860052006F082FA9B
:1084600000BFB3480088002803DD07F038FD07F09F
:10847000F8FE601CC4B20A2CE9DBAC4806F033F805
:1084800020B1AA4806F024F807F00FFC10BD002424
:1084900002E0322005F0D7FD07F0FCFD0028F8D1FE
:1084A00000BFFFF77FFFA64800780128F9D1601CC4
:1084B000C4B20A2CF5D100240020A149087009F0AB
:1084C000E8FFEEE709F0DAFF00BF9E48007850B100
:1084D0009C480078401E9B49087008460078012897
:1084E00001D10BF0D6FE98480078002809DD9648A7
:1084F0000078401E944908700846007808B909F0D1
:10850000C7FE052005F09FFDDFE703F01DFA00BF61
:108510008E480078401C8D49087008460078032872
:1085200003DB0020087003F028FA03F0C6FB0A20E2
:1085300005F089FDECE700BF002431E0844830F805
:10854000140001282AD1754A883212F83410A2008A
:1085500002F19C0003F06EFD704A883202EBC40207
:108560005178A20002F19D0003F064FD6B4A88324D
:1085700002EBC4029178A20002F19E0003F05AFDC2
:10858000664A883202EBC402D178A20002F19F0051
:1085900003F050FD00206E4921F81400601CC4B2A5
:1085A000082CCBDB40F6B83005F04DFDC4E70024C5
:1085B00005E00020674921F81400601CC4B2082CB3
:1085C000F7DB04F016FA00BF04F05EFA0A2005F0AB
:1085D0003AFDF9E700B585B003F0FCFC002003F09C
:1085E000FDFC4E490870012003F0F8FC4B4948702F
:1085F000022003F0F3FC49498870032003F0EEFCED
:108600004649C87008460078FF282CD108464078B3
:10861000FF2828D108468078FF2824D10846C07852
:10862000FF2820D10020087048708870C870084664
:10863000007801460190002003F0FCFC37484078A8
:1086400001460190012003F0F5FC34488078014692
:108650000190022003F0EEFC3048C0780146019002
:10866000032003F0E7FC0521042003F0E3FC0021D4
:10867000052003F0DFFC062003F0B0FC2749087159
:1086800008460079FF2802D00846007948B9FE2044
:10869000224908710846007901460190062003F03E
:1086A000C9FC072003F09AFC1C4988730846807BAC
:1086B000FF2802D00846807B48B92C2017498873D0
:1086C0000846807B01460190072003F0B3FC082098
:1086D00003F084FC1149C8730846C07BFF2802D010
:1086E0000846C07B48B908200C49C8730846C07BBF
:1086F00001460190082003F09DFC102003F06EFC61
:1087000006494873112003F069FC044908741520D8
:1087100003F064FC01491FE0000230005C5B0020B4
:10872000C4090020180000200800002010000020CC
:108730001C01002040350020D44B002028010020DF
:1087400030080020380800203608002004000020EF
:108750001C0C00202C0C002008730846007B042809
:1087600008DD012008730846007B014601901520B2
:1087700003F060FCFE48007B052836D2DFE800F0FD
:10878000030D17212B004FF41650F949886005F0AE
:10879000A6FB0620F749087028E04FF49640F449FC
:1087A000886005F09CFB0320F24908701EE04FF43E
:1087B0001640EF49886005F092FB0220ED490870F1
:1087C00014E04FF46140EA49886005F088FB01201D
:1087D000E84908700AE04FF4E130E549886005F0A7
:1087E0007EFB0120E349087000E000BF00BF1420B9
:1087F00003F0F4FBDE4948740846407C022808DD9B
:10880000002048740846407C01460190142003F083
:1088100011FC002004900BE004982830019003F034
:10882000DDFB02AA049950540498401CC0B2049085
:1088300004980628F0DB9DF80800FF284FD19DF82A
:108840000900FF284BD19DF80A00FF2847D19DF869
:108850000B00FF2843D19DF80C00FF283FD19DF865
:108860000D00FF283BD104208DF8080002208DF870
:10887000090035208DF80A00AF208DF80B0000208C
:108880008DF80C0001208DF80D009DF808000146C0
:108890000190282003F0CEFB9DF8090001460190CD
:1088A000292003F0C7FB9DF80A00014601902A2009
:1088B00003F0C0FB9DF80B00014601902B2003F054
:1088C000B9FB9DF80C00014601902C2003F0B2FB8F
:1088D0009DF80D00014601902D2003F0ABFB002018
:1088E00004900AE002A904980A5CA1481330049994
:1088F00042540498401CC0B2049004980628F1DB4E
:10890000002004900BE004982F30019003F066FBE8
:1089100002AA049950540498401CC0B204900498D0
:108920000428F0DB9DF80800FF2833D19DF80900EA
:10893000FF282FD19DF80A00FF282BD19DF80B00AE
:10894000FF2827D1C0208DF80800A8208DF8090045
:1089500000208DF80A00B7208DF80B009DF8080064
:10896000014601902F2003F065FB9DF809000146A8
:108970000190302003F05EFB9DF80A000146019053
:10898000312003F057FB9DF80B0001460190322087
:1089900003F050FB002004900EE002A904980A5C4A
:1089A00073481930049942540499425C123042547D
:1089B0000498401CC0B2049004980428EDDB2E20DB
:1089C00003F00CFB8DF808009DF80800012809DD74
:1089D00000208DF808009DF80800014601902E2027
:1089E00003F028FB9DF80800614948770846407F5E
:1089F00081F82F00002004900BE0049833300190A0
:108A000003F0ECFA02AA049950540498401CC0B236
:108A1000049004980428F0DB9DF80800FF2830D16A
:108A20009DF80900FF282CD19DF80A00FF2828D1C5
:108A30009DF80B00FF2824D18DF808008DF809005F
:108A40008DF80A0000208DF80B009DF80800014603
:108A50000190332003F0EEFA9DF8090001460190E1
:108A6000342003F0E7FA9DF80A0001460190352012
:108A700003F0E0FA9DF80B0001460190362003F068
:108A8000D9FA002004900EE002A904980A5C384844
:108A90001E30049942540499425C123042540498A6
:108AA000401CC0B2049004980428EDDB0020049020
:108AB0000BE004983730019003F090FA02AA049971
:108AC00050540498401CC0B2049004980428F0DB71
:108AD0009DF80800FF2833D19DF80900FF282FD109
:108AE0009DF80A00FF282BD19DF80B00FF2827D105
:108AF000C0208DF80800A8208DF8090000208DF80E
:108B00000A0004208DF80B009DF808000146019032
:108B1000372003F08FFA9DF80900014601903820B4
:108B200003F088FA9DF80A0001460190392003F00D
:108B300081FA9DF80B00014601903A2003F07AFA81
:108B4000002004900EE002A904980A5C0848223034
:108B5000049942540499425C123042540498401CD7
:108B6000C0B2049004980428EDDB3B2004E0000030
:108B70005C5B00203708002003F030FA8DF8080015
:108B80009DF80800FF2809D100208DF808009DF805
:108B90000800014601903B2003F04CFA9DF80800C4
:108BA000FE4981F82600084690F8260081F8380032
:108BB0003C2003F013FA8DF808003D2003F00EFA74
:108BC0008DF809009DF80800FF2811D19DF80900D3
:108BD000FF280DD14FF4FB70F04908850846008D41
:108BE000000A8DF80800084690F828008DF8090062
:108BF0009DF809009DF8081040EA0120E749088522
:108C00000846008D4887002081F83C008874049055
:108C100024E204988000BC30019003F0DFF98DF865
:108C2000080004988000BD30019003F0D7F98DF85A
:108C3000090004988000BE30019003F0CFF98DF850
:108C40000A0004988000BF30019003F0C7F98DF846
:108C50000B009DF80800FF2847D19DF80900FF2868
:108C600043D19DF80A00FF283FD19DF80B00FF2853
:108C70003BD100208DF808008DF809008DF80A001E
:108C80008DF80B009DF80800019004988000BC301E
:108C90000090019903F0CEF99DF809000190049825
:108CA0008000BD300090019903F0C4F99DF80A00DE
:108CB000019004988000BE300090019903F0BAF949
:108CC0009DF80B00019004988000BF30009001993E
:108CD00003F0B0F90022B148DE30049920F81120E9
:108CE0001638049920F8112017E09DF809009DF826
:108CF000081000EB012082B2A848C830049920F87F
:108D000011209DF80B009DF80A1000EB012082B2A3
:108D1000A248DE30049920F8112004988000E83041
:108D2000019003F05BF98DF8080004988000E930A9
:108D3000019003F053F98DF8090004988000EA309F
:108D4000019003F04BF98DF80A0004988000EB3095
:108D5000019003F043F98DF80B009DF80800FF28FF
:108D600046D19DF80900FF2842D19DF80A00FF284E
:108D70003ED19DF80B00FF283AD100208DF8080065
:108D80008DF809008DF80A008DF80B009DF8080099
:108D9000019004988000E8300090019903F04AF9AE
:108DA0009DF80900019004988000E9300090019935
:108DB00003F040F99DF80A00019004988000EA3021
:108DC0000090019903F036F99DF80B00019004988A
:108DD0008000EB300090019903F02CF900227048DC
:108DE000049920F811201638049920F8112016E073
:108DF0009DF809009DF8081000EB012082B2684838
:108E00001638049920F811209DF80B009DF80A10DF
:108E100000EB012082B26248049920F811200498E6
:108E2000800000F58A70019003F0D8F88DF80800F2
:108E30000498800000F21510019003F0CFF88DF82F
:108E400009000498800000F58B70019003F0C6F8CB
:108E50008DF80A000498800000F21710019003F0CA
:108E6000BDF88DF80B009DF80800FF284BD19DF848
:108E70000900FF2847D19DF80A00FF2843D19DF83B
:108E80000B00FF283FD100208DF808008DF8090065
:108E90008DF80A008DF80B009DF8080001900498E9
:108EA000800000F58A700090019903F0C3F89DF8E6
:108EB000090001900498800000F2151000900199BB
:108EC00003F0B8F89DF80A0001900498800000F5BE
:108ED0008B700090019903F0ADF89DF80B000190A4
:108EE0000498800000F217100090019903F0A2F896
:108EF00000222B482C30049920F8112016380499B0
:108F000020F8112017E09DF809009DF8081000EBEB
:108F1000012082B222481630049920F811209DF8D1
:108F20000B009DF80A1000EB012082B21C482C3087
:108F3000049920F811200498800000F5A070019099
:108F400003F04CF88DF808000498800000F24110FE
:108F5000019003F043F88DF809000498800000F5B3
:108F6000A170019003F03AF88DF80A00049880008F
:108F700000F24310019003F031F88DF80B009DF8DA
:108F80000800FF284FD19DF80900FF284BD19DF81C
:108F90000A00FF2847D19DF80B0003E05C5B00202E
:108FA000665C0020FF283ED100208DF808008DF877
:108FB00009008DF80A008DF80B009DF8080001905B
:108FC0000498800000F5A0700090019903F032F839
:108FD0009DF8090001900498800000F24110009073
:108FE000019903F027F89DF80A0001900498800089
:108FF00000F5A1700090019903F01CF89DF80B009A
:1090000001900498800000F243100090019903F051
:1090100011F80022FE48049920F81120163804990E
:1090200020F8112016E09DF809109DF8080001EBCA
:10903000002082B2F6481638049920F811209DF8D5
:109040000B009DF80A1000EB012082B2F048049951
:1090500020F811200498401CC0B2049004980B28FA
:10906000FFF6D7AD0020049044E0049840003E3065
:10907000019002F0B3FF8DF80900049840003F30E2
:10908000019002F0ABFF8DF80A009DF80900FF285F
:1090900021D19DF80A00FF281DD10022DC48EA38C2
:1090A000049920F81120049930F81100000A019069
:1090B00048003F300090019902F0BCFFD448EA38E4
:1090C000049910F81100019048003E300090019979
:1090D00002F0B0FF0AE09DF809109DF80A0041EA8D
:1090E0000022CB48EA38049920F811200498401C4B
:1090F000C0B2049004980828B7DB0020049021E057
:1091000004984E30019002F069FFC149F039049A89
:10911000885408460499405C01280FDD0122BC48B0
:10912000F03804994254801D049910F81100019000
:1091300001F14E000090019902F07CFF0498401C60
:10914000C0B2049004980628DADB002004900AE1FB
:1091500004985430019002F041FFAE49049A8854BB
:1091600008460499405CFF280CD10522A9480499BF
:1091700042540499405C019001F15400009001991F
:1091800002F058FF04985C30019002F027FFA149DB
:109190000831049A885408460499405CFF280DD190
:1091A00000229C480830049942540499405C019084
:1091B00001F15C000090019902F03CFF049840002E
:1091C0006430019002F00AFF8DF809000498400015
:1091D0006530019002F002FF8DF80A009DF8090049
:1091E000FF282CD19DF80A00FF2828D14FF4FA72ED
:1091F00088481030049920F81120049930F81100A3
:10920000000A8DF8090083481030049910F8110005
:109210008DF80A009DF80900019004984000643020
:109220000090019902F006FF9DF80A000190049851
:10923000400065300090019902F0FCFE0AE09DF8C4
:109240000A009DF8091040EA012272481030049982
:1092500020F81120049880009C30019002F0BEFE9E
:109260006C493A31049A01F83200049880009D302C
:10927000019002F0B3FE67493A31049A01EBC20152
:109280004870049880009E30019002F0A7FE61496A
:109290003A31049A01EBC2018870049880009F3033
:1092A000019002F09BFE5B493A31049A01EBC20146
:1092B000C87058483A30049910F83100FF284ED150
:1092C00054483A30049900EBC1004078FF2846D159
:1092D00050483A30049900EBC1008078FF283ED115
:1092E0004C483A30049900EBC100C078FF2836D1D1
:1092F000002248483A30049940F83120049910F887
:109300003100019088009C300090019902F092FE9B
:1093100040483A30049900EBC10040780190880041
:109320009D300090019902F085FE3A483A30049948
:1093300000EBC1008078019088009E300090019978
:1093400002F078FE33483A30049900EBC100C0784F
:10935000019088009F300090019902F06BFE049804
:10936000401CC0B2049004980828FFF6F1AE05B086
:1093700000BD1FB52849080300F04FFAFEF7C8FFEB
:109380004FF4A06000F012FA0121202000F0C0FF8D
:10939000482004F009FEFFF71DF903F017FE03F063
:1093A00029FE4FF47A7004F04EFE03F02AFE02F01C
:1093B00017FF02F097FF00200BF03DF917A013F004
:1093C00083FB00200323CDE9003002900346802276
:1093D00015A10390164803F0B1FF00200223CDE948
:1093E000003002900346802212A10390AFF6B960CC
:1093F00003F0A4FF00200223CDE9003002900346D1
:1094000080220FA10390104803F098FF00201DE078
:10941000BE5C0020AA5B00200080000854335F730C
:1094200065726965730A0D00494E5055545300002A
:10943000AF85000853544F52454545500000000089
:109440004C454430000000000B8500080323CDE9A3
:1094500000300290034680221FA10390204803F0B1
:109460006DFF00200123CDE90030029003468022E9
:109470001CA103901C4803F061FF00200223CDE9EA
:10948000003002900346802218A10390194803F08F
:1094900055FF00200223CDE90030029003468022D0
:1094A00015A10390154803F049FF00200423CDE9DE
:1094B0000030029003464FF4906211A103901248CD
:1094C00003F03CFF04F0C2FA002004B010BD00BF5E
:1094D000C82004F0B8FDFBE7434F4D4D00000000ED
:1094E000C58400084E4554008F8400084F555450E1
:1094F000555453008F8300084B4559007D83000865
:109500004D535450000000003583000810B516A0DC
:1095100013F0DAFA10BD02E016A013F0D5FAFBE75B
:1095200002E017A013F0D0FAFBE702E017A013F057
:10953000CBFAFBE702E018A013F0C6FAFBE710B580
:1095400019A013F0C1FA10BD10B519A013F0BCFAA0
:1095500010BD10B518A013F0B7FA10BD10B518A0C3
:1095600013F0B2FA10BD00004E4D49206661756CD3
:109570007400000068617264206661756C7400009C
:109580004D656D204661756C742000004275732036
:109590004661756C742000005573616765204661F3
:1095A000756C74200000000053564320000000003A
:1095B000446562756720000050656E200000000061
:1095C0005379735469636B20000000000CB50020D0
:1095D000019000906C48006840F480306A4908604F
:1095E00000BF6948006800F4003000900198401CFA
:1095F0000190009818B90198B0F5A06FF1D16248B8
:10960000006800F4003010B10120009001E000205B
:1096100000900098012843D15C48006840F0100099
:109620005A4908600846006820F0030008600846B0
:10963000006840F0020008605348406852494860A2
:109640000846406848600846406840F480604860CA
:109650000846406820F47C1048600846406840F4A2
:10966000E81048600846006840F08070086000BF5D
:109670004548006800F000700028F9D04248406872
:1096800020F00300404948600846406840F002006E
:10969000486000BF3C48406800F00C000828F9D141
:1096A0000CBD10B5FFF792FF10BD10B5364800682D
:1096B00040F00100344908600846406834490840D9
:1096C0003149486008460068324908402E49086020
:1096D0000846006820F4802008600846406820F4AE
:1096E000FE0048604FF41F008860FFF7DAFF4FF07C
:1096F00000602949086010BD10B50021002000223B
:10970000214B5B6803F00C0121B1042906D0082924
:1097100028D107E0214B224C236027E01F4B204C2F
:10972000236023E0184B5B6803F47010164B5B68F2
:1097300003F48032022303EB904022B9194B4343D8
:10974000174C23600DE0104B5B6803F4003323B12A
:10975000144B4343124C236003E0104B4343104C23
:10976000236003E00D4B0E4C236000BF00BF064B8F
:109770005B68C3F303130C4CE15C094B1B68CB40E3
:10978000074C236010BD0000001002400020024082
:109790000000FFF8FFFFF6FE08ED00E000127A007F
:1097A0001C00002000093D00200000203149014339
:1097B000314A1160704770B5002100230F22C47830
:1097C00004B32D4C246804F4E064C4F5E064210A79
:1097D000C1F10403CA40447804FA03F184781440C8
:1097E00021430901254C0678A155047804F01F0592
:1097F0000124AC4005786D11AD0005F1E025C5F8F8
:10980000004109E0047804F01F050124AC401C4D20
:109810000678761145F8264070BD1A4A0A40024380
:10982000154B1B1F1A60704739B1134A121D12687D
:109830000243114B1B1D1A6006E00F4A121D1268ED
:1098400082430D4B1B1D1A607047042808D14FF04E
:10985000E021096941F004014FF0E022116107E0C5
:109860004FF0E021096921F004014FF0E02211617D
:10987000704700000000FA050CED00E000E400E095
:1098800080E100E080FFFF1F10B50446FA488442E3
:1098900008D10121401500F055FD0021601500F0B0
:1098A00051FD17E0F548844208D10121001500F070
:1098B00049FD0021201500F045FD0BE0F0488442F1
:1098C00008D10121C80300F03DFD00214FF4004004
:1098D00000F038FD10BD30B502460020002350686E
:1098E000E84C20400D790C6844EA05242043506080
:1098F0009068E54C2040D1E902542C434D7944EA6C
:10990000450420439060D06A20F470000C7C641EF3
:10991000E4B2234340EA0350D06230BD002101602D
:10992000017141718160C16001210174704721B1F1
:10993000826842F00102826003E0826822F0010244
:109940008260704721B1826842F48072826003E0D5
:10995000826822F480728260704710B50023CBB217
:109960001AB144681C43446002E044689C4344606C
:1099700010BD816841F008018160704701460020F8
:109980008A6802F008020AB1012000E00020704756
:10999000816841F0040181607047014600208A68B7
:1099A00002F004020AB1012000E00020704721B15A
:1099B000826842F4A002826003E0826822F4A0027E
:1099C00082607047014600208A6802F480020AB172
:1099D000012000E00020704710B50A460021002356
:1099E000416821F46041531E41EA4331416010BD9A
:1099F00021B1426842F40062426003E0426822F40E
:109A0000006242607047F0B504460D460020002118
:109A1000092D11DDE068A5F10A0606EB46070726C9
:109A200006FA07F18843A5F10A0606EB460603FA93
:109A300006F10843E0600CE0206905EB45070726C6
:109A400006FA07F1884305EB450603FA06F10843D9
:109A50002061072A0FDA606B561E06EB86071F2669
:109A600006FA07F18843561E06EB860605FA06F14C
:109A70000843606322E00D2A0FDA206BD61F06EB45
:109A800086071F2606FA07F18843D61F06EB8606CF
:109A900005FA06F10843206310E0E06AA2F10D0622
:109AA00006EB86071F2606FA07F18843A2F10D068A
:109AB00006EB860605FA06F10843E062F0BD21B127
:109AC000826842F48012826003E0826822F480128D
:109AD000826070470146C86C80B2704766484C305F
:109AE0000068704721B1426842F48062426003E03E
:109AF000426822F480624260704721B1426842F4B9
:109B00008052426003E0426822F480524260704713
:109B10000A460021816821F4E041114381607047C9
:109B200021B1826842F40042826003E0826822F43C
:109B300000428260704721B1826842F40212826062
:109B400003E0826822F4021282607047014600201E
:109B50008A6802F400120AB1012000E00020704778
:109B6000F0B504461546002000220026092911DD23
:109B7000E068A1F10A0707EB470C072707FA0CF288
:109B80009043A1F10A0707EB470703FA07F21043D6
:109B9000E0600CE0206901EB410C072707FA0CF2AA
:109BA000904301EB410703FA07F210432061A06BD9
:109BB000C0F30156EF1C06F1010CA7EB0C0707EBF5
:109BC000870C1F2707FA0CF29043EF1C06F1010CDB
:109BD000A7EB0C0707EB870701FA07F21043A06316
:109BE000F0BD10B50A4600210023816B21F440111D
:109BF000531E41EA0351816310BD08B50023009351
:109C00000090009B0B440093009B1A6008BD08B5B0
:109C1000024600200090009201F12800009B1844A9
:109C200000900098006880B208BD0A460021416893
:109C3000164B194011434160704741628262704780
:109C40000A460021416821F01F011143416070471D
:109C500040B109490831096841F40001064A083257
:109C6000116007E004490831096821F40001024A43
:109C700008321160704700000024014000280140B4
:109C8000003C0140FFFEF0FFFDF7F1FFFFFD3FFF4D
:109C90000246002013680B400BB1012000E00020B9
:109CA0007047CA430260704770B502460020002327
:109CB00000240B125568CEB205EA060415681D4053
:109CC00015B10CB1012000E0002070BD00220A1285
:109CD000D34303607047000010B50446CC4884426B
:109CE00008D10121042000F02DFB0021042000F008
:109CF00029FB46E0C748844208D10121082000F032
:109D000021FB0021082000F01DFB3AE0C2488442FC
:109D100008D10121102000F015FB0021102000F0D7
:109D200011FB2EE0BD48844208D10121202000F023
:109D300009FB0021202000F005FB22E0B848844206
:109D400008D10121402000F0FDFA0021402000F060
:109D5000F9FA16E0B348844208D10121802000F0CE
:109D6000F1FA0021802000F0EDFA0AE0AE488442CA
:109D700007D10121801500F0E5FA0021A01500F0BF
:109D8000E1FA10BD10B50121084600F0DBFA002110
:109D9000012000F0D7FA10BD2DE9F0410246002560
:109DA0000026002000230024002791F803C00CF0B7
:109DB0000F0591F803C00CF0100CBCF1000F03D09C
:109DC00091F802C04CEA050591F800C0BCF1000F03
:109DD00031D0146800202BE04FF0010C0CFA00F396
:109DE000B1F800C00CEA03069E4220D183004FF078
:109DF0000F0C0CFA03F7BC4305FA03FC4CEA04040D
:109E000091F803C0BCF1280F06D14FF0010C0CFAF9
:109E100000FCC2F814C00AE091F803C0BCF1480F7E
:109E200005D14FF0010C0CFA00FCC2F810C0401C28
:109E30000828D1D31460B1F800C0BCF1FF0F34DDA5
:109E4000546800202EE000F1080C4FF0010808FAD9
:109E50000CF3B1F800C00CEA03069E4221D1830046
:109E60004FF00F0C0CFA03F7BC4305FA03FC4CEA65
:109E7000040491F803C0BCF1280F05D100F1080CCF
:109E800008FA0CF8C2F8148091F803C0BCF1480F2E
:109E900007D100F1080C4FF0010808FA0CF8C2F8DD
:109EA0001080401C0828CED35460BDE8F0814FF6E6
:109EB000FF710180022181700421C1707047024648
:109EC000002093680B400BB1012000E00020704798
:109ED0000146886880B2704702460020D3680B4074
:109EE0000BB1012000E0002070470146C86880B235
:109EF000704701617047416170470AB1016100E03C
:109F000041617047C16070474FF480320A438261FB
:109F10008161826182698269704702460020434BF9
:109F200018684FF68073184040EA021008433F4B10
:109F3000186070473E49C8617047F0B50A46002373
:109F400000240021002500F00046B6F1004F02D1A8
:109F5000364EF16901E0354E7168C0F3034583B2B6
:109F600000F44016B6F5401F08D121F070612F4E65
:109F7000766826F070662D4F7E6012E000F4801641
:109F8000B6F5801F06D1032606FA05F4A14341F079
:109F9000706106E0460D360103FA06F6B14341F062
:109FA000706122B1460D360103FA06F6314300F026
:109FB0000046B6F1004F02D11C4EF16101E01B4E8C
:109FC0007160F0BD30B500228B071C0F0F2303FA20
:109FD00004F2164B08338C1053F824309343134C7F
:109FE00008348D1044F8253023468C1053F8243063
:109FF0008C07240F00FA04F423430C4C08348D1012
:10A0000044F8253030BD0A49DC3108607047000053
:10A0100000080140000C0140001001400014014004
:10A0200000180140001C01400020014000000140D8
:10A0300000002042DF48006840F00100DD49086070
:10A0400008464068DC490840DA494860084600682C
:10A05000DA490840D74908600846006820F48020A3
:10A0600008600846406820F4FE0048604FF41F0076
:10A0700088607047CF49096821F48031CD4A11606A
:10A080001146096821F480211160B0F5803F03D0AA
:10A09000B0F5802F0ED106E0C649096841F4803141
:10A0A000C44A116007E0C349096841F4A021C14ACC
:10A0B000116000E000BF00BF704710B501460022EC
:10A0C000002300204A11012A02D1BA4C236806E07D
:10A0D000022A02D1B74C236A01E0B64C636A01F050
:10A0E0001F02012494401C400CB1012000E000201C
:10A0F00010BD38B5002000900024002500BF31209D
:10A10000FFF7DBFF05460098401C00900098B0F573
:10A11000A06F01D0002DF2D03120FFF7CEFF08B1A3
:10A12000012400E00024204638BD01460020A14A59
:10A13000106820F0F80040EAC10010607047A049A4
:10A1400008607047024600209A4B586820F47C1043
:10A1500042EA01031843974B5860704798490866D4
:10A16000704701460020934A506820F003000843DE
:10A17000506070478F48406800F00C0070470146FF
:10A1800000208C4A506820F0F0000843506070476F
:10A1900001460020874A506820F4E0600843506080
:10A1A000704701460020834A506820F4605040EA1E
:10A1B000C1005060704729B17E4A527A02437D4BFC
:10A1C0005A7204E07B4A527A82437A4B5A72704741
:10A1D0007B49D8310860704701460020754A5068B5
:10A1E00020F440400843506070470021714A2032FB
:10A1F0001170704A82F82010012802D004280AD178
:10A2000004E001216B4A2032117005E00521694A02
:10A210002032117000E000BF00BF7047694908603C
:10A2200070476449096A0143624A1162704765498F
:10A2300044390860704730B5002100220024002313
:10A240005C4D6D6805F00C0121B1042905D0082989
:10A2500023D105E05C4D056022E05B4D05601FE009
:10A26000544D6D6805F47012524D6D6805F48034DC
:10A27000022505EB92421CB9544D554305600BE095
:10A280004C4D6D6805F400351DB1504D55430560CA
:10A2900002E04D4D5543056002E04B4D056000BFA7
:10A2A00000BF444D6D6805F0F0010909484D6B5C35
:10A2B0000568DD4045603F4D6D6805F4E061090AC1
:10A2C000434D6B5C4568DD4085603A4D6D6805F433
:10A2D0006051C90A3E4D6B5C4568DD40C560354D37
:10A2E0006D6805F44041890B3A4D6B5CC568B5FB60
:10A2F000F3F5056130BD29B12E4A526902432D4B59
:10A300005A6104E02B4A526982432A4B5A617047D2
:10A3100029B1284A92690243264B9A6104E0254AF2
:10A3200092698243234B9A61704729B1214AD269CD
:10A330000243204BDA6104E01E4AD26982431D4B7E
:10A34000DA61704729B11B4AD2680243194BDA60BF
:10A3500004E0184AD2688243164BDA60704729B18C
:10A36000144A12690243134B1A6104E0114A12693C
:10A370008243104B1A617047124940390860704798
:10A380000F49C86470470B49C87170470948406A53
:10A3900040F0807007494862704701460020054A36
:10A3A00092680A400AB1012000E00020704701498C
:10A3B00088727047001002400000FFF8FFFFF6FEB1
:10A3C000000042428004424200127A0000093D002F
:10A3D000300000204000002010B50446BE488442F2
:10A3E00008D101218014FFF7ADFF0021A014FFF771
:10A3F000A9FF16E0B948844208D101210014FFF7F3
:10A40000AEFF00212014FFF7AAFF0AE0B4488442FF
:10A4100007D10121C013FFF7A2FF0021E013FFF7CE
:10A420009EFF10BD10B50022028802F441520B8835
:10A430004C8823438C882343CC8823430C892343B3
:10A440004C8923438C892343CC8923431A430280BC
:10A45000838B4FF2FF74234083830B8A038210BDEA
:10A460002DE9F04F85B005460C464FF00009022754
:10A470004FF000084FF0010B0026B246A88B4FF2B8
:10A4800040010840A88302202884B5F81C90A068E9
:10A49000022801D100BF38E0A08810B94FF0010BAD
:10A4A00001E04FF0020B8D48854200D100E000BF73
:10A4B0006846FFF7C0FEDDF800A0E088B0F5007F39
:10A4C0000AD14FEA1A2000EB80004000A168B0FBDF
:10A4D000F1F0401D86B20BE04FEA4B10BAFBF0F0F2
:10A4E00000EB80004000A168B0FBF1F0401D86B297
:10A4F0000A20B6FBF0F606F00108A6EB0800C0F350
:10A500004F074FF6FF7000EA0828022F01DBFF2FEC
:10A5100002DD02274FF00008E08840EA08003843D7
:10A520002884A088A18908436188084321880843BA
:10A5300040F4006040EA0909A5F81C9005B0BDE8A8
:10A54000F08F0021018041808180C18001814181A3
:10A550008181C181072101827047002101804180F2
:10A560008180C1800221816000218181704721B1F9
:10A57000028842F04002028004E002884FF6BF7376
:10A580001A400280704721B1828B42F4806282833C
:10A5900004E0828B4FF6FF331A408283704730B558
:10A5A000002400230C110125A540ABB21AB1858807
:10A5B0001D43858002E085889D43858030BD1AB1AA
:10A5C00083880B43838002E083888B4383807047BA
:10A5D000818170470146888970474FF6FF6291423A
:10A5E00004D0028842F48072028004E002884FF6B0
:10A5F000FF631A400280704721B1828842F0040252
:10A60000828004E082884FF6FB731A408280704794
:10A6100002884FF2FF731A40028002880A430280C8
:10A620007047018841F480510180704721B1028850
:10A6300042F40052028004E002884DF6FF731A4093
:10A640000280704702460020012901D0108B00E0F3
:10A65000908A70470146088A7047B1F5804F04D14F
:10A66000028842F48042028004E002884BF6FF73C5
:10A670001A40028070470246002013890B400BB13C
:10A68000012000E000207047CA4302817047F0B506
:10A690000246002000240023002501F00F070126B8
:10A6A000BE40B4B20B1101269E40B3B2968806EAB2
:10A6B00003051689264016B10DB1012000E00020E7
:10A6C000F0BD10B5002201F00F040123A3409AB29F
:10A6D000D343038110BD000000300140003800402A
:10A6E000003C004010B50446FE48844208D10121D8
:10A6F000C014FFF727FE0021E014FFF723FEC4E09B
:10A70000B4F1804F08D101210846FFF728FE00214F
:10A710000120FFF724FEB8E0F348844208D101216C
:10A720000220FFF71CFE00210220FFF718FEACE01C
:10A73000EE48844208D101210420FFF710FE0021D9
:10A740000420FFF70CFEA0E0E948844208D1012173
:10A750000820FFF704FE00210820FFF700FE94E028
:10A76000E448844208D101211020FFF7F8FD0021C0
:10A770001020FFF7F4FD88E0DF48844208D1012172
:10A780002020FFF7ECFD00212020FFF7E8FD7CE012
:10A79000DA48844208D101214014FFF7D3FD00219B
:10A7A0006014FFF7CFFD70E0D548844209D1012144
:10A7B000C804FFF7C7FD00214FF40020FFF7C2FDDA
:10A7C00063E0D048844209D101210805FFF7BAFDB2
:10A7D00000214FF48010FFF7B5FD56E0CA488442CF
:10A7E00009D101214805FFF7ADFD00214FF400100C
:10A7F000FFF7A8FD49E0C548844208D10121402067
:10A80000FFF7ADFD00214020FFF7A9FD3DE0C04866
:10A81000844208D101218020FFF7A1FD0021802082
:10A82000FFF79DFD31E0BB48844208D1012180152E
:10A83000FFF795FD0021A015FFF791FD25E0B64833
:10A84000844209D101210804FFF77CFD00214FF467
:10A850008030FFF777FD18E0B048844209D101212C
:10A860004804FFF76FFD00214FF40030FFF76AFD49
:10A870000BE0AB48844208D101218804FFF762FD58
:10A8800000214FF48020FFF75DFD10BD00220288FB
:10A89000944B98420ED0994B98420BD0B0F1804F18
:10A8A00008D0914B984205D0904B984202D0904BE3
:10A8B000984204D14FF68F731A404B881A438D4B40
:10A8C000984207D08C4B984204D04FF6FF431A4071
:10A8D000CB881A4302808B8883850B880385814B44
:10A8E00098420BD0854B984208D08B4B984205D0AC
:10A8F0008A4B984202D08A4B984201D10B7A038648
:10A9000001238382704770B5002400220023058C48
:10A910004FF6FE7635400584028C8388048B4FF613
:10A920008F752C40B51E2C400D882C43751E2A4077
:10A930000D892A434D882A436A4DA8420BD06F4D9A
:10A94000A84208D0744DA84205D0744DA84202D048
:10A95000734DA84213D14FF6F7752A404D892A430B
:10A960004FF6FB752A408D882A434FF6FF652B4032
:10A970004FF6FF552B408D892B43CD892B43838088
:10A980000483CD888586028470BD70B500240022C2
:10A990000023058C4FF6EF7635400584028C8388C2
:10A9A000048B48F6FF752C404FF6FF452C400D8870
:10A9B0004FF6FF7606EA05252C434FF6DF752A4051
:10A9C0000D8906EA05152A434D8806EA05152A432E
:10A9D000444DA84202D0494DA8421DD14FF67F7583
:10A9E0002A404D894FF6FF7606EA05152A434FF6B1
:10A9F000BF752A408D8806EA05152A434FF6FF35B4
:10AA00002B404FF2FF752B408D8906EA85052B43BD
:10AA1000CD8906EA85052B4383800483CD8805878D
:10AA2000028470BD70B5002400220023058C4FF60F
:10AA3000FF6635400584028C8388848B4FF68F75C2
:10AA40002C404FF6FC752C400D882C434FF6FF55DB
:10AA50002A400D894FF6FF7606EA05252A434D88E0
:10AA600006EA05252A431F4DA84202D0234DA842DD
:10AA70001DD14FF2FF752A404D894FF6FF7606EA49
:10AA800005252A434FF6FF352A408D8806EA05251D
:10AA90002A434EF6FF752B404DF6FF752B408D89EE
:10AAA00006EA05152B43CD8906EA05152B4383805D
:10AAB0008483CD888587028470BD70B50022002311
:10AAC0000024058C4EF6FF7635400584038C84887F
:10AAD000828B48F6FF752A404FF6FF452A400D88C5
:10AAE00020E00000002C014000040040000800406D
:10AAF000000C0040001000400014004000340140F1
:10AB0000004C01400050014000540140001800403A
:10AB1000001C004000200040004001400044014073
:10AB2000004801404FF6FF7606EA05252A434DF618
:10AB3000FF752B400D8906EA05352B434D8806EA43
:10AB400005352B43FA4DA84202D0FA4DA84208D150
:10AB50004BF6FF752C408D894FF6FF7606EA85157A
:10AB60002C4384808283CD88A0F84050038470BD3C
:10AB7000828B4FF2FF331A408283828B4FF6FF7332
:10AB800003EA01231A4382837047F0B50C46154649
:10AB9000002200210026078C4EF6FF7C07EA0C07F6
:10ABA0000784828B018C4FF6FF7707EA043640F664
:10ABB000FF473A404FF6FF7707EA05273A434FF63B
:10ABC000FF7707EA03373A43D94FB8420ED0D94F3F
:10ABD000B8420BD0B0F1804F08D0D74FB84205D063
:10ABE000D64FB84202D0D64FB84206D14DF6FF77C5
:10ABF000394046F48057394305E047F6FF5739405E
:10AC000044F48057394382830184F0BD828B4FF630
:10AC1000F3731A408283828B0A4382837047F0B5B4
:10AC20000C461546002200210026078C4FF6FF6CCB
:10AC300007EA0C070784828B018C4FF6FF7707EA3F
:10AC400004264FF60C773A404FF6FF7707EA0317D2
:10AC50002F433A43B64FB8420ED0B64FB8420BD04E
:10AC6000B0F1804F08D0B44FB84205D0B34FB842CE
:10AC700002D0B34FB84206D14FF6FF57394046F4E1
:10AC80008077394305E04FF2FF57394044F480772D
:10AC9000394382830184F0BD028B4FF2FF331A40A7
:10ACA0000283028B4FF6FF7303EA01231A430283E8
:10ACB0007047F0B50C461546002200210026078C8F
:10ACC0004FF6EF7C07EA0C070784028B018C4FF6E6
:10ACD000FF7707EA041640F6FF473A404FF6FF7742
:10ACE00007EA03373A434FF6FF7707EA05273A4367
:10ACF0008F4FB8420ED08F4FB8420BD0B0F1804F7B
:10AD000008D08D4FB84205D08C4FB84202D08C4F3E
:10AD1000B84206D14FF6DF77394046F01007394385
:10AD200005E04FF65F77394044F01007394302835E
:10AD30000184F0BD028B4FF6F3731A400283028B3D
:10AD40000A4302837047F0B50C46154600220021E5
:10AD5000068C4FF6FE773E400684028B018C4FF640
:10AD60000C7632407E1C06EA03162E433243704EA8
:10AD7000B0420ED06F4EB0420BD0B0F1804F08D031
:10AD80006D4EB04205D06D4EB04202D06C4EB04216
:10AD900006D14FF6FD76314044F00106314305E01F
:10ADA0004FF6F576314044F00106314302830184C9
:10ADB000F0BD70B505460C465D4885420ED05D4835
:10ADC00085420BD0B5F1804F08D05B48854205D055
:10ADD0005A48854202D05A48854200D100E000BF5F
:10ADE000208850B92389A28861882846FFF7ABFFE5
:10ADF000E1882846FFF79EFF25E0208804280AD135
:10AE00002389A28861882846FFF753FFE1882846F6
:10AE1000FFF742FF17E0208808280AD12389A2887B
:10AE200061882846FFF7FBFEE1882846FFF7EEFE23
:10AE300009E02389A28861882846FFF7A6FEE188F9
:10AE40002846FFF795FE70BD2DE9F04105460C46FA
:10AE500000260127608808B9022600E00026A088A5
:10AE6000012801D1022700E001272088A0B9238909
:10AE7000A28861882846FFF766FFE1882846FFF729
:10AE800059FF23893A4631462846FFF712FFE188E9
:10AE90002846FFF701FF13E02389A288618828462E
:10AEA000FFF707FFE1882846FFF7F6FE23893A46B9
:10AEB00031462846FFF747FFE1882846FFF73AFF6B
:10AEC000BDE8F0810A884B881A438B881A43CB88E7
:10AED0001A430B891A434B891A438B891A43A0F8EA
:10AEE000442070474FF6FF71818000210180C180AE
:10AEF0004180017270470021018041808180C180C2
:10AF0000018141818181C18170470021018041809F
:10AF1000012181800021C1800181704700210180D1
:10AF200041808180C1800181418181817047000021
:10AF3000002C0140003401400004004000080040A3
:10AF4000000C004021B1028842F00102028004E0BE
:10AF500002884FF6FE731A400280704731B1B0F894
:10AF6000442042F40042A0F8442005E0B0F8442018
:10AF7000C2F30E02A0F8442070471AB183890B4334
:10AF8000838102E083898B4383817047818270478C
:10AF900041EA0203A0F8483070471AB183890B4395
:10AFA000838102E083898B438381704701894FF657
:10AFB000F8721140018170470A46002101894FF65D
:10AFC0008F73194011430181704730B504460D4617
:10AFD00029462046FFF7F0FF208940F00700208136
:10AFE00030BD2DE9F04104460D4616461F46602D42
:10AFF00006D13B46012231462046FFF75AFE05E0C6
:10B000003B46012231462046FFF79DFE2946204659
:10B01000FFF7D2FF208940F007002081BDE8F081D2
:10B0200030B50C4600210189C9B24FF6FF7505EA1B
:10B030000325154325432943018130BD2DE9F04106
:10B0400005460E4617469846002443463A46314682
:10B050002846FFF7E5FF2C894FF6F870044044F0CE
:10B0600007044FF68F70044044F070042C81BDE853
:10B07000F081F0B504460D4616461F463B46324663
:10B0800029462046FFF7CCFF208940F480402081EC
:10B09000F0BD0185828270470A46002101884FF683
:10B0A0008F731940114301807047F0B50C46154667
:10B0B0001E460021002200230189028B038C4FF6DB
:10B0C000F877394021434FF6FC473A4040F20117E8
:10B0D0003A434FF6DD773B404FF6FF7707EA061716
:10B0E0002F433B43018102830384F0BD0A460021C4
:10B0F000018B4FF68F7319401143018370470A4645
:10B100000021018B48F6FF7319404FF6FF7303EAE5
:10B1100002231943018370470A460021818B4FF6B1
:10B120008F7319401143818370470A460021818B38
:10B1300048F6FF7319404FF6FF7303EA02231943E1
:10B140008183704721B1028842F08002028004E0CE
:10B1500002884FF67F731A400280704721B18288BF
:10B1600042F00402828004E082884FF6FB731A40AA
:10B170008280704721B1828842F00802828004E018
:10B1800082884FF6F7731A408280704721B1828817
:10B1900042F00102828004E082884FF6FE731A407A
:10B1A000828070470A460021018B4FF6F7731940E1
:10B1B0001143018370470A460021018B4FF2FF7350
:10B1C00019404FF6FF7303EA0223194301837047C6
:10B1D0000A460021818B4FF6F77319401143818392
:10B1E00070470A460021818B4FF2FF7319404FF6DA
:10B1F000FF7303EA02231943818370470A46002143
:10B20000018B4FF6FB7319401143018370470A46C7
:10B210000021018B4FF6FF3319404FF6FF7303EA0D
:10B2200002231943018370470A460021818B4FF6A0
:10B23000FB7319401143818370470A460021818BBB
:10B240004FF6FF3319404FF6FF7303EA0223194309
:10B25000818370470A460021018B4FF67F731940A6
:10B260001143018370470A460021018BC1F30E018F
:10B270004FF6FF7303EA02231943018370470A461E
:10B280000021818B4FF67F731940114381837047F2
:10B290000A460021818BC1F30E014FF6FF7303EACA
:10B2A00002231943818370470A460021018C4FF61F
:10B2B000FD7319401143018470470A460021018C37
:10B2C0004FF6F77319401143018470470A46002175
:10B2D000018C4FF6DF7319404FF6FF7303EA021338
:10B2E0001943018470470A460021018C4FF67F7391
:10B2F00019404FF6FF7303EA0213194301847047A4
:10B300000A460021018C4FF6FF5319404FF6FF7398
:10B3100003EA02231943018470470A460021018C85
:10B320004FF2FF7319404FF6FF7303EA02231943EC
:10B33000018470470A460021018C4DF6FF731940C5
:10B340004FF6FF7303EA023319430184704730B5A7
:10B35000002301248C40A3B2048C9C430484048CFD
:10B3600002FA01F5ADB22C43048430BD30B50023A0
:10B3700004248C40A3B2048C9C430484048C02FA01
:10B3800001F5ADB22C43048430BD70B503460020F6
:10B3900000241846183001258D40ACB21D8CA54301
:10B3A0001D8409B1082909D100EB6100056825F069
:10B3B000700505600568154305600EE00D1FC5F3B7
:10B3C0004E052844056825F4E045056005684FF6FC
:10B3D000FF7606EA02263543056070BD21B102887A
:10B3E00042F00202028004E002884FF6FD731A4028
:10B3F0000280704721B1028842F00402028004E01A
:10B4000002884FF6FB731A400280704721B1828890
:10B4100042F08002828004E082884FF67F731A40F7
:10B420008280704702884FF6F7731A4002800288C4
:10B430000A430280704782884FF68F731A408280D9
:10B4400082880A438280704702894FF6F8731A4057
:10B45000028102890A430281704702894FF67F7395
:10B460001A40028102890A43028170478184704731
:10B470008185704781867047018770478187704753
:10B48000A0F84010704702884FF6FF431A40028030
:10B4900002880A43028070470146888E7047014641
:10B4A000088F70470146888F70470146B1F8400009
:10B4B00070470146888C70470146088D70470246E8
:10B4C0000020138A0B400BB1012000E000207047E0
:10B4D000CA430282704730B5024600200023002490
:10B4E000158A05EA0103958905EA010413B10CB137
:10B4F000012000E0002030BDCA43028270470000F6
:10B5000010B50446FB48844209D101218803FEF7A7
:10B5100019FF00214FF48040FEF714FF32E0F64897
:10B52000844209D101214804FEF719FF00214FF49C
:10B530000030FEF714FF25E0F048844209D10121D4
:10B540008804FEF70CFF00214FF48020FEF707FF70
:10B5500018E0EB48844209D10121C804FEF7FFFE40
:10B5600000214FF40020FEF7FAFE0BE0E54884428C
:10B5700008D101210805FEF7F2FE00214FF48010EA
:10B58000FEF7EDFE10BD2DE9F04786B005460E46EC
:10B590000024A24600BFA1460027B08900B100BF29
:10B5A0002F462C8A4CF6FF700440F08804432C820E
:10B5B000AC894EF6F3100440B08831890843718994
:10B5C00008430443AC81AC8A4FF6FF400440B08985
:10B5D0000443AC8201A8FEF72EFEC648874202D182
:10B5E000DDF810A001E0DDF80CA0A88900F400400F
:10B5F00040B10AEBCA0000EB0A1031684900B0FB09
:10B60000F1F807E00AEBCA0000EB0A103168890084
:10B61000B0FBF1F86420B8FBF0F0040120096421CC
:10B6200001FB1089A88900F4004040B1322000EBF2
:10B63000C900B0FBF1F000F00700044308E032203D
:10B6400000EB09106421B0FBF1F000F00F0004439F
:10B650002C8106B0BDE8F0874FF41651016000213F
:10B660008180C18001810C2141810021818170474D
:10B6700010B502460020108A4FF2FF0318400B88D5
:10B680004C8823438C882343CC882343184310825F
:10B6900010BD0021018041808180C180704721B1AF
:10B6A000828942F40052828104E082894DF6FF7360
:10B6B0001A4082817047F0B5034600240026002519
:10B6C000002040F66A17B94200D100BF1846C1F306
:10B6D000421401F01F06012707FA06F5012C01D1DB
:10B6E0000C3004E0022C01D1103000E014301AB10B
:10B6F00007682F43076002E00768AF430760F0BDAB
:10B700001AB1838A0B43838202E0838A8B4383824C
:10B710007047028A4FF6F0731A400282028A0A4387
:10B720000282704782894FF2FF731A4082818289B8
:10B730000A438281704721B1828942F002028281EC
:10B7400004E082894FF6FD731A4082817047028AB5
:10B750004FF6DF731A400282028A0A430282704760
:10B7600021B1028A42F48042028204E0028A4BF64E
:10B77000FF731A4002827047C1F30802828070474B
:10B7800001468888C0F308007047818941F00101B3
:10B7900081817047028BD2B20283028B42EA01227E
:10B7A00002837047028B02F47F420283028B0A43BA
:10B7B0000283704721B1828A42F02002828204E033
:10B7C000828A4FF6DF731A408282704721B1828AE3
:10B7D00042F01002828204E0828A4FF6EF731A4030
:10B7E0008282704721B1828A42F00802828204E09C
:10B7F000828A4FF6F7731A408282704721B182899C
:10B8000042F40042828103E08289C2F30E02828107
:10B81000704721B1828A42F40062828204E0828A07
:10B820004FF2FF731A4082827047828A4FF6FB7391
:10B830001A408282828A0A438282704721B1828AB8
:10B8400042F00202828204E0828A4FF6FD731A40BF
:10B850008282704702460020B1F5007F00D100BF10
:10B8600013880B400BB1012000E00020704701F469
:10B870000072B2F5007F00D100BFCA43028070475A
:10B8800070B50246002400230025002040F66A1609
:10B89000B14200D100BFC1F3421501F01F030126E0
:10B8A00006FA03F3012D02D19689334006E0022DFA
:10B8B00002D1168A334001E0968A33400C120126E9
:10B8C00006FA04F41688344013B10CB1012000E0EC
:10B8D000002070BD10B50022002340F66A14A1427A
:10B8E00000D100BF0A1201249440A3B2DC430480BB
:10B8F00010BD0000003801400044004000480040F6
:10B90000004C00400050004009488047094800476B
:10B91000FEE7FEE7FEE7FEE7FEE7FEE7FEE7FEE7FF
:10B92000FEE7FEE704480549054A064B704700005C
:10B93000AB96000831810008687C002068820020F6
:10B94000687E0020687E002008B501214020FEF7B7
:10B95000DFFC4FF6FF70ADF8000010208DF80300FB
:10B9600003208DF802006946EB48FEF715FABDF892
:10B970000010E948FEF7BFFA08BDE8490988491CEC
:10B98000E64A11801146098832291BDB002111800B
:10B99000E349097819B90121E14A117002E0002157
:10B9A000DF4A1170DE49097831B9DE49098821F48E
:10B9B0000051DC4A118005E0DA49098841F4005160
:10B9C000D84A11800021D84A117022E0D749D64ABE
:10B9D000127831F81210B1F5007F0ADBD2490978EC
:10B9E000C91C01228A40CF4909889143CD4A118060
:10B9F0000AE0CD490978C91C012202FA01F1C94ABD
:10BA000012881143C74A1180C7490978491CC64AA0
:10BA10001170C54909780829D8DB0021C24A117084
:10BA20008BE0C2493E39B1F86E10BF4A127852001D
:10BA3000114101F00300BC490978032939DA48B9FA
:10BA4000B9490A7801219140B64A12881143B54A92
:10BA500011806DE0012809D1B3490A780121914094
:10BA6000B04A12888A43AF490A8061E002285FD158
:10BA7000AE493431AC4A1278895C012909D1AA490E
:10BA80000A7801219140A74A12888A43A5490A8071
:10BA90004EE0A6493431A44A1278895C11BBA24910
:10BAA0000A78012191409F4A128811439D4A1180D2
:10BAB0003EE058B99C490978C91E012202FA01F1F9
:10BAC0009B4A128811439A4A118031E001280AD119
:10BAD00095490978C91E01228A40954909889143F0
:10BAE000934A118024E0022822D1904934318E4AB1
:10BAF0001278895C01290AD18B490978C91E012273
:10BB00008A408B4909889143894A118010E087490E
:10BB10003431854A1278895C51B983490978C91E44
:10BB2000012202FA01F1824A12881143804A1180EF
:10BB30007D490978491C7C4A11707B49097806299E
:10BB4000FFF66FAF0021784A117049E077493E391E
:10BB5000B1F87010744A12785200114101F00300DC
:10BB600058B971490978C91C012202FA01F1704AD9
:10BB7000128811436E4A11802DE001280AD16A49CA
:10BB80000978C91C01228A40694909889143684A99
:10BB9000118020E002281ED164493A31624A1278AD
:10BBA00031F81210B1F5007F0ADB5F490978C91C32
:10BBB00001228A405E49098891435D4A11800AE06A
:10BBC00059490978C91C012202FA01F1584A128820
:10BBD0001143574A118054490978491C524A11703F
:10BBE000514909780829B1DB52490978002904DD57
:10BBF00050490978491E4F4A11704F490978002968
:10BC000004DD4D490978491E4B4A117049490978AC
:10BC1000002906DD4649098821F48051444A1180F3
:10BC200005E04349098841F48051414A1180424965
:10BC30000978002906DD3E49098821F400613C4A63
:10BC4000118005E03A49098841F40061384A1180C1
:10BC50003A490978002904DD38490978491E374AEC
:10BC6000117037490978002904DD35490978491EE2
:10BC7000334A117031490978002906DD29490988BC
:10BC800021F40061274A118005E02649098841F422
:10BC90000061244A11802A490978002906DD2149DA
:10BCA000098821F480511F4A118005E01D49098847
:10BCB00041F480511B4A1180704710B5214800782B
:10BCC00008B9012000E000201E49087008460078ED
:10BCD00080B11748008820F4804015490880084644
:10BCE000008840F400400880084601880A48FEF7B2
:10BCF00009F90FE00B48008840F4804009490880AA
:10BD00000846008820F40040088008460188024860
:10BD1000FEF7F8F810BD0000001801404E000020AA
:10BD20004800002046000020500000209A5B0020C0
:10BD3000440000204B0000204C000020490000205F
:10BD40004A0000205100002008B501210820FEF71C
:10BD5000DFFA0320ADF8000010208DF80300032067
:10BD60008DF8020069469748FEF716F803219548BA
:10BD7000FEF7BFF801211020FEF7CAFA2020ADF827
:10BD8000000010208DF8030003208DF802006946A2
:10BD90008D48FEF701F820218B48FEF7AAF808BD70
:10BDA00010B58848006820F00F00864908600846F2
:10BDB000006840F00300086001208449086084495D
:10BDC000C1F88401042002F013F900207F490860C3
:10BDD000042002F00DF900207D49C1F8840110BD56
:10BDE00010B57848006820F00F00764908600846D2
:10BDF000006840F00300086000207449091D0860D5
:10BE00007349C1F88001042002F0F2F801206F4963
:10BE1000091D08606E49C1F88001042002F0E8F8AD
:10BE200010BD10B500246748006820F00F00654978
:10BE300008600846006840F0080008600120634977
:10BE4000086002F0D5F801206149C1F8840102F0D0
:10BE5000CFF807E0601CC4B2FA2C03DDFFF7C0FF87
:10BE6000012010BD5948803800680028F2D1574998
:10BE7000091D086000BFF4E710B500205349091DF3
:10BE800008605048006820F00F004E4908600846DE
:10BE9000006840F00300086000204D49C1F88001AF
:10BEA000022002F0A5F801204849091D086002207F
:10BEB00002F09EF800204649C1F8840110BD10B57B
:10BEC00000204249091D08603E48006820F00F002C
:10BED0003C4908600846006840F003000860012003
:10BEE0003B49C1F88001022002F082F80120374965
:10BEF000091D0860022002F07BF800203449C1F8D7
:10BF0000840110BD70B504462E48006820F00F0073
:10BF10002C4908600846006840F0030008600020D3
:10BF20002A49091D0860002517E0E0092749086033
:10BF30006006040E022002F05BF801202449C1F8DB
:10BF40008401022002F054F800202049091D0860F5
:10BF5000022002F04DF8681CC5B2082DE5DB70BD6B
:10BF600070B5054600241748006820F00F001549F9
:10BF700008600846006840F008000860002617E0E6
:10BF800000201249091D0860022002F031F801204A
:10BF90000F49C1F884016006040E0C48803800681F
:10BFA00008B1601CC4B2012002F022F8701CC6B2B5
:10BFB000082EE5DB15B9FFF782FF01E0FFF75CFF14
:10BFC000204670BD000C01400010014080812142DC
:10BFD0000080214210B5FFF7B7FE10BD70B50446D2
:10BFE0000026FFF7DDFE2546E11704EB116109127B
:10BFF000A02202EB4101C8B2FFF784FFFFF711FF57
:10C00000E11704EB11610912A4EB0121C8B2FFF79B
:10C0100079FFFFF706FFFFF7C3FEA120FFF772FFCE
:10C02000FFF7FFFE0020FFF79BFF0646FFF7D8FE55
:10C03000304670BD70B504460E4600204949086080
:10C04000012002F000F8FFF7ABFE2546E11704EBF4
:10C0500011610912A02202EB4101C8B2FFF752FFA1
:10C06000FFF7DFFEE11704EB11610912A4EB0121D8
:10C07000C8B2FFF747FFFFF7D4FE3046FFF742FF95
:10C08000FFF7CFFEFFF7ACFE01203749C1F894015E
:10C09000022001F0D8FF70BD2DE9F04105460E46A3
:10C0A0001746002409E0E20026FA02F2D1B22A196A
:10C0B00090B2FFF7BFFF601CC4B2BC42F3DBBDE827
:10C0C000F0812DE9F04107460C460026002509E0E5
:10C0D00036023919491B491E88B2FFF77FFF064413
:10C0E000681CC5B2A542F3DB3046BDE8F08110B54F
:10C0F000FF20FFF773FF0446552C01D1002010BD2F
:10C100005521FF20FFF796FFFF20FFF767FF04464A
:10C11000552C01D10020F2E70120F0E770B506466A
:10C120000C46154608E03046721C96B2FFF756FFE3
:10C1300004F8010B681E85B2002DF4D170BD70B5F6
:10C1400005460C46164606E021782846FFF772FFA2
:10C15000681C85B2641C3000A6F101018EB2F3D1D7
:10C1600070BD0000940122420000224210B5044636
:10C17000814800884FF6C77108407F49088008460B
:10C1800000882043088001217B48FEF7F0F910BDAC
:10C1900070B50546002406E0601C84B2B4F5803F0B
:10C1A00001DB002070BD02217348FEF764FA00280D
:10C1B000F2D029467048FEF70BFA06E0601C84B204
:10C1C000B4F5803F01DB0020ECE701216A48FEF76F
:10C1D00052FA0028F2D06848FEF7FCF9C0B2E1E755
:10C1E00000B587B0012141F20800FEF791F8012166
:10C1F0000846FDF7A2FE3820ADF8180018208DF88B
:10C200001B0003208DF81A0006A95C48FDF7C4FD49
:10C21000BDF818105948FDF76CFE0020ADF8040079
:10C220004FF48270ADF806000020ADF80800ADF8BC
:10C230000A00ADF80C004FF40070ADF80E00382085
:10C24000ADF810000020ADF812000720ADF8140082
:10C2500001A94948FEF7E6F801214748FEF787F9AA
:10C26000FF20FFF795FF0820FFF780FF07B000BD14
:10C2700010B50446424800884FF6C771084040494F
:10C280000880084600882043088001213C48FEF7CA
:10C290006EF910BD70B50546002406E0601C84B23E
:10C2A000B4F5803F01DB002070BD02213448FEF769
:10C2B000E2F90028F2D029463148FEF789F906E074
:10C2C000601C84B2B4F5803F01DB0020ECE7012163
:10C2D0002B48FEF7D0F90028F2D02948FEF77AF96A
:10C2E000C0B2E1E700B587B001210820FEF710F8E1
:10C2F00001218803FEF719F84FF46040ADF81800EB
:10C3000018208DF81B0003208DF81A0006A91B4881
:10C31000FDF742FD4FF460411848FDF7EAFD0020AB
:10C32000ADF804004FF48270ADF806000020ADF8BF
:10C3300008000220ADF80A000120ADF80C00400210
:10C34000ADF80E001820ADF810000020ADF8120076
:10C350000720ADF8140001A90948FEF763F8012190
:10C360000748FEF704F9FF20FFF794FF3820FFF796
:10C370007FFF07B000BD000000300140000C01400D
:10C380000038004010B501214448FFF798F801211A
:10C390004248FFF79DF810BD7FB505460C460121C8
:10C3A0000220FDF7C2FFADF80850ADF804400020B0
:10C3B000ADF80A00ADF8060001A93848FEF766FAA4
:10C3C0001D208DF8000000208DF8010002208DF85E
:10C3D000020001208DF803006846FDF7ECF9012208
:10C3E00011462E48FEF7C9FD01212C48FEF7AAFD93
:10C3F0007FBD10B501212A48FFF761F8012804D15B
:10C4000028480068401C2749086027480088B0F584
:10C410007A7F05DA24480088401C2349088002E01E
:10C420000020214908802148006820B11F48006889
:10C43000401E1E49086001211948FFF749F810BD48
:10C440007FB505460C4601211020FDF76EFFADF8C3
:10C450000850ADF804400020ADF80A00ADF8060021
:10C4600001A90F48FEF712FA36208DF800000120CE
:10C470008DF8010003208DF8020001208DF80300E3
:10C480006846FDF798F9012211460548FEF775FD4B
:10C4900001210348FEF756FD7FBD00000004004067
:10C4A0000010004058000020B40800205400002074
:10C4B00008B501210820FDF72BFFC020ADF80000D2
:10C4C00010208DF8030003208DF802006946FE4815
:10C4D000FDF762FC4FF48070ADF8000048208DF845
:10C4E000030003208DF802006946F748FDF754FC6D
:10C4F00040F2CF216420FFF7A3FF8021F248FDF72F
:10C50000FAFC0A2001F09FFD8021EF48FDF7F1FCC5
:10C510000A2001F098FD08BD70B505460C460026BE
:10C520004021E948FDF7E7FC04F01F0040EA05065A
:10C530003046FFF72DFEFF20FFF72AFE064604F0E7
:10C54000800018B1FF20FFF723FE06464021DE4899
:10C55000FDF7CFFC304670BD2DE9F04104460D4695
:10C56000164600274021D848FDF7C5FC05F01F00FE
:10C5700040EA04073846FFF70BFE3046FFF708FE97
:10C580004021D148FDF7B5FCBDE8F08170B5054606
:10C590000C464021CC48FDF7AEFC3A20FFF7F8FDF1
:10C5A00005E06D1E0020FFF7F3FD2070641C002DD8
:10C5B000F7D1002020704021C348FDF79AFC70BDE0
:10C5C00070B504460D464021BF48FDF794FC7A2023
:10C5D000FFF7DEFD04E0641E2878FFF7D9FD6D1C2F
:10C5E000002CF8D14021B848FDF783FC70BD10B590
:10C5F000044604F06000B549097888420ED0032251
:10C600001F21A020FFF7A8FFC4F341121F218020A3
:10C61000FFF7A2FF04F06000AC49087010BD10B530
:10C6200004462046FFF7E3FF21460020FFF774FF92
:10C6300010BD70B504460D462046FFF7D8FF2A46C8
:10C6400021464020FFF788FF70BD70B505460C46B7
:10C6500000262946D420FFF7ECFFE1B2D620FFF7F1
:10C66000E8FFC4F30721D720FFF7E3FF01E0701CC8
:10C6700086B2EA20FFF7D3FF00F0010018B140F6C0
:10C68000FF708642F3DB70BD70B504460025FFF7EE
:10C690000FFF09E0FF2200211046FFF75DFF681C35
:10C6A00085B20A2001F0CFFC1D20FFF7B8FF00F093
:10C6B000010010B9B5F5FA7FECDBB5F5FA7F01DBC7
:10C6C000012070BD00208249086000210820FFF78A
:10C6D000B0FF00210920FFF7ACFF00210C20FFF77D
:10C6E000A8FF00210D20FFF7A4FF10210A20FFF76B
:10C6F000A0FF1A210B20FFF79CFF11210420FFF758
:10C7000098FF1A210520FFF794FFFF210620FFF76D
:10C7100090FF1F210720FFF78CFFA1213820FFF792
:10C7200088FF3F212820FFF784FF30212920FFF7D1
:10C7300080FFF9213020FFF77CFFF7213120FFF740
:10C7400078FF0D21C020FFF774FF0021C120FFF703
:10C7500070FF3322C2218020FFF7FEFE1221C62087
:10C76000FFF767FF0C21C720FFF763FF1521C420E7
:10C77000FFF75FFFEE21CA20FFF75BFF0521CB200B
:10C78000FFF757FF2178E420FFF753FF6178E5209A
:10C79000FFF74FFFA178E220FFF74BFFE178E3209E
:10C7A000FFF747FF2179E020FFF743FF6179E120A0
:10C7B000FFF73FFF4FF480710020FFF746FF4FF473
:10C7C00080711020FFF741FF1F20FFF710FFC022EC
:10C7D0001B218020FFF7C0FE04221F218020FFF7CD
:10C7E000BBFEE420FFF71BFF2178884201D1002027
:10C7F00067E7012065E710B57220FFF710FF10BD55
:10C8000070B504460D4611210220FFF712FF1A21D0
:10C810000320FFF70EFF11202044C1B20620FFF7CE
:10C8200008FF41F611202044C0F307210720FFF73D
:10C8300000FF002211467A20FFF78EFE294620468F
:10C84000FFF7BEFE08221F218020FFF785FE1C2077
:10C85000FFF7E5FE00F0020020B108221F21A02012
:10C86000FFF77AFE70BD2DE9F04105460F463920ED
:10C87000FFF7D5FE10B90020BDE8F081144801781B
:10C880000020FFF7D6FE12480088C0F307210120E0
:10C89000FFF7CFFE00213A20FFF73EFE0C4908606B
:10C8A00000213A20FFF738FE0949096841EA0020D3
:10C8B0000749086000213A20FFF72EFE04460021B8
:10C8C0003A20FFF729FE05E0000C01405C00002043
:10C8D0006000002044EA0024241F00213A20FFF7D2
:10C8E0001BFE064600213A20FFF716FE46EA002608
:10C8F000681EA04200D26C1E06F0800008B9002419
:10C9000003E039462046FFF741FE094801780C2034
:10C91000FFF78FFE06480088C0F307210D20FFF7C0
:10C9200088FE40221E218020FFF716FE2046A3E746
:10C930006000002008B5B020ADF8000010208DF890
:10C94000030002208DF8020069469848FDF724FA9A
:10C950000F20ADF8000010208DF8030003208DF8A3
:10C96000020069469248FDF717FA01214FF404705E
:10C97000FDF7CEFC1020ADF8000000208DF803007C
:10C9800069468B48FDF708FA08BD00B585B04FF43D
:10C990000040FDF721FC01214802FDF7B9FC002011
:10C9A00000908DF804008DF805004FF4602002908F
:10C9B0000020039001208DF8100069467D48FCF7A7
:10C9C0008AFF01217B48FCF7B2FF7A48FCF7D1FFD0
:10C9D00000BF7848FCF7D2FF0128FAD07548FCF771
:10C9E000D7FF00BF7348FCF7D8FF0128FAD005B085
:10C9F00000BD10B5FFF79EFFFFF7C7FF10BD0B2866
:10CA000001D0062807D101216B4A116000216B4A31
:10CA1000C2F8901118E00C2807D10021664A116075
:10CA20000121664AC2F890110EE00D2806D10021BE
:10CA3000614A1160614AC2F8901105E001215E4A25
:10CA400011605E4AC2F89011704770B504460D46F9
:10CA5000002602212046FDF724F90523012229465C
:10CA60002046FCF7D0FF01212046FCF7A0FF00BFC5
:10CA700002212046FDF70CF90028F9D02046FDF7E9
:10CA800029F80646304670BD10B500240E214948ED
:10CA9000FFF7DBFF4A494B4A127821F812004A4857
:10CAA00048490978405C062841D1454845490978FC
:10CAB00030F811004549434A127821F812004448E1
:10CAC0004049097830F8110040493E4A127831F85F
:10CAD0001210884220DD3E483A49097830F81100AA
:10CAE0003A49384A127831F81210401AB0F5FA6F04
:10CAF00012DD354832303349097850F83100401C96
:10CB0000314932312F4A127841F83200012131483F
:10CB10002C4A127820F812102C482A49097830F84B
:10CB200011002B49274A127821F812001BE02448F3
:10CB3000244A127830F812102248007807F017FDC6
:10CB40000446A110204A1F4B1B78D05C1D4A137865
:10CB50004FF4FA7207F064FC81B21B481838194A86
:10CB6000127820F8121017480078401C15490870F8
:10CB70000878C11700EB5171C910A0EBC101114A2F
:10CB8000117007210A48FDF7B6F90E4801780848E8
:10CB9000FDF7AFF901200849083108600A49094A40
:10CBA0001278885CFFF72BFF10BD000000080140E1
:10CBB0000010014000240140940121420000214264
:10CBC0002C0C002090000020B25B00203C0C0020C8
:10CBD000640000201C0C002000B589B00121022057
:10CBE000FDF7A3FB01211120FDF792FB0121EB488A
:10CBF000FDF7A3F94FF47070ADF8200018208DF800
:10CC0000230003208DF8220008A9E548FDF7C4F8A9
:10CC100001210420FDF789FB01212120FDF778FB8C
:10CC200001210803FDF789F94FF47040ADF82000A9
:10CC300018208DF8230003208DF8220008A9D94878
:10CC4000FDF7AAF801210846FDF76FFB0121092035
:10CC5000FDF75EFB0121D448FDF76FF94FF440600A
:10CC6000ADF8200018208DF8230003208DF8220055
:10CC700008A9CE48FDF790F801210820FDF755FBE3
:10CC800001210520FDF744FB0F20ADF820001820FE
:10CC90008DF8230003208DF8220008A9C448FDF771
:10CCA0007BF84FF47A70ADF818000020ADF814004E
:10CCB000ADF81A00ADF8160005A94FF08040FDF759
:10CCC000E5FD4FF47A70ADF818000020ADF81400BF
:10CCD000ADF81A00ADF8160005A9B648FDF7D6FD67
:10CCE0004FF47A70ADF818000020ADF81400ADF8DC
:10CCF0001A00ADF8160005A9AF48FDF7C7FD4FF4BF
:10CD00007A70ADF818000020ADF81400ADF81A00E4
:10CD1000ADF8160005A9A948FDF7B8FD7020ADF8DB
:10CD200004000120ADF806000220ADF80C0001A9B6
:10CD3000A148FDF7E8FD01A99F48FDF726FE01A9DE
:10CD40009D48FDF76FFE01A99B48FDF7B6FE01A9BE
:10CD50009848FDF767FE01A99648FDF7AEFE01A9C8
:10CD60004FF08040FDF75EFE01A94FF08040FDF7D7
:10CD7000A4FE01A98F48FDF7C6FD01A98D48FDF766
:10CD800004FE01A98D48FDF7BEFD01A98B48FDF702
:10CD9000FCFD01A98948FDF745FE01A98748FDF77B
:10CDA0008CFE08218448FEF7FDF908218248FEF731
:10CDB00002FA08218048FEF70BFA08217E48FEF7A8
:10CDC00010FA0821C806FEF703FA0821C806FEF784
:10CDD00008FA08217948FEF7E5F908217748FEF7B7
:10CDE000EAF908217548FEF7F3F908217348FEF7C0
:10CDF000F8F908216F48FEF7D5F908216D48FEF7CC
:10CE0000DAF908216B48FEF7E3F908216948FEF7D3
:10CE1000DFF901216748FEF795F801218807FEF741
:10CE200091F801216448FEF78DF801216348FEF76F
:10CE300089F809B000BD2DE9F04106460C461546BB
:10CE40002F46012C06D0022C09D0032C0CD0042C28
:10CE500014D10EE039463046FEF70CFB0EE03946A1
:10CE60003046FEF709FB09E039463046FEF706FB7F
:10CE700004E039463046FEF703FB00BF00BFBDE8C3
:10CE8000F08170B500243CE04D48B0F870006100BE
:10CE9000084100F003057DB94A4A02EBC40211794A
:10CEA000484A52F834000022FFF7C5FF00214448E9
:10CEB000783020F8141022E0012D11D1414A02EB04
:10CEC000C40211793F4A52F834004FF47A72FFF7E6
:10CED000B2FF4FF47A713A48783020F814100EE01F
:10CEE000022D0CD1364B783333F81420354B03EB3D
:10CEF000C4031979334B53F83400FFF79CFF601CCF
:10CF0000C4B2082CC0DB70BD70B5002443E02C48CF
:10CF1000B0F86E006100084100F0030555B92A4AD7
:10CF200002EBC4021179284A52F834000022FFF7BC
:10CF300082FF2EE0012D0BD1234A02EBC4021179AE
:10CF4000214A52F834004FF47A72FFF774FF20E060
:10CF5000022D1ED11A487230005D01280BD11A4AE9
:10CF600002EBC4021179184A52F834004FF47A7275
:10CF7000FFF761FF0DE012487230005D48B9124AB8
:10CF800002EBC4021179104A52F834000022FFF774
:10CF900052FF601CC4B2062CB9DB70BD000C1A0035
:10CFA000001001400014014000031800000C014073
:10CFB0000008014000040040000C00400008004050
:10CFC0005C5B002058F7010898F7010808B50121BB
:10CFD0000820FDF79DF94FF40070ADF80000102017
:10CFE0008DF8030003208DF8020069469648FCF78F
:10CFF000D3FE08BD10B54FF400719348FCF779FFDC
:10D0000010BD10B54FF400718F48FCF774FF10BDD0
:10D0100008B501212020FDF77BF940F6FF70ADF83F
:10D02000000048208DF8030003208DF802006946B7
:10D030008648FCF7B1FE01211020FDF769F94FF495
:10D040008060ADF8000048208DF8030003208DF8C3
:10D05000020069467E48FCF79FFE01210420FDF78F
:10D0600057F94FF40060ADF8000048208DF8030038
:10D0700003208DF8020069467648FCF78DFE4FF4D8
:10D08000C050ADF8000010208DF8030003208DF88B
:10D09000020069466E48FCF77FFE4FF4C0516C48B1
:10D0A000FCF727FF08BDF0B504460D4616460020E4
:10D0B00015E00127874007EA05010127874007EAB5
:10D0C000040219B112B100271F5406E011B1022762
:10D0D0001F5402E00AB101271F54471CF8B2B042A6
:10D0E000E7DBF0BD10B54FF400615948FCF701FFD4
:10D0F0004FF480515648FCF7FEFE5448FCF7E8FE1A
:10D10000554908804FF480615148FCF7D8FE5349D7
:10D1100008704FF400614F48FCF7D1FE5049087089
:10D120004FF480514A48FCF7E4FE4FF40061484850
:10D13000FCF7E1FE4548FCF7CBFE4A4908804FF476
:10D1400080614348FCF7BBFE474908704FF400611B
:10D150004048FCF7B4FE45490870454B0D223E4857
:10D16000018840480088FFF79EFF414B0C330122A5
:10D170003A4801783C480078FFF795FF3C4B0D3367
:10D1800001223748017839480078FFF78CFF0020EA
:10D190003849A1F86E0000213648A0F8701000242C
:10D1A00014E03448B0F86E004FF6FF7101EA8000D9
:10D1B0003049A1F86E000846B0F86E002C49095DB0
:10D1C00008432C49A1F86E00601CC4B2052CE8DBB2
:10D1D000274800782649497800EB8100244989785E
:10D1E00000EB01102249497B00EB81102049097BAB
:10D1F00000EB01201E49C97A00EB81201D49A1F8EE
:10D200006E001B48807A1A49497A00EB8100184960
:10D21000097A00EB01101649C97900EB8110144915
:10D22000897900EB01201249497900EB81201049EE
:10D23000097900EB01300E49C97800EB813081B2E9
:10D240000C48A0F8701010BD000C01400014014003
:10D2500000100140000801409400002097000020C9
:10D2600099000020920000209600002098000020E5
:10D27000680C00205C5B002010B5002407E004EB84
:10D280008401F94A02EB810000F0E0FC641C052CEB
:10D29000F5D3F64800F0DAFCF54800F0D7FCF54885
:10D2A00000F0D4FCF44800F0D1FCF44800F0CEFCCF
:10D2B000EE48F3490860EE48F249086010BD2DE9D8
:10D2C000F04104460E4615469846069F1022314608
:10D2D00004F1340010F06DF8002143200155052DB4
:10D2E00000D30425E562201D00F0BDFC04F1180008
:10D2F00000F0B9FC2461C5F10500A0616462BDE8DD
:10D30000F08170B505460E46442000F043FD04460A
:10D3100094B11EB9A80000F03DFD00E03046206346
:10D32000206B20B9204600F096FD002404E0A900FF
:10D33000A522206B0FF0ECFF204670BD2DE9FF4FBA
:10D3400081B0804615469946DDE90E7A2846109947
:10D35000FFF7D7FF0446002C56D0681E216B01EB67
:10D36000800B2BF0070B00953A462046119B029943
:10D37000FFF7A5FF4A464146584600F0B1FC206041
:10D38000BAF1000F01D0CAF8004000F0D9FCBE4845
:10D390000068401CBC490860BC48006840B9BB48F4
:10D3A00004600846006801280CD1FFF765FF09E01A
:10D3B000B748006830B9B5480068C06AB84201D8BB
:10D3C000B2480460B349E06A0968884202D9B149A9
:10D3D000E06A0860B0480068401CAF490860AF4987
:10D3E000E06A0968884202D9AC49E06A0860E16AEB
:10D3F00001EB81019C4A02EB8100211D00F036FC0B
:10D40000012600F0A6FC01E04FF0FF36012E09D105
:10D410009F48006830B19D480068C06AB84201D298
:10D4200000F088FC304605B0BDE8F08F70B50446CA
:10D4300000F086FC95480068844200D1002414B9AD
:10D440009248006800E020460546281D00F036FCA2
:10D45000A86A18B105F1180000F030FC291D8648B3
:10D4600000F004FC8E480068401C8D4908608A4822
:10D470000068401C8849086000F06BFC8448006824
:10D4800010B10CB900F056FC70BD70B5854800684D
:10D49000002866D184480068401C8349086008461B
:10D4A000006808BB7649086876490968744A1160C3
:10D4B000744908607D490968491C7C4A11607049BB
:10D4C0000968096809B9012100E0002121B14FF084
:10D4D000FF31774A116006E069490968C968CC687C
:10D4E000734A6168116000BF6F480068704909683D
:10D4F000884235D300BF62480068006808B901203F
:10D5000000E0002020B14FF0FF306949086026E0BC
:10D510005B480068C068C468656863480068A842E2
:10D5200002D2634805601AE0201D00F0C7FBA06A24
:10D5300018B104F1180000F0C1FB5849E06A09680D
:10D54000884202D95549E06A0860E16A01EB81012D
:10D55000454A02EB8100211D00F088FBCBE700BFAC
:10D5600004E054480068401C5249086070BD70B522
:10D57000002500F0E5FB4B480068401E4949086063
:10D580000846006800284CD13F480068002848D071
:10D59000002621E03748C068C46804F1180000F094
:10D5A0008DFB201D00F08AFB3C49E06A0968884237
:10D5B00002D93A49E06A0860E16A01EB81012A4A2E
:10D5C00002EB8100211D00F051FB3049E06A09683F
:10D5D000C96A884200D301262648006808B901209C
:10D5E00000E000200028D5D03248006860B106E095
:10D5F000FFF74BFF2F480068401E2E4908602D485A
:10D6000000680028F4D10126012E03D02A480068C2
:10D61000012805D1012500202749086000F08AFB78
:10D6200000BF00F096FB284670BD10B504461748B1
:10D63000006844601C480068844207D213480168AF
:10D64000091D1048006800F01FFB0CE00F4801683E
:10D65000091D0B48006800F017FB1548006884425C
:10D6600001D21348046010BD780C0020DC0C0020AF
:10D67000F00C0020040D0020180D00202C0D0020BF
:10D68000A0000020A4000020AC0000209C0000208E
:10D69000BC000020B4000020D0000020B800002012
:10D6A000A8000020C0000020B0000020CC00002016
:10D6B000D4000020C4000020C8000020F948006801
:10D6C000401CF849086070472DE9F04104460F46B8
:10D6D0004FF00008FFF7F2FF2068C519F2492068F3
:10D6E0000968884209D92068A8420FD9EE48006825
:10D6F00085420BD94FF0010808E02068A84203D802
:10D70000E9480068854201D94FF001082560B8F169
:10D71000000F07D0E5480068001D00F0CFFA28464A
:10D72000FFF783FFFFF723FF06460EB900F002FB69
:10D73000BDE8F08170B5044600267CB1FFF7BEFF5E
:10D74000D94800680519D9480068001D00F0B6FAEC
:10D750002846FFF76AFFFFF70AFF06460EB900F0FA
:10D76000E9FA70BD70B5044600F0EAFA14B9CF4882
:10D77000006800E020460646F56A00F0EAFA28460E
:10D7800070BD2DE9F04106460D464FF00008052D0D
:10D7900000D3042500F0D4FAC4480068864200D1C2
:10D7A000002616B9C148006800E030460446E76A22
:10D7B000AF422DD0BD4203D92EB14FF0010802E097
:10D7C0000EB94FF00108E562C5F10500A06107EB55
:10D7D0008701B74A02EB81016069884213D1201D9D
:10D7E00000F06CFAB349E06A0968884202D9B1498D
:10D7F000E06A0860E16A01EB8101AD4A02EB810059
:10D80000211D00F033FAB8F1010F01D100F092FAB6
:10D8100000F09FFABDE8F081A248006818B101202D
:10D82000A549086025E004E0A2480068401EA1491F
:10D830000860A048006800EB80009D4951F8200076
:10D840000028F1D09B49096801EB8101984A02EB5D
:10D85000810041684968416000F1080142688A42DC
:10D8600002D14168496841604168C9688F4A1160C6
:10D8700000BF704770B5044600F062FA8B4800683C
:10D88000844200D1002414B98848006800E0204692
:10D890000546281D00F012FAA86A18B105F1180013
:10D8A00000F00CFA291D854800F0E0F900F051FA6B
:10D8B0008CB98348006810B100F03CFA0BE07F4857
:10D8C000006880490968884203D1002077490860D0
:10D8D00001E0FFF7A1FF70BD10B5014600200A4628
:10D8E000764C5369A34201D1012300E0002383B1A8
:10D8F000754C936AA34201D1012300E00023012B60
:10D9000007D0936A0BB9012300E00023012B00D15B
:10D91000012010BD70B505462C4644B3634800682D
:10D92000844224D000F00CFA2046FFF7D5FF0128EE
:10D930001BD1201D00F0C2F95E49E06A09688842E7
:10D9400002D95C49E06A0860E16A01EB8101584A4A
:10D9500002EB8100211D00F089F95449E06A096851
:10D96000C96A884201D300F0E5F900F0F2F970BD10
:10D9700070B5054600262C462046FFF7ADFF01286E
:10D9800026D148480068F0B94849E06A0968C96A80
:10D99000884201D3012000E000200646201D00F04F
:10D9A0008DF94449E06A0968884202D94149E06A30
:10D9B0000860E16A01EB81013D4A02EB8100211D13
:10D9C00000F054F904E004F118013F4800F04EF96A
:10D9D000304670BD10B50446206B00F03CFA20467E
:10D9E00000F039FA10BD70B53848006818B3FFF779
:10D9F00065FE3748006808B9012000E000200546B0
:10DA0000FFF7B5FDBDB900F09BF93148C068C468A7
:10DA1000201D00F053F92B480068401E294908607A
:10DA20002A480068401E2949086000F092F9204603
:10DA3000FFF7D0FF00BF70BD00BFFFF7D4FF1C4849
:10DA400000680128F9D900F075F9F6E71FB5002044
:10DA5000009001900290034680221EA103901F486F
:10DA6000FFF76CFC0446012C09D1FAF729FC0120D0
:10DA70001349086000200C49086000F045F91FBDFB
:10DA800010B5FAF71DFC00200D49086000F051F9AF
:10DA900010BD10B500F054F90348046800F059F9BE
:10DAA000204610BDC0000020B00000209C000020D7
:10DAB000780C0020B8000020C80000202C0D0020A9
:10DAC000BC000020AC000020040D0020A8000020B5
:10DAD000180D002049444C450000000039DA0008C8
