:020000040800F2
:10800000108A0020910901088597000887970008C9
:108010008B9700088F9700089397000800000000D6
:108020000000000000000000000000003582000891
:108030009997000800000000698200085B6401084D
:10804000AB090108AB090108AB090108AB0901083C
:10805000AB090108AB090108AB090108AB0901082C
:10806000AB090108AB090108AB090108AB0901081C
:10807000AB090108AB090108AB090108AB0901080C
:10808000AB090108AB090108AB090108AB090108FC
:10809000AB090108AB090108AB090108AB090108EC
:1080A000AB090108AB090108AB090108AB090108DC
:1080B000AB090108AB090108AB090108AB090108CC
:1080C000AB090108AB090108AB090108AB090108BC
:1080D000AB09010877680108AB090108AB09010881
:1080E000AB090108AB090108AB090108AB0901089C
:1080F000AB090108AB090108AB090108AB0901088C
:10810000AB090108AB090108AB090108AB0901087B
:10811000AB090108AB09010805120108AB09010808
:10812000AB090108AB090108AB090108AB0901085B
:1081300000F002F800F06FF80AA090E8000C82440A
:108140008344AAF10107DA4501D100F064F8AFF2E7
:10815000090EBAE80F0013F0010F18BFFB1A43F025
:1081600001031847703A0300903A03000A444FF0A5
:10817000000C10F8013B13F0070408BF10F8014B86
:108180001D1108BF10F8015B641E05D010F8016BCB
:10819000641E01F8016BF9D113F0080F1EBF10F82F
:1081A000014BAD1C0C1B09D16D1E58BF01F801CB52
:1081B000FAD505E014F8016B01F8016B6D1EF9D5D5
:1081C0009142D6D3704700000023002400250026EA
:1081D000103A28BF78C1FBD8520728BF30C148BF2A
:1081E0000B60704775291EF0D580002070471FB5C1
:1081F0001EF0B1FA1EF068FD04000020002120F0FE
:1082000013FB401C60600020002120F023FBE06095
:108210001FBD10B510BD1EF01BFF1146FFF7E7FF95
:1082200001F0B5F81FF08CF903B4FFF7F2FF03BCBF
:108230000EF0B4F91A4B19680868B0E8F00F80F333
:1082400009884FF0000080F311884EF00D0E704742
:108250000000000003480068006880F3088862B6E8
:1082600000DF00BF08ED00E0EFF309800C4B1A6857
:1082700020E9F00F106008B54FF0BF0080F31188BF
:108280000DF042FE4FF0000080F31188BDE8084079
:1082900019680868B0E8F00F80F30988704700BFDC
:1082A0008002002001B44FF0BF0080F3118801BCB0
:1082B000704701B44FF0000080F3118801BC704793
:1082C0000B49D1F800C04A685CF8043B10681844B8
:1082D00042F8040B8C4528BFA1F1DC0C8A4228BF70
:1082E000A1F1DC02C1F800C04A6020F000407047F4
:1082F000A4830020012080F3138800BF00BFFE4844
:10830000006800F4E060FD490843001DFA49086078
:10831000BFF3408F00BF00BFFEE700B587B001216B
:10832000202007F035F80121042007F031F8012161
:10833000102007F02DF80420ADF8180010208DF85B
:108340001B0002208DF81A0006A9ED4806F064FD16
:108350004FF40040ADF8140010208DF817000220F3
:108360008DF8160005A9E64806F056FD0220ADF886
:10837000100010208DF8130002208DF8120004A9BF
:10838000DF4806F049FD0820ADF80C0010208DF8FC
:108390000F0002208DF80E0003A9D94806F03CFD1D
:1083A0000120ADF8080010208DF80B0002208DF898
:1083B0000A0002A9D24806F02FFD0120ADF8040002
:1083C00010208DF8070002208DF8060001A9CD4885
:1083D00006F022FD07B000BD2DE9F041832008F032
:1083E000FEFEC949087040F2053008F0F8FEC749A2
:1083F000087040F2F62008F0F2FEFF2809D10021B3
:1084000040F2F62008F0F4FE642140F2F52008F076
:10841000EFFE40F2F62008F0E2FE064640F2F520BC
:1084200008F0DDFE3044BA490880BA4890F8F302FB
:10843000012808DD0120B74981F8F302012140F24B
:10844000F32008F0D5FE5E20B34908800021942077
:1084500008F0CEFE40F2D32008F0C1FE06464FF4ED
:10846000357008F0BCFE06EB002000B2AB49088175
:10847000072008F0B4FEFF2804D0082008F0AFFE63
:10848000FF2803D10921072008F0B2FEA148407956
:10849000FF2838D101F0B7FD0021052008F0A8FE23
:1084A0001621042008F0A4FE01F0B4FA0020994936
:1084B00081F8DA000846407A00F03F00487208462A
:1084C000417A092008F094FE002406E004F5A1702A
:1084D000002108F08DFE601CC4B2072CF6DB0024DE
:1084E00006E004F24910002108F082FE601CC4B2CC
:1084F000072CF6DB874890F86E00012803DD00208A
:10850000844981F86E00834890F85902FF280BD106
:10851000804890F85A02FF2806D1C8207D4981F88A
:108520005902002081F85A027A4890F8780030B158
:10853000012818D002282ED003283ED132E0002096
:10854000744981F89B00084690F89B109B2008F026
:108550004FFE0120724908700846017840F26730EA
:1085600008F046FE29E06B4890F89B0048B90420CB
:10857000684981F89B00084690F89B109B2008F002
:1085800037FE0020664908700846017840F26730DF
:1085900008F02EFE11E040F2673008F020FE60493E
:1085A00008700AE004205B4981F89B00084690F8B7
:1085B0009B109B2008F01CFE00BF00BF0020594903
:1085C0000870544890F89B0057490870514890F83B
:1085D0009B005649087008460078002802DD0120FB
:1085E000534908705348007816F092FC52490880AD
:1085F0005048007850B1474890F86C004F490880C7
:10860000444890F86D004E49088009E0414890F8D0
:1086100071004A4908803F4890F870004849088036
:10862000002500240EE004F1B90008F0D8FD002870
:1086300006DD04F1B90008F0D2FD032800DA0125B7
:10864000601CC4B2052CEEDB012D03D101203D4995
:10865000087002E000203B4908702E4890F8CC00DA
:1086600018B92C4890F8CB0038B12A4890F8CE00C1
:1086700038B9284890F8CD0018B900203249087060
:108680001CE0002031490870224890F8CD002149B3
:1086900091F8CE1000EB01202D4908801D4890F87C
:1086A000DB0003280AD0012027490870194890F8F8
:1086B000D31001222648008803F05EFF1548807918
:1086C000FF2802D01348807950B9FE2011498871E3
:1086D000002081F8F30208468179062008F088FD21
:1086E0004FF42E7008F07BFD0A4981F8B802084665
:1086F00090F8B8020C282DE00CED00E00000FA051F
:10870000001401400008014041000020EA0200205E
:1087100038000020144A002064000020A206002037
:10872000B80000201D0300204F0000204E00002054
:10873000590000204D00002046000020EE020020DD
:10874000F00200209C000020BE000020B0000020AD
:10875000C400002007DD002081F8B80200214FF49A
:108760002E7008F045FDFE4890F8D902012808DD7A
:108770000020FB4981F8D902002140F2D92008F0FD
:1087800037FDF74890F8DC02012808DD0020F449A5
:1087900081F8DC0200214FF4377008F029FD002435
:1087A0000EE004F1F700EE49085CFF2806D1032132
:1087B00004F1F700EA4A115408F01AFD601CC4B233
:1087C000082CEEDBE64890F8B802192804DCE448EF
:1087D00090F8B802FF2808D10020E14981F8B802DA
:1087E00000214FF42E7008F003FD01240CE004F288
:1087F000BA20DB49085CFF2804D1002104F2BA202A
:10880000D74A1154601CC4B2D54890F8B802401C35
:10881000A042ECDCD24890F80201D2490880084618
:108820000078000200B20880CD4890F80101098864
:10883000084400B2CB4908801B2008F0D0FC064653
:108840001C2008F0CCFC06EB00272F2008F0C7FC0A
:108850000646302008F0C3FC06EB0020874203DA0E
:108860000120C149087002E00020BF490870312092
:1088700008F0B5FC0646322008F0B1FC06EB0027F4
:10888000452008F0ACFC0646462008F0A8FC06EBA4
:108890000020874203DA0120B349487002E000203B
:1088A000B149487040F2673008F099FCAF49087050
:1088B00008460078012801DD0120087040F261308F
:1088C00008F08DFCF0B9A64890F8E100A44991F8B1
:1088D0007E10884207DBA24890F8E100A04991F899
:1088E0007D1088420EDDC8209D4981F8E100C82135
:1088F000E12008F07DFC9A4A92F8591292F85A0247
:1089000016F00EFBF62008F06AFC954981F8F60097
:108910009748007840F0070095490870954800781E
:1089200048B98F48407A00F0FE008D494872002017
:108930009149087008E08A48407A40F0010088496F
:10894000487201208C4908708548407A00F0FB008D
:10895000834948720846417A092008F049FC7B2087
:108960001DF0E4FE40F2532008F039FC022804DD3B
:10897000002140F2532008F03BFC794890F85F0357
:10898000012802D17D49087002E000207B4908706F
:1089900040F2EF2008F023FCFF2804D1002140F230
:1089A000EF2008F025FC40F2A62008F018FC7449DE
:1089B000087040F2A72008F012FC7249087040F2DB
:1089C0005E3008F00CFC664981F85E0340F25D30D1
:1089D00008F005FC624981F85D03BDE8F08110B53F
:1089E00001210D2006F0D4FC0121674806F0E5FACC
:1089F00010BD10B518F053FA6448006818F058FA22
:108A000010BD86B00024FFF7F4FF002018F012FD1F
:108A10005F48C07B10B9002019F016FC5DA018F06B
:108A200039FA20205D4908700D205D490870022048
:108A30005C49087000205C49087005205B4908709B
:108A400000BF5348C07BA0B9002051498874084634
:108A5000807C00234FF416725549009001A818F04D
:108A600003FA04462CB100232246514901A819F00B
:108A7000B5FB4748807C4F49488005200DF0AFFE8C
:108A8000DFE700BF4C48006828B9354890F8B902C4
:108A900008B103F06CFC49480078012812D148481D
:108AA0000078401C4649087008460078052809D11E
:108AB0000020424908704249087002F08EFB0120F4
:108AC000404908703C480068D8B1254890F86300D8
:108AD000B8B139480068401E374908600846006848
:108AE00078B9002024490870224908701C48407A4F
:108AF00000F0FE001A4948720846417A092008F041
:108B000077FB31480088012804DD2F480088401E8B
:108B10002D4908802D480088002804DD2B48008856
:108B2000401E2A4908802948008840B90C4890F81E
:108B3000ED00FF2803D00121254806F01CFA084863
:108B400090F8ED00FF2803D10121214806F011FA29
:108B500020480078002841DD1E480078401E3BE098
:108B6000144A00201601002020010020B800002037
:108B7000440000204E0000204D0000203600002060
:108B80003401002035010020000430000C000020DA
:108B9000004A00205453544154380000260300205A
:108BA0002403002025030020280300203D0300208B
:108BB000FC0300204E5000205C00002061000020DB
:108BC0003E0000200A000020E002002034000020C7
:108BD000000801402F000020F8490870F84800788C
:108BE000002804DDF6480078401EF5490870F44876
:108BF000007828B90020F34908700120F249087074
:108C0000F2480078002804DDF0480078401EEF4963
:108C10000870EF480088401EED490880084600882B
:108C200010B90120EB490870EB480078002804DDFA
:108C3000E9480078401EE8490870E748007820B904
:108C400000220121E54800F0B8FEE3484078002802
:108C500004DDE1484078401EDF494870DE48407836
:108C600020B900220321DD4800F0A7FEDA48807811
:108C7000002804DDD8488078401ED7498870D6483F
:108C8000807820B900220521D44800F096FED24811
:108C9000C078002804DDD048C078401ECE49C87096
:108CA000CD48C07820B900220721CC4800F085FECD
:108CB000C9480079002804DDC7480079401EC6492C
:108CC0000871C548007920B900220921C34800F085
:108CD00074FEC1484079002804DDBF484079401E39
:108CE000BD494871BC48407920B900220B21BB48DE
:108CF00000F063FEB8488079002804DDB64880792A
:108D0000401EB5498871B448807920B900220D21F0
:108D1000B24800F052FE4FF47A700DF060FDB1E6FB
:108D20000020AF490870FF20AE490870AE490870B6
:108D300000BF09F04BFDC8200DF051FDF9E70EB55D
:108D40000121AA4806F015F9A948AA49086042F28B
:108D500089504DF2E06105220A23CDE900210290FD
:108D6000A54A60211D200AF06BFB41F2A9404DF29B
:108D7000E0610522E523CDE9002102900022602177
:108D80000B200AF084FB41F2A9404DF2E06105227C
:108D9000A523CDE9002102900022602110200AF0D5
:108DA00076FB41F2A9404DF2E06105220023CDE9B6
:108DB000002102901A4660210A200AF068FB41F265
:108DC000A9404DF2E061ED220023CDE9002102909F
:108DD0001A462421F0200AF05AFB4FF6FF704DF29C
:108DE000E0616A226923CDE900210290002202217C
:108DF00076200AF04CFB00204DF2E06190226923BE
:108E0000CDE9002102900246022176200AF03FFBC4
:108E10004FF6FF704DF2E0616A226823CDE9002130
:108E200002900022262102200AF031FB00204DF2A0
:108E3000E0616A22DE23CDE900210290024628216A
:108E400002200AF024FB4FF6FF704DF2E0619522FC
:108E50006923CDE9002102900022022176200AF048
:108E600016FB00204DF2E061BB226923CDE9002111
:108E700002900246022176200AF009FB4FF6FF70AD
:108E80004DF2E06195226823CDE900210290002295
:108E9000262102200AF0FBFA00204DF2E061952223
:108EA000DE23CDE9002102900246282102200AF0AB
:108EB000EEFA4FF6FF704DF2E061C0226923CDE972
:108EC000002102900022022176200AF0E0FA002020
:108ED0004DF2E061E6226923CDE9002102900246CD
:108EE000022176200AF0D3FA4FF6FF704DF2E061CE
:108EF000C0226823CDE90021029000222621022011
:108F00000AF0C5FA00204DF2E061C022DE23CDE96F
:108F1000002102900246282102200AF0B8FA00BF80
:108F200036480078012811D142F289500AF0A3F89E
:108F300042F289504DF2E06131A31E22CDE90010CA
:108F4000114601200AF05EFAFFF7D4F92B480078A9
:108F5000022817D100202949087042F289500AF0EE
:108F60008AF842F289504DF2E06128A31E22CDE931
:108F70000010114601200AF045FA01F044F802F011
:108F80001BF9CDE72348007808B9012000E0002054
:108F90002049087020480078012844D1084600780C
:108FA00058B91E480088842803DB1C480088922892
:108FB00036DD02200AF0F8FE09E131E02F00002042
:108FC0003000002025000020240000203100002077
:108FD0002A0000202C0000203B010020420100203C
:108FE0004401002045010020460100200008014006
:108FF0004801002074020020B67A0308DC02002039
:109000005570646174696E67000000005265737486
:10901000617274007C020020610000206400002066
:1090200002F0A6FDD3E0FE48007800287ED00120A3
:109030000AF0BAFE02200AF0B7FE4FF6FF704DF2BA
:10904000E0616A226923CDE9002102900022022119
:1090500076200AF01CFA00204DF2E061902269238C
:10906000CDE9002102900246022176200AF00FFA93
:109070004FF6FF704DF2E0616A226823CDE90021CE
:1090800002900022262102200AF001FA00204DF26F
:10909000E0616A22DE23CDE9002102900246282108
:1090A00002200AF0F4F94FF6FF704DF2E0619522CC
:1090B0006923CDE9002102900022022176200AF0E6
:1090C000E6F900204DF2E061BB226923CDE90021E1
:1090D00002900246022176200AF0D9F94FF6FF707D
:1090E0004DF2E06195226823CDE900210290002233
:1090F000262102200AF0CBF900204DF2E0619522F2
:10910000DE23CDE9002102900246282102200AF048
:10911000BEF94FF6FF704DF2E061C0226923CDE940
:109120000021029000220221762000E02CE00AF0CB
:10913000AEF900204DF2E061E6226923CDE900217D
:1091400002900246022176200AF0A1F94FF6FF7044
:109150004DF2E061C0226823CDE900210290002297
:10916000262102200AF093F900204DF2E061C0228E
:10917000DE23CDE9002102900246282102200AF0D8
:1091800086F90020A6490870A648007808B9012091
:1091900000E00020A34908700120A34908700022C4
:1091A000A248B0F9001010460CF0EFFAA049B1F94E
:1091B00000000AF092F99F4800780AF0EEFA0AF0EF
:1091C0004CFB0AF070FC0AF088FB0CF047F99A4857
:1091D000007802F074FEC8200DF001FBA0E600202C
:1091E000964908709649087007F0F2FB00209549EF
:1091F000087000BF07F08BFC14200DF0F0FAF9E7BF
:1092000000BF91480078401C8F49087008460078DC
:1092100006280EDB002008708C480078401E8B4921
:1092200008700846007820B900221146884800F0EE
:10923000C4FB4FF47A700DF0D2FAE2E700BF854824
:109240000078401C834908700846007806280EDB29
:109250000020087080480078401E7F49087008464A
:10926000007820B9002211467C4800F0A6FB4FF49C
:109270007A700DF0B4FAE2E700BF7948007801286F
:109280000DD1002406E000222146764800F095FB2F
:10929000601CC4B2032CF6DB0020714908704FF447
:1092A0007A700DF09CFAE8E700206F49087000BF63
:1092B00004F04CFC6D4890F8DB00032803D1022039
:1092C00003F073FA02E0012003F06FFAC8200DF0FA
:1092D00086FAEDE700BF6649087815F019FE544993
:1092E000088016F045F84FF47A700DF078FAF2E73E
:1092F0000DF0E2FB00205F49087000BF5E48007877
:1093000050B15D480078401E5B49087008460078FF
:10931000012801D115F05DFC58480078002809DDCE
:1093200056480078401E554908700846007808B92C
:109330000DF07EFA02200DF052FADFE7002413E070
:10934000472101EB440007F04AFF0646472101EBA5
:109350004401481C07F043FF06EB002528B24849AA
:1093600021F81400601CC4B2082CE9DB00BF45489A
:109370000078401C4349087008F0D2FC08F0DBFE7E
:1093800007F0EAFF4FF47A700DF029FAEFE71FB506
:109390003D49080305F081FAFFF721FB4FF4A06077
:1093A00005F044FA48200DF0CBF940F2CF216420BB
:1093B00007F047FF07F04EFE08F046F810B1032013
:1093C0003249087007F004FBFEF7A7FF08F0ECFF36
:1093D00009F00CF800F01EFB244890F86A002C49B4
:1093E0000870FEF7F9FF09F095FF4FF47A700DF061
:1093F000F6F90020274908821C4890F89B000D4987
:109400000870012024490870072024490870094881
:10941000007818B904201649087044E040E00000C4
:109420000A000020320000207A02002026010020DD
:10943000460000204E00002007010020FF00002011
:10944000FE00002006010020720000206C000020B9
:1094500068000020730000206F0000206A000020D8
:10946000660000207400002067000020144A0020DD
:1094700028000020E2020020130300201103002036
:10948000AC0600201C01002000800008DC02002047
:1094900094000020D00600204D0000204400002051
:1094A0000120814908708048007815F031FD7F491E
:1094B00008807F48007850B17E4890F86C007E4963
:1094C00008807C4890F86D007C49088009E0794864
:1094D00090F8710078490880764890F870007749D4
:1094E000088040F27F3007F07AFE7549C8737148F2
:1094F00090F8650005281CD2DFE800F003080D1283
:1095000016004FF416500DF05CF817E04FF496403B
:109510000DF057F812E04FF416400DF052F80DE040
:1095200003200DF04EF809E04FF4E1300DF049F85A
:1095300004E04FF496400DF044F800BF00BF002057
:109540000123CDE900300290034680225DA1039003
:109550005E480CF06BFA00200423CDE90030029045
:10956000034680225AA103905B480CF05FFA00206A
:109570000123CDE9003002900346802257A10390D9
:1095800057480CF053FA00200223CDE90030029036
:109590000346802253A1039056480CF047FA00205E
:1095A0000223CDE9003002900346802252A10390AD
:1095B000AFF23B300CF03AFA00200123CDE9003045
:1095C0000290034680224FA1039052480CF02EFADD
:1095D00000200123CDE900300290034680224EA1F5
:1095E000039051480CF022FA00200423CDE900300A
:1095F0000290034680224DA1039050480CF016FAC9
:1096000000200323CDE900300290034680224CA1C4
:1096100003904F480CF00AFA00200223CDE90030F5
:109620000290034680224BA103904D480CF0FEF9B6
:1096300000200123CDE9003002900346802249A199
:1096400003904C480CF0F2F900200423CDE90030DF
:10965000029003464FF4207247A1039048480CF053
:10966000E5F90CF06BFD002004B010BD00BF322006
:109670000DF0B5F8FBE710B507F0C0FB552123202E
:1096800007F01AFD232007F0EBFC0D498871002438
:1096900006E0204607F0E4FC09490855601CC4B206
:1096A000042CF6DB10BD000028000020460000203E
:1096B0004D000020144A0020EE020020F00200209D
:1096C000004A0020496E7075740000003D93000848
:1096D000434F4D4D00000000F192000850494400F6
:1096E000D5920008436F6E74726F6C4C6F6769633C
:1096F00000000000A99200085374617465537769F3
:1097000074636800436F6F6C696E674C6F636B4F77
:10971000757400003D92000848656174696E674C7D
:109720006F636B4F75740000019200084B65797090
:1097300061647348616E646C65000000DF9100082D
:1097400044697370616C7952656672657368000074
:109750003F8D00084F75747075745461736B000011
:10976000218D0008536F66747761726574696D6549
:1097700072000000838A00084D535450000000001E
:10978000038A0008704700BFFEE700BFFEE700BF86
:10979000FEE700BFFEE77047704770477047000064
:1097A0000CB50020019000906C48006840F48030B7
:1097B0006A49086000BF6948006800F40030009002
:1097C0000198401C0190009818B90198B0F5A06F5D
:1097D000F1D16248006800F4003010B1012000901F
:1097E00001E0002000900098012843D15C48006807
:1097F00040F010005A4908600846006820F0030055
:1098000008600846006840F002000860534840685D
:10981000524948600846406848600846406840F43D
:10982000806048600846406820F47C104860084624
:10983000406840F4E81048600846006840F08070D6
:10984000086000BF4548006800F000700028F9D0AB
:109850004248406820F0030040494860084640689C
:1098600040F00200486000BF3C48406800F00C0037
:109870000828F9D10CBD10B5FFF792FF10BD10B547
:109880003648006840F001003449086008464068E6
:109890003449084031494860084600683249084068
:1098A0002E4908600846006820F4802008600846B9
:1098B000406820F4FE0048604FF41F008860FFF706
:1098C000DAFF4FF000602949086010BD10B5002193
:1098D00000200022214B5B6803F00C0121B1042918
:1098E00006D0082928D107E0214B224C236027E02D
:1098F0001F4B204C236023E0184B5B6803F470106F
:10990000164B5B6803F48032022303EB904022B9CC
:10991000194B4343174C23600DE0104B5B6803F475
:10992000003323B1144B4343124C236003E0104B2C
:109930004343104C236003E00D4B0E4C236000BFEB
:1099400000BF064B5B68C3F303130C4CE15C094B8F
:109950001B68CB40074C236010BD00000010024084
:10996000002002400000FFF8FFFFF6FE08ED00E0D7
:1099700000127A001000002000093D0014000020B1
:10998000024602FB01F0704702460B4642FA03F121
:1099900001F001010846704710B50B46012101FA9C
:1099A00003F4E1B21AB104780C43047004E0CC4330
:1099B000E1B204780C40047010BD10B50B460121D3
:1099C00001FA03F4A1B21AB104880C43048004E044
:1099D000CC43A1B204880C40048010BD0246012390
:1099E00003FA01F0C3B21078184008B9002070479C
:1099F0000120FCE7024600207F2A05DD130218B291
:109A0000431818B200B204E01046030218B243181B
:109A100018B2704770B56E2007F0E1FBFE4981F87F
:109A20006E00084690F86E00012806DD002081F8DF
:109A30006E0000216E2007F0DBFB002445E020468D
:109A400007F0CDFB05465F2C3BDBB4F5817F38DCAE
:109A5000F14890F86E0000EBC00101EB4010EF49B7
:109A600001EBC001A4F15F0011F81000A84213DC63
:109A7000E94890F86E0000EBC00101EB4010E749A7
:109A800001EBC001A4F15F0001EB40004078A84267
:109A900002DBE148055516E0DF4890F86E0000EB68
:109AA000C00101EB4010DE4901EB8001A4F15F0031
:109AB000085CD94908550846015D204607F098FB27
:109AC00001E0D5480555601C84B240F2EA3084427A
:109AD000B5DBD14890F8D902FF2808D10020CE4943
:109AE00081F8D902002140F2D92007F081FBCA4851
:109AF00090F87E03FF280FD10020C74981F87E032C
:109B000081F87D03002140F27D3007F071FB0021D8
:109B100040F27E3007F06CFBBF4890F87E030002F5
:109B200000B2C0490880BC4890F87D03B1F900102C
:109B30000843BC490880B848C07EB749097F00EB9C
:109B40000120B54991F82F1001EB0121884203DA79
:109B50000120B549087002E00020B3490870AE4802
:109B600090F83100AC4991F8321000EB0120AA497D
:109B700091F8451001EB0121884203DA0120AA493E
:109B8000487002E00020A84948704FF45A7007F06E
:109B900026FBA649087008460078FF2807D1002058
:109BA0000870084601784FF45A7007F021FB9A4874
:109BB00090F85C00FF2810D1974890F85B00FF28D0
:109BC0000BD100209A49088000215B2007F010FB90
:109BD00000215C2007F00CFB08E08F4A92F85B1034
:109BE00092F85C00FFF706FF914908808A4890F8D8
:109BF0008103FF2814D14F20874981F88103662013
:109C000081F8820381F88303002081F884032020F7
:109C100081F8850381F8860381F8870381F888033A
:109C20007D4890F88903FF2815D14C207A4981F8A6
:109C300089036F2081F88A03772081F88B03002045
:109C400081F88C03202081F88D0381F88E0381F840
:109C50008F0381F89003704890F89103FF2815D185
:109C60004D206D4981F89103652081F892036420AD
:109C700081F89303002081F89403202081F8950354
:109C800081F8960381F8970381F89803624890F869
:109C90009903FF2814D148205F4981F8990369206E
:109CA00081F89A03002081F89B03202081F89C030F
:109CB00081F89D0381F89E0381F89F0381F8A0033A
:109CC000554890F8A103FF2816D14120524981F848
:109CD000A103752081F8A203742081F8A3036F20EB
:109CE00081F8A403002081F8A503202081F8A603B1
:109CF00081F8A70381F8A803474890F889034C2806
:109D000002D001204B490870434890F8ED00FF282D
:109D10000ED0414890F8ED00474908800846008879
:109D2000C0EB00104FF6FF7101EA80004249088045
:109D3000394890F8A903FF2803D10020364981F85B
:109D4000A90370BD10B501210F2007F051FA0021C1
:109D5000102007F04DFA0121112007F049FA0021E7
:109D6000122007F045FA10BD10B5002407E0334A71
:109D7000115D04F5B07007F03BFA601CC4B2072C0B
:109D8000F5DB10BD70B5002415E0264604EBD67255
:109D900052102B4B33F81250EA1705EB12621212D5
:109DA000A5EB0222D1B204F11B0007F021FA601CDE
:109DB000C4B2601CC4B2152CE7DB012413E02646B4
:109DC00004EBD67252101E4B33F81250EA1705EB13
:109DD0001262C2F3072104F11B0007F009FA601CAC
:109DE000C4B2601CC4B2162CE9DB00242EE0264667
:109DF00004EBD6725210134B33F81250EA1705EBEE
:109E000012621212A5EB0222D1B204F1310007F066
:109E1000EFF9601CC4B217E0144A00200B9F02083F
:109E20009BA102083A00002020010020FA02002035
:109E30002C0100202E000020340000200D9A020882
:109E4000CC990208E2990208601CC4B2152CCEDB42
:109E5000012413E0264604EBD6725210FE4B33F871
:109E60001250EA1705EB1262C2F3072104F1310028
:109E700007F0BEF9601CC4B2601CC4B2162CE9DB4A
:109E800070BD70B5002413E000250DE0C4EBC402E2
:109E9000F24B1A44515D04EB840202F5A172501991
:109EA00007F0A6F9681CC5B2052DEFDB601CC4B233
:109EB000022CE9DB70BD10B5002407E0E84A115D13
:109EC00004F22D1007F094F9601CC4B2152CF5DBD8
:109ED00010BD70B50546002491E0062D7ED2DFE866
:109EE00005F08A0323244868DE4A115D04F203105A
:109EF00007F07EF9012C07D10321A02007F078F9A3
:109F00000321A12007F074F9072C04DA04F1B20050
:109F1000002107F06DF901216F2007F069F9012098
:109F2000D14981F86F0067E066E0D04A115D04F224
:109F3000031007F05DF9012C07D10221A02007F0E2
:109F400057F90221A12007F053F9072C04DA04F194
:109F5000B200002107F04CF904219B2007F048F9DA
:109F600003216F2007F044F90320BF4981F86F00F7
:109F700042E0BF4A115D04F2031007F039F9012CE9
:109F800007D10221A02007F033F90221A12007F018
:109F90002FF9072C04DA04F1B200002107F028F9A8
:109FA00001216F2007F024F90120AF4981F86F00EB
:109FB00022E0B04A115D04F2031007F019F9012CF8
:109FC00007D10221A02007F013F90221A12007F0F8
:109FD0000FF9072C06DA04F1B20000E00BE00021D3
:109FE00007F006F901216F2007F002F901209E49D0
:109FF00081F86F0000E000BF00BF601CC4B22A2CD3
:10A00000FFF66BAF70BD10B55F2420E0964890F866
:10A010006E0000EBC00202EB4010974A02EB800298
:10A02000A4F15F00115C204607F0E2F88E4890F83A
:10A030006E0000EBC00101EB40108F4901EB800185
:10A04000A4F15F00085C88490855601C84B2B4F52F
:10A05000817FDBDD89480078FFF73BFFFFF72BFFAF
:10A06000FFF70FFFFFF78EFEFFF77EFEFFF76AFE9A
:10A070004F2140F2813007F0BBF8662140F2823078
:10A0800007F0B6F8662140F2833007F0B1F80021FE
:10A090004FF4617007F0ACF8202140F2853007F0F2
:10A0A000A7F8202140F2863007F0A2F8202140F2E4
:10A0B000873007F09DF820214FF4627007F098F880
:10A0C0004C2140F2893007F093F86F2140F28A303A
:10A0D00007F08EF8772140F28B3007F089F80021E5
:10A0E0004FF4637007F084F8202140F28D3007F0C0
:10A0F0007FF8202140F28E3007F07AF8202140F2DC
:10A100008F3007F075F820214FF4647007F070F875
:10A110004D2140F2913007F06BF8652140F292300A
:10A1200007F066F8642140F2933007F061F80021EF
:10A130004FF4657007F05CF8202140F2953007F08D
:10A1400057F8202140F2963007F052F8202140F2D3
:10A15000973007F04DF820214FF4667007F048F86B
:10A16000482140F2993007F043F8692140F29A30D3
:10A1700007F03EF8002140F29B3007F039F820212B
:10A180004FF4677007F034F8202140F29D3007F05B
:10A190002FF8202140F29E3007F02AF8202140F2CB
:10A1A0009F3007F025F820214FF4687007F020F861
:10A1B000412140F2A13007F01BF8752140F2A23096
:10A1C00007F016F8742140F2A33007F011F86F2160
:10A1D0004FF4697007F00CF8002140F2A53007F049
:10A1E00007F8202140F2A63007F002F8202140F2C3
:10A1F000A73006F0FDFF20214FF46A7006F0F8FF4B
:10A20000032140F27F3006F0F3FF002417E04821DD
:10A2100001EB440188B206F0E2FFFF280DD147218F
:10A2200001EB440188B2002106F0E2FF482101EB76
:10A23000440188B2002106F0DBFF601C84B2082CC8
:10A24000E5DB0120084981F8B80201214FF42E70A6
:10A2500006F0CEFF0E2113E0E2990208B5A3020832
:10A26000F8990208E3A20208144A002037A3020862
:10A2700061A302088BA302089BA10208940000209E
:10A2800040F2BA2006F0B4FF0E20FE4981F8BA026F
:10A29000084690F84803FF283ED1542081F848032F
:10A2A000532081F84903542081F84A03412081F862
:10A2B0004B03542081F84C03382081F84D032020B3
:10A2C00081F84E0381F84F0354214FF4527006F089
:10A2D0008FFF532140F2493006F08AFF542140F2AB
:10A2E0004A3006F085FF412140F24B3006F080FFF6
:10A2F00054214FF4537006F07BFF382140F24D306B
:10A3000006F076FF202140F24E3006F071FF20214A
:10A3100040F24F3006F06CFFC82140F2AA3006F040
:10A3200067FF002140F2AB3006F062FFC8214FF416
:10A330006B7006F05DFF002140F2AD3006F058FF73
:10A34000282140F2AE3006F053FF102140F2AF302A
:10A3500006F04EFF1E214FF46C7006F049FF0F21EE
:10A3600040F2B13006F044FF322140F2B23006F044
:10A370003FFF052140F2B33006F03AFF06214FF4CB
:10A38000A87006F035FF1E2140F2511006F030FF94
:10A3900008214FF4A97006F02BFF1E2140F2531044
:10A3A00006F026FF12214FF4AA7006F021FF1E21AD
:10A3B00040F2551006F01CFF16214FF4AB7006F06A
:10A3C00017FF1E2140F2571006F012FF002140F245
:10A3D000B92006F00DFF10BD70B5AA4890F86E00C8
:10A3E00000287DD1A74890F87E002038C5B205EB43
:10A3F0008500092190FBF1F0A24981F87E00084612
:10A4000090F87E107E2006F0F3FE9E4890F87D00C6
:10A410002038C5B205EB8500092190FBF1F0994980
:10A4200081F87D00084690F87D107D2006F0E0FE62
:10A43000944890F877002038C5B205EB85000921D3
:10A4400090FBF1F08F4981F87700084690F877107B
:10A45000772006F0CDFE8B4890F8E1002038C5B299
:10A4600005EB8500092190FBF1F0864981F8E100B8
:10A47000084690F8E110E12006F0BAFE814890F815
:10A480005902804991F85A1200EB012084B2A4F5D8
:10A49000A07084B204EB8400092190FBF1F084B237
:10A4A0002012784981F85A0281F85942084690F8FA
:10A4B0005A1240F25A2006F09BFE724890F8591248
:10A4C00040F2592006F094FE6E4890F895006D49D0
:10A4D00091F8961000EB012084B2A4F5A07000E082
:10A4E000A6E084B204EB8400092190FBF1F084B271
:10A4F0002012644981F8960081F89540084690F84A
:10A500009610962006F074FE5E4890F895109520FF
:10A5100006F06EFE5B4890F897005A4991F8981043
:10A5200000EB012084B2A4F5A07084B204EB840097
:10A53000092190FBF1F084B22012524981F8980071
:10A5400081F89740084690F89810982006F050FE41
:10A550004C4890F89710972006F04AFE494890F82A
:10A560009900484991F89A1000EB0120A0F5A070DD
:10A5700084B204EB8400092190FBF1F084B2200A3C
:10A58000404981F89A0081F89940084690F89A105D
:10A590009A2006F02DFE3B4890F89910992006F07D
:10A5A00027FE384890F87400364991F8751000EB92
:10A5B0000120A0F5A07084B204EB8400092190FB77
:10A5C000F1F084B2200A2F4981F8750081F87440B7
:10A5D000084690F87510752006F00AFE294890F894
:10A5E0007410742006F004FE264890F87200254985
:10A5F00091F8731000EB0120A0F5A07084B204EB79
:10A600008400092190FBF1F084B2200A1D4981F8F1
:10A61000730081F87240084690F87310732006F0BA
:10A62000E7FD184890F87210722006F0E1FD2CE169
:10A63000144890F87E0000EBC000052190FBF1F07B
:10A64000C5B205F120000F4981F87E00084690F858
:10A650007E107E2006F0CCFD0A4890F87D0000EBCD
:10A66000C000052190FBF1F0C5B205F120000549BD
:10A6700081F87D00084690F87D107D2006F0B8FD39
:10A68000004801E0144A002090F8770000EBC00079
:10A69000052190FBF1F0C5B205F12000FE4981F8DB
:10A6A0007700084690F87710772006F0A1FDFA4869
:10A6B00090F8E10000EBC000052190FBF1F0C5B27D
:10A6C00005F12000F44981F8E100084690F8E11016
:10A6D000E12006F08DFDF04890F85902EE4991F81E
:10A6E0005A1200EB012084B204EBC400052190FB58
:10A6F000F1F084B204F5A07084B2200AE64981F832
:10A700005A0281F85942084690F85A1240F25A20EB
:10A7100006F06EFDE04890F8591240F2592006F01C
:10A7200067FDDD4890F89500DB4991F8961000EB45
:10A73000012084B204EBC400052190FBF1F084B247
:10A7400004F5A07084B2200AD34981F8960081F8FC
:10A750009540084690F89610962006F049FDCE48A0
:10A7600090F89510952006F043FDCB4890F897009F
:10A77000C94991F8981000EB012084B204EBC400A1
:10A78000052190FBF1F084B204F5A07084B2200A98
:10A79000C14981F8980081F89740084690F89810D0
:10A7A000982006F025FDBC4890F89710972006F0F9
:10A7B0001FFDB94890F89900B74991F89A1000EB3D
:10A7C000012084B204EBC400052190FBF1F084B2B7
:10A7D00004F5A07084B2200AAF4981F89A0081F88C
:10A7E0009940084690F89A109A2006F001FDAA4870
:10A7F00090F89910992006F0FBFCA74890F8740097
:10A80000A54991F8751000EB012084B204EBC40057
:10A81000052190FBF1F084B204F5A07084B2200A07
:10A820009D4981F8750081F87440084690F87510CC
:10A83000752006F0DDFC984890F87410742006F03E
:10A84000D7FC954890F87200934991F8731000EB8B
:10A85000012084B204EBC400052190FBF1F084B226
:10A8600004F5A07084B2200A8B4981F8730081F846
:10A870007240084690F87310732006F0B9FC8648C1
:10A8800090F87210722006F0B3FC70BD10B504464B
:10A89000012C32D140F25A2006F0A1FC7E4981F809
:10A8A0005A0240F2592006F09AFC7B4981F859027D
:10A8B0006C2006F094FC784981F86C006D2006F05D
:10A8C0008EFC754981F86D00962006F088FC72496F
:10A8D00081F89600952006F082FC6F4981F895007A
:10A8E000982006F07CFC6C4981F89800972006F0CF
:10A8F00076FC694981F897002FE09A2006F06FFCFA
:10A90000654981F89A00992006F069FC624981F84E
:10A910009900702006F063FC5F4981F87000712097
:10A9200006F05DFC5C4981F87100752006F057FC6B
:10A93000594981F87500742006F051FC564981F898
:10A940007400732006F04BFC534981F873007220A9
:10A9500006F045FC504981F8720010BD10B5002486
:10A960004D4890F8B90298BB4C48007880BB4A48E3
:10A9700090F8991090F89A0001EB002004B2464834
:10A9800090F8C500204404B2434890F8610368B9C8
:10A99000414890F87D0000EB8000B4EB400F05DDEE
:10A9A0003D4890F87D0000EB80004400C4F307218F
:10A9B0009A2006F01DFCE1B2992006F019FCE1B2E4
:10A9C000C4F3072014F030FB0020FFF75FFF32E0F4
:10A9D000FFE7314890F8591290F85A0201EB002035
:10A9E00004B22D4890F8C500204404B22A4890F8DB
:10A9F000610368B9284890F87D0000EB8000B4EB53
:10AA0000400F05DD244890F87D0000EB80004400F5
:10AA1000C4F3072140F25A2006F0EAFBE1B240F20B
:10AA2000592006F0E5FBE1B2C4F3072014F078FAF0
:10AA30000120FFF72BFF0020194908700520194954
:10AA4000087010BD10B50024134890F8B90268BB17
:10AA50001248007850BB104890F8991090F89A006E
:10AA600001EB002004B20C4890F8C500201A04B293
:10AA7000094890F8610368B9074890F87E0000EB38
:10AA80008000B4EB400F05DA034890F87E0000EB3D
:10AA90008000440004480AE0144A00204E000020D0
:10AAA000320000202F0000204600002012E0048029
:10AAB000C4F307219A2006F09BFBE1B2992006F02F
:10AAC00097FBE1B2C4F3072014F0AEFA0020FFF7C1
:10AAD000DDFE33E0FE4890F8591290F85A0201EB7F
:10AAE000002004B2FA4890F8C500201A04B2F848D1
:10AAF00090F8610368B9F64890F87E0000EB80009A
:10AB0000B4EB400F05DAF24890F87E0000EB8000CD
:10AB10004400F0480480C4F3072140F25A2006F0B4
:10AB200067FBE1B240F2592006F062FBE1B2C4F3E8
:10AB3000072014F0F5F90120FFF7A8FE0020E649F0
:10AB400008700420E549087010BD10B5E44800788D
:10AB5000B0B9DF48407A00F0FE00DD4948720020BD
:10AB6000E0490870DA48417A092006F041FB0020EC
:10AB7000DD490870DD4908600420DD49087013E0F4
:10AB8000D948007868B9D248407A40F00100D049ED
:10AB900048720120D3490870CD48417A092006F057
:10ABA00027FB0120D249087010BD10B50024CC4805
:10ABB00004784CB9CF48007830B90120CD490870ED
:10ABC0000420CD49087010BD601CC4B2042C00DD07
:10ABD0000024BF4890F86F00A04200DA0424C04867
:10ABE0000470BB4880F89B4021469B2006F000FB88
:10ABF000FFF7ABFF0020B84908700420BE49087079
:10AC00000120BE490870B648007808F0C6FD002053
:10AC1000BA49087000BFD6E710B5AD4890F86B0090
:10AC2000A8B9AB4890F8A903401CA94981F8A90329
:10AC3000084690F8A903022802DD002081F8A90344
:10AC4000A34890F8A91340F2A93006F0D1FA0020E9
:10AC5000A14908700420AA49087010BD10B502204F
:10AC600009F0A2F8A7480088772803D0A5480088F3
:10AC70007D2857D1A3480088772825D140F261303C
:10AC800006F0ADFA01281ED19F48B0F900009049A6
:10AC900091F87E10884216DD9B48B0F900008C497F
:10ACA00091F86E1001EBC10202EB4111974A02EBE1
:10ACB000C10191F830108842EDDD93480088401EB4
:10ACC00000B2914908802DE140F2613006F087FA28
:10ACD000012806D18C480088401E00B28A490880AD
:10ACE00020E18948B0F90010794890F87E00401CB6
:10ACF0008142E8DD8448B0F90000754991F86E1092
:10AD000001EBC10202EB4111804A02EBC10191F853
:10AD10003C108842D7DD7C480088401E00B27A494A
:10AD20000880FFE077480088702812D176480088B4
:10AD30000A3800B27449088008460078644981F8EE
:10AD40007000084690F870106E48008806F050FABF
:10AD5000E8E06C480088712812D16B4800880A38F6
:10AD600000B26949088008460078594981F87100A5
:10AD7000084690F871106348008806F039FAD1E06F
:10AD8000604800886B2836D15F48B0F9000003287E
:10AD900006DB5D480088401E00B25B490880C1E0C8
:10ADA00059480088022811D1494890F879000328B1
:10ADB00004D0474890F87900012803DC002052496C
:10ADC0000880AFE0012050490880ABE04E48008881
:10ADD00001280FD13E4890F87900032804D03C4860
:10ADE00090F87900012805DC47480088401E00B231
:10ADF0004549088096E0434800885E2817D14448BA
:10AE00000078A0B14048B0F90000314991F8CF1066
:10AE1000884206DD3C480088401E00B23A4908805E
:10AE200080E02B4890F8D100374908807AE0354817
:10AE300000885D2802D13648007818B13148008872
:10AE4000572806D130480088401E00B22E4908809D
:10AE500068E02C480088722810D12B480088401EDA
:10AE600000B22949088008460088000A184981F87C
:10AE70009A002548007881F8990053E0144890F82A
:10AE80006E0000EBC00101EB4010204901EBC00156
:10AE90001C4800885F3811F810001B49B1F90010F8
:10AEA00088423FD018480088401E00B216490880EA
:10AEB00014480088E52805D1054890F85F0001286E
:10AEC00000D108800F4800885F282BD10E4821E070
:10AED000144A002046000020320000202F000020ED
:10AEE0004E0000204D000020950000205C00002056
:10AEF0002800002025000020300000200000002055
:10AF00003100002064000020420000200B9F020856
:10AF100062000020008828B9FA480088401C00B26E
:10AF2000F8490880F8480088642804D1F54800787A
:10AF3000F64981F86400F44800888B280ADBF2485F
:10AF40000088922806DCEF480178EF4800888B38AB
:10AF5000EF4A115410BD10B5022008F025FFEA4851
:10AF60000088772803D0E84800887E2852D140F234
:10AF7000613006F034F9E8BBE348008877281FD138
:10AF8000E048B0F90000E14991F87D10884216DAF6
:10AF9000DC48B0F90010DD4890F86E0000EBC0020C
:10AFA00002EB4010DB4A02EBC00090F83100814216
:10AFB000EDDAD4480088401C00B2D2490880EBE0AA
:10AFC000D048B0F90010D14890F87D00401E814271
:10AFD000F5DACC48B0F90010CC4890F86E0000EBE0
:10AFE000C00202EB4010CB4A02EBC00090F83F00D9
:10AFF000814200E007E0E2DAC2480088401C00B26B
:10B00000C0490880C8E0BF480088401C00B2BD4964
:10B010000880C1E0BC4800885E2817D1BE4800788F
:10B02000A0B1B848B0F90000B84991F8D1108842F1
:10B0300006DAB4480088401C00B2B2490880ABE090
:10B04000B24890F8CF00AF490880A5E0AE4800882C
:10B050006B282CD1AB48008868B9AC4890F87900CF
:10B06000032804D0A94890F87900012803DC0220C5
:10B07000A449088090E0A54890F86E0000EBC0015C
:10B0800001EB4010A34901EBC0019F4800885F38E5
:10B0900001EB400040789B49B1F9001088427BDD0C
:10B0A00098480088401C00B29649088074E0964891
:10B0B00000885E2809D19848007830B99148008806
:10B0C000401C00B28F49088066E08F4800887028D5
:10B0D00012D18C4800880A3000B28A49088008469C
:10B0E00000788A4981F87000084690F87010864808
:10B0F000008806F07DF84FE083480088712812D15F
:10B10000804800880A3000B27E49088008460078EE
:10B110007E4981F87100084690F871107A480088DD
:10B1200006F066F838E078480088722810D1754833
:10B130000088401C00B27349088008460088000A55
:10B14000724981F89A006F48007881F8990023E0ED
:10B150006E4890F86E0000EBC00101EB40106D49A5
:10B1600001EBC001684800885F3801EB400040787F
:10B170006449B1F90010884205D062480088401C3B
:10B1800000B26049088060480088642804D15D48A6
:10B1900000785E4981F864005B4800888B280ADBF0
:10B1A00059480088922806DC56480178564800889D
:10B1B0008B38574A115410BD10B5FDF79BF810BDE0
:10B1C00010B54FF47A700BF00AFB10BD10B5632177
:10B1D0004FF4607006F00CF810BD10B54A480088B6
:10B1E00094280DD14749B1F9000000EBD071491006
:10B1F000A0EB4101002902D1022048490870ABE0D0
:10B200004148008893280ED13E49B1F9000000EB77
:10B21000D0714910A0EB41010029F0D1FFF7D6FF12
:10B22000FFF7CAFF98E03848008864280BD13748F8
:10B2300090F86410642005F0DBFF32480078334951
:10B2400081F8640088E0304800885E282BD13248BD
:10B25000007840BB2D4890F85F00022804D02B48AE
:10B2600090F85F00132877D1264800882C49098878
:10B27000401A00B22B490880084601785B2005F08F
:10B28000B7FF28480088C0F307215C2005F0B0FF15
:10B29000244800781D4981F85B0022480088000A94
:10B2A00081F85C0058E0184800885E280CD11A48E4
:10B2B000007848B113480178062005F099FF11483D
:10B2C00000781249887147E00F48008883282DD103
:10B2D0000C49B1F9000000EBD0714910A0EB41011D
:10B2E00039B10121832005F083FF01200E49087048
:10B2F00032E00221832005F07BFF02200A4908701A
:10B300002AE000004200002064000020144A0020CF
:10B31000710600200B9F020862000020DC02002062
:10B320002E0100202C01002041000020FB48008855
:10B33000722811D1FA48008800EB8000400000B26A
:10B34000F74908800A4611781288C2F3072013F0E3
:10B350006BFE0020FFF79AFAF248F0490988405C3A
:10B36000EF49B1F9001088427ED0ED480078ED49F0
:10B37000EA4A12888854E94800885E2805D0E848DF
:10B380000178E648008805F033FFE44800886A2821
:10B390000BD1E3480178E148008805F029FFE04936
:10B3A0000878FEF796FDFFF707FFDC4800886E2857
:10B3B0000CD1DB480078DB4981F86E00084690F834
:10B3C0006E106E2005F014FFFFF706F8D3480088D2
:10B3D000792803D1FFF7F0FEFFF7F2FECF4800888F
:10B3E0007A2824D10020D0490870CE48407A00F055
:10B3F000FE00CC4948720020CC490870C948417A07
:10B40000092005F0F5FE0020C9490870C949086007
:10B41000C44890F89B00C84908700020C14981F8D1
:10B420009B00084690F89B109B2005F0E1FEBB486E
:10B4300000885F280AD1BA480078BA4981F85F00CD
:10B44000084690F85F105F2005F0D2FEB3480088F0
:10B450006B2827D1B2480088042810D1B14890F851
:10B46000E50001280BD000E013E10120AD4981F88F
:10B47000E500084690F8E510E52005F0B9FEA8487B
:10B48000008805280ED1A74890F8E600012809D0C9
:10B490000120A44981F8E600084690F86210E620F1
:10B4A00005F0A6FE9D480088652855D19C48008877
:10B4B00060B900209B4981F865004FF416500BF0ED
:10B4C00080F84FF416509D4988603EE0944800880B
:10B4D00001280BD1934981F865004FF496400BF099
:10B4E00070F84FF49640954988602EE08C480088AB
:10B4F00002280BD18B4981F865004FF416400BF000
:10B5000060F84FF416408D4988601EE0844800883A
:10B5100003280BD1834981F865004FF461400BF09B
:10B5200050F84FF46140854988600EE07C480088FF
:10B5300004280AD17B4981F865004FF4E1300BF013
:10B5400040F84FF4E1307D49886075480178652006
:10B5500005F04EFEFFF730FE70480088832817D1B3
:10B560006F49B1F9000000EBD0714910A0EB410127
:10B5700039B10121832005F03BFE0120704908709C
:10B5800006E00221832005F033FE02206C4908709A
:10B59000624800886C2803D0604800886D2852D12A
:10B5A0005E4800886C2821D15D48B0F900005D49F3
:10B5B00091F86C1001EB8101B0EB410F37DB58487B
:10B5C000B0F900000A2190FBF1F0401C554981F8C8
:10B5D0006C00084690F86C106C2005F009FE51488C
:10B5E00090F86C10012013F059FE20E04C48B0F99F
:10B5F00000004C4991F86D1001EB8101B0EB410F57
:10B6000015DB4748B0F900000A2190FBF1F0401C1F
:10B61000444981F86D00084690F86D106D2005F0E2
:10B62000E7FD404890F86D10022013F037FE01202E
:10B63000FFF72CF94348007840F0010041490870B9
:10B640000020414908703548008860280AD13448F4
:10B650000078344981F86000084690F86010602056
:10B6600005F0C6FD2D4800886F2812D12D4890F8AE
:10B670006F002D49097888420BDA04202A490870A6
:10B68000284981F89B00084690F89B109B2005F004
:10B69000AFFD10BD3EB508F0A1FB204800885E2834
:10B6A0000ED12A48007801280AD1002405E0284854
:10B6B000005D0DF80400601CC4B2092CF7DB11E03A
:10B6C00000240DE0154800885E3800EB8000214919
:10B6D00001EB4000401C005D0DF80400601CC4B28A
:10B6E000092CEFDB012008F05FFB69465A2008F0C7
:10B6F00094FD0A4800885E283FD11448007860B164
:10B7000008488079074991F8D110884224DD05481E
:10B7100090F8D100034988712AE02EE064000020EF
:10B7200042000020144A00204E0000204D0000205E
:10B73000950000205C0000204F000020004A0020FF
:10B74000410000204400002067000020620000202B
:10B75000159E0208EE9B0208FA488079F94991F893
:10B76000CF10884204DAF74890F8CF00F549887185
:10B77000F4488079F449088027E0F4480088832859
:10B7800004D1F3480078F04908801EE0EF480088B3
:10B79000722814D1EB4890F89900EA4991F89A1070
:10B7A00000EB012000B2E84908800846B0F900002B
:10B7B0000A2190FBF1F000B2E349088005E0E1487E
:10B7C000E2490988405CE0490880E04800885E283A
:10B7D00007D1E048007820B9DF48B0F90000DA4925
:10B7E00008803EBD10B5DD48007868B15E20D749BD
:10B7F0000880D44890F87F00032801D19620088063
:10B800000020D449087005E05E20D049088001205E
:10B81000D0490870FFF73EFF10BD10B5012008F0B9
:10B82000C3FA022008F0C0FAC8480088942809D159
:10B83000CA48007830B95E20C44908800120C54953
:10B840000870B7E0C548007801282BD1BD4890F8B2
:10B850007F0003281FD1BD480088962803D1972078
:10B86000BA4908801AE0B9480088972803D15E20B9
:10B87000B649088012E0B54800885E2803D16320ED
:10B88000B24908800AE0B1480088632806D19620B2
:10B89000AE49088002E06320AC4908800020AD4931
:10B8A000087087E0A94800885E2806D1A94800787A
:10B8B00018B10020A74908707CE0A24890F87F00EA
:10B8C000042844D1A14800885E2805D19F480088FB
:10B8D0000B309E4908806DE09C480088682809DB91
:10B8E0009A4800886A2805DA98480088401C9749D9
:10B8F00008805FE0954800886A2805D19348008851
:10B90000801C9249088055E0904800886C2809DB2B
:10B910008E4800886E2805DA8C480088401C8B49C8
:10B92000088047E089480088812808D18848007845
:10B9300028B986480088C01C844908803AE08348BA
:10B9400000886E2836D194208049088032E07F48F4
:10B950000088602805D17D480088C01C7B4908808C
:10B9600028E07A48008881280FD1832005F037FC31
:10B9700028B976480088C01C744908801AE07348CA
:10B980000088401C7149088014E0704800888328B2
:10B9900003D193206D4908800CE06C480088722820
:10B9A00003D176206949088004E068480088401C7B
:10B9B00066490880FFF76EFE10BD10B5012008F043
:10B9C000F3F9022008F0F0F96448007840B35D48CC
:10B9D00090F87F0003281FD15C480088962803D187
:10B9E00063205A490880C0E058480088632803D182
:10B9F0005E2056490880B8E0544800885E2803D18C
:10BA0000972052490880B0E0504800889728EAD132
:10BA100096204E490880A8E05E204C490880A4E0AA
:10BA20004A4800885E2809D14A48007830B19420FD
:10BA30004649088000204749087096E0434800883E
:10BA40005E2806D14348007818B9012041490870A2
:10BA50008BE03C4890F87F00042845D13B480088A3
:10BA6000682806D15E2039490880002039490870CD
:10BA70007BE036480088682809DD344800886A2859
:10BA800005DC32480088401E304908806DE02F48B0
:10BA900000886C2805D12D480088801E2B4908801D
:10BAA00063E02A4800886C2809DD284800886E2851
:10BAB00005DC26480088401E2449088055E02348BC
:10BAC0000088942803D16E20204908804DE01F484B
:10BAD0000088932849D11E48007830BB1B48008855
:10BAE000C01E1A49088040E018480088632805D124
:10BAF00016480088C01E1549088036E013480088A3
:10BB0000932807D1832005F06AFB70B981200F4983
:10BB100008802AE00D48008884280BD1832005F096
:10BB20005EFB18B98120094908801EE0832007497F
:10BB300008801AE005480088762811D1742003494E
:10BB4000088012E0144A0020420000206400002017
:10BB50004100002062000020260100204C0000204F
:10BB6000FE480088401EFD490880FFF793FD10BD88
:10BB70001CB5FA4800887D287DD015DCA0F15E0058
:10BB80001F2879D2DFE800F08ACEDA7878D1F4F392
:10BB9000D6D77878DCDB7878ABD3E4E5C878C97899
:10BBA000D2CDCCF5D4D8D9008B2850D00CDCA0F164
:10BBB0007E000D28E5D2DFE800F0B2FDBC5F5F201B
:10BBC0002122233536373800912846D008DCA0F1F1
:10BBD0008C000528D5D2DFE800F03B3C3D3E3F001D
:10BBE000942872D004DC922838D0932844D1CEE037
:10BBF000E5286BD0E628F9D196E05EE100BF00BFF2
:10BC0000D64800788438D6490870D6480078D64996
:10BC10000872D448B0F90010D148007840B208F05A
:10BC20000CFB4AE100BF00BF00BFCC48007884385D
:10BC3000CB490870CB480078CB490872C948B0F9A5
:10BC40000010C748007840B208F09BFC35E100BF07
:10BC500000BF00BF00BF00BF00BF00BFBF490988D1
:10BC6000A1F18B0000EBD071C1F34701BC4A117008
:10BC7000BA49098801E051E017E1A1F18B0000EB1E
:10BC8000D0714910A0EB4101B84A117010460178FB
:10BC9000B348007840B209F065FC0EE1B448007882
:10BCA00038B1B048B0F9001020225A2008F0C2F88C
:10BCB00014E0B04890F86E0048B1AA48B0F90010FE
:10BCC00046225A2008F0B6F808E05FE02BE0A548CD
:10BCD000B0F9001043225A2008F0ACF8EDE0A1487A
:10BCE000008860B142F289504DF2E061A2A3A62221
:10BCF000CDE900105A21012007F084FB0BE042F24D
:10BD000089504DF2E0619EA3A622CDE900105A2190
:10BD1000012007F077FBD0E000BF00BF00BF00BFED
:10BD200000BF00BF00BF00BF00BF00BF00BF00BF1B
:10BD300000BF00BF00BF00BF00BF00BF00BF00BF0B
:10BD40008848B0F9001020225A2008F073F8B4E0B7
:10BD500000BF8448B0F900000A2190FBF1F004B262
:10BD6000202221465A2008F065F8A6E001E048E0CC
:10BD700032E042F289504DF2E06183A3A622CDE980
:10BD800000105A21012007F03DFB96E000BF7549E5
:10BD9000B1F9000000EBD0714910A0EB410171B185
:10BDA00042F289504DF2E06178A3A622CDE900105D
:10BDB0005A2100E01DE0012007F024FB0BE042F2D5
:10BDC00089504DF2E06172A3A622CDE900105A21FC
:10BDD000012007F017FB70E042F289504DF2E0615C
:10BDE0006CA3A622CDE900105A21012007F00AFB1E
:10BDF00063E05C48B0F9001020225A2008F01AF8DD
:10BE00005BE05848008860B942F289504DF2E06129
:10BE100062A3A622CDE900105A21012007F0F2FA10
:10BE200042E05048008801280CD142F289504DF27E
:10BE3000E0615CA3A622CDE900105A21012007F0A1
:10BE4000E1FA31E04748008802280CD142F28950DB
:10BE50004DF2E06155A3A622CDE900105A21012040
:10BE600007F0D0FA20E03F48008803280CD142F2C6
:10BE700089504DF2E0614FA3A622CDE900105A216E
:10BE8000012007F0BFFA0FE03648008804280BD1E4
:10BE900042F289504DF2E06148A3A622CDE900109C
:10BEA0005A21012007F0AEFA07E02E48B0F9001041
:10BEB00020225A2007F0BEFF00BF00BF1CBD10B5F6
:10BEC00004464048007809380E282BD2DFE800F0FD
:10BED000070A2A2A0D10132A181B1E212427FEF7F1
:10BEE0003DFD20E0FEF7AEFD1DE0FEF75EFE1AE030
:10BEF000FEF792FE17E007F071FFFFF773FC12E008
:10BF0000FFF78BFC0FE0FFF758FD0CE0FFF723F87D
:10BF100009E0FEF7A3FE06E0FFF75FF903E0FFF795
:10BF20005CF900E000BF00BF00202649087010BD8A
:10BF30007CB505460C46A5F18400072876D2DFE8DB
:10BF400000F0044B5990677683001F4880781E49A3
:10BF50004978CDE900101C48037837E064000020E0
:10BF60003F00002042000020710600207B020020DC
:10BF700062000020144A00202D462D200000000001
:10BF80002D432D2000000000344100004E4F0000E2
:10BF90005945530031303020200000003936303010
:10BFA0002020000031393230302000003338343066
:10BFB0003020000035373630302000003131353246
:10BFC000303020000701002098060020C2798179D6
:10BFD000204605F08DFA45E0FE488078FD49497815
:10BFE000FC4ECDE900103378F279E1B2B08805F06B
:10BFF0007FFA37E0F7488078F6494978F54ECDE981
:10C0000000103378E2B2B179B08805F071FA29E016
:10C01000F0488078EF494978E3B2EE4ECDE9001060
:10C02000F279B179B08805F063FA1BE019E0E948CC
:10C030008078E1B2E74ECDE900103378F279B1793A
:10C04000B08805F055FA0DE0E0B2E2494978E14EDA
:10C05000CDE900103378F279B179B08805F048FA6B
:10C0600000E000BF00BF7CBD01460022A1F18400BA
:10C0700007281AD2DFE800F004070D0A1013160093
:10C08000D448828812E0D34882790FE0D148027AFE
:10C090000CE0D048C27909E0CE48027806E0CD48ED
:10C0A000427803E0CB48827800E000BF00BF10B2C6
:10C0B000704710B504F0D6FE802004F04CFF04F069
:10C0C000FDFE08B1002010BDFE2004F044FF04F086
:10C0D000F5FE08B10020F6E704F0DAFE0120F2E7F1
:10C0E00010B5044604F0BEFE802004F034FF04F0D6
:10C0F000E5FE08B1002010BD1CB9F32004F02BFFB1
:10C1000002E0F52004F027FF04F0D8FE08B100207B
:10C11000F1E704F0BDFE0120EDE770B506460D46DF
:10C12000002404F09FFE812004F015FF04F0C6FEF9
:10C13000012004F032FF04464FF6FF7000EA0424A9
:10C14000012004F02AFF0443002004F026FF04F03D
:10C150009FFE2C80012070BD30B503460C4604F0D4
:10C160000200984201D0002030BD4FF6FC7004EA76
:10C1700000019BB944F2A4404143CD1701EB1545A2
:10C180002914A1F590504D3800B21080B2F900008A
:10C190000A2590FBF5F000B210800AE040F2E24080
:10C1A0004143CD1701EB15452914A1F13C0000B224
:10C1B00010800120D8E770B506460024002504F061
:10C1C00051FE812004F0C7FE04F078FE08B1002083
:10C1D00070BD012004F0E1FE04464FF6FF7000EA56
:10C1E0000424012004F0D9FE204484B2002004F08D
:10C1F000D4FE04F04DFE2546022E07D140F2E24067
:10C2000068436FF03B0101EB204508E044F2A44095
:10C210006843714901EB20400A2190FBF1F5ACB273
:10C220002046D5E710B504F01DFE802004F093FEF3
:10C2300004F044FE08B1002010BDE72004F08BFE9E
:10C2400004F03CFE08B10020F6E704F00BFE81206C
:10C2500004F081FE04F032FE08B10020ECE700207B
:10C2600004F09BFE44B204F013FEE0B2E4E72DE9D3
:10C27000FE4F83468A4600200290CAF1FA001CF065
:10C28000B0FD4FF03332554BCDE900011CF0FCFD01
:10C2900006460F4658461CF0A4FD804632463B46F3
:10C2A0001CF020FB04461CF06DFD00B202900298C9
:10C2B000BDE8FE8F2DE9F34F85B00C4620461DF0FA
:10C2C00099F9834646491DF097F882461DF006F815
:10C2D00007461CF0E3F805461CF0D2FA03900598D7
:10C2E0001CF07FFD074600223E4B1CF0CDFD0546AD
:10C2F0001CF0C6FA814605981CF073FD3A4A3B4B88
:10C30000CDE900011CF0EEFA82468B4648461CF04F
:10C31000E5FF054652465B461CF0A0FB07461CF0B5
:10C32000AFFA8146494603981DF004F8029002983E
:10C330001CF0D4FF054600222A4B1CF0D9FECDE9A3
:10C34000000102981CF0CAFF0546274A274B1CF043
:10C350009BFD0746DDE900231CF080FB82461CF0B4
:10C3600011FD00B20490049807B0BDE8F08F2DE9EC
:10C37000F0411F4F3F78002F6CD1164FBF884FF010
:10C38000640C97FBFCF80CFB18774FF4B47C07FBAC
:10C390000CF7DFF840C09CF806C0CCEB0C1C07EB98
:10C3A0004C07DFF830C09CF807C007EB0C00114FBA
:10C3B00097F858714FF4B47C07FB0CF7DFF834C0E2
:10C3C0009CF859C1CCEB0C1C07EB4C07DFF824C0E0
:10C3D00012E0000098060020B3EDFFFF3333C3BF27
:10C3E00000007A4400A03140CDCCCCCCCCFCA240A3
:10C3F00024000020144A00209CF85AC107EB0C05C9
:10C40000584F97F85B714FF4B47C07FB0CF7DFF8DB
:10C4100054C19CF85CC1CCEB0C1C07EB4C07DFF85B
:10C4200044C19CF85DC107EB0C06A84213D3B0428F
:10C4300011D84C4F97F8ACC397F8AD730CEB0727A6
:10C440003FB2DFF824C1ACF800700B27DFF81CC145
:10C450008CF8007083E0434F97F85171DFF804C106
:10C460009CF850C1CCEB0C1C07EB8C013D4F97F8AE
:10C470005371DFF8F0C09CF852C1CCEB0C1C07EBF9
:10C480008C02384F97F85571DFF8D8C09CF854C12A
:10C49000CCEB0C1C07EB8C03324F97F85771DFF88D
:10C4A000C4C09CF856C1CCEB0C1C07EB8C04304F7D
:10C4B0007F78DFF8BCC09CF800C0CCEB0C1C07EB0D
:10C4C0008C00884214D3904212D20127DFF89CC01E
:10C4D0008CF80070234F7F7A47F00107DFF884C0A3
:10C4E0008CF809700127DFF88CC08CF8007036E0FA
:10C4F000904214D3984212D20427DFF870C08CF80F
:10C500000070184F7F7A07F0FE07DFF858C08CF8EC
:10C5100009700027DFF85CC08CF800701FE09842BB
:10C5200014D3A04212D20927DFF840C08CF8007063
:10C530000C4F7F7A47F00107DFF828C08CF80970AC
:10C540000127DFF830C08CF8007008E0A04201D26B
:10C55000884204D20A27DFF814C08CF80070BDE8C6
:10C56000F0810000144A002046000020280000202E
:10C57000980600204D00002070B503460C460025AB
:10C58000FB4E3570FB4E357024B1012C53D0022C7C
:10C590007DD187E03C2593FBF5F605FB1635F64E7D
:10C5A000B6783544E8B23C2590FBF5F5E9B23C2578
:10C5B00090FBF5F605FB1605F04E06EB8206F570CE
:10C5C0003C2593FBF5F605FB16355D1BABB23C2510
:10C5D00093FBF5F5ABB23C2593FBF5F605FB163561
:10C5E000E54E767835440D44E8B23C2590FBF5F5F0
:10C5F000E9B23C2590FBF5F605FB1605DF4E06EB90
:10C600008206B5703C2593FBF5F5DB4E36780E447B
:10C610003544E8B2182590FBF5F5E9B2182590FBF2
:10C62000F5F605FB1605D54E06EB82067570D34D63
:10C6300005F8221058E0D04DAD78D04E06EB8206BA
:10C64000F5703C2593FBF5F605FB1635CA4E76785A
:10C650003544E8B23C2590FBF5F5E9B23C2590FB6A
:10C66000F5F605FB1605C54E06EB8206B5703C25B2
:10C6700093FBF5F5C04E36780E443544E8B21825E4
:10C6800090FBF5F5E9B2182590FBF5F600E02AE0FD
:10C6900005FB1605B94E06EB82067570B74D05F819
:10C6A000221021E0B44DAD78B44E06EB8206F57051
:10C6B000B14D6D78B14E06EB8206B570AE4D2D785A
:10C6C0001D44E8B2182590FBF5F5E9B2182590FB5A
:10C6D000F5F605FB1605A94E06EB82067570A74D0B
:10C6E00005F8221000E000BF00BFA44D05EB820555
:10C6F000ED783B2D04D13A25A04E06EB8206F5706D
:10C7000070BD014641BB9D4810F82100984A12783F
:10C7100090421FD1994800EB81004078964A1278E8
:10C72000904215D1954800EB81008078924A52786A
:10C7300090420BD1914800EB8100C0788E4A9278EC
:10C74000904201DC012070470020FCE70020FAE75E
:10C750000020F8E70020F6E7884810F82100854A15
:10C76000127890421FD1854800EB81004078824AC0
:10C770001278904215D1814800EB810080787E4A82
:10C78000527890420BD17D4800EB8100C0787A4A04
:10C790009278904201DC0120D5E70020D3E7002009
:10C7A000D1E70020CFE70020CDE770B506467448FA
:10C7B000007801287ED100247BE0611CC8B2FFF71D
:10C7C000A0FF0546012D36D16E48005D90BB6E4836
:10C7D00090F8DB0003280BD101206A490855611C41
:10C7E000CAB26A4931F814000021FFF7C5FE14E00F
:10C7F000654890F8CB00644991F8CC1000EB01201B
:10C800006349088001205F4908555F4890F8D310BC
:10C8100001225F480088FFF7AFFE5B4890F8DB001D
:10C82000022844D10020574908555A4908705449F4
:10C8300008703CE0FFE7012D39D15248005D012826
:10C8400035D1514890F8DB0003281BD1524830F80D
:10C85000140058B901204B490855611CCAB24B4914
:10C8600031F814000021FFF787FE20E00020454941
:10C870000855611CCAB2484931F814000021FFF77D
:10C880007BFE14E0404890F8CD003F4991F8CE106F
:10C8900000EB01203E49088000203A4908553A48FB
:10C8A00090F8D31001223A480088FFF765FE601C1B
:10C8B000C4B200E002E0B442FFF67FAF70BD70B5D5
:10C8C00005460E461446B54206D1E01CC1B2002210
:10C8D0003248FDF772F805E0E01CC1B201222F4892
:10C8E000FDF76BF870BD70B504460D4615B100201C
:10C8F0002B490855012221462848FDF75EF8E01C27
:10C90000C1B200222548FDF758F870BD10B50446A5
:10C910002448015D2448005D801C81420ADD00221C
:10C9200021462248FDF749F8012221462048FDF71B
:10C9300044F81BE01B48015D1B48005D801E8142DE
:10C940000ADA012221461948FDF737F8002221466C
:10C950001748FDF732F809E0002221461348FDF799
:10C960002CF8002221461248FDF727F810BD0000E0
:10C97000BF000020C0000020980600208C06002088
:10C98000BE000020B0000020144A0020C600002095
:10C99000C4000020B9000020CA0000209E00002032
:10C9A0009100002084000020EB020020760000208F
:10C9B000780000202DE9FE430446FE4890F86B0005
:10C9C00030B1012842D0022870D003283DD19DE02B
:10C9D000F948007806280AD101220021F748FCF71F
:10C9E000ECFF00221146F648FCF7E7FF2DE0F14886
:10C9F00090F8A903022804D0EE4890F8A903012872
:10CA00001DD10120FFF782FFEA4890F8A903022810
:10CA10000AD100221146E948FCF7CFFF012200218C
:10CA2000E748FCF7CAFF0DE001220021E348FCF7CC
:10CA3000C4FF00221146E248FCF7BFFF02E0204697
:10CA4000FFF764FF0120FFF761FF9BE00120FFF784
:10CA50005DFFDC48007850B100221146D748FCF752
:10CA6000ACFF01220021D648FCF7A7FF09E0012214
:10CA70000021D248FCF7A1FF00221146D048FCF764
:10CA80009CFFD148007800280EDDCF480078401E7A
:10CA9000CD49087000221146C848FCF78EFF0022DD
:10CAA0001146C748FCF789FF6CE0FFE7C14890F8E2
:10CAB000CA00052807D1C5484088012801D10127AF
:10CAC0000DE000270BE0BB4890F8C900052806D10F
:10CAD000BE480088012801D1012700E0002757B196
:10CAE00000221146B548FCF768FF01220021B44836
:10CAF000FCF763FF09E001220021B048FCF75DFF6D
:10CB000000221146AE48FCF758FF3BE00221A9483D
:10CB1000D430FCF763FF28B90120AD4908700846FE
:10CB200090F80080A34890F8CA00052807D1A748CC
:10CB30004088012801D101270DE000270BE09D4826
:10CB400090F8C900052806D1A0480088012801D125
:10CB5000012700E0002757B9002211469748FCF74B
:10CB60002CFF012200219648FCF727FF09E0012253
:10CB700000219248FCF721FF002211469048FCF763
:10CB80001CFF00BF00BFA020A0EB44008949085C47
:10CB900050B964208F49085504EB44008E4911F8C0
:10CBA00010008E49085525E0A020A0EB44008149E3
:10CBB000085C06280AD100208849085504EB440087
:10CBC000854911F810008349085513E004EB44002F
:10CBD000814901EB4000A021A1EB4401754A515C61
:10CBE000405C7E49085504EB44007B4911F8100075
:10CBF000784908557A48005D7849095D884205DB27
:10CC00007748005D7349095D884221DD694890F8E5
:10CC10007900022804D0674890F8790004281BDCCA
:10CC2000214667480088FCF7AFFE28B16C48005DDC
:10CC30006849095D88420BDB214660480088FCF7A3
:10CC4000A3FE48B16648005D6449095D884203DD82
:10CC500000206449085509E2214658480088FCF73D
:10CC600093FE00287DD000250FE004EB44005A49D4
:10CC700001EB4000A021A1EB44014E4A515C294444
:10CC8000405C0DF80500681CC5B2A120A0EB440073
:10CC90004849085CA842E8DC00250AE00220A121FE
:10CCA000A1EB4401434A515C29440DF80100681C82
:10CCB000C5B2A120A0EB44003E49085CC0F10600CB
:10CCC000A842EBDC4648005D032804DC4448055DCF
:10CCD0000320434908554248015D9DF80500801E28
:10CCE000814203DA06203F49085520E03C48005DB8
:10CCF0009DF80010884203DD00203A49085516E0EF
:10CD0000002612E03648015D701C1DF800008142CB
:10CD100009DD3348015D1DF80600801E814202DAFC
:10CD2000701C30490855701CC6B2042EEADB2C4832
:10CD3000015D9DF80000801E81420FDB2848005DE8
:10CD40009DF80010884209DC2648005D012805D0C6
:10CD50002448005D10B10120224908552048015D9A
:10CD600000E096E09DF80100801E814210DB1C4827
:10CD7000005D9DF8011088420ADC1A48005D012818
:10CD800006D01848005D022802D002201549085537
:10CD90001348015D9DF80200801E81422BDB104884
:10CDA000005D9DF80210884225DC0E48005D0228D7
:10CDB00021D019E0144A00209400002076000020C1
:10CDC0007800002080000020BD000020F20200203A
:10CDD000B2000020A30000207A060020A00000205E
:10CDE000840000208E000020FE48005D032802D051
:10CDF0000320FC490855FC48015D9DF80300801E96
:10CE0000814210DBF848005D9DF8031088420ADC7F
:10CE1000F448005D032806D0F248005D042802D0E3
:10CE20000420F0490855F048015D9DF80400801E7B
:10CE3000814210DBEC48005D9DF8041088420ADC5A
:10CE4000E848005D042806D0E648005D052802D0C9
:10CE50000520E4490855E448015D9DF80500801E61
:10CE6000814210DBE048005D9DF8051088420ADC35
:10CE7000DC48005D052806D0DA48005D062802D0AF
:10CE80000620D8490855D848005D032801D1D64866
:10CE900005552146D5480088FCF776FD00287DD051
:10CEA000002509E004EB4400D14901EB4000405D5E
:10CEB0000DF80500681CC5B2A020A0EB4400CD49C8
:10CEC000085CA842EEDC00250AE06620A021A1EB68
:10CED0004401C84A515C29440DF80100681CC5B2E0
:10CEE000A020A0EB4400C349085CC0F10600A842A2
:10CEF000EBDCBD48015D9DF80500801C814203DD2F
:10CF00000C20B849085520E0B748005D9DF8001096
:10CF1000884203DA0020B349085516E0002612E0E3
:10CF2000B148015D701C1DF80000814209DAAE486D
:10CF3000015D1DF80600801C814202DDF01DA9493B
:10CF40000855701CC6B2042EEADBA748005D9DF8A8
:10CF50000010884210DBA448015D9DF80000801C91
:10CF6000814209DC9F48005D072805D09D48005D8F
:10CF700010B107209B4908559B48005D9DF80110A2
:10CF8000884213DB9848015D9DF80100801C8142B6
:10CF90000CDC9448005D072808D000E066E091486A
:10CFA000005D082802D008208E4908558E48005D93
:10CFB0009DF80210884211DB8B48015D9DF802004C
:10CFC000801C81420ADC8748005D082806D085481D
:10CFD000005D092802D00920824908558248005D79
:10CFE0009DF80310884211DB7F48015D9DF8030026
:10CFF000801C81420ADC7B48005D092806D0794804
:10D00000005D0A2802D00A20764908557648005D5E
:10D010009DF80410884211DB7348015D9DF80400FF
:10D02000801C81420ADC6F48005D0A2806D06D48EA
:10D03000005D0B2802D00B206A4908556A48005D44
:10D040009DF80510884211DB6748015D9DF80500D9
:10D05000801C81420ADC6348005D0B2806D06148D1
:10D06000005D0C2802D00C205E4908556248005D26
:10D0700002A90855214661480088FCF785FCA0B349
:10D0800021465F480088FCF77FFC70BB5A48005D72
:10D0900008BB5448005D062809DD21465948008830
:10D0A000FCF772FC18B907205349085518E04D48A1
:10D0B000005D002814DD4B48005D072810DA21468A
:10D0C00051480088FCF760FC50B94B48005D401C9B
:10D0D0004949085504E04848005D401C4649085548
:10D0E000002221464548FCF768FCE01CC1B24348D9
:10D0F0000088FCF749FCD8B1214641480088FCF77C
:10D1000043FCA8B93C48005D072803D100203A49F8
:10D11000085507E03848005D20B13748005D401EE3
:10D1200035490855E01CC1B200223448FCF745FCE3
:10D130002C48005D0D2869D2DFE800F06807204226
:10D140007EA4CAEFEDECEBEAE9002B48005D002875
:10D150000FDD2948005D07280BDA00222146274809
:10D16000FCF72BFC2449085D22460121FFF7A7FBB1
:10D1700003E001212046FFF7B6FBA1E11E48005D58
:10D1800001280FDD1C48005D07280BDA002221462C
:10D190001A48FCF712FC1849085D22460221FFF7E5
:10D1A0008EFB0CE01448005D012804D100212046CC
:10D1B000FFF799FB03E001212046FFF794FB7FE195
:10D1C0000D48005D022825DD0B48005D072821DAA7
:10D1D000002221460948FCF7F0FB0749085D22467A
:10D1E000032114E08E00002084000020780000203D
:10D1F0007A060020144A0020910000209E000020A2
:10D2000074000020680000206A0000203DE1FFF764
:10D2100056FB10E0FB48005D022803D0F948005D92
:10D22000012804D100212046FFF75DFB03E0012126
:10D230002046FFF758FB43E1F248005D03280FDD6D
:10D24000F048005D07280BDA00222146EE48FCF783
:10D25000B4FBEC49085D22460421FFF730FB10E0E7
:10D26000E848005D032808DBE648005D012804DC8F
:10D2700000212046FFF737FB03E001212046FFF79E
:10D2800032FB1DE1DF48005D04280FDDDD48005D55
:10D2900007280BDA00222146DB48FCF78EFBD94930
:10D2A000085D22460521FFF70AFB10E0D548005D26
:10D2B000042808DCD348005D012804DB0021204657
:10D2C000FFF711FB03E001212046FFF70CFBF7E01D
:10D2D000CC48005D062808D100222146CA48FCF748
:10D2E0006CFB0620C749085510E0C648005D0528BC
:10D2F00008DCC448005D012804DB00212046FFF75C
:10D30000F2FA03E001212046FFF7EDFAD8E09DE0B4
:10D310007AE057E034E015E0FFE7BA48005D062800
:10D320000BDD00222146B848FCF747FBB549085DF4
:10D3300022460721FFF7C3FA03E001212046FFF749
:10D34000D2FABDE0AF48005D07280BDD0022214680
:10D35000AD48FCF732FBAB49085D22460821FFF7D8
:10D36000AEFA0CE0A748005D072804D10021204652
:10D37000FFF7B9FA03E001212046FFF7B4FA9FE076
:10D38000A048005D08280BDD002221469E48FCF7DE
:10D3900014FB9C49085D22460921FFF790FA10E032
:10D3A0009848005D082803D09648005D072804D1FE
:10D3B00000212046FFF797FA03E001212046FFF7FE
:10D3C00092FA7DE08F48005D09280BDD002221469E
:10D3D0008D48FCF7F2FA8B49085D22460A21FFF7D7
:10D3E0006EFA10E08748005D092803DD8548005D7E
:10D3F000072804DB00212046FFF775FA03E001212E
:10D400002046FFF770FA5BE07E48005D0A280BDDDE
:10D41000002221467C48FCF7D0FA7A49085D224672
:10D420000B21FFF74CFA10E07648005D0A2803DD77
:10D430007448005D072804DB00212046FFF753FAFB
:10D4400003E001212046FFF74EFA39E06D48005D08
:10D450000B2808DD002221466B48FCF7AEFA0C20B1
:10D460006849085510E06748005D0B2803DD6548F2
:10D47000005D072804DB00212046FFF734FA03E0B3
:10D4800001212046FFF72FFA1AE0002221465E48CC
:10D49000FCF793FA5B48005D012806DBE01CC1B293
:10D4A00001225948FCF789FA09E05848005D5549BE
:10D4B0000855E01CC1B200225348FCF77EFA00BFB9
:10D4C00000BF02A8005D4F49095D88420CD00120D1
:10D4D0004F49087048708870012221464D48FCF77A
:10D4E0006CFA01204C4908704648005D18BB02A840
:10D4F000005D002820DD02A8005D07281CDA6620F8
:10D5000003F06DFE48B1012221464448FCF755FA6C
:10D51000662003F064FE42490855672003F05FFE71
:10D5200048B1012221463F48FCF747FA672003F043
:10D5300056FE3D4908551FE002A8005D07281BDB89
:10D54000662003F04CFE48B1012221463548FCF725
:10D5500034FA662003F043FE33490855672003F090
:10D560003EFE48B1012221462C48FCF726FA6720EE
:10D5700003F035FE2A4908552C480078A0B9002050
:10D580002149088025490880264908801F480078DD
:10D59000072802DB00201D4908701C48005D19495E
:10D5A0000855012021490870BDE8FE832DE9FF4F91
:10D5B0000746894692463D46002490E05CB91C48E7
:10D5C00090F8CB001A4991F8CC1000EB01264FEAF5
:10D5D000191BB8460BE0164890F8CD00144991F895
:10D5E000CE1000EB0126039800F00F0BD046BBF1E4
:10D5F000050F2AD2DFE80BF0031E202226000025AB
:10D6000023E00000910000209E0000208E000020FA
:10D61000BA00002074000020660000206A0000208C
:10D620006F000020680000206C00002067000020D0
:10D63000144A0020642508E0454606E0322000EB4D
:10D64000680502E04FEA680500BF00BFF74890F8A0
:10D65000D300012803D1C6EB0610860007E0F3488B
:10D6600090F8D300022802D14FF46160464306FBD4
:10D6700005F06421B0FBF1F0ED4921F81400C5F18B
:10D68000640070436421B0FBF1F0EA4921F8140012
:10D69000E9480555E64830F81400002815DD002D4E
:10D6A00013DDE648005D01280FD1E5490870611CD3
:10D6B000CAB2DF4931F814000021FEF75DFF0120F6
:10D6C000E04908550020DD490855D94830F81400D4
:10D6D00000B115B90020DB490855601CC4B2022C0A
:10D6E000FFF66CAFBDE8FF8F2DE9F05F82468946FB
:10D6F0000025D2E105F1B700CC490C5C0C30085C88
:10D70000072801D1D34605E019F804006900084153
:10D7100000F0030BA020A0EB4400C4490F5CA12043
:10D72000A0EB440011F80080BBF1000F09D0BBF161
:10D73000010F7CD0BBF1020F05D0BBF1030F01D16B
:10D7400054E00026B0E0C048005DC049095D884251
:10D7500022DA791EBE4A125D114404EB4402BD4B2D
:10D7600003EB4202515CB84A125D881A4FF47A7199
:10D77000FCF706F904EB4401B64A02EB410207EB61
:10D780000801491E515C90FBF1F086B2B6F57A7F34
:10D790002BDD4FF47A7628E0AB48005DAE49095D99
:10D7A000884221DD04EB4401AA4A02EB4102A84968
:10D7B000095DC91F515CA44A125D501A4FF47A7179
:10D7C000FCF7DEF804EB4401A24A02EB4102791EA9
:10D7D000515CC1F1640190FBF1F086B2B6F57A7F3D
:10D7E00003DD4FF47A7600E000265DE09648005DA8
:10D7F0009649095D884227DA791E954A125D1144DF
:10D8000004EB4402934B03EB4202515C8E4A125DDF
:10D81000881A4FF47A71FCF7B3F804EB44018D4A8F
:10D8200002EB410207EB0801491E515C00E038E0C1
:10D8300090FBF1F086B206F5FA7086B2B6F57A7F03
:10D840002EDD4FF47A762BE07F48005D8249095D3A
:10D85000884224DD04EB44017E4A02EB41027C490C
:10D86000095DC91F515C784A125D501A4FF4FA7174
:10D87000FCF786F804EB4401764A02EB4102791E7C
:10D88000515CC1F1640190FBF1F086B206F5FA70CB
:10D8900086B2B6F57A7F03DD4FF47A7600E0002693
:10D8A00002E04FF47A7600BF00BF05F1C3005F4984
:10D8B000085C072802D14FF0000B05E019F80410AE
:10D8C0004020A84001EA000BBBF1000F4CD05E489D
:10D8D000005D5E49095D88421DDA791E5C4A125D71
:10D8E000114404EB44025B4B03EB4202515C564A89
:10D8F000125D881A4FF4FA71FCF742F804EB440108
:10D90000544A02EB410208EB0701491E515C90FBAF
:10D91000F1F086B228E04C48005D4F49095D88422D
:10D9200021DD04EB44014B4A02EB41024849095D09
:10D93000C91F515C444A125D501A4FF4FA71FCF74A
:10D940001FF804EB4401434A02EB4102A021A1EB82
:10D950004401364B595C491E515CC1F1640190FB96
:10D96000F1F086B200E000263C48007830BB022C83
:10D9700027D13B480078012821D135480078062876
:10D9800014DC3848008838490988401A86B22E4885
:10D990000078C0F16400704386B2642096FBF0F01A
:10D9A00086B232480088304486B201E02F480688AB
:10D9B0002E480088864204DA2C48068801E02B486D
:10D9C0000688B6F57A7F01DD4FF47A7605F17B00A3
:10D9D0001649085C11285ED005F17B00085C02281E
:10D9E00008D1304606EBD071491009B2204A22F81E
:10D9F000151050E005F17B000C49085C032839D173
:10DA000006EB8600062190FBF1F0B13000B2184918
:10DA100021F81500084630F91500B0F57A7F3ADD97
:10DA20004FF47A7021F8150035E00000144A002008
:10DA3000C6000020CA000020CE000020BA0000204E
:10DA4000BE000020B000002084000020A0000020C4
:10DA5000910000207A060020A3000020D4000020BE
:10DA60004D000020D8000020DA000020DC0000205B
:10DA70008800002005F17B00FE49085C042806D1DF
:10DA8000C6F57A7000B2FC4921F8150003E030B207
:10DA9000F94921F81500681CC5B2022DFFF62AAE1F
:10DAA000BDE8F09F30B50346062B03D1F14C94F846
:10DAB0007B2002E0EF4C94F87C20541F0C2C41D2C8
:10DAC000DFE804F006142223242526272829383CE1
:10DAD000EA4CB4F90000EA4C2478EA4D2D78641B36
