:020000040000FA
:20000000020200FFFFFFFFFFFFFFFF02351BE54425E0249BF582E43402F58322D2B47F0A6B
:200020007E002202310AFFFFFFFFFF022D09C2579001B0E0FF64036004EFB4041790002B33
:20004000E07004A3E064017004D2578002C2579001B080229001AFE0FF64036004EFB404B8
:2000600018900029E07004A3E064017004D2578002C2579001AFE08001E4787DF6A25730A2
:200080003A01B3500890006CE004F0800C90006CE0D394004003E014F090006CE0C3940A17
:2000A000405BE4F0787DE6605024FC6022047049205746125856122E7212588EE490010249
:2000C000F0125A35122E72C247E412595E802A305718C23D530EFE900181E0FF900024F0EB
:2000E000125957900024EFF08003125A3E12585B122E72125897122E72A257923A22FFFF6F
:2001000054656D636F54535441543600000000A901000080E5168515F0122AAF0130016FE6
:20012000016901710172017201A50174000001B51257744006EFD39404400912578612B3B2
:20014000E70201B57878E690018DF018E6FF3395E0EFA3F090018DE0FD7FA77E00122E72A4
:2001600090018EE0FD7FA880479001C9E0FD7FE3803E125B4F12588E125897122E72900146
:2001800002E0700E125BC7122E72C247E412595E800E20470B430E01D23D12585B122E728B
:2001A00012BD2880107878E69001DCF0E6FD7FF67E00122E727F071237F2C24612C3AA9025
:2001C0000165E0B4032D1259F3123768E516B46F0DE515B401087515007516968010E516CE
:2001E000B4720BE515B40106751500751697127FFA800312BFA7D25022FFFFFFFFFFFFFFAA
:2002000078FFE4F6D8FD75818E122E0A02024A022AE2E493A3F8E493A34003F68001F208AE
:20022000DFF48029E493A3F85407240CC8C333C4540F4420C8834004F456800146F6DFE403
:20024000800B0102040810204080902F9AE47E019360BCA3FF543F30E509541FFEE493A3CB
:2002600060010ECF54C025E060A840B8E493A3FAE493A3F8E493A3C8C582C8CAC583CAF044
:20028000A3C8C582C8CAC583CADFE9DEE780BEC34F4646000000000000C3484541540000BA
:2002A000000000C3434F4F4C0000000000C3474153000000000000C34155544F00000000B4
:2002C0000000960055003C002D00230019000F0005FFFBFFF1FFCE0000012C0258038404B1
:2002E000B005DC0708083409600A8C0BB800113333143C3C00113333143C3C00000000005A
:200300000000004030100403010002020401030304C0D1CEBBA183674F3D2D9B19273D5379
:2003200066717065554333261C154105040505050606060707080808090A0A0B0B0D0D0F02
:20034000101112151A1E232324292B2E2F2F2B2824211D1B191715131311100F0F0E20200B
:2003600020202020202000202054454D50202000534554504F494E540020494E50555431B0
:20038000200020494E50555432200020494E50555433200020494E50555434200020494E7D
:2003A00050555435200020494E50555436200020494E50555437200020494E5055543820DA
:2003C00000204D4F444520202000205553455220202000434F325F5F70706D0048554D49B7
:2003E0004449545900C34C4F46000000000000C34C4F4E000000000000C3504F46000000CB
:20040000000000C3504F4E000000000000C34A616E000000000000C3466562000000000080
:2004200000C34D6172000000000000C3417072000000000000C34D6179000000000000C346
:200440004A756E000000000000C34A756C000000000000C3417567000000000000C3536526
:2004600070000000000000C34F6374000000000000C34E6F76000000000000C3446563005E
:200480000000000000C34D6F6E200000000000C3547565730000000000C3576564200000E8
:2004A000000000C3546875720000000000C3467269200000000000C35361742000000000C7
:2004C00000C353756E200000000000C34F4646000000000000C32D312D000000000000C354
:2004E0002D322D000000000000C32D332D000000000000C34155544F0000000000C34F4EC4
:20050000000000000000008343414C000000000000837453530000000000008346494C008D
:2005200000000000008341493100000000000083414932000000000000834F727400000086
:20054000000000836441430000000000008362415500000000000083645343000000000038
:200560000083644348000000000000835050720000000000008350496E0000000000008367
:20058000534F500000000000008348430000000000000083436462000000000000834864A0
:2005A0006200000000000083435F460000000000008346416E000000000000836E48640059
:2005C0000000000000836E4364000000000000836E5370000000000000836E4853480000FB
:2005E000000000836E4353000000000000836E435348000000000083415050000000000041
:200600000083504F5300000000000083504F6E0000000000008350416400000000000083DA
:20062000415574000000000000834F5531000000000000834F5532000000000000835348E1
:200640004900000000000083534C4F000000000000834C4F430000000000008364495300FC
:20066000000000000083567474000000000000824E4554574F524B00008344454D414E44E1
:200680000000008300000000000000000082000000000000000000830000000000000000D2
:2006A000008300000000000000000083000000000000000000820000000000000000008230
:2006C00000000000000000000081576F726B646179000081576F726B646179000081576F0F
:2006E000726B646179000081576F726B6461790000815765656B656E640000815765656B2C
:20070000656E640000815765656B656E640000815765656B656E64000083644546000000A8
:20072000000000834641430000000000008341646400000000000083534574000000000051
:200740000083464153000000000000000000000000000000002020202020202020002020FC
:20076000202020204320002020202020204620002020202020202520002020202020205259
:2007800048002020202020414D50002020202020204B57002020202020204B410020202085
:2007A000202070706D00434F415354494E4700434F4F4C494E47000048454154494E470049
:2007C0000046414E204F4646000046414E202D312D000046414E202D322D000046414E2053
:2007E0002D332D000046414E204155544F00050A0A0A0A040A1E04090A0A0A0A0A0A0A642E
:2008000064645B0A640A64036405050514000400640005000500FF00FF0001001400C80002
:20082000FF00FF0007000501FF01FF0001000300FF00FF00FF00FF00FF00FF000100FF00B0
:20084000030008000200FF00FF00FF00FF000400060AFF000100020063000C0007001F00E4
:2008600017003C003C003C003C003C003C003C003C003C003C00FF00FF00FF00FF00FF000E
:20088000FF00FF00FF0004000600060006000600060006000A00FF00FF00FF00FF00FF002E
:2008A000FF00FF00FF001F001F001F001F001F001F001F0003000300030003000300030050
:2008C00003000300030003000300030007000700070007000700070007010A00FF05FF05C2
:2008E000FF000A000A00FF00FF00FF00FF00FF00FF00FF00FF000200FF00FF00FF000100ED
:20090000FF0005000100030003000300030003000300FF00020001000100060006000600AB
:2009200006000600060006000600FF00FF00FF00FF000F000F000200020001000300FF0078
:20094000FF00FF00FF00FF00FF00FF00FF00FF00FF000400640005000500FF00FF0001002F
:200960001400C800FF00FF0007000501FF01FF00010003005F006300FF00FF00FF00FF00CF
:200980000100FF00030008000200FF00FF00FF00FF000400060AFF000100020063000C00C9
:2009A00007001F0017003C003C003C003C003C003C003C003C003C003C00FF00FF00FF00A5
:2009C000FF00FF00FF00FF00FF0004000600060006000600060006000A00FF00FF00FF00ED
:2009E000FF00FF00FF00FF00FF001F001F001F001F001F001F001F00030003000300030017
:200A00000300030003000300030003000300030007000700070007000700070007010A0082
:200A2000FF05FF05FF000A000A00FF00FF00FF00FF00FF00FF00FF00FF000200FF00FF00A3
:200A4000FF000100FF0005000100030003000300030003000300FF00020001000100050077
:200A60000500050005000500050005000500FF00FF00FF00FF000F000F0002000200010034
:200A80000300FF00FF00FF00FF00FF00FF00FF00FF00FF00FF0202000000640100003C3286
:200AA00001000A0A00030A0A96002C0100140201000101320F00005A000000000000000093
:200AC0000000000000000000000000C800BE00D2000003030303030303E8030A00D007B825
:200AE0000B0302010F171813000000000000000000000000000000000000000A050A1E005D
:200B000000000000000100FE000000000000000100000000000000140000000000000000C1
:200B20000000000100006401000000010103030303030303030303020200000064010000C6
:200B40003C3201000A0A01030A0A8A02200300440201000101633700005A0000000000000E
:200B600000000000000000000000000000A8029602BA000003030303030303E8030A00D09F
:200B800007B80B0302010F171813000000000000000000000000000000000000000A280AF8
:200BA0001E0000000000000100FE00000000000000010000000000000044000000000000D3
:200BC00000000000000100006401000000010103030303030303030303000000000000008F
:200BE0000101090901011102020A0A02021204040C0C0404140141CACC41D2D40041CACCCE
:200C000041D2D40000000000000000113103070000000000000000000000000000000000A1
:200C2000000000000000000000000000000000000000000000091903070000000000000088
:200C400000000000000000000000000000000000000000000000000000000000000000098B
:200C600019050700000000000000000000000000000000000000000000000000000000004F
:200C80000000000000000000000D1D01030000000000000000000000000000000000000026
:200CA0000000000000000000000000000000000000000000000000000000C1814001C08071
:200CC0004101C0804100C1814001C0804100C1814000C1814001C0804101C0804100C18103
:200CE0004000C1814001C0804100C1814001C0804101C0804100C1814001C0804100C181E4
:200D00004000C1814001C0804100C1814001C0804101C0804100C1814000C1814001C080C4
:200D20004101C0804100C1814001C0804100C1814000C1814001C0804101C0804100C181A2
:200D40004000C1814001C0804100C1814001C0804101C0804100C1814000C1814001C08084
:200D60004101C0804100C1814001C0804100C1814000C1814001C0804100C1814001C08063
:200D80004101C0804100C1814001C0804100C1814000C1814001C0804101C0804100C18142
:200DA0004000C1814001C0804100C1814001C0804101C0804100C1814000C0C101C303029D
:200DC000C2C60607C705C5C404CC0C0DCD0FCFCE0E0ACACB0BC90908C8D81819D91BDBDABB
:200DE0001A1EDEDF1FDD1D1CDC14D4D515D71716D6D21213D311D1D010F03031F133F3F25B
:200E00003236F6F737F53534F43CFCFD3DFF3F3EFEFA3A3BFB39F9F83828E8E929EB2B2ADA
:200E2000EAEE2E2FEF2DEDEC2CE42425E527E7E62622E2E323E12120E0A06061A163A3A27A
:200E40006266A6A767A56564A46CACAD6DAF6F6EAEAA6A6BAB69A9A86878B8B979BB7B7A3A
:200E6000BABE7E7FBF7DBDBC7CB47475B577B7B67672B2B373B17170B0509091519353529A
:200E80009296565797559594549C5C5D9D5F9F9E5E5A9A9B5B99595898884849894B8B8A5A
:200EA0004A4E8E8F4F8D4D4C8C44848545874746868242438341818040026C026E027002F2
:200EC00072027402760278027A027C027E02800282028402860288028A028C028E029002E2
:200EE000922020557365722020204D65737361676500000000000100010002000200030053
:200F0000030004000400050005000600060007000700080008017F0009026402B601750075
:200F20000A00F0000E00D7000F000B0010000C0011000D0012000A001302940014017B0029
:200F400065017C0066006A0067006E0068006F00690078006A007A006B0094006C000900FA
:200F60006D0065006E0063006F01800070006B007100CB007200CD007300D3007400D800F6
:200F80007500E4007600EE0077008200780176007900E5007A00E6007B00E7007C00E80028
:200FA0007D00E9007E00EA007F00EB008000EC0081018700820167008301680084016900C0
:200FC00085016A0086016B0087016C0088016D0089016E008A02B0008B02B2008C00D40072
:200FE0008D0060008E00F7008F00F8009000F9009100FA009200FB009300FC009400FD0037
:201000009500FE009600FF009701000098005D0099005B009A0047009B0049009C004B007B
:201020009D004D009E004F009F005100A0005300A1005500A2026C00A3026E00A4027000C7
:20104000A5027200A600C900A700CA00A8029E00A9029F00AA02A000AB02A100AC02A2001B
:20106000AD02A300AE001B00AF001D00B0001F00B1002100B2002300B3002500B400270060
:20108000B5002900B6002B00B7002D00B8002F00B9003100BA003300BB003500BC0037000C
:2010A000BD003900BE003B00BF003D00C0003F00C1004100C2004300C3004500C40265000C
:2010C000C5026600C6026700C7026800C8026900C900B900CA00BA00CB00BB00CC00BC003C
:2010E000CD00BD00CE007B00CF007C00D0017E00D1017700D2017800D3006400D4014000A3
:20110000D5014100D6014200D7014300D8014400D9014500DA014600DB024900DC024A00D9
:20112000DD024B00DE024C00DF024D00E0024E00E1024F00E2014700E3014800E401490045
:20114000E5014A00E6014B00E7014C00E8014D00E9024200EA024300EB024400EC02450003
:20116000ED024600EE024700EF024800F0006600F1006700F2008100F3018800F400BE007B
:20118000F500BF00F600C000F700C100F800C200F900C300FA00C400FB00C700FC00C80073
:2011A000FD00D600FE018900FF018A0100018B0101018C0102018D010302AC010402AE0135
:2011C000050251010602520107025301080255010900DC010A00DD010B00DE010C00DF01FA
:2011E0000D00E0010E02A4010F02A50110009B011100B2011200B3011300B4011400B501CD
:201200001500B6011600B7011700B80118012401190125011A0126011B0127011C0128011A
:201220001D0129011E012A011F010101200102012101030122010401230105012401060132
:2012400025010701260108012701090128010A0129010B012A010C012B010D012C010E01E6
:201260002D010F012E0110012F011101300112013101130132011401330115013401160146
:2012800035011701360118013701190138011A0139011B013A011C013B011D013C011E01A6
:2012A0003D011F013E0120013F012101400122014101230142012B0143012C0144012D01F1
:2012C00045012E0146012F01470130014801310149009E014A009F014B00A0014C00A10182
:2012E0004D0139014E013A014F013B0150013C0151013D0152013E0153013F015400E101D6
:201300005500E2015600F501570260015802570159006C015A006D015B0095015C0097016A
:201320005D0099015E0076015F0070016000710161007201620074016302590164025B0113
:201340006500A9016600A70167000F01680011016902A6016A02A8016B0077016C007D018B
:201360006D007E016E0260016F026001700260017102600172026001730260017400C50152
:201380007500C601760260017702600178026001790260017A0260017B0260017C0260010D
:2013A0007D005F017E00A2017F01790180006801810069018200A3018300A50184017A0112
:2013C0008500130186001501870017018800190189017D018A0079018B007F018C00800173
:2013E0008D02AA018E0181018F018201900183019101840192018501930186019400D901C1
:201400009500CF019600D10197018E019800DB01990296019A0297019B0298019C02990190
:201420009D029A019E029B019F029C01A0029D01A1014E01A2014F01A3015001A4015101E8
:20144000A5015201A6015301A7015401A8015501A9015601AA015701AB015801AC0159018C
:20146000AD015A01AE015B01AF015C01B0015D01B100ED01B2018F01B3019101B4019301CB
:20148000B5019501B6019701B7019901B8019B01B9019D01BA019F01BB01A101BC01A30198
:2014A000BD01A501BE01A701BF01A901C001AB01C101AD01C201AF01C301B101C401B301B8
:2014C000C501B501C601B701C701B901C801BB01C901BD01CA01BF01CB01C101CC01C301D8
:2014E000CD01C501CE01C701CF01C901D001CB01D101CD01D201CF01D301D101D401D301F8
:20150000D501D501D601D701D701D901D801DB01D901DD01DA01DF01DB01E101DC01E30117
:20152000DD01E501DE01E701DF01E901E001EB01E101ED01E201EF01E301F101E401F30137
:20154000E501F501E601F701E701F901E801FB01E901FD01EA01FF01EB020101EC02030155
:20156000ED020501EE020701EF020901F0020B01F1020D01F2020F01F3021101F40213016F
:20158000F5021501F6021701F7021901F8021B01F9021D01FA021F01FB022001FC02210192
:2015A000FD022201FE022301FF0224020002250201022602020227020302280204022902DD
:2015C00005022A0206022B0207022C0208022D0209022E020A022F020B0230020C0231023B
:2015E0000D0232020E0233020F02340210023502110236021202370213023802140239029B
:2016000015023A0216023B0217023C0218023D0219023E021A00F1021B00F2021C0083025A
:201620001D00EF021E00E3021F026A0220026B0221027402220276022302780224027A0207
:2016400025027C0226027E022702800228028202290284022A0286022B0288022C028A020E
:201660002D028C022E028E022F029002300292023102B4023202B5023302B6023402B702B4
:201680003502B8023602B9023702BA023802BB023902BC023A02BD023B02BE023C02BF028A
:2016A0003D02C0023E02C1023F02C2024002C3024102C4024202C5024302C6024402C702EA
:2016C0004502C8024602C9024702CA024802CB024902CC024A02CD024B02CE024C02CF024A
:2016E0004D02D0024E015E024F015F025001600251016102520162025301630254016402D6
:201700005500F3025800F4025902D3025B02D4025C02D5025D02D6025E02F0025F02D702D6
:201720006002D8026102DA026202DB026302D1025A02DD026502DE026602DF026702E0029F
:201740006802E1026902E2026A02E3026B02E4026C02E5026D02E6026E02E7026F02E802E9
:201760007002E9027102EA027202EB027302EC027402ED027502EE027602EF027701320208
:2017800078013302790134027A0135027B0136027C0137027D0138027E02F1027F02F2022F
:2017A0008002F3028102F4028202F6028302F8028402FA028502FC028602FE028703000223
:2017C00088030202890303028A0304028B0305028C0306028D0307028E0308028F03090259
:2017E00090030A0291030B0292030C0293030D0294030E0295009C0296009D0297030F02A7
:2018000098031002990311029A0312029B0313029C0314029D0315029E0316029F03170228
:20182000A0031802A1031902A2031A02A3031B02A4031C02A5031D02A6031E02A7031F0288
:20184000A8032002A9032102AA032202AB032302AC032402AD032502AE032602AF032702E8
:20186000B0032802B1032902B2023F02B300D502B7025D02B8025E02B9025F02BA032A02F6
:20188000BB032B02BC032C02BD032D02BE032E02BF032F02C0033002C1016FFFFF0170FF09
:2018A000FF0171FFFF0172FFFF0173FFFF0174FFFF035907D0035A07D1035B07D2035C075E
:2018C000D3035D07D4035E07D5033107D6033307D7033507D8033707D9033907DA033B0705
:2018E000DB033D07DC033F07DD034107DE034307DF034507E0034707E1034907E2034B0784
:20190000E3034D07E4034F07E5035107E6035307E7035507E8035707E943BF017F837E00D2
:20192000122E2C9000EEEFF07FF47E02122E2CBFFF0E7FF41221F47D647FF37E02122E7294
:201940007FF47E02122E2C7E00C006C0077FF3122222FDD0E02DF514D0E03400F5137FF116
:201960007E02122E2C9000F0EFF0D3940140087401F07FF11222AA75150075165E1237DA23
:20198000E4FD7F94FE122E727FD21222227F00FEC006C0077FD112224AFDD0E02DFED0E09C
:2019A000340090025AF0A3CEF07F071221C9F460127F081221C9F4600A7F087E00122E2C7C
:2019C000BF07127D067F077E00122E727D0A7F087E00122E727FB67E02122E2CBFFF04E4F1
:2019E0001221D01222677F9A7E00122E2C900180EFF07F997E00122E2C90017FEFF07F7571
:201A00007E00122E2C90015BEFF07F747E00122E2C90015AEFF07F737E00122E2C900159A4
:201A2000EFF07F727E00122E2C900158EFF07F717E00122E2C900157EFF07F707E00122ED6
:201A40002C900156EFF07F587E02122E2C900127EFF07F577E02122E2C90013DEFF0BFFF0D
:201A600012900127E0B4FF0B90013D74C8F0E4900127F07F967E00122E2C90017CEFF07F0E
:201A8000957E00122E2C90017BEFF07F987E00122E2C90017EEFF07F977E00122E2C90015C
:201AA0007DEFF07F6C7E00122E2C900152EFF07F6D7E00122E2C900153EFF07F057E001286
:201AC0002E2CBF010C7F041221FC64A97003021B849001507401F0E4900154F09001C0E0DD
:201AE000F531E4F0C2AFC2A9C2AA122210D2AAD2A9D2AFD227122E779001C07401F0D22789
:201B0000C2AFC2A9C2AAE4122210D2AAD2A9D2AF122E779001C0E531F07D017F057E00123D
:201B20002E727DA97F047E00122E72E4FFFE122E2CEF70277F01FE122E2CEF701E7F02FE73
:201B4000122E2CEF70157F03FE122E2CEF700C900101F0FD7F157E03122E72530E3F122234
:201B600051E4900126F01221D0E4F531E531244012223040F7E4F531E53124471222304038
:201B8000F7021C0E7F6E7E00122E2C900154EFF0D394014002E4F0E4F52FF53012336C1219
:201BA0002E2C12335DEFF0122190E0D39F400E12219012336A12335DE0FD122E72123334CB
:201BC000E0C39F501112379F12333412336A12335DE0FD122E7212336CEF647B4E6006EFFF
:201BE000647C4E701612379F9000A0E0700D12336CE4FD122E7212335DE4F00530E5307048
:201C000002052FC394A2E52F64809480408EE4FFFE122E2C900048EFF07F017E00122E2C4D
:201C2000900049EFF07F027E00122E2C90004AEFF07F037E00122E2C90004BEFF0E4F53198
:201C400012337F2458122203C006C00712337F2457122294D0E02DFFD0E03400FE123391E5
:201C6000F583EEF0A3EFF01233911233C15006C3EE9400501012339112337624571221D99D
:201C8000245812229F0531E531C3940440B2E4F53112337F2448122203C006C00712337F9A
:201CA0002447122294D0E02DFFD0E03400FE12339DF583EEF0A3EFF012339D1233C150063B
:201CC000C3EE9400501012339D12337624471221D9244812229F0531E531C3940840B290DF
:201CE0000150E0F512E5127002C2AA90015EE014601514602A14602C2403702EE4122288DC
:201D000090012874018010900181E070061233DA122E72E4900128F0FD7F167E0380081292
:201D2000227480061233DA122E72E4FD7F17123768C21EE4FD7F1E123768900181E09000FD
:201D400024F0900102F01222B17F0A7E00122E59E53130E4031222B1E53120E4279001AFD4
:201D6000E064026006A3E064027019900149E0D394004010E4900102F0122288C23D530E51
:201D80002E122251900102E0D394004005D23C123693122E7CE4F53112225BE4C39F500B92
:201DA00012225BEFC394035002D24B0531E531C3940540E4304B19D2CA90001E122A3A00BC
:201DC000000000E4FD7F04123768787B7602D200204B07C2CA7F041237F29001B2E070065C
:201DE0009001B1E0600C9001B4E0700A9001B3E07004C24C8038E4900073F09001B4E0FE5E
:201E00009001B3E07C002400FFEC3E90005DF0A3EFF09001C1E064036014D24C90005DE07E
:201E2000FEA3E0FF9001B9E0FD7B01122E817B017A0179347F067EEF123655900134E0FFE7
:201E4000F46003EF70237F067E00122E2C900134EFF07F061221FC600A7F067E00122E2C09
:201E6000BFFF0690013474FEF0900134E0FD7F067E00122E727FD712224A64016009C25567
:201E80007FD71221F48002D2557FB71222BB24FF922CE4F531E53124F7FFE433FE122E2C5B
:201EA0001233A9EFF01233A9E0B4FF131233A97403F0E53124F7FFE433FE7D03122E7205F0
:201EC00031E531C3940840CD7F007E01122E2C90011DEFF07FFF7E00122E2C90011EEFF062
:201EE000122267D394195004E0B4FF0AE4900126F07FB61222AAE4900103F0753101900198
:201F000026E02401FFE433FEC3E5319FEE6480F87480985021E53124B7FFE43402FE122EFB
:201F20002C1233B5EFF01233B5E0B4FF051233B5E4F0053180C8900276E0C394035010908C
:201F40000145E0B40209E4F0FD7F5FFE122E72303603122E8630361690007AE070101237DF
:201F60009F7F507EC3122E5912379F122E86122E6D30251BE4F531AF31122E8B7FC87E00D4
:201F8000122E5912379F0531E531C3940A40E890007AE0C394035004C2208002D220122EBD
:201FA00090E4F53174662531F582E43402F583E4F074312531F582E43400F583E4F005316E
:201FC000E531B403DF7F301221EAC006C0077F2F122229FDD0E02DFFD0E03400FEC006C0B0
:201FE000077F1C1221EAC006C0077F1B122229FDD0E02DFDD0E03400FCD007D0061233E60F
:2020000050089000FC7401F08005E49000FCF07F461222817F00FEC006C0077F4512228195
:20202000FDD0E02DFFD0E03400FEC006C0077F327E00122E2CEF7F00FEC006C0077F317E96
:2020400000122E2CEFFDD0E02DFDD0E03400FCD007D0061233E650089000FD7401F08005C7
:20206000E49000FDF0122274D3940140037401F0900164E0FF9001C7E0C39F400D90016398
:20208000E0FF9001C7E0D39F400E9001C774C8F0FD7FE17E00122E7290020D742EF0E4FD46
:2020A0007F1A12376812379F900127E0FE90013DE07C002400F530EC3EF52F7FF67E001292
:2020C0002E2C9001DCEFF0305126122E95122E9A122E9F122EA4122EA9122EAE9000627404
:2020E000C8F0D250122EB312379F122EB812379F122EBD900102E07007530EFEC23D800581
:20210000430E01D23D530EFBAD0E7F097E00122E729002077426F0122EC2E47BFF7A7FF91A
:20212000F81235D0AE02AF031235C5E4FD7F191237687FE41222BBD39464400A7FE41222FA
:2021400042E4900076F07FE47E02122E2C900076EFF0122EC77F517E02122E2CEFD3940214
:2021600040057F511222427F5E7E03122E2CBF7B0BE4FD7F5E7E03122E72C25F7FED7E02C7
:20218000122E2CBFFF09E4FD7FED7E02122E722212379FE53025E0FFE52F33FE900154E060
:2021A000FD75F04490080E122A6BED2583F583E5822FF582E5833EF583E493FF7445253070
:2021C000F5827401352FF583227E00122E2CEF22FD7FB67E02122E7222FFE435F0FE7DF41D
:2021E000122E72E53175F002A4227E00122E2CEF7F00FE22E4FD7E02122E72227E00122E7F
:202200002CEF22FFE435F0FE122E2CEF7F00FE22F59F7F761237017FE87E03122E591237E4
:202220009F227E02122E2CEF227E00122E2CEF22FFE43401FEE4FD122E720531E531C39499
:202240000722E4FD7E02122E72227E02122E2CEF22AD0E7F097E00122E7222E53124B9FF9C
:20226000E433FE122E2C227FB67E02122E2C900126EFF0227F167E03122E2C900128EFF0C8
:20228000227E00122E2CEF22900181F0FD7F9BFE122E7222FFE435F0FE122E2CEFFD22FFB7
:2022A000E435F0FE7D01122E7222FD7E02122E72227F097E00122E2C8F31227E02122E2C34
:2022C000EF22C01D12378089828A83BB80005003E08002E493D082C582C082123788D0E06C
:2022E00022C01DC0E0123780D0E089828A83BB80005001F080DFC01D12378089828A83BB5A
:2023000080005007E0F5F0A3E080CAE493F5F074019380C1C01DC0E0123780D0E089828A24
:2023200083BB80005005F0A3E5F0F08023C01D12378089828A83BB8000500AE0FBA3E0FAE4
:20234000A3E0F9800BE493FB740193FA740293F9D0E0902E0073C01DC0E0123780D0E089A0
:20236000828A83BB8000500AC5F0F0A3C5F0F0A3E8F080DCC01D12378089828A83BB80007C
:20238000500DE0FCA3E0FDA3E0FEA3E0FF80C1E493FC740193FD740293FE740393FF80B088
:2023A000C01D12378089828A83BB8000500BECF0A3EDF0A3EEF0A3EFF08095EC4D6011E8C3
:2023C000497017ED33EC3304600DE4FCFFFEFD22E933E8330470F802260B1225D6580460E2
:2023E00009E4CC24815006285009022615284003022612C0E0EB4A7044B98006D0E0FB0251
:202400002601EF4E701CBD8008EBFFEAFEE9FD80EBE98DF0A4FEE5F00224A4E9CDF9EAFE26
:20242000EBFFEF89F0A4FCE5F0CE89F0A42EFFE435F0CD89F0A42DFEE435F08067EF4E7002
:2024400005BD80D780C3EF8BF0A4ACF0EE8BF0A42CFCE435F0F8EF8AF0A42CE5F038FCE41A
:2024600033CB8DF0A42CFCE5F03BF8EE8AF0A42CFCE5F038F8E433CF89F0A42CFCE5F0389C
:20248000CF3400CE89F0A42FFFE5F03EFEE433C98DF0A42EFEE5F039CD8AF0A42FFFE5F0E6
:2024A0003EFEE43DFD33D0E0FB50070BBB000F022615EC2CFCEF33FFEE33FEED33FD0225E3
:2024C000ED022615EC5D046005E85904700302260B1225D6580460F6EC4860F2EC7004FD93
:2024E000FEFF22C860DB2481C85009C398600250060226129850CAF582E9294B4A7005ABB7
:202500008202260175F0007C1A7880C3EF9BEE9AED99400DC3EF9BFFEE9AFEED99FDE842F6
:20252000F0DC23ACF0D0E0FFD0E0FED0E0FDAB8220E7101BEB60BAEC2CFCEF33FFEE33FE4E
:20254000ED33FD0225EDE803F830E705C0F075F000EF2FFFEE33FEED33FD40B830E7C2808C
:20256000AA75F020800E75F010800575F0087D007E007F003392D530D5031229A3EC3340DE
:2025800010EF33FFEE33FEED33FDEC33FCD5F0ED22E5F0247EA2D513CC92E7CDCEFF22EDF0
:2025A000D2E7CD33EC3392D524814006E4FFFEFDFC22FCE4CFCECDCC24E0501174FF80ED9A
:2025C000C3CC13CCCD13CDCE13CECF13CF0470F030D5DE0229A3E9D2E7C933E833F892D553
:2025E000EDD2E7CD33EC33FC5002B2D522EC30E7100FBF000C0EBE00080DBD00040BEB603A
:2026000014A2D5EB13FCED92E7FD2274FFFCFDFEFF22E480F8A2D574FF13FC7D80E480EF80
:20262000E709F608DFFA8046E709F208DFFA803E88828C83E709F0A3DFFA8032E309F6087B
:20264000DFFA8078E309F208DFFA807088828C83E309F0A3DFFA806489828A83E0A3F6080C
:20266000DFFA805889828A83E0A3F208DFFA804C80D280FA80C680D4806980F2803380106B
:2026800080A680EA809A80A880DA80E280CA803389828A83ECFAE493A3C8C582C8CCC583AC
:2026A000CCF0A3C8C582C8CCC583CCDFE9DEE7800D89828A83E493A3F608DFF9ECFAA9F063
:2026C000EDFB2289828A83ECFAE0A3C8C582C8CCC583CCF0A3C8C582C8CCC583CCDFEADEC7
:2026E000E880DB89828A83E493A3F208DFF980CC88F0EF60010E4E60C388F0ED2402B404BD
:202700000050B9F582EB2402B4040050AF232345822390267073BB010689828A83E022507C
:2027200002E722BBFE02E32289828A83E49322BB010CE58229F582E5833AF583E0225006DC
:20274000E92582F8E622BBFE06E92582F8E222E58229F582E5833AF583E49322BB01068999
:20276000828A83F0225002F722BBFE01F322EF8DF0A4A8F0CF8CF0A428CE8DF0A42EFE2282
:20278000BC000BBE0029EF8DF084FFADF022E4CCF875F008EF2FFFEE33FEEC33FCEE9DECFA
:2027A000984005FCEE9DFE0FD5F0E9E4CEFD22EDF8F5F0EE8420D21CFEADF075F008EF2FB9
:2027C000FFED33FD4007985006D5F0F222C398FD0FD5F0EA22C2D5EC30E709B2D5E4C39D29
:2027E000FDE49CFCEE30E715B2D5E4C39FFFE49EFE122780C3E49DFDE49CFC800312278048
:2028000030D507C3E49FFFE49EFE22C5F0F8A3E028F0C5F0F8E582158270021583E038F0C0
:2028200022BB010A89828A83E0F5F0A3E022500687F009E71922BBFE07E3F5F009E3192287
:2028400089828A83E493F5F074019322BB010A89828A83F0E5F0A3F0225006F709A7F0197C
:2028600022BBFE06F3E5F009F31922EF2BFFEE3AFEED39FDEC38FC22C3EF9BFFEE9AFEED15
:2028800099FDEC98FC22E88FF0A4CC8BF0A42CFCE98EF0A42CFC8AF0EDA42CFCEA8EF0A470
:2028A000CDA8F08BF0A42DCC3825F0FDE98FF0A42CCD35F0FCEB8EF0A4FEA9F0EB8FF0A479
:2028C000CFC5F02ECD39FEE43CFCEAA42DCE35F0FDE43CFC2275F008758200EF2FFFEE339B
:2028E000FECD33CDCC33CCC58233C5829BED9AEC99E58298400CF582EE9BFEED9AFDEC9988
:20290000FC0FD5F0D6E4CEFBE4CDFAE4CCF9A88222B800C1B90059BA002DEC8BF084CFCECA
:20292000CDFCE5F0CBF97818EF2FFFEE33FEED33FDEC33FCEB33FB10D703994004EB99FBD2
:202940000FD8E5E4F9FA227818EF2FFFEE33FEED33FDEC33FCC933C910D7059BE99A400798
:20296000EC9BFCE99AF90FD8E0E4C9FAE4CCFB2275F010EF2FFFEE33FEED33FDCC33CCC8BC
:2029800033C810D7079BEC9AE899400AED9BFDEC9AFCE899F80FD5F0DAE4CDFBE4CCFAE4FA
:2029A000C8F922C3E49FFFE49EFEE49DFDE49CFC22EB9FF5F0EA9E42F0E99D42F0EC6480A2
:2029C000C864809845F022EB9FF5F0EA9E42F0E99D42F0E89C45F022E6FC08E6FD08E6FEE7
:2029E00008E6FF22E0FCA3E0FDA3E0FEA3E0FF22E6FB08E6F908E6FA08E6CBF822E0F8A349
:202A0000E0F9A3E0FAA3E0FB22ECF608EDF608EEF608EFF622ECF0A3EDF0A3EEF0A3EFF099
:202A200022D083D082E493F608740193F608740293F608740393F6740473A8828583F0D070
:202A400083D082122A51122A51122A51122A51E473E493A3C583C5F0C583C8C582C8F0A34D
:202A6000C583C5F0C583C8C582C822A42582F582E5F03583F58322E0FBA3E0FAA3E0F92239
:202A8000EBF0A3EAF0A3E9F022D083D082F8E4937012740193700DA3A393F8740193F582D5
:202AA0008883E4737402936860EFA3A3A380DFD083D082F8E4937012740193700DA3A393B8
:202AC000F8740193F5828883E473740293B5F0067403936860E9A3A3A3A380D88A838982B2
:202AE000E473E4F52CF52DF52E9000F0F090003BF0C222D292D249D20F12379F90007A7460
:202B000063F0E4900129F09000EFF075D802F52DAF2DEF3395E0FEEF25E0FFEE33FE74BD40
:202B20002FF58274003EF583E4F0A3F0052DE52DB408DDE4900087F090025EF09000627450
:202B4000C8F09000547405F01233F29000247404F0122E22122E27121919C2477FD87E0032
:202B6000122E2C7E007C007D3C12276E900022EEF0A3EFF090020A7429F09002087427F02F
:202B800090020D742EF09002117432F090020B742CF0A304F09002097428F0E4900012F06A
:202BA000A3F0A3F0900016F0A3F0D233D23B900063F0A3F0900144F0900235F0A3F0C2234A
:202BC000F50CC296C297900075F0900095F0122E31122E3612379F30412DC2419000F8E061
:202BE000D39400400AE014F0E0700490008CF0900100E0D394004003E014F0302A099001ED
:202C000000E07003122E3BE50CD394275003022CDDE4F50CD256900129E0D394004005E0D6
:202C200014F08002C253303D0B9001D9E0700E122E4080099001DAE07003122E459001D903
:202C4000E0B40207A3E0B4020280369001D9E0B4010AA3E0B40105122E4A802D9001D9E01F
:202C6000B4020E203D06A3E070028015122E4080189001DAE0B40211303D0B9001D9E07047
:202C800005122E4F8003122E45E4900234F0900234E0FFC36480949F5043EF3395E0FE74E3
:202CA000152FF58274023EF583E06029900234E0FD3395E0FC1233CE14F01233CE70167459
:202CC000F32FF58274013EF583E0F52DF52EAF2E7E00122E54900234E004F080B19000A120
:202CE000E07003022BCE14F0E02412F582E43402F583E0F50D24E7F582E43401F583E0F599
:202D00002EFF7E00122E5480D4C0E0C0F0C083C082C0D075D000C000C001C002C003C004AC
:202D2000C005C006C007C2CF12379F90001E1229E4EF2401FFE43EFEE43DFDE43CFC9000FE
:202D40001E122A1530332F123752E4FD90001E1229FDD31229C7401E7D01E4FF122ECC7DF3
:202D6000017F01122ECC90001E122A3A00000000C233787B7600787BE664017065D3787472
:202D8000E6940018E664809480402E08E6161870011690024BE475F00112280B123752D3D8
:202DA00090024CE09FEE6480F890024BE06480984030EEF0A3EFF08029C37873E66480942E
:202DC00080501F0806E618700106D390024CE0940090024BE064809480400774FFF5F012F6
:202DE000280BD007D006D005D004D003D002D001D000D0D0D082D083D0F0D0E032FFFFFF20
:202E0000C01D742EC0E0C082C083751D0A53BFF722C01D742EC0E0C082C083751D1B43BFF4
:202E2000082290AEB6C10090B210C100907475C111906F25C11190002EC1009075DBC1112E
:202E400090789FC1119078A9C1119078BDC1119078B3C111904252C10090C3C3C10090778F
:202E60009BC1119000B5C11190A2A8C10090A6AEC1009073EFC111905CBEC10090BD28C129
:202E80000090ADFFC10090BBA8C1009096F8C100907D80C100900003C11190C171C10090DC
:202EA00001F0C1119077B7C1119072F9C11190BFA7C100904E4CC111904BE8C10090780EA5
:202EC000C11190BAD4C1009071FBC11190B707C100907839C11190753CC1119078D1C11193
:202EE00090771EC11190773EC1119070A5C111907869C111907874C1119076D7C111907805
:202F00001DC1119076B1C11190777EC1119077D1C111907579C111907846C11190C344C170
:202F20000090A4B9C10090B9F1C10090C3B7C10090C328C10090C312C100908C85C10090C9
:202F4000C387C10090B605C10090C374C1009071A5C10090B471C10090B786C10090A950DE
:202F6000C10090B4F8C10090B804C100908FBDC10090869BC10090B97AC10090B882C10068
:202F800090C1C6C10090A7A1C10090BD82C10090A879C10090C02BC100004100A000C11CC4
:202FA000C152C1A2C12FC11AC148C153410274014202620000C1B8C1C5C127C144C119C1CE
:202FC000434100A100C131C11DC1B5C13EC12AC149C155C1A54202690000C139C15041001D
:202FE000F000C15641024D00410126004100F901410134FE42025C0000C13443011F010129
:2030000001C11FC14BC13C410143000120FF0122FFC11B42028C0000C137410025004102B2
:20302000720041028B004300693232324300E83232324200FE000002130000C12141003B9A
:203040000041008C000121FFC11EC12DC146C1AC42004400004100BB084100BC08C118C118
:203060003FC14C4200730000420071000041004701066D000000000000C1304102750042B5
:2030800000FA00004200E600004102E6004202E400004102DF004C02D3000000000000007A
:2030A00000000000004102E700C15F4202E200004202E00000021B028A4102CE004102CBB4
:2030C000004202CC03E84202C701F44202BB01904202C400C84102C2324202C0015E4202B7
:2030E000BE00B44202B800004102C6034102CA034102BA0A4102BD0A4102D23C4102CF00D2
:203100004202D000DC4102C90000C0E0C0F0C083C082C0D075D000C000C001C002C003C043
:2031200004C005C006C007209803023247D239D22DC29890008CE0C394145013E0FF04F002
:2031400074772FF582E43402F583E599F08003122ED190008CE0FFB4010C9000EB7408F0A7
:203160009000A3E0805CEF64047036900279E0FEA3E07C002400FFEC3EFEEF640A4E600322
:2031800002324E900278E06406600302324E9000EB740CF09000A3E09000F8123760023211
:2031A0004E90008CE0FDB40720900278E06410600302324E90027DE0FE24099000EBF0EE37
:2031C00024089000F8F002324EEDB40615900278E0B4190E900028E0900100123760D22A7A
:2031E000806C9000EBE0FF90008CE06F7060900278E0FF6403600AEF64066005EF64107003
:203200004D9000F8E4123760122ED6502D900028E0900100F0900126E0700A9001D7E060E7
:203220000BA3E0600790001AE4F0800690001A740AF0D21FD21ED22A8014C22A90027374A7
:2032400001F0122ED18007309904C299D226D007D006D005D004D003D002D001D000D0D089
:20326000D082D083D0F0D0E0325741524E494E470045325F6572726F72004155580050496A
:2032800052002053595354454D200046616E537065656400536574706F696E740044454D85
:2032A000414E44004E4F0059455300554E495453002D462D002D432D004B4559504144001F
:2032C00032410034410036410036420034420032420032430036430034430046414320449A
:2032E0004546005341564520444546004E4F5420555345440043414C204441430042415553
:2033000044524154450020202000202020200020204D4F4445004155544F0020434F4F4C72
:20332000494E47002048454154494E470000000000000000E53025E0FFE52F33FE9001544C
:20334000E0FD75F04490080D122A6BED2583F583E5822FF582E5833EF583E493FF7445250F
:2033600030F5827401352FF58322EFF0E530245FFFE4352FFE22F5837401F0A374F4F0E598
:203380003175F002A42274152FF582E43402F58322E53125E02452F582E4340222E531256D
:2033A000E024ABF582E434002274152531F582E43401F5832274032531F582E43401F583CF
:2033C00022F583E0FEA3E0D394E8EE94032274152DF58274023CF583E0229001817404F029
:2033E000FD7F9B7E0022C3ED9FEE6480F8EC6480982243BF01D290D2A47F107E27122E59CB
:2034000012379F122E5E122E6312379F90013E7401F0E490006DF0A3F09000ECF0900055B2
:20342000F0900015F0900125F09000E5F0900133F043BF02D2DB75985075892175CDDCF508
:20344000CC75CBDCF5CAC2CDC2CCC2CBC2C9C2C8C2CAD2AD758DFD758BFDF58A758C80D22D
:203460008ED28CD2A9D2ACD2AFD2B9D2BC122E6812379F900276E0D3940350037521FFE41F
:203480009001C0F07F65FE122E2CEF600B7587809000A37403F08009E4F5879000A3740697
:2034A000F0022E6DD390006EE0948F90006DE09401402FE4F0A3F0900015E004F0E0D394A3
:2034C000144009303F06C23FE024FEF0D390028DE0940090028CE09400400774FFF5F0127E
:2034E000280B900015E0D3943B400FE4F0900055E004F0E054077002D23F900055E0D394AC
:203500003B4008E4F09000ECE004F09000ECE0D394174006E4F0D221D21B22C0E0C0F0C0FE
:2035200083C082C0D075D000C000C001C002C003C004C005C006C007050C758A04758CF7C9
:2035400090006DE475F00112280BD241900166E0B4061220340F20530C90009674FFF0A31B
:20356000F0A3F0A3F01234A4D007D006D005D004D003D002D001D000D0D0D082D083D0F0AA
:20358000D0E032AC17AD18AE19AF1A7810EC4D4E4F70047CA57DA5C3EC13FCED13FDEE1360
:2035A000FEEF13FF5010EC64CCFCED644CFDEE644EFEEF64CEFFD8DF8C178D188E198F1AED
:2035C000EE547FFE228E178F1874A5F519F51A22C2D5E830E70FB2D5E4C39BFBE49AFAE4A1
:2035E00099F9E498F8EC30E717B2D5123606122911E4C39BFBE49AFAE499F9E498F8800368
:2036000012291130D50DE4C39FFFE49EFEE49DFDE49CFC228F468C478D48C2AF9001C0E04C
:20362000B4011DAE47AF481236DD5014AE47AF481236F6400BE42548F54874FE3547F54716
:203640001236E9E547F5F48548F58546F675F780D2AF7F00228E498F4A8B4B8A4C894D90D1
:2036600001C0E0B401191236DD5014AE49AF4A1236F6400BE4254AF54A74FE3549F5498594
:203680004A82854983E493AB4BAA4CA94D12275C7F0122204721900149E0601BE4FD7F144C
:2036A000123768D247900149E075F03CA4FF90028CE5F0F0A3EFF022E4F5447F107E271258
:2036C0002E5912379F0544E544C3940A40ED7B007A0279008B088A09890A022ADCE4FCFD6D
:2036E000FB7AECF9F8D30229B175F65575F6AA75F65543BF0422E4FCFD7BFF0AF8C30229C5
:20370000B1C2AF9001C0E0B40104BF76011F1236E9EF25E0F5F4E4F5F575F782D2AF22904B
:2037200000A1E0C394035010E0FE04F074122EF582E43402F583EFF02220202020202020DE
:203740002000726573746172745F00696E672E2E2E00900167E0FF7E007C007D6402276ED4
:20376000F090003B743CF022ED700CEF9007EE93FE123386EEF022123386EDF022EF800456
:20378000EB14543F90378C93902E00730A1B7761726E696E670045325F6572726F720075F0
:2037A000971E7597E1E4F59F7597E175971E2275971E7597E1759FA77597E175971E2200AB
:2037C000000000000000000000000000004552524F52004E4F2050494300E4FF123386E434
:2037E000F00FBF1FF722EE30E707C3E49FFFE49EFE22123386E4F0228F52900151E0146008
:203800002C14605C1470030238AA14700302390D147003023967240560030239B4E512B423
:203820000603023988AF5212BC6A0239B47F0112BC6A126FD6302E071241BBD25D8005124C
:2038400041ADC25DE4FD12BC09900054E0D3940050030239B4E014F0126FD6C25D02398D14
:203860009001B0E0B4051490002BE07004A3E064017004D25B801DC25B80199001AFE0B49B
:203880000512900029E07004A3E064017004D25B8002C25B126FD6305B081241BBD25D02B3
:2038A00039AF1241ADC25D0239AF7B017A0179BA7D0212C3124006D254A254925A9001B0F8
:2038C000E0B4051490002BE07004A3E064017004D25B801DC25B80199001AFE0B4051290D5
:2038E0000029E07004A3E064017004D25B8002C25B126FD6205B0EC25DE4FD12BC091270EA
:20390000D9D25D8005124200C25D0239AF900029127128A3EFF07876E624F6FD18E634FFBB
:20392000FCC3EF9DEE9C5016126FD6124200C25DE4FD12BC099001337402F00239B47876C3
:20394000E6240AFF18E4361270E04013124199D25DE4FD12BC099001337401F00239B4E49E
:20396000900133F00239B490002B127128FCA3EFF0FD7A00126F08FFEA3ECF24F6CF34FFAE
:20398000FEC3ED9FEC9E5011126FD6D25DE4FD12BC091270D9C25D8016126F06FFEC3ECF22
:2039A000240ACF34001270E0400A124199D25DE4FD12BC09126E68FF7016126FF1F583748C
:2039C00064F0126EF1F583E0FE126F3BEEF08027EFB40606126F3BE4800E126E68126EF056
:2039E000126E5AFF126F3BEFF0126EF1F583E0FF126FF1F583EFF0126F3B126FB7126E3717
:203A0000FEC39F400C126FF1F583E0FFEED39F403390015FE0FF64026006EFD39404502AEF
:203A20001241E5500D126FF1126FB5126E37C39F40121242275013126F3B126FB7126E3755
:203A4000D39F400612710E023D7E1242274003023BFEE490029DF01271167442127066FD30
:203A600090029DE0FCC39D5017126E702C126EF0126E5AFF749F2C126F5FEF1270AA80D77E
:203A8000E490029DF01271167442126E721270C1500CED2F126F5D74021270AA80E774E8E4
:203AA0002552126E37FFD39403501390029DEFF074E82552F582E43400F5837403F090022B
:203AC000A4E024FEFF74E82552126E37FEC39F5009740F2552F87606804790029FE0FFEECB
:203AE000D39F400512710E8038E490029EF090029EE0FFC394045029126FAD126E37FED329
:203B00009F4016126F58E024FEFDEEC39D500AEF04FF740F2552F8A60790029EE004F0801B
:203B2000CD90029F126F96126E37FDC39E4011EDD39F500C126ECF64016005EF600276016E
:203B40009002A0126F96126E37FDC39E4013EDD39F500E126ECF64016007EF6402600276AF
:203B6000029002A1126F96126E37FDC39E4013EDD39F500E126ECF64026007EF6403600200
:203B800076039002A2126F96126E37FDC39E4013EDD39F500E126ECF64036007EF64046068
:203BA0000276049002A3126F96126E37FDC39E4013EDD39F500E126ECF64046007EF6405A2
:203BC000600276059002A4126F96126E37FDC39E4013EDD39F500E126ECF64056007EF6424
:203BE000066002760674E82552126E37B4030F90029D126FB7F582E43400F583EFF01241F1
:203C0000E54003023D7EE490029DF0126E68FF90029DE0C39F5014E0126EF0126E5AFE7464
:203C20009F2F126F5FEE1270AA80E0E490029DF0126E681270C1500CED2F126F5D746612EC
:203C400070AA80EC9002A41271522552126E37FDD39FEE126E9E4009740F2552F8760C80ED
:203C60004D90029FE0FFEDC39F500512710E803EE490029EF090029EE0FFC39404502F12F5
:203C80006FAD126E37FEC39F501C126F58E02402FDE433FCEED3126E9C400BEF2407FF74E1
:203CA0000F2552F8A60790029EE004F080C774E82552126E3790029F1270504011126E939D
:203CC000500C126ECF64076005EF6002760774E82552126E379002A01270504013126E93A7
:203CE000500E126ECF64076007EF64086002760874E82552126E379002A11270ED40131279
:203D00006E93500E126ECF64086007EF64096002760974E82552126E379002A21270ED4078
:203D200013126E93500E126ECF64096007EF640A6002760A74E82552126E37FF9002A3E0FF
:203D4000FEEFC39E4013126E93500E126ECF640A6007EF640B6002760B74E82552126E3762
:203D6000FF9002A4E0FEEFC39E4013126E93500E126ECF640B6007EF640C6002760C126E34
:203D800018E0FF74532552F8A60790026212420E504D1241C94048126E18E07039740F25E9
:203DA00052F8E6D39406401090002612420E4008126E187407F08024126ECFD39400401CFD
:203DC000EF9407501790004FE0FEA3E0FFAD5212C34440088000126E18E004F01241F29092
:203DE0000262E0FEA3E0FFE5522403FD12C34450251241C94020126E18E0FFB40707126EE1
:203E000018E4F08009EF6006126E18E014F0126FCAC25D12BC09740F2552F8E6122A893E40
:203E200047013E68023E94033EC2043EF3053F24063F4A073F62083F87093FB30A3FE00BEC
:203E400040120C00004042126E18E0FFD394005003023FAEEF94074003023FAE12411CE057
:203E6000FFAB527D01023FF5126E18E0FFD394014011EF9407500C12411CE0FFAB527D02B2
:203E8000023FF5126E18E0B40105C25C02403BD25C02403B126E18E0FFD394024011EF94C0
:203EA00007500C124135E0FFAB527D03023FF5126E18E0FF64026035EFB40103023FA90280
:203EC0003FAE126E18E0FFD394034011EF9407500C124135E0FFAB527D04023FF5126E182A
:203EE000E0FFC394034009EFD394015003023FA9023FAE126E18E0FFD394044011EF940700
:203F0000500C12414EE0FFAB527D05023FF5126E18E0FFD394045009EFC394014003023F0A
:203F2000A9023FAE126E18E0B4060912414E7406F0024062126E18E0FFD394055009EFC311
:203F400094014003023FA9023FAE126E18E0D39406400C124167E0FFAB527D07023FF5022D
:203F60003FAE126E18E0D39407400C124167E0FFAB527D08023FF5126E18E0B40704C25C7C
:203F80008002D25C02403B126E18E0D39408400C124180E0FFAB527D09023FF5126E18E0DE
:203FA000FF64086004EFB40705C25C02403BD25C02403B126E18E0D39409400B124180E057
:203FC000FFAB527D0A802E126E18E0FFD394094005EF94074005C25C02403BD25C02403B6F
:203FE000126E18E0D3940A40121241F2126E18E0FFAB527D0B12C2AE024062126E18E0FFA8
:20400000D3940A4005EF94074004C25C802DD25C8029126E18E0D3940B400B124244126E2D
:2040200018740CF0803C126E18E0FFD3940B4005EF94074004C25C8002D25CAF5212C28A13
:204040008020124244126E18E0C394014007126FCAD25D800A126E11EFF0126FCAC25D1221
:20406000BC09126E18E0FF74532552F8E66F601D90011F7401F0A3F0A3F0FB7A007944D2BD
:204080005DAD5212BC09E4FD7F11123768900012E0706BE553D394004029E5539407502320
:2040A000124234EF600C1241D712423412715C12376812423CEF604612421912423C127136
:2040C000668038E553C3940740347F667E00122E2CEF60101242197F667E00122E2C1271CB
:2040E000661237687F677E00122E2CEF60101241D77F677E00122E2C12715C1237682024AC
:204100001AE4900262F0A3F090004FF0A3F0900026F0A3F0126E11EFF0D224227B017A020F
:204120007962C25DAD5212BC0974122552F582E43400F583227B017A027962C25DAD521286
:20414000BC0974122552F582E43400F583227B017A027962C25DAD5212BC0974122552F5BA
:2041600082E43400F583227B017A027962C25DAD5212BC0974122552F582E43400F583221D
:204180007B017A027962C25DAD5212BC0974122552F582E43400F583227B007A00796BC296
:2041A0005DE4FD12BC097B007A00796922D25DE4FD12BC097B007A00796922C25DE4FD12FF
:2041C000BC097B007A00796922900044E0FEA3E0FFAD5212C344227B017A00794FD25DE4E2
:2041E000FD12BC09227869E6FE08E6FFAD5212C344227B017A027962C25DAD5212BC0922F3
:20420000D25DE4FD12BC097B007A00796922E0FEA3E0FFAD5212C344227B017A007926D2BD
:204220005DE4FD12BC0922786BE6FE08E6FFAD5212C344227F667E00122E2C227F677E0004
:20424000122E2C227B017A027962C25DAD5212BC0922C257EF122A8942E60042EC0143D5AA
:204260000243C30343C90443DB0543BD06436207433E0943440A434A0B43500C43560D4313
:204280005C0E43680F438E10439311439912439F1343A51443AB1543B41643CF1744111AAB
:2042A00044171B44231C44471D446B1E448F1F44B32044D72144FB22451E23453B24456318
:2042C00025458C2645DB2745F72845FD29473A2C478B2D43E12E43F42F43FE304408314B0F
:2042E0006C3200004B6F12379F022EA912379F30231490006FE004F0E0D394354008E4F0EB
:2043000090025C1258469001C1E0B403047F0280027F0112AD47301D22D3900265E09400DC
:20432000900264E09400401374FFF5F012280B900264E07002A3E07002C21D022EEA1237A4
:204340009F02AC8612379F02A5B612379F029D1012379F02AA2512379F02B01D12379F0254
:20436000AAF912379F020114900165E0FF6003B40405C23702C111900165E0FF6402600836
:20438000EF64036003024B6F12C111D2372212379F802712379F029E3112379F0299761246
:2043A000379F0277EF12379F0274CC12379F1261E9027FFA12379F1261E902C2ED12379FF9
:2043C00002C39912379F022EB312379F02C35E12379F02C17112379F024BE812379F026620
:2043E0006512379F304806302C03129591E4FD7F1A024B69E567FD7C00AF6802A3B1E567AD
:20440000FD7C00AF6802A18EA25E9259AF6802B0C512379F02869B12379F9002737403F003
:20442000022E3B12379F900056E0D394004003E014F0900056E070081258247D01024582C2
:20444000E4FD7F0A024B6912379F900057E0D394004003E014F0900057E070081258247DB5
:2044600003024582E4FD7F0B024B6912379F900058E0D394004003E014F0900058E07008D1
:204480001258247D05024582E4FD7F0C024B6912379F900059E0D394004003E014F0900052
:2044A00059E070081258247D07024582E4FD7F0D024B6912379F90005AE0D394004003E011
:2044C00014F090005AE070081258247D09024582E4FD7F0E024B6912379F90005BE0D3947B
:2044E000004003E014F090005BE070081258247D0B024582E4FD7F0F024B6912379F9000D6
:204500005CE0D394004003E014F090005CE070071258247D0D806BE4FD7F10024B6912371C
:204520009FE4F52F7B017A007944C25DAD2F12BC09052FE52FC3940340EA2212379F9000E9
:2045400061125B344016E4F090025FE014F0E0700B7B017A00794FC25DFD8026E4FD7F120D
:20456000024B6912379F900036125B344017E4F0900140E014F0E0700C7B017A007926C2A3
:204580005DFD02BC09E4FD7F13024B6912379F900149E0603F30473CE4FF12B8FF92573018
:2045A0005732C247303D03303C21C23CC23D9001C9E0700B90015FE064067003024B6FE46D
:2045C00090010212588D125A348006430E1012585B022E72E4FD7F14024B6912379F7E00D3
:2045E000124BDA6003024B6FFE124BDA6003024B6F439B30F5A32212379FD2312212379F54
:20460000202C6F7FED124BE160689000FEE0FEA3E0FFD39464EE64809480500BC3EF940A23
:20462000EE648094805022D23D7FF47E02122E2C7E00C006C0077FF3124BE1FDD0E02DF52A
:2046400014D0E03400F5138020E514151470021513E51445137004C23DD296C3E513648033
:2046600094805005E4F513F5149000FEA3E0900272F07FD87E00122E2CEF6003024731309A
:204680001E157FD8FE122E2C7D3C1258C1900022EEF0A3EFF0800A90002274FFF5F0122862
:2046A0000B900022E07002A3E06003024731301E03024731125A3E12585B122E721258979E
:2046C000122E727F517E02122E2CBF010BE49001BCF0FD7FD6FE80567F517E02122E2CEFAF
:2046E0006402704D9001BC74FFF0FD7FD67E00122E727F527E02122E2CAD077F177E0312CB
:204700002E727F147E0012C3C390009F7F1B124BC79000A47F1A124BC79000A2E0FD7F19CB
:204720007E03122E729000AAE0FD7F187E03122E72C21EE4FD7F17024B6912379F900125BA
:20474000125B34403FE4F09000E5E0D394004003E014F09000E5E0702BD20FC258E521F49D
:20476000F52F532FDFE4900143F0205817AF2F12B9F19258900143E004F0E0D3943240EAAE
:20478000D25880E6E4FD7F18024B6912379F9001D7E0700D122EEF122EF4E4FD7F19024B85
:2047A000699001D7E0C3940140609002DFE094035005E004F08053E49002DFF07FB67E0272
:2047C000122E2C900126EFF0D3941940037401F0900126E0FF60339000F9E02403F582E49B
:2047E0003401F583E0900274F09000F9E004F0EF12592CE0C39FEE6480F874809840037404
:2048000001F0900274E09001D7F0900166E0C394064003024B5FE4FF12AF6C9001D7E0648A
:204820000C703CF52F125AD5248F124B702490124B8940F1E4F539FB7A0079317F81122E9F
:20484000E0E4F52F125AD52497124B702498124B8940F17B007A007931124BBD024B6990D5
:2048600001D7E0640D6003024A307F08122EF9EF122EFE8F3A7F07122EF9EF541FFF122E1A
:20488000FE8F3B7F06122EF9EF5407FF122EFE8F3C7F05124BCF8F3DE53B122A8948C501D1
:2048A00048CC0248D70348DC0448EC0548F606490607491008491A0949230A49330B49436F
:2048C0000C0000494E744A125A78803374461258C87462F002494E125A768009900097748F
:2048E00041F0A37470F0A37472F08062125A76F0A37479F08058900097744AF0A37475F03A
:20490000A3746EF08048744A1259D8746CF0803E74411259D87467F0803474531258C874E7
:20492000708009900097744FF0A37463F0A37474F0801B900097744EF0A3746FF0A3747648
:20494000F0800B90009774441258CB7463F0E53B900096B409157420F090009B742EF0E5C3
:204960003D1256BAE53D12558F80177420F090009A742EF0E53D1256BAE53D12558FA37476
:204980002CF01256867F81122EE09000967432F0A37430F0E53A1256BAE53A12558FA3748D
:2049A0002CF0E53C122A8949C00149CB0249DC0349EB0449FC054A0C064A1C0700004A27F1
:2049C00090009B744DF0A3746F801A90009A7454F0A374751258CB7473F0804B90009B74F7
:2049E00057F0A37465F0A314F0803C90009A7454F0A374681259DB7472F0802B90009B74DA
:204A000046F0A37472F0A37469F0801B90009B7453F0A37461F0A37474F0800B90009B74ED
:204A2000531259DB746EF0125686124BBD024B699001D7E0640E70737F04124BCF8F3E7FB5
:204A400003122EF9EF547FFF122EFE8F3F7F02122EF9EF122EFE8F4012582DA3F0A3745402
:204A6000F0A37469F0A3746D1258CB7420F01256847F81122EE0E53E1258A5E53E12558F42
:204A8000A3743AF0E53F1256BAE53F12558FA3743AF0E5401256BAE54012558F1256867F65
:204AA000C1122EE5E4FD7F19024B699001D7E0B40F177BFF7A0379D37F81122EE07F0F12BC
:204AC000ABC2E4FD7F19024B699001D7E0B410177BFF7A0379DC7F81122EE07F1012ABC29D
:204AE000E4FD7F19024B699001D7E0FFC394034050EFD3940A504A900139741AF0EF24FD04
:204B0000F530E4F52F125AD524A7124BA32431F8A607125AD524A8124BA32432F8A6070555
:204B20002FE52FC3940440DDE531B4FF05E532F4600FE533B4FF0280087B007A00793180FE
:204B4000129001D7E075F009A4245EF9740335F0FA7BFF7F81122EE0E4FF128A9D8006128A
:204B60002EEF122EF4E4FD7F1902376812C21722FFE5F03401FE122E2CE52F25E02431F8E4
:204B8000A607E52F75F002A422FFE5F03401FE122E2CE52F25E02432F8A607052FE52FC395
:204BA000940422FDE5F03401FCE53075F008A42DFFE5F03CFE122E2CE52F25E0227FC112DE
:204BC0002EE5E4FD7F1922E0FD7E03122E7222122EF9EF543FFF122EFE227F08122E2CEFF9
:204BE000227E02122E2CEF22E4FD7F0212376812BD28E4F545AF451237F80545E545C3946E
:204C00000340F2301D1E900186E0900012F09001AEE0FF7E007C007D3C12276E900264EE0F
:204C2000F0A3EFF0E4F54512550ABF0309126F22749B4017800E12550ABF0415C3126F2361
:204C4000749B5007127184E4F080061271847401F00545E545C3940440CD900012E0FDD3F3
:204C60009406504612708E7C00EF2DFFEC3E1255269000121254FE8F45900012E0FF9001BA
:204C800086E02F126EC5E09000E81254C1C007900186E0FFA3E02F126EC5E0FBE4FAF9F85D
:204CA000D0071270784060024D0412708E900012E07C002FFFEC3EFE900187E0FDC374069A
:204CC0009DFDE49CFCC3EF9DFFEE9C125526126E849000121254EC8F45900012E0126F4E3C
:204CE000127107126E8B1254DCC006C007900186E024FFF582E434FF126EA5D007D00612C4
:204D000070784003754964900013E0FFD39406504D900102E07009EF24DDFFE43402800A3B
:204D2000900013E02424FFE434011255339000131254FE8F4A900013E0900184127022904A
:204D400000E91254C1C007900184E0A3127022FBE4FAF9F8D00712713E406D024DC590018C
:204D600002E0900185700F126E87900013E024DDFDE43402800D126E87900013E02424FDBE
:204D8000E434011270A3125533900185126E879000131254EC8F4A900013E0126EC5E0FFA9
:204DA0009000E9E0126E8B1254DCC006C007900184E02405F582E43400126EA5D007D00641
:204DC00012713E4003754B649002CEE064016003024E86900014E0FFD39406504E900102AC
:204DE000E07005EF241E8006900014E02410FFE43403FE1255479000141270FB125553123C
:204E00007057F583E0FF9000EAE012717A1255168F49900183127057F583E0FFE5498FF0D7
:204E200084F549D39464405E024E83900102E09001837007126FBE241E8005126FBE2410FD
:204E4000C39FF549FF7E00125547900183126E87900014E0245E12709FFE125553E012702B
:204E600025FF9000EAE0126E8B125516C006C007900182E012705E126EA5D007D006127078
:204E80007840037549649001C1E07003024F23D259E4F550F551C3E5519405E55064809443
:204EA000805017749F2551F58274013550F583E064037021B259A2598015745C2551F58269
:204EC00074013550F583E0B4110BB259A259E433244EF8A6510551E551700205506407452F
:204EE0005070B37498254E126F32701B7498254F126F327007854555AB498005854A55AB71
:204F00004BAD45AF4980197498254F126F327007854555AB498005854A55AB4BAD4AAF4B76
:204F2000129427E4F545126F2EB40309126F22746B4018800F126F2EB40418127104C39F46
:204F4000746B5007126FE7E4F08011126FE77401F08009126F2EFF126FE5EFF0126FE5E0BF
:204F600025E0242AF582E43401F583E0FEA3E0FFAD4512C344925D7B017A017913AD4512F5
:204F8000BC090545E545C39405409B204B09900113A3E0F5208042E4F54C749F254CF5820F
:204FA000E43401F583E0B40127126F8F74017E00A84C088005C333CE33CED8F9FF900113E7
:204FC000E05EFEA3E05F4E24FF925AAD4C12C1C6054CE54CC3940340C1D259E4F54DE54D64
:204FE000C39405501E749F254DF582E43401F583E06403702F126F80B40104D25A8020C22C
:205000005A801C745C254DF582E43401F583E064117011126F80B40104D25A8002C25AAD49
:205020004D12C1C6054DE54DC3940740B1E4F54512555FBF0309126F22749D4018800F125B
:20504000555FBF0416127104C39F749D50071270CFE4F080061270CF7401F00545E545C3DA
:20506000940240CCE51224FA607624066003025155786E743226F618E436F6081270834051
:2050800004E4F608F6787074CE26F61874FF36F6C3E664809480500576030876E8786DE697
:2050A000FE08E6FF7C007D041227D58F45AD457F0A7E00122E727F0A7E00122E2CEF65456F
:2050C00070030253CD7BFF7A37798E7F81122EE07BFF7A3779967FC1122EE512379F80E5FD
:2050E000900154E0640170377876E624C0FF18E634FEFE7C007D0512276E7D091227D512AF
:205100006EFFFFEC3ECF24C0CF34FEFE7D0512276E7D09122780786FA60608A6078011788E
:2051200075E6FE08E6FF126EFF7870F6EC3E18F6786E127083400576030876E8D3787012B8
:205140007084400576030876E85320F8A247723D92000253CD900012E0FFD394065025908D
:205160000102E07016EF2439FFE43401FE122E2C8F46E545C4540FF5458052900012E01232
:2051800071218040900102E07022E545C4540FF545126E84900012E0243912709FFE900299
:2051A00099F0A3EFF0122E2C8F468021126E84900012E0242BFDE43401CDC39FF551ED9E17
:2051C000F550AF51FE122E2C8F4653450F900185126E87900013E0FD2432FBE43401CBC30F
:2051E0009FF551EB9EF550EDD39406501B900102E09000137009E024E4FFE434028031E016
:205200002432FFE434018028900102E0900185700F126E87900013E024E4FDE43402800D3A
:20522000126E87900013E02432FDE434011270A3FE122E2C8F47900014E0FFD394065018BB
:20524000900102E07005EF24178006900014E02404FFE43403FE801C900102E09002CA7017
:2052600007126FBE24178005126FBE2404C39FF549FF7E00122E2C8F487B007A007946AFFE
:2052800045126A6E7D0512C30C501E7F1B1255407F00FEC006C0077F1A125540FDD0E02DA9
:2052A000786EF6D0E0340018F67D0612C30C50247F197E03122E2CEF7F00FEC006C0077F4B
:2052C000187E03122E2CEFFDD0E02D7870F6D0E0340018F6204B030253CD90019DE0FF246F
:2052E00046F8E6FEC4540314700302538D14600D1460512403600302539302538474F12FE3
:20530000F582E43400126E30D39E401190019D126FA3F583E0FD126E34C39D801590019D0E
:20532000126E27C39E501B12718E126E37FFC374329FFFE49400FEEF25E0FFEE33900235DB
:20534000801A804090019D126FA3126E30D39E401112718E126E37FF900235E4F0A3EFF04B
:20536000803190019D126E27C39E501812718E126E37FFC374649F900236F0E4940090021B
:2053800035F0800FE4900235F0A3F080061271957464F07D0712719C500A900076E0FF12D1
:2053A0007195EFF09002351270F49405EE648094805009E4900235F0A3F08011D3EF945F7F
:2053C000EE6480948040061271957464F0E4F54C7F177E03122E2C8F4CE4F54DAD4D12719B
:2053E0009C50131B7A00794CAD4D12C312925A7A00792002547D126EE3B40103303D2012E7
:205400006EE3B4020A900029E07002A3E06010126EE3B4031190002BE07002A3E070071239
:205420006F8FC25A8057126EE3B404179001C1E07011900073E064017048FB7A007920D2B6
:205440005A803A126EE36405701E9001C1E07018FB7A007920AD4D12C312E433FF9000731C
:20546000E05F24FF925A8015126EE3B406149001C1E0B4020D30180A126F8FC25AAD4D1299
:20548000C1C6054DE54DC3940550030253DCD259E4F54D74C2254DF582E43401F583E064DC
:2054A000027014900128126F8EB40104D25A8002C25AAD4D12C1C6054DE54DC3940540D395
:2054C00022FFE0FDC3EF9DFFE49400FEE4FCFD755D64F55CF55BF55A12C32822E4FCFD7596
:2054E0005D64F55CF55BF55A12C32822E0245EFDE43401CDC39FFFED9EFE122E2C22E0241B
:205500005EFFE43401FE122E2C22E54524B5FFE433FE122E2C22E4FCFD755D64F55CF55B30
:20552000F55A12C32822FE122E2C90012AE4F0A3EFF022FE122E2C90012CE4F0A3EFF022C1
:205540007E03122E2CEF22122E2C90012EE4F0A3EFF022122E2C900298EFF090001422E58A
:205560004524B7FFE433FE122E2C229001EC7415F0A3F0C3E5169484E51564809480229066
:205580000294E0900098FD75F00A842430F0ED75F00A84E5F02430A3F02278777C00E6FE2C
:2055A00008E6FF0227D5A3F0E54125E024F4F582E43400F58322900164E0FF7E007C007DB6
:2055C0000A12276EC37878E69FEE6480F5F018E6648095F022EF2430F07C007D64AF03AEB2
:2055E000021227807F0A7E00CFCDCFCECCCE22E51625E0FFE51533FE900154E0900750FD21
:2056000075F044122A6BED2583F583E5822FF582E5833EF583E493227D0AE6FE08E6FF7C95
:20562000000227D5FF75F044122A6BEF2583F583E4D393FF08E69F7480F5F0186695F0223A
:2056400090029EE0FEA3E0FF7C007D0A12278090029EEEF0A3EFF07C007D0A12276E900232
:205660009EEEF0A3EFF090029EE0FCA3E0FDEC900299F0ED90029BF0E0FD22A3F0A37430B6
:20568000F0A3F0E4A3F07B017A00799622AE47AF487C007D0A1227D5EF2430A3F0AE47AF72
:2056A000487C007D0A0227D59000967420F0A3F0A37432F0A37430F0E55F75F00A84243069
:2056C000A3F02290029EE0FEA3E0FF7D0912276E7D05122780EF2440FFEE3401FE90029E7A
:2056E000F0A3EFF022900015E0FFEB25E025E024D6F582E43402F58322FEE07C002400FFFB
:20570000EC3EFE90005DF0A3EFF074732AF582E43400F58322900163E024FF7D0AFFE43433
:20572000FFFE7C0002276E90029FE024C0FF90029EE034FEFE7C007D0512276E7D091227C1
:2057400080EEF0A3EFF0227409F0A304F0A304F0A304F0A304F0A304F02274392DF582E490
:205760003401F583227C007D0AE0FAA3E0FBFFAE02022780900166E0FFC3940322E0FF7EF8
:20578000007C0002276E7877E6FE08E6FF2290029CE0FEA3E0FF22E0FF7877760008A6076B
:2057A00022E516645E451522C3E49FFFE49EFEC3EF787896FFEE189622E5F0F0AE57AF5803
:2057C0007C007D3C022780EF2430F0AF037C007D64AE020227D5E54775F00AA424CBF58256
:2057E000E43404F583E493FDE54775F00AA422E0FEA3E0FF7C007D0A122780ED243022744D
:20580000D72DF582E43401F583E024C8F582E43401F583E022EB25E025E024D5F582E43429
:2058200002F583227B017A007916C25D229000967420F022C37875E664809480E0FEA3E04B
:20584000FF2290029CE475F00102280B7464F0A3F0A3F0A3F022C23D530EFEAD0E7F097EB8
:2058600000229002C1E546C31375F002022A6BEF25E025E024D3F582E43402F58322EF2585
:20588000E025E024D4F582E43402F58322F0900181E0900024F022900102E0FD900181F0E6
:2058A0007F9B7E002290009675F00A842430F022FF75F044122A6BEF2583F583E422FF7DCF
:2058C000147E007C0002276E900097F0A37465F0A3227C037DE8E0FEA3E0FF0227D5D3784E
:2058E00078E6940418E6648094802274E62516F58274003515F583227C007D021227D5ED40
:205900004C22C37878E69FFF18E69E2290028EE024FFFFE434FFFE229002A2F075F03CE026
:20592000FF8424FF925AEF22900164E02401FFE433FE227C007D0A02276EE516247CF56802
:205940007878E6F56718E6FC08E6FDAF68227C00AF03AE020227D5E4900102F0C247900219
:205960008CF0A3F0229001ABE0787826F618E436F6227869E6FE08E6FFE4FD22900127E037
:20598000FE90013DE024002290020E742FF0E4FD7F1B2290020F7430F0E4FD7F1C229002E0
:2059A000107431F0E4FD7F1D22E075F00AA4FFC37878E69F2290029E7403F0A374E7F022B0
:2059C0007444900096F090029422E51625E0FFE51533FE900154E022900097F0A37475F00D
:2059E000A322122780EF243022E0FAA3E0FB7C037DE82274109001FAF0E4FD7F0722E516E3
:205A000064724515229001EAF0A304F09001E9F09001E814227877E6FFEF900180F008E667
:205A200090017FF022E490029CF0A3F02274472CF8E6FE22E4900181F0FD7F9BFE22D23D7C
:205A4000430E019001027404F02208A646D3E54694E7E5456480948322AF010974A42FF52E
:205A600082E43401F583E0227401F0EA25E02435F582E4340122744D900097F0A374612240
:205A800090017CE0FF7E0090017BE0240822787874F626F61874FF36F608E622C37875E68F
:205AA00064809480E0FEA3E0FF22900298E075F0A2900A36022A6B90029CE0FAA3E0FB224C
:205AC000D3900064E09458900063E0940222F583E0FEA3E022E52F75F002A42274D72DF5FF
:205AE00082E43401F583E0FF22EF2430900096221227D5EF243022E0FEA3E0FFC3229000BF
:205B0000977420F022900160E0640222E5166494451522E5166464451522E5166477451511
:205B20002234ECFE7B017A0279992290008AE06480948022E004F0E0C39406227877A60617
:205B400008A60722E47FE77E03FDFCD30229B17878E6900102F0227878E664011846229035
:205B6000015FE0FF6403227878E6FF74DB2516F8A607227878E6FF74D42516F8A6072274A4
:205B8000912CF582E43401F583E022900012E0FF640222900012E0FF640322EA25E024A672
:205BA000F582E4340022A3F0A37452F0A37420F022F0A3EFF0C39464EE940022EB9FEE6452
:205BC00080F8EA64809822530EFEC23DAD0E7F09FE22C2A7C2A6C293C290C29122900291F4
:205BE000E09F900290E09E22E0FE9000ECE0FDEE6D229000987420F022900096742DF0909B
:205C0000028E2290017EE0FE90017DE02290015FE0640322E47B0AFAF9F80235D075150196
:205C200075167022E5166496451522E5166497451522E5166463451522E5166482451522C9
:205C4000E516646C451522E5166493451522E5166484451522E5166483451522E5166487EC
:205C6000451522E5166486451522E516646B451522E516645F451522FFE43515FE7878E6C6
:205C8000FD227D017F9B7E0022D394E8EE940322C39408EE940022C3EB9401EA648094818E
:205CA00022FF9002A5EEF0A3EFF022AB57AA58A959022821EF2430A3F0AE47AF48227F5CFA
:205CC0007E00122E2C8F447F5B7E00122E2C8F45125B247F007EEC1236557F011261BD9018
:205CE0000299E0B45509A3E0B4AA04C2358002D2357F057E00122E2CBF010C7F047E001265
:205D00002E2CEF64A96004C2598002D259301920E4900298F0900154F0FD7F6EFE122E722B
:205D20009001507401F0FD7F6A7E00122E728008900154E0900298F0900298E0D3940140EE
:205D400002E4F07F701261BD900298E0FF90029AE06F60057455F08005E490029AF02027E0
:205D600009201906305903025F5790029CE4F0A3745FF012578EC39401EE94014003025FB9
:205D800057305924EF646A4E7003025F51EF64944E7003025F51EF646E4E7003025F51EF52
:205DA00064DA4E7003025F51EF647B4E6006EF647C4E70239000A0E0701D12578EE4FD1279
:205DC0002E7290029CE0FEA3E024E6F58274003EF583E4F0025F5130352612578E125AAACB
:205DE00012560BFD122E7212578E125AAA12560BFD74E62FF58274003EF583EDF0025F514B
:205E000090029DE02402FF90029CE0125B2112365590029AE064556003025F2F125AB764D6
:205E2000774A7003025F1CEB647D4A7003025F1C125AB7647E4A7003025F1CEB6458700352
:205E4000EA640270457B017A02799B7F597EEE123655900299E0FE90029BE07C002400FF9B
:205E6000EC3E1256DD900298E0B4010D1256C3125C8940081259B580031257271256409012
:205E8000013DF07F577E02025EF990029CE07004A3E06496702D7F9712616C1256DD9002BD
:205EA00098E0B4010D1256C3125C8940081259B5800312572712564090017BF07F957E00D5
:205EC000025EF990029CE07004A3E06498702F7F9912616C1256DD900298E0B4010D125659
:205EE000C3125C8940081259B5800312572712564090017DF07F977E00122E728031125A64
:205F0000B764724A70028014EB64744A7002800C90029CE07004A3E064C67013900299E0DC
:205F2000FF900298E024FF925A12C144A3EFF012578E900299E0FD122E72900299E0FF9065
:205F4000029CE0FCA3E024E6F58274003CF583EFF0125842025D73302722125A2512578E3D
:205F6000125C90500512613A80F312379F1260F112618812BDDB12379F12BA6330590620F8
:205F800019030260993035753019727F5D1261C97F5E1261AC7F571261C97F581261D17D97
:205FA000F47F5B7E00122E727F5C1261AC7DF47F597E00122E727F5A1261D1125A25125759
:205FC0008E125C905031EF25E0FFEE33FEEF2447FFE43EFE7DF4122E7290029DE025E0FFF3
:205FE00090029CE033FEEF2448FFE43EFE7D01122E7212584280C71260F10260472035471D
:20600000301944125A2512578EC39418EE94005026EF245BFFEE125B2112365590029DE06F
:206020002459FF90029CE03400FE900299E0FD122E7212584280CF125A2512578E125C9069
:20604000500512613A80F37D017F097E00122E7212379F12618812379F12BA6312BDDBC22F
:2060600019304335E4FD7F157E03122E72E4FDFFFE122E727F011261B47F02FE122E72E46B
:20608000FD7F03FE122E727DFE1261E17F071261B47F08FE122E72C2437B017A0179347FF6
:2060A000067EEF123655900134E0FFF46003EF702E1261D9EF60061261D9BFFF16900134C2
:2060C00074FEF0E0FD1261E17D067CEFE4FF123614800C7F067E00122E2C900134EFF0ADB4
:2060E000447F5C7E00122E72AD457F5B7E00022E727D707F137E00122E727D307F147E00F8
:20610000122E727D6D7F157E00122E727D707F167E00122E727D707F177E00122E727D300D
:206120007F187E00122E727D6D7F197E00122E727D707F1A7E00122E7222EF2415FFEE34C5
:20614000ECFE7B017A02799912365590029DE02413FF90029CE03400FE900299E0FD122EE1
:206160007290029CE475F00112280B227B017A02799B7EEC123655900299E0FE90029BE0A5
:206180007C002400FFEC3E227F6A7E00122E2C900299EFF0E0FF129BE212379F12BF64129A
:2061A000379F12B68712379F12B2B5227D017E00122E7222E4FDFE122E72E4FD227B017ADD
:2061C00002799A7EEC123655227DF47E00122E72227D017E00122E72227F067E00122E2C7F
:2061E000227F067E00122E72221259F312376812C3AAC24D125B0C70151257861258F8605A
:206200000302644DD227125CBE12665E80FE125C4770711257861258F8600302644DC2AFE1
:20622000C2A9C2AAF59F7F761237017FE87E0312C3C37D007CEC7F551236147D017CEC7FBA
:20624000AA123614E490028EF0A3F090028E125AF79465EE94015020122E2C787EEFF6906B
:20626000028FE02402FD90028EE034ECFC12361490028E12584580D312379FD2A9D2AAD23F
:20628000AF02644D125B13700B90014A7F6412663A02644D1257A1600302637E302B0302CE
:2062A000637E900145E0702A90002F12583450051257A880031259029002588FF012280B4C
:2062C0009002587F5D126617900258E0FD7F5E02633B900145E064017031900147E0640449
:2062E000602990002912583450051257A880031259029002528FF012280B9002527F5712F4
:206300006617900252E0FD7F588030900145E06402702C90002D125A9C50051257A8800352
:206320001259029002568FF012280B900256A37F5B12663A900256E0FD7F5C7E00803690C9
:206340000145E064047031900031125A9C50051257A8800312590290025A8FF012280B90AF
:20636000025AA3E0FD7FD17E02122E7290025AE0FD7FD27E02122E72122EA902644D12576E
:20638000A1704F302B4C7878E6FD7F067E00122E727878E6900134F07F77123701E4787DCA
:2063A000F6787DE6FFD3940F501C7E00122E2C900290EFF0787DE62400FDE434EEFC1236FA
:2063C00014787D0680DB7D107CEEE4FF12361402644D125C396076125C55701612578612A3
:2063E00058F860091266207401F002644D126642805B125573400CD3E51694851255785063
:20640000028014C3E5169488125578401BD3E516948A12557850117878E6FF122F08AD07D4
:20642000C3748C9516FF8022125C5C700D7878E6FF122F08AD077F068010125C63700E7858
:2064400078E6FF122F08AD077F05122F0DC3E516948B1255784014D3E516948E12557850E1
:206460000AE51624C3125C78122E72C3E516948F1255784014D3E5169492125578500AE572
:206480001624C7125C7802660F1259FE701C1257861259337877A60608A60718E6FF339507
:2064A000E008E6FD12A9500266121258EBE0787866700218E670030266127878E6FF125865
:2064C000EBEFF0E6FDAF16AE15122E72E516646A4515703E9001C0E0787DF6E412662D90CF
:2064E00001C0740112662D787DE69001C0F0900150E0B403089001C07401F08005E4900175
:20650000C0F0900150E07005D227125CBE12665E80FEE516646E451570031271A5E51664FB
:206520007945157008122F121236B880FEE516647A4515701B900102F0125BC7122E72C256
:2065400047E490028CF0A312588D125A34122E72125C7170139000627405F0900145E0B4EF
:2065600001069001CB126652125C6A70347878E664041846700B9001CBE0640160031266DF
:20658000527878E66405184670179001CCE06401600F7401F0900148E0FD7FE67E00122E36
:2065A00072E516646545157008122F121236B880FE125C5570131257861258F8600812668B
:2065C000207401F08003126642125C406008E516646D4515703C125C40701B90015212598A
:2065E000A9E5F01255CA402A125618EF04F0E0FD7F6C7E0080199001531259A9E5F012550C
:20660000CA400F125618EF04F0E0FD7F6D7E00122E72D250C22422A3E0FD7E00122E722209
:206620007D017F837E00122E729000EE22F07878E6FDAF16AE15122E7222E0FD7E00122E50
:2066400072227D027F837E00122E729000EE7402F0227401F0FD7FE57E00122E7222122F96
:20666000121236B822E4FD7F051237687F537E02122E2C90009FEFF07F547E02122E2C90B5
:2066800000A4EFF07F557E02122E2C9000A2EFF07F567E02122E2C9000AAEFF0787C06E6EC
:2066A000D394014005E4F612379F787CE6B40106127D8012379FE51260030267E9786DE668
:2066C000FE08E6FFC394C8EE6480948050057520018033C3EF9490EE648094815005752085
:2066E000028023C3EF9458EE6480948250057520048013C3EF9420EE6480948350057520B5
:20670000088003752010A208300001B340089001127401F0803EA209300101B34008900144
:20672000127402F0802EA20A300201B340089001127403F0801EA20B300301B34008900144
:20674000127404F0800EA20C300401B340069001127405F09000A0E070030268F2787CE690
:20676000702512832CC006C007786D12830ED007D006126A3D400312834BC3900037E06457
:2067800080948050478041787CE66401703E12832CC006C007786F12830ED007D00612C3C6
:2067A00028E47B64FAF9F81235D0900039EEF0A3EFF01283C6400690003912834EC3900023
:2067C00039E0648094805004E4F0A3F0304D0E12832C128466126A3D400312834B128254E1
:2067E000126A5A12379F0268F2754101126A63940640F912379F1284016003B4110A7541AF
:2068000006126A63940840F99000A0E070030268F2128401FF70030268F264117003026828
:20682000F212379F12832CC006C007787CE625E0246DF812830ED007D006126A101283C295
:206840004007ED12825712834EED128257E0FEC3EE648094805008ED128257E4F0A3F090B0
:2068600001A9E0FFB4020A900029E07002A3E0600EEFB4030C90002BE07002A3E07002809F
:206880004C9001A9E0B40412900073E0B4010B9001C1E07005787CE6802B9001A9E0640576
:2068A00070329001C1E0702C787CE6FF128257E0FCA3E0C394FFEC648094834010900073B5
:2068C000E0B40109EF12825712834E8007128254E4F0A3F0304D1512832C128466126A10AC
:2068E0001283C24007ED12825712834E128254126A5A900112E070030269FB900276E0FF3E
:2069000064046009EF640C6004EFB4060F9001A2E064016007E4FD7F15123768900112E0A3
